:1087340010C4EA611A03530069006C006900630005
:108744006F006E0020004C00610062007300100393
:1087540055005300420020004100500049000A0324
:0C87640031003200330034000F800100AF
:108E4500420D82013B410D7502420D760000420D37
:0C8E5500720000420D800000410D8400FE
:105E0C00F0E4A3F090049C1234E3900D4AEFF09070
:105E1C00049C1234E378081234BD900D4BEFF090D3
:105E2C00049C1234E378101234BD900D4CEFF090BA
:105E3C00049C0234E3784A7C0D7A0579107D017B51
:105E4C00010232347E007F1D7D007B017A0D794783
:105E5C0022900D70E025E024B8F582E43408F58337
:105E6C00E0FEA3E022900D78E4FBFA7902F81234FC
:105E7C00E30233F712348990052812350B9005286C
:105E8C000234FFE0AB29AA2AA92B9000010232B2FE
:105E9C00744A252AF582E4340DF583740FF0052A33
:105EAC0022EFF09005280234E378181234BD900DDF
:105EBC004DEFF022784A7C0D7D017B01FE023234DD
:105ECC00E0FFE4FCFDFE22E09000021232B29000F2
:105EDC0003E40232B2E0AB29AA2AA92B22900D4787
:105EEC00F0A37404F0E4A322FEE07C002400FFEC99
:025EFC003E2244
:107F0500128945908734E493FE740193FF90873678
:107F1500E493FC740193FD7BFF7A877952900544C5
:107F250012355D7A87796290054712355D90876CC9
:107F3500E49390054AF090876DE49390054BF0909B
:107F4500876EE493FB74019390054CCBF0A3EBF0A3
:0C7F55007BFF7A8779381256840290AFC7
:03008600028CFCED
:1035B800125E5012358C125E567D1D126DE7900D0D
:1035C80047E0123566360901363202371E0335F2F6
:1035D8000439060538D806389207391D08393F09D5
:1035E800397A0E39850F00003994900D477404F02C
:1035F800A3F0E4A3F07A0579327F04125EC00238A2
:10360800FF900D477401F0A304F0E4A3F09005388F
:10361800E0FCA3E0FD14900D4AF0ED24FFEC34FF2C
:10362800A3F0125E567D05023919900D4BE0900DFE
:103638004A125EF4900D76F0A3EFF0E02401FF90BB
:103648000D76E03400FE126E96752901752A0D7507
:103658002B6C125EE2E41232A09004F8125E8F9096
:1036680004F9125ED3752901752A0D752B7890041B
:10367800F5125EE11232A09004F6125E8F9004F704
:10368800125ED3E4900D74F0FFFEFDFC900D6C12F9
:1036980034FFC31234AC6060900D6C1234E38F3A7F
:1036A8008E398D388C37900D781234E3127EA790BE
:1036B8000D71EFF06042125ECCFBFA7902F812331A
:1036C8006CAB07AA06A905A804900D6C1234E31286
:1036D800335E900D6812350B7B017A0D79688B2962
:1036E8008A2A892B9000011232739004F8F0900016
:1036F800021232739004F9F0900D477402F0A3742B
:1037080020F0E4A3F07A0479F07F20125EC0125E04
:10371800567D23023919752901752A0D752B7C9060
:103728000D4D125EE11232A0900D4C125E8F900D7D
:103738004BE09000021232B2900D4AE09000031262
:1037480032B2900D74E0704004F0E4900D70F0A374
:10375800E06035125E5DF47002EEF4602B125E716B
:10376800A804A905AA06AB07125E5DFFE4FCFDD319
:103778001234AC4013900D70E004F090090EE0FF95
:10378800900D70E0D39F40CB900D71E0700302382C
:013798002709
:10379900E4F52EF52F900D70E0F532125E718E2C46
:1037A9008F2D900D7C125E74C3EF952DFFEE952C35
:1037B900CF2401F531E43FF530C3E52F9531E52EEE
:1037C90095305022E532125E61B52D08EEB52C0414
:1037D90005328008052FE52F7002052E052DE52DF0
:1037E90070D7052C80D3900D7C1234FFC000C00126
:1037F900C002C003900D70E0FFC3E5329FFFE4945F
:1038090000FEE4FCFDFBFA7902F812336CD003D018
:0E38190002D001D000123351900D7C12350BFD
:10382700900D4FE0900D4E125EF4FE900D72F0A3D6
:10383700EFF0D39400EE94024009900D727402F0F9
:10384700A3E4F0900B447403F0900D72E0FCA3E046
:10385700900B45F0ECA3F0900D7C1234E3900D72C1
:10386700E0FBA3E0900577CBF0A3EBF07B017A0BAD
:1038770079471272567B017A0B7944900D73E024D5
:1038870003FD900D72E0340002393B900D4D125E3E
:10389700CC78181234D0125E83C000900D4C125EA3
:1038A700CC78101234D0D000125E80C000900D4B3F
:1038B700125ECC78081234D0D000125E80900D4A88
:1038C700125ECC12348990052812350BD23DD23CBA
:1038D700227406125EE9125EAE900D4A125EAD7852
:1038E700081234BD900D4B125EAD78101234BD90A6
:1038F7000D4C125EAD125EB5125E567D07801390B9
:103907000D477405F0A314125E0C125EB5125E56D5
:103917007D077C00801F7408125EE9F0A3E557F06D
:103927009004CCE0900D4BF0A3E54DF0E4A3F0122A
:103937005E567D07FC025A0C203152900D48E0FF7D
:10394700D3941450488F4FAF4F7E0078107C057A80
:103957000D794A125E49C37414954FFFE49400FE33
:103967007D0F7410254FF9E43405FA7B0112358C6D
:10397700D23122301A17301814E4FF0287ACD284F0
:0D398700D293127D22755701C210127AAA48
:013994002210
:025D18008F29D1
:105D1A00125E5012358CE52924F56048147003028E
:105D2A005DB5147003025DB524036003025E0B20A7
:105D3A000A03025E0B900D47740AF0A37414F0E490
:105D4A00A3F0FE7F14125E41854F2AE52AC39414FC
:105D5A005005125E9C80F4125E567D177C00125A22
:105D6A000CC20A22202006200903025E0B900D476E
:105D7A00740BF0E4A3F0A3F030091B900D487414DF
:105D8A00F07E00FF125E41854F2AE52AC394145023
:105D9A0005125E9C80F4125E56900D48E02403FDC5
:105DAA00E433FC125A0CC220C20922201403302800
:105DBA0050900D47E529F0A37419125E0C125EB5D6
:105DCA009004D2E0900D4EF0784F7C0D7D017B015E
:105DDA007A0579107E007F14123234854F2AE52A1B
:105DEA00C39414500E744F252AF582E4340D125EC2
:105DFA00A580EB125E567D1C7C00125A0CC214C29E
:015E0A00286F
:015E0B002274
:03008B000279CF28
:1079CF00C0E0C0F0C083C082C0D075D000C000C07E
:1079DF0001C002C003C004C005C006C00712928ACE
:1079EF008F1CE51C30E20C9008017401F0900B42E3
:1079FF00E004F0E51C30E1069009217402F0E51C6B
:107A0F0030E7069009217403F0E51C30E606900973
:107A1F00217404F0D007D006D005D004D003D002D3
:0F7A2F00D001D000D0D0D082D083D0F0D0E032C0
:1091C60030372F30382F31330032323A30313A339C
:0291D600310066
:104A9600F517F516F515F514900B40E0FEA3E0FFAB
:104AA6007C007D0A1232E6E4FCFDFBFA7902F8028C
:104AB600336CE4FB7A08F9F81234E31233F7EF2487
:104AC60001FFE43EFEE43DFDE43CFC22E52925E051
:104AD60024B8F582E43408F58322E4FCFDFE900850
:104AE6000912350BE4FFFE7D02FC9008091234FF23
:104AF60002336C900915E4FBFA7902F80234E3906C
:104B060009151234E3C3AB17AA16A915A814023463
:104B1600ACFFEE34FFFEE434FFFDE434FFFCE42298
:104B260012350B9008E1E09008E024FFFFE034FF27
:104B3600FE22FFE4FCFD1234FF023351E0FFA3E046
:104B4600900586CFF0A3EFF0229009151234FF905E
:104B5600091D1234E312335EE4FBFA7902F81233CC
:104B6600F790089CEFF022FEE43515FDE435148F2E
:104B7600178E168D1522AF17AE16AD15AC142293EF
:104B8600FE740193FFEE900538F0A3EFF022123485
:104B9600E3E4FB7A08F9F802336CE5172496FFE59F
:104BA600163415FEE51534FFFDE51434FFFC228F9F
:104BB6001B8E1A8D198C182234EA8F82F583E493A2
:104BC600229004EEE024E2FF9004EDE034FF22ABF5
:104BD60007AA061234E3C3EF9B221234E3900802BD
:104BE60002350BE52925E024B6F582E43408F58381
:104BF6002275F004A42400FFE5F034E8FE22AF2A73
:104C06007E00AC2BAD2C0232D41233F7900B40EE63
:104C1600F0A3EFF0229004EDE0FEA3E0221234FFB1
:104C2600C30234AC9FFFE09E900586F0A3EFF0220E
:104C3600FDEE34FF8D82F583E49322900530E4F097
:104C4600A3745AF0229004ED74ECF0A3E4F02290E1
:104C56000570023554E0FEA3E029F9EA3EFA2290F7
:0B4C66000557023554900565023554D7
:108F8500A2AF924175FEFFC2AF8F828E83758F01AE
:0F8F950075B7A575B7F1EDF0E4F58FA24192AF76
:018FA40022AA
:1089E900A2AF924075FEFFC2AF75FF8075EF028E90
:1089F9003A8F3B75B7A575B7F1438F0375FF80753E
:108A0900EF02853B82853A83E4F0538FFCA24092C2
:048A1900AF75FEFF38
:018A1D002236
:10195B0090EA2BE493F529E529B4FF189005387428
:10196B0001F0A3E4F09008A112351710000000E479
:10197B00FF125C20E4900590F090EA0093F529E5C6
:10198B0029F46006125138021B2E124C4190052887
:10199B00123517FFFFFFFF90049C12351700000054
:1019AB000090049C1234E3128DA5E4900532F0A351
:1019BB00F0A3F0A3F090052CF0A3F0A3F0A3F0900C
:1019CB0008A11235170000000090091512351700F9
:1019DB0000000090091D12351700000000E490086C
:1019EB009CF0FE7F287DFF7B017A0879B812358C3D
:1019FB007F01125B1DE49004EFF0F529124AD2E04F
:101A0B00FEA3E0FFBEFF0BBFFF0890090EE529F018
:101A1B0080070529E529B414E3752B07752CF8907D
:101A2B0008E07408F0A3E4F090090EE0F529E5292D
:101A3B00D39400403A124BE9E0FEA3E0FFC3952C90
:101A4B00EE952B402AEF24F8F52CEE34FFF52B9076
:101A5B0008E0EEF0A3EFF0124BE974FFF0A3F09067
:101A6B0004EF7404F090090EE014F0152980BF9078
:101A7B0008E0E0FEA3E0FF7C007D0A1232E68E2B2D
:101A8B008F2CE4F52990090EE0FFE529C39F400355
:101A9B00021B2BE4F52A124C04124AD2E0FAA3E003
:101AAB00FBB5070BEAB506079004EFE04402F01212
:101ABB004C04EF24FFFFEE34FFFEEBB50712EAB543
:101ACB00060EE52AD3940040079004EFE04402F0A1
:101ADB00052AE52AB40ABFE52925E024BAF582E4F4
:101AEB003408F583E0FEA3E024FFFFEE34FFFE1283
:101AFB004AD2E0FCA3E0B50722ECB5061EE529248B
:101B0B0001FFE433FE90090EE0FDC3EF9D7480F8F6
:101B1B006E9850079004EFE04401F00529021A90EB
:101B2B001289B3E4F52BF52C752A0AE4252AFFE478
:101B3B00124BBEF529F46004E5297046E52A6415BD
:101B4B007038F52B752C01124B29124AAD9008A158
:101B5B00124B26EF24FD124B17124AB090091D129F
:101B6B004B26EF24FA124B17124AB0900915123577
:101B7B000B124AF9124C0F124B4F052AE52A641629
:101B8B0070A9E52C6401452B700312553CC23C90A7
:101B9B00EC00E4124B85F47002EEF4705890E60002
:101BAB00124B85F47002EEF4604B900538E0700236
:101BBB00A3E060417F007EEC1289E9E4F52BF52C64
:101BCB00E4252CFFE52B34E68F82F583740193F526
:101BDB0029E4252CFFE52B34ECFEAD29128F85056E
:101BEB002CE52C7002052BC3E52B940240D27F0011
:101BFB007EE61289E97B017A09792B9005777402CD
:101C0B00F0A3E4F0FFFE7DF27C0F127256900538C4
:101C1B00E0FEA3E0FF64014E7003021CB9EFF47009
:101C2B0002EEF47003021CB9900538A3EF24FE12E8
:101C3B004B177B20FAF9F812336C900915124B3CB9
:101C4B00124BE3900538E0FFA3E0CF124B8C121F31
:101C5B00BF855252855353900538E0FAA3E0FB241D
:101C6B00FFFFEA34FFFEEFB55306EEB55202803E9E
:101C7B00EB24FEFFEA124B197B20FAF9F812336CB6
:101C8B0090091D124B3C124BE3121FBF900539E01C
:101C9B00900538124B30EFB5530FEEB5520B900940
:101CAB001D124BE0900915800E75FEFF80FB90090D
:101CBB0015124BE090091D1234E390092712350BD6
:101CCB00900538E4F0A304F0124C4BF52B752C0166
:101CDB00124C1BF5828E83E493F529F4600C90046F
:101CEB00EDE475F02012333B800C900538E52BF0BA
:101CFB00A3E52CF0800E052CE52C7002052B64114E
:101D0B00452B70CC900538E07004A3E06401700F94
:101D1B00E52C6401452B7007124A96124BB5221223
:101D2B004C1BFF24E0124C36FD740193900538CD0B
:101D3B00F0A3EDF0900538E475F00112333BEF247E
:101D4B00E5FFEE34FFFE128635124B758C14E5144D
:101D5B007517008E168D15F5147B007A00790CE43F
:101D6B001232A0124C1BFF24E8124C3690000112C9
:101D7B0032B2EF24E9FFEE34FF124BC09000021297
:101D8B0032B2900003E41232B2AF0FAE0EAD0DAC17
:101D9B000C7AFF79FF7800D31234AC4003021E603B
:101DAB00124B7C90081F12350BE4F529124B055092
:101DBB000A124B7C1286F58F298003E4F529E5295D
:101DCB006003021E5090081F1234FFC3E5179BFFE0
:101DDB00E5169AFEE51599FDE514988F0F8E0E8D7D
:101DEB000DF50CE4FF7E04FDFCAB0FAA0EA90DA8AC
:101DFB000CD31234ACE4500AF50FF50EF50DF50CBF
:101E0B008019250FFFE50E34FCFEE50D34FFFDE5D3
:101E1B000C34FF8F0F8E0E8D0DF50C9004EEE0241D
:101E2B00E8124BCDFE7B007A00790D753F02128ACA
:101E3B001E124BC7FE124BC0F5295329EFAD2912C9
:101E4B008F85021EDFE42517FFE5163402124B6D5A
:101E5B00F514021DB7124BC7124BC0F529E5172518
:101E6B000FFFE516350EFEE515350DFDE514350CAA
:101E7B00124B75F514E52920E40DE42517FFE51643
:101E8B003404124B6DF514E52920E548E517FFE501
:101E9B0016FEE5155401FDE4FCFBFAF9F8C3123408
:101EAB00AC6031E47902F8124B7C124AC1E4124A5D
:101EBB00B0124B758C14124BA01286F5EF70157B7C
:101ECB00FF7A89793A124BA090056CE4F0A3740564
:101EDB00F0126D37E4F529F52B752C01124B0540EB
:101EEB0014E4F517F516F515F514F51BF51AF51998
:101EFB00F518021F50124A9EA804A905AA06AB07A3
:101F0B00AE2BAF2CE4FCFD12336C124BB5E52C64FD
:101F1B000A452B70099009151234E3124BB5E51BDA
:101F2B0024A0FFE51A3415FEE51934FFFDE518343E
:101F3B00FFFC124B0B4021AF1BAE1AAD19AC18D3E3
:101F4B00124B0C5005752901800E052CE52C7002E7
:101F5B00052B640B452B7084E529640170559009A2
:101F6B00151234E3AB1BAA1AA919A818C31234AC67
:101F7B004011E4F51BF51AF519F518F517F516F5DB
:101F8B0015F514AF1BAE1AAD19AC18753F011278CD
:101F9B00E9124AE0EF251BFFEE351AFEED3519FD70
:101FAB00EC3518FC1286F58F29E5297003028C732A
:031FBB0012920D72
:101FBE00227B007A0079529008021234E390057762
:0A1FCE00E4F0A37402F01272562230
:088DA5008F398E388D378C36B2
:108DAD00E539547FFFE4AD07ED7006FF7EE81289CB
:108DBD00E9ED124BF77B007A007936753F04028A94
:018DCD001E87
:107E4900E4F531F530F52FF52EF535F534F533F543
:107E590032F52DE52D124BF71286358F358E348D7F
:107E6900338C3274FFFFFEFDFCAB35AA34A933A86D
:107E790032C31234AC7009E52D701AFFFEFDFC22E5
:107E890085353185343085332F85322E052DE52D05
:0D7E9900C3948040BEAF31AE30AD2FAC2E93
:017EA60022B9
:107782007D117F03127CC37D1F7F04127CC37D0C9D
:107792007F05127CC37D177F06127CC37D117F0794
:1077A200127CC37D217F08127CC37D0C7F09127C71
:1077B200C37D137F0A127CC37D137F0B127CC3121D
:1077C200836EE4F529F52AAE29AF2A124AAD128A50
:1077D200B9052AE52A70020529C3E529940840E77C
:1077E2007F007EEC1289E97EE81289E97EEA12893D
:0877F200E97EE61289E980FE40
:025C20008F32C1
:105C2200900538E07004A3E064017003025D17E59B
:105C3200326401702A7D107F03127CC37D117F04C0
:105C4200127CC37D137F05127CC37D117F06127CFB
:105C5200C37D187F07127CC37D117F08127CC3E4C9
:105C6200F533F5349008A1124AFC1233F7A804A9BF
:105C720005AA06AB07AE33AF34E4FCFDD31234AC55
:105C82004052AE33AF34124AAD1286F5EF603AAEEF
:105C920033AF34124AAD128AB9E5326401702AC3B5
:105CA200E534947FE49400500575351D8003753505
:105CB2000FAD357F09127CC3AD357F0A127CC3ADAF
:105CC200357F0B127CC312836E0534E534700205F6
:105CD20033025C667F007EEC1289E9E532B4012171
:105CE200E4900537F09004CDF09004E8F09004D0F1
:105CF200F09004C4F09004D1F09004C5F09004CB6D
:105D0200F0900538E4F0A304F0E4124A96124BB581
:055D1200124C4BC230F1
:015D17002269
:10877000124B7C9008A912350B9008A11234E31219
:108780004B758C147B007A007929900586E4F0A360
:1087900004F0126C86E529F46006124B7C128AB94B
:0B87A0009008A91234E3124B758C14F2
:0187AB0022AB
:10553C007F007EEA1289E97B017A057932753F0496
:10554C00128A1E7B017A05792C753F047F047EEA52
:10555C00128A1EAD557F087EEA128F85AD500F1250
:10556C008F857B017A097915753F040F128A1E7B92
:10557C00017A09791D753F047F0E7EEA128A1E7B23
:10558C00017A0879A1753F047F127EEA128A1E7B8C
:10559C00017A057928753F047F167EEA128A1E90DF
:1055AC00090FE0FD7F207EEA128F85900913E0FD44
:1055BC007F24128F8590091412565A9008FD1256AA
:1055CC005A9008E21256619008061256619004A295
:1055DC001256769004D312567690059012567D9002
:1055EC00053012567D900530A3E0FD0F128F85908B
:1055FC0004EFE0FD7F2F128F85E4F9E975F002A42A
:10560C002430FBE5F034EAFAE9124AD4E0FDAF03AA
:10561C00AE02128F85E975F002A42431FFE5F03457
:10562C00EAFEE9124AD4A3E0FD128F8509E9B4140D
:10563C00CAE4F9E924E09091C6125668B408F4E47F
:0D564C00F9E924F09091CF125668B408F4EB
:1056590022E0FD0F128F8522E0FD0F128F8522FFB8
:10566900E434EBFEE993FD128F8509E922E0FD0F91
:0B567900128F8522E0FD0F128F8522AA
:1051380075FEFF90EA00E493900532F090EA01E4EE
:1051480093900533F090EA02E493900534F090EAE6
:1051580003E493900535F090EA04E49390052CF06D
:1051680090EA05E49390052DF090EA06E493900503
:105178002EF090EA07E49390052FF090EA08E49364
:10518800F555A3E493F5507F0A7EEA128635900917
:105198001512350B7F0E7EEA12863590091D1235E1
:1051A8000B7F127EEA1286359008A112350B7F1606
:1051B8007EEA12863590052812350B124B4F90EA7D
:1051C80020E49390090FF090EA24E493900913F0F7
:1051D80090EA25E493900914F090EA26E493900865
:1051E800FDF090EA27E4939008E2F090EA28E4932F
:1051F800900806F090EA29E4939004A2F090EA2A35
:10520800E4939004D3F090EA2CE493FE740193FFA6
:10521800900530EEF0A3EFF0D3945AEE94004003DB
:10522800124C4190EA2FE4939004EFF0E4FDED7501
:10523800F002A42430FFE5F0124BBEFE740193FF88
:10524800ED124AD4EEF0A3EFF00DEDB414E0E4FD56
:10525800ED124AD4E0FEA3E0FFBEFF0ABFFF0790AD
:10526800090EEDF080050DEDB414E5E4FBFA7902C2
:10527800F89008A11234E31233F7EF2401FFE43E5B
:105288009008E0F0A3EFF0124AF9124C0F127E4991
:0652980090049C02350B9E
:0C72560090057012355D90057312350B29
:10726200900573124AB890057912350B9005791280
:107272004B9490057912350B900577E0FEA3E090D0
:107282000573124B38900579124C235047900573C1
:107292001234E3900579124BD5FFEE9A90057DF0FA
:1072A200A3EFF0124C5590057D124B4290057312DC
:1072B20034E3126C86124C5590057D124C5B90059E
:1072C2007DA3E0FFC3900578E0900577124C2A90E9
:1072D2000579800C124C55900577124B429005733C
:0672E2001234E3126C8679
:0172E8002283
:0C69AF0090055712355D90055A12350B0B
:1069BB0090055A124AB890056012350B900560127B
:1069CB004B9490056012350B90055EE0FEA3E090B2
:1069DB00055A124B38900560124C2390055A5058AB
:1069EB001234E3900560124BD5FFEE9A900564F0DC
:1069FB00A3EFF0124C65900564124B4290055A12AE
:106A0B0034E3126C86900560126A60124AE09005BE
:106A1B0060124B3CC006C007124C65900564124CCB
:106A2B005B900564A3E0FFC390055FE090055E12E9
:106A3B004C2AD007D0068019126A60124AE09005E2
:106A4B005A124B3CC007124C6590055E124B42D05C
:046A5B0007126C862C
:0B6A5F00221234E3753F011278E92297
:0C6D370090056512355D90056812350B63
:106D4300E4FB7A08F9F8900568124ABE90056E12C2
:106D5300350B90056E124B9490056E12350B900512
:106D63006CE0FEA3E0FFE4FCFD900568124B3C9051
:106D7300056E124C2350519005681234E3AB07AAF9
:106D83000690056E124BD9F537EE9AF536900568E5
:106D93001234E3124C6B900579E536F0A3E537F036
:106DA300126F42124C6BE92537F9EA3536FA900532
:106DB3006CE0FEA3E0C39537FFEE9536900579F0BE
:106DC300A3EFF090056E8015124C6B90056CE0FFFD
:106DD300A3E0900579CFF0A3EFF09005681234E3B8
:036DE300126F42EA
:016DE600228A
:10890C008780848881858982868A838B5F503D79B4
:10891C00726B6F517F7B0C48776E0F007C2F270E8C
:10892C00576C376B2E5E4C7A20087F076400030768
:09893C000F080C0E0F0103070FD8
:10111A0090054F1234FF9005601234E312335EE4F7
:10112A00FBFA7902F81233F7900557A804A905AA21
:10113A0006AB07E0FEA3E0FFE4FCFD22900557E4BE
:10114A0075F00102333B900B40E0FEA3E0FF7C0008
:10115A007D0A1232E67902E4FCFDFBFAF802336CEE
:10116A00D283C28325E0FFA282E4334FD283C283B3
:10117A0025E0FFA282E4334FD283C28325E0FFA297
:10118A0082E4334FD283C28322E4FCFDFE90080935
:10119A0012350BE4FFFE7D02FC9008091234FF02AF
:1011AA00336CE4FB7A02F9F812336C9008021234B9
:1011BA00FF023351900557E0FEA3E0FF2400FDEE45
:1011CA0034EC8D82F583E493FD22E42DFFEC34ECBC
:1011DA00FE742B2DF58274093CF583E0222400FF6E
:1011EA00EE34ECFE7C00EF2DFFEC3E8F82F583E4BB
:1011FA0093FB900541E0FEA3E078052290080212D5
:10120A0034E390081F12350B9009271234E3900833
:10121A000212350B90081F1234E390092712350B7E
:10122A0090092722E4FBFA7902F89008E51234E3E0
:10123A001233F7900548EEF0A3EFF09008E5123468
:10124A00E3ED5401FDE4FCFBFAF9F8C30234AC7493
:10125A00FF7F00FEFDFCAB31AA30A92FA82EC302E6
:10126A0034ACE5132402FFE43512FEE43511FDE443
:10127A003510FCE47B14FAF9F812336CAB0FAA0EA2
:10128A00A90DA80CC30234AC9005777402F0A3E44C
:10129A00F07B017A09792B22FCC3AB17AA16A91590
:1012AA00A8140234AC2DFFEE3CFE742B2FF5827489
:1012BA00093EF583EBF0900546E004F0229004EE37
:1012CA00E0240AFF9004EDE03400FE22C283A20368
:1012DA009282D283C283A2029282D283C283A20161
:1012EA009282D283C28322FFE50A34FFFEE50934E3
:1012FA00FFFDE50834FF8F0B8E0A8D09F50822FCE5
:10130A00C3AB0BAA0AA909A8080234AC1234E3EF4A
:10131A002401FFE43EFEE43DFDE43CFC22FEED7ABE
:10132A00002FFFEA3E8F82F583E493FF75F020ECED
:10133A00A42DF582E435F0F583E582242BF582E5C8
:10134A00833409F583EFF090055DE004F022FE7422
:10135A00A32FF582E43404F58322F0900912E025E4
:10136A00E025E0FF9008E4E0C454F04F900904F04F
:10137A00900913E075F008A490090CF0900914E0A4
:10138A0075F008A490090DF022900919E47B14FA6B
:10139A00F9F81234E30233F7FCEF24FFFFEE34FFCF
:1013AA00FEED34FFFDEC34FFFCE4FBFA7902F8228F
:1013BA00900557FFE0FCA3E0FDC39FEC9E22900836
:1013CA009CE0FFE4FCFDFEFB7A10F9F812336CE4B2
:1013DA007B10FAF9F81285F1EF2401FBE43EFAE4F6
:1013EA003DF9E43CF89005572290054AE0FCA3E059
:1013FA00FDA3E0FEA3E0FFC322900539E024FEFF2F
:10140A00EF540F2401FFE433FEC3900542E09F909E
:10141A000541E022EFFD7C002400FFEC34EC8F82D2
:10142A00F583E493FB7E00900544E0540F7805228F
:10143A003EF583E0FFE4FCFDFE1234898F318E30E5
:10144A008D2F8C2E22A3E0FD12922F7F0A7E00128E
:10145A008D2EA3E0FD229008A11234E3EF24D0FFE1
:10146A00EE34FBFEED3401FDE43C222517FFE516C0
:10147A003402FEE43515FDE43514FC90081F1234DD
:10148A00FF12335EAB2CAA2BA92AA829C30234ACBB
:10149A0090055CE0252DFFE433FEEF7805229005E8
:1014AA0039E024FEFF900538E034FFC4F854F0C850
:1014BA0068FEEFC4540F482278081234D0A804A951
:1014CA0005AA06AB0722C3AB1BAA1AA919A81802B8
:1014DA0034AC7902FBFAF802336C90081F1234E339
:1014EA008F0B8E0A8D098C08E4751301F512F5111C
:1014FA00F51022FDFB7A02F9F802336CED25E0249F
:10150A00B8F582E43408F583E0FAA3E022E4FEFDAC
:10151A00FCAB13AA12A911A810C30234ACC2837F70
:10152A00047E00028FF0900807E0FFA3E090089F76
:10153A00CFF0A3EFF022900B40E0FEA3E0FF7C0087
:10154A007D0A0232E69009151234E38F1B8E1A8D3A
:10155A00198C1822FE742C2DF58274093CF583E04F
:10156A00FDED22E4900557F0A3F022E47B32FAF96C
:10157A00F8AF13AE12AD11AC100233F77B017A0546
:10158A00793DAF0BAE0AAD09AC08221234E38F17CE
:10159A008E168D1522FFE53AFDC374049DFDE49471
:1015AA0000FC740E2DF58274083CF583E0228F133B
:1015BA008E128D11F51022AF17AE16AD15AC14228E
:1015CA00900539E024FFFF900538E034FF221289A4
:1015DA007DE50B250FFFE50A350EFEE509350DFD04
:1015EA00E508350CFC22E4F51BF51AF519F518F592
:1015FA0017F516F515F51422FEFDFC9008091234AC
:10160A00FFC30234ACFFE4350AFEE43509FDE435D4
:10161A00082290081F1234E3EF250FFFEE350EFE65
:10162A00ED350DFDEC350C22FF7E00EF540F7805E9
:10163A002225E0FF24A2F582E43404F58322E5386A
:10164A002496FFE5373415FEE53634FFFDE53534DB
:10165A00FFFC22E52D75F020A4FFE5F0900559F076
:10166A00A3EFF022FA7B10F9F80233F7900539E07C
:10167A009FFF900538E09E229009150234E39008F6
:10168A001F1234E3AB0BAA0AA909A808D30234AC87
:10169A00FFE0FAA3E0FB242BF58274093AF583EF05
:1016AA00F022E4FCFDFE90080902350B35F0A80192
:1016BA00FC7D017B017A0879147E007F0A22EF24DF
:1016CA00FFFFEE34FF22900559E0FCA3E0FD242B36
:1016DA002290053874FFF5F002333B900543E0C4CD
:1016EA00F854F0C868FEA3E0C4540F4822EF251B43
:1016FA00FFEE351AFEED3519FDEC3518FC22C31341
:10170A00F582758300023273900807E0FFA3E09028
:10171A0008A5CFF0A3EFF02274102538F582E4343F
:10172A0005F5832274112538F582E43405F5832200
:10173A00C3900541E0940222900548E0FFA3E0909F
:10174A00054CCFF0A3EFF022C43354E0FF90080019
:10175A00E04F900905F022E55054F0FF131313549B
:10176A001F900908F022D23790089E74FFF022E0F9
:10177A009000021232B2900003E40232B274FF7592
:10178A00F0E09004ED02333B74089008FFF09009F2
:10179A000122758A10758CAAD28C22AF1BAE1AADA3
:1017AA0019AC1822E0FEA3E0FF900807E0FCA3E0D2
:1017BA00FD22E09000010232B2FC7B007A00790C33
:1017CA00E4F0A37404F022F0A3F0E53990893A9387
:1017DA002290055AE02400FF900559E034EC22FFDC
:1017EA00900565023554C4F8540FC868FFEEC45416
:1017FA00F048FE2274EE9004EDF0A3E4F022900586
:10180A0046E0FDC394202290054AEEF0A3EFF022B1
:10181A0075D4FF75D5C075D6FF75DFC022FFE435D4
:10182A0012FEE43511FDE43510229004A1E06402B1
:10183A0022E53904FF127CC3053922742B2FF58265
:10184A0074093EF583EDF02290056C7402F0A3E46E
:10185A00F0222DFFEE3CFE740B2FF5827409221B39
:10186A00C3EB64809480221AC3EA648094802212B3
:10187A00336C8F2C8E2B8D2A8C29229004A1F0FD9B
:10188A007FFF12922FE42275F00DA4FFAEF0227EA4
:10189A00007F0D023234900559E0FEA3E022C39086
:1018AA000557E0940222E4900541F0A3F022C28297
:1018BA00128FF0D282028FF0E0FFC3740A9FFFE416
:1018CA0094002213135401F54AE4FDAF4A2290050D
:1018DA0055F0A3EFF022E42544FFE43543FEE54248
:1018EA00229008FFF07F0122C28DC28CE490081E6C
:1018FA00F0227E007D007B0102358C90090A744734
:10190A00F022AC00AD01AE02AF03E422E47B14FA8C
:10191A00F9F8223EA801FC7D0122052DE52D64106F
:10192A00228F82F583E49322C37410952DFF22AB94
:10193A0034AA35A93622E0FF12925DEF22FF900504
:10194A0038EF540F240122242BF974093EFA7B0143
:01195A00226A
:0A92BB0043868375A904E4F5B2228E
:0792C50043B20343A902229A
:1090C800E4F5C775B03F75A0F5F59075808E75A469
:0890D8001075A50812181A22F8
:108EFE0075C7FF75B03F75A0FD7590F07580EF7565
:108F0E00A45075A5EC75A60275A7C275AEFF121812
:028F1E001A2215
:03000B0002737508
:10737500C0E0C0F0C083C082C0D075D000C000C0DE
:1073850001C002C003C004C005C006C007C28DC24B
:107395008C30184A900B3FE004F090090AE06447EE
:1073A50060047D4780027D437F0C1268ED7D027F7E
:1073B5000A1268ED7F5E7E01128D2E90090AE4F0B7
:1073C5007F0C12923F900908E4F07F0A12923F90D9
:1073D500081EE4F01218EB12923FC23AC292D0078F
:1073E500D006D005D004D003D002D001D000D0D033
:0973F500D082D083D0F0D0E03248
:03001B00027F6100
:107F6100C0E0C0F0C083C082C0D075D000C000C0E6
:107F710006C007C28F9009231211499009251211D9
:107F810049758BAF758D3C900923E0FEA3E0FF643A
:107F91000A4E7002D23DEF64D24E700AC2AB900914
:107FA1002374FFF0A3F0303502D222D007D006D0DF
:0C7FB10000D0D0D082D083D0F0D0E032DD
:0300730002844CB8
:10844C00C0E0C0F0C083C082C0D075D000C000E5D1
:10845C009130E6225391BF9008071211499008A75A
:10846C00121149D3900808E09484900807E0941EF8
:10847C004004E4F0A3F0303502D222D000D0D0D0AA
:08848C0082D083D0F0D0E03271
:0C8FE4001392827F047E00128FF0D28373
:108FF000E4FDFCC3ED9FEC9E50070DBD00010C800D
:01900000F27D
:01900100224C
:078D270012922F7F0A7E006B
:108D2E00E4FDFC75FEFFE4FBFAC3EB9FEA9E5007E1
:108D3E000BBB00010A80F20DBD00010CBC01E4BDAD
:028D4E002CE116
:018D50002200
:026FEC00A907F3
:106FEE0075FEFFA2AF9240C2AF2018427B03C28350
:106FFE00E9A803088002C313D8FC139282D283122D
:10700E00186950EAC283D282D283C283D283C282EB
:10701E00D282C283A282E43312116A25E0FFA282D9
:10702E00E4334F12116AD283A24092AFFF2243A4DF
:10703E000C7B03121527E9A803088002C313D8FCA2
:10704E00128FE412186950EB121527D282128FEBB1
:10705E00C283128FEB1218B853A4FB7B07121527AD
:10706E00EA25E0FFA282E4334FFA7F04128FEB127F
:10707E00186950E9121527D28353A4F3A24092AF98
:03708E00AF02222C
:0F923F0074FE2FF582E43408F583E0FD0268ED3C
:0268ED00AB07F7
:1068EF0075FEFFA2AF9241C2AF8D20C28320183F29
:1068FF00C283A2071212EAA2061212EAA20512120C
:10690F00EAA2049282D2831212D6A2009282D2837A
:10691F008B201212D6A2001212EAC282D283C28335
:10692F00D282D283C282D282C283D2830269AA4325
:10693F00A40CE520C4540FF97A03C283E9A8020816
:10694F008002C313D8FC128FE412187150EC7A0333
:10695F00C283E520A802088002C313D8FC128FE47B
:10696F0012187150EB7A03C283EBA802088002C39E
:10697F0013D8FC128FE412187150EC121527C28233
:10698F00128FEBC283128FF0D282128FEB1218B8D4
:0F699F00C283128FEB75FEFF53A4F3A24192AF98
:0169AE0022C6
:107FBD009008FE74BFF02032089009007409F0801B
:107FCD0005E4900900F01217927430F0900823E048
:107FDD00FFC394045006EF04F5298003752907E5C6
:107FED002925E0FF9004A2E04F900903F0E5291246
:107FFD001752900806E09009061213641291D8C228
:0B800D00931218F21290E0C284C21A15
:018018002245
:107AAA00D2937F017E00128D2E1290E01218F2D22C
:107ABA0084D21A9008FE30110574EFF0800374FF27
:107ACA00F020320E9009007409F0900903749DF0B9
:107ADA00800BE4900900F0900903749CF0740E1274
:107AEA0017947438F0900823E01217529008E2E0D5
:107AFA00900906F09008FDE0900908F090090FE05F
:0B7B0A0044409009071213640291D858
:1091D800E4F536AF3612923F0536E536C3941040B3
:0191E800F294
:0191E9002263
:109002007F107A0879FE1218FC9008FE7489F0909D
:0E90120009097480F090090B7418F00291D8CF
:10903E009008FE7489F0E4FF12923FE41218EB12CE
:0D904E00923F900903744CF07F0502923FA1
:107C54008F2B203661E52BD3940B505AD236E49007
:107C640008A7F0A3F0900903E0440E54FEF07F054A
:107C740012923F201A0890090074A0F0801990090C
:107C8400007460F09008FDE0D3940A400A9009085B
:107C9400740AF0FF12923F7F0212923F900901741E
:107CA40001F07F0312923FE52B90890C9390090A0F
:077CB400F07F0C12923F2249
:1071C00030A002D29330A0067FD07E0780047F01DA
:1071D0007E00128D2E7D617F0B1268ED30A0067F40
:1071E000E87E0380047F017E00128D2E7D417F0B9F
:1071F0001268ED30A0077FB87E0B128D2E7F021231
:107200006FECEFC3941450089008237407F08019B2
:10721000EFD3943B4003E4800C74EC2F75F00584AD
:10722000FFC374079F900823F0C293900823E0D314
:1072300094029008004010740BF09008E47405F07C
:107240009009127403F0227411F09008E47402F0B3
:0572500090091214F08A
:017255002216
:0273FE008F2AD4
:107400009008FFE0900542F09008FF7482F0A3E03E
:10741000900543F09009003011057460F08003740A
:1074200040F0E52A90090A70057422F08003742E5A
:10743000F01217611291D87F2C7E01128D2E9008C8
:10744000FF7406F07F0112923FE52AB401067FF433
:107450007E0180047FD07E07128D2EE490090AF011
:107460007F0C12923FE4900908F07F0A12923F903D
:107470000542E01218EB12923F900543E09009009C
:06748000F07F0202923FC2
:03000300024E2B7F
:104E2B00C0E0C0F0C083C082C0D075D000C000C04D
:0D4E3B0001C002C003C004C005C006C007CE
:104E4800E4FF126FEC90053AEFF0301820C3900998
:104E580024E09403900923E094005003024FA1D268
:104E6800861290E0900923E4F0A37403F020A203D3
:104E7800024FA1309303024FA190053AE0C39480FA
:104E88005003024FA190081EE070359008FF74820D
:104E9800F07F0112923F9009007440F07F02129255
:104EA8003F90090874C3F07F0A12923F301803122A
:104EB800179C90081E7401F090053BE4F0024FA186
:104EC80090081EE06401704F90090874CFF09008B4
:104ED800FF7406F0208716D284308704E4F0800936
:104EE80030180690090874D1F0C284800930180679
:104EF80090090874D9F07F0A12923F7F0112923FFD
:104F08001219057F0C12923F30180312179C900853
:104F18001E7402F0024FA190053BE0FF700A1219BF
:104F28000575FEFFD292805FEFB40207121905C221
:104F3800928054EFB4040A90090A7443F0D2928024
:104F480046EFB4062090090A7443F0C2929004D246
:104F5800E4F0301832E5576417602C900498740117
:104F6800F0C210802230181FEFB4071B90092230BE
:104F78003A04E4F08003E004F0900498E07008E557
:104F880057B417037402F012179C90053BE004F025
:094F9800E05407F07F0C12923F77
:104FA100D007D006D005D004D003D002D001D00064
:0B4FB100D0D0D082D083D0F0D0E0320E
:1090F70075B48B75B5FF75D21075E50D75AC4375F5
:06910700E70275F70222E9
:03008300024C71BB
:104C7100C0E0C0F0C083C082C0D075D000C000C009
:104C810001C002C003C004C005C006C007E5D2547C
:104C9100C060031290F7E5D220E003024E0353D225
:104CA100FE9008E3E5D3F0203703024D2CE0FFB47A
:104CB100552290089EE0645460067454F0024E033D
:104CC10090089EEFF0E51324011218271215B8C2BF
:104CD10037024E039008E3E0FFB4662490089EE09B
:104CE100646560067465F0024E0390089EEFF090D3
:104CF10008B41213169008B412350BC237024E03D2
:104D01009008E3E0FFB4771D90089EE064766006AA
:104D11007476F0024E0390089EEFF0C23790089D22
:104D2100E4F0024E03121772024E0390089EE064F3
:104D310066704C1218347045203B429008E3E090B5
:104D4100091012169A9009191213169009191235A1
:104D51000BC3EB94FFEA9401400D12139312190C4B
:104D61001212517002D23B90091012114912139381
:104D710012190C1212516003024E038023802190FC
:104D8100089EE06477707B90089DE0FF70199008A1
:104D9100E3E0FE7480D39E500E9008AFEEF0C21592
:104DA100121772D237805BEF700520380280152010
:104DB100342690089DE0D3940B4009740BF0A37442
:104DC100FFF0D2379008E3E0FF90089DE0240EF554
:104DD10082E43408F583EFF090089DE004F0900838
:104DE1000EE0FF2401FDE433FC90089DE0B50512BF
:104DF100E4B5040EA374FFF0D237EFB40B02D2383E
:104E0100D22AE5D230E10353D2FD303502D222D08D
:104E110007D006D005D004D003D002D001D000D0F5
:0A4E2100D0D082D083D0F0D0E03270
:10922F008FD38DD3BD0B02D2157FF47E01028FF049
:10445F00E490053DF0203B0302462C121712E5575E
:10446F00B40A25E42517FBE5163402FAE43515F9ED
:10447F00E43514F8121460FCD31234AC5003024527
:10448F0091C23BD2277F0122E55764187036E5555C
:10449F0054F07012F52C752BDD752A6DF529121459
:1044AF0075502102458CE55554F0C4540FFFE4FCC0
:1044BF00FDFE7B607AEAF9F8121879E41214755050
:1044CF000302458C7F007EFD7DFF7C009009191251
:1044DF0034FFD31234AC400302458C1215C11214B1
:1044EF00D0500302457D1216821212A340030245DB
:1044FF007D1213B31215C11233F71213191213B31E
:10450F00121879C3E52C9517FFE52B9516FEE52AB2
:10451F009515FDE5299514FCE47B607AEAF9F8D34B
:10452F001234AC405DAF2CAE2BAD2AAC29124688AD
:10453F00121193EF252CFFEE352BFEED352AFDECF6
:10454F003529FCD31214D15039121682A818C31270
:10455F0034AC40081215F090053D04F01217A51267
:10456F0046881211931216F71286F5BF0105C23B4A
:10457F007F0222128C7390053DE0B40105C23B7F90
:10458F0001221215C1128B50EF1215C17002804C0F
:10459F00753F011278E91216AC9009191234FFC059
:1045AF0000C001C002C00312119D1219161233F779
:1045BF0012191612336CD003D002D001D00012336F
:1045CF005190091912119AE5172FFFE5163EFEE5D6
:1045DF00153DFDE5143C121598F514FC12129B9035
:1045EF000579121855126F42E42517FFE5163402AC
:1045FF00FEE43515FDE43514121598F514900910E5
:10460F00E05401F0E0FEA3E0FF782B7C097D017BF5
:10461F00017A0B792B123234C23B7F0322121834EA
:10462F00704D9008A51217AED39FEC9E4011ED9FD1
:10463F00FFEC9EFED3EF94C0EE9412403280269092
:10464F000808E02484FF900807E0341EFE9008A5B8
:10465F00E0FCA3E0FDC3EF9DFFEE9CFED3EF94C003
:10466F00EE9412400A7D027FFF12922F1217127DD5
:08467F0001E4FF1265D17F0088
:0846870022753F011278E922BF
:103FA80090089EE0645560030241FA1215309004AF
:103FB800CCE0B403037F0022E4FF12151870061248
:103FC80017707F0222E4FFFEFDFC12128670037F49
:103FD8000122202B03024084E47FC8FEFD1213094E
:103FE800500302407CE50B244C1212F1FCE4F53F2F
:103FF8001278E91216ACE4FF121602605112119DF4
:1040080090055312350B9005531234E3D312130B5A
:1040180040399005531234FFC3E50B9BFFE50A9A1C
:10402800FEE50999FDE5089812130090055312134F
:1040380096C3E5139FFFE5129EFEE5119DFDE51071
:104048009C1215B8121688500580001214E4121636
:10405800885002801F7F0A121517401BE51324F6AB
:10406800FFE51234FFFEE51134FFFDE51034FF12C1
:1040780015B880031214E4C22B024128201303024E
:10408800412DE513240112127050037F0122E50B24
:1040980024DC12160F12130012161C121309407496
:1040A800E50B24381212F19005517401F090055176
:1040B800E075F014A4FFEF250BFBE5F0350AFAE4F0
:1040C8003509F9E43508F812161CFCC31234AC5053
:1040D80008900551E004F080D49005511218C2FEF2
:1040E8007C007D141232D4C3E50B9FFFE50A9EFEC7
:1040F800E5099400FDE50894001213001218C2FAAD
:10410800C3E5139FFFE5129AFEE5119400FDE51043
:1041180094008007E513240A1218271215B8C21351
:10412800128AEC801912126C50037F01227F01124F
:104138001517600AE50B241412160F121300E5D2A6
:1041480030E5FB75D35512158C128B50900552EF44
:10415800F0E50B241312160FFC128B50900552E059
:104168002FF0E07011121586900577F0A37414F003
:104178001272560241C812158690055EE4F0A374C7
:1041880014F01269AF12119DE50B2FFFE50A3EFEF0
:10419800E5093DFDE5083C12130012119D121916A0
:1041A8001233F7121319E5132FFFE5123EFEE5113E
:1041B8003DFDE5103C1215B812126C50037F012228
:1041C800E4900551F0E5D230E5FB900551E0FF049D
:1041D800F0743D2FF582E43405F583E0F5D39005BE
:1041E80051E0C3941440DEE4FDFF1265D11217704C
:1041F800802F90089F1217AEC39FFFEC9EFED3EF4F
:104208009440EE9406401AD3ED94C8EC9400401103
:104218009004A1E0B4030A7D037FFF12922F1215C8
:03422800307F00E4
:01422B002270
:10912300301807E4F5CDF5CC800675CDC375CC5565
:05913300C2CFD2CA22E8
:05000600C2CAC2CF22B6
:10768E007D017F01127B809008FF741EF03011186F
:10769E009008FE74FDF09009017480F0E4A3F09060
:1076AE000900F0900903802330330F121792E04443
:1076BE0080F09009067401F080159008FE74F9F0C0
:1076CE00E4900900F0A3F0A304F0A3E054FEF0123E
:1076DE0017611291D87D037FFF12922F9004A1742F
:1076EE0003F0121530E4FBFD7F1B128C139004CCBB
:0A76FE007401F0E4F5131214F622F3
:108BE3009004A1E064037027E4FD7F01127B8020E1
:108BF300330F12903E900902E054FEF07F0412926C
:108C03003F7406121885F5131214F69004CCF02263
:10897D007B007A00790CE41232A09004F81217BC37
:10898D009004F91217797A0079089004F5E0123203
:10899D00A09004F61217BC9004F712177912158CDB
:0689AD0090081F02350BCB
:02636B008F2C75
:10636D00E557B40A1A12926C9008A11234E38F0B00
:10637D008E0A8D098C0890081F12350B026415E5E5
:10638D002CB40107AF53AE52126E9612897D900454
:10639D00F2E0C413135403F52DE4FB7D047F0412C6
:1063AD008C13E4FB7D047F0E128C13E52D70087B9E
:1063BD00017D047F04800BE52DB401097B017D0473
:1063CD007F0E128C139004F2E0FFA3E0FDA3E0FB1F
:1063DD001277FA7B017D027F1F128C137B017D03E7
:1063ED007F12128C13AF53AE521284DB128E6B7B65
:1063FD00017A0479FA1278727B017A057910E4F545
:10640D0038AD4F7F01127129AF0FAE0EAD0DAC0C33
:10641D007B007AFF79FF7800D31234AC5009E4F594
:0C642D000FF50EF50DF50CC2250290785D
:10468F0012183470030248A6303009E557640A60E7
:10469F00030248A6900538E0FAA3E0FBC394E1EAD1
:1046AF00942E4009E557640A60030248A6E4900976
:1046BF0010F0A3F090091912351700000000E5570C
:1046CF00640A601AD3EB9410EA9400400B1215CAD7
:1046DF00EF540F7003128521900537E004F0E55772
:1046EF00640A600BE55764146005E557B4182CE5B0
:1046FF00579008FEB4181074FBF0A3741EF0E4A3D7
:10470F00F0A37420F0800B74F9F0A37418F0A37465
:10471F0008F090090374DCF01291D87D01E4FF12C8
:10472F007B80C2397D027FFF12922F9004A1740209
:10473F00F0900807E0FAA3E0FB9008A5EAF0A3EBDE
:10474F00F0E557B40A141215C19008A912350B9051
:10475F0008A11215958C140248879008ADEAF0A3B2
:10476F00EBF0900538E0FD9004EDE0FEA3E0FF12C2
:10477F008F859004EEE024011212CD900538A3E04E
:10478F00FD128F859008121248A79004D2E075F0A1
:10479F0040A444304534F5339004EEE02402121265
:1047AF00CDAD33128F859008111248A7E5343333FE
:1047BF003354F8F5339008101248AFE534131354FF
:1047CF003F42339004EEE024031212CDAD33128F2B
:1047DF0085E534C4333354C0F53390080F1248AF16
:1047EF00E53442339004EEE024041212CDAD3312BF
:1047FF008F85900813E0FF12925D8F349004EEE0E6
:10480F0024181212CDAD34128F859004D2E0702788
:10481F00F5351212C77C00EF2535FFEC3EFE741400
:10482F002535F582E43408F583E0FD128F850535D3
:10483F00E535C3940A40DB9004EEE024051212CD57
:10484F007B007A007914753F03128A1E90049C1224
:10485F00131690049C12350BD2149004EEE024141E
:10486F001212CD7B017A04799C753F04128A1E9037
:10487F00049C1234E3128DA5C225129078E557647B
:10488F0014600BE557640A6005E557B418099009E1
:07489F0025E4F0A37495F07D
:1048A60022E0FF12925D8F3422E0FF12925D8F3478
:0148B60022DF
:106765001218346003026829E4FDFF127B8074056A
:10677500121885FB7A02F9F890091912139CE41294
:1067850014FE8F0F8E0E8D0D8C0C90091912351776
:1067950000000000E4900910F0A3F0E557B40A1ECC
:1067A50012903E121460121598F51490057912177F
:1067B500C3126F429008A91215958C14805E90043F
:1067C500EEE024081212CD7B007A00790D753F02A8
:1067D500128A1E9004D2E064017034F534E5342544
:1067E500E02410121726E0C454F0FFE53425E02418
:1067F50011121732E04FFD1212C7E5347A002FFF50
:10680500EA3EFE128F850534E534C3940A40CE90E6
:106815000538121149E475F02012178CE55764010B
:046825006002C22526
:01682900224C
:048635008E368F37B7
:10863900E4F53BF53AF539F538F53C753D00753EFD
:1086490038FFEF7C002537FDEC35368D82F583E464
:1086590093AB3CAA3DA93E8F827583001232B20FBB
:0B866900BF04DFAF3BAE3AAD39AC38C8
:0186740022E3
:0A8A1E008E3A8F3B8B3C8A3D893E67
:108A2800E4F540E540C3953F501F7E00E53B2540F7
:108A3800FFEE353AFEAB3CAA3DA93E8540821217AF
:098A48000CFD128F85054080DA57
:018A51002202
:1090E000301813E4900923F0A3F0C23D758BAF75DF
:0790F0008D3CD2ABD28E22B1
:107B15009004CDE0641E702FF533E53312189124DF
:107B25001FF974033EFA7B01C00174122FF9740327
:107B350012191DD0011218990533E533B41DDB90D8
:107B450004E8741EF0800C9004E8E004F09004CD85
:107B5500E004F09004E8E075F00DA42405F9740341
:107B650035F0FA7B011288249004E8E075F00DA445
:0B7B75002408F974031216B602323423
:107708009004C5E0641E702FF533E53312189124F8
:1077180094F974013EFA7B01C00174872FF9740152
:1077280012191DD0011218990533E533B41DDB90E9
:1077380004D1741EF0800C9004D1E004F09004C5CC
:10774800E004F09004CBE0C3941E5003E004F090F2
:1077580004D1E075F00DA4247AF9740135F0FA7BB0
:10776800011288249004D1E075F00DA4247DF974E9
:0A777800011216B612323402924ECE
:10761000E54F60799004C4E0641E702FF533E533C4
:10762000121891240EF974003EFA7B01C001740116
:107630002FF9740012191DD0011218990533E53382
:10764000B41DDB9004D0741EF0800C9004D0E004D4
:10765000F09004C4E004F09004D0E075F00DA42490
:10766000F4F974FF35F0FA7B011288249004D0E01D
:1076700075F00DA424F7F974FF35F0FA7B01C0030F
:0D7680008B37753805753910D0031286B5AB
:01768D0022DA
:067872008B338A348935D6
:10787800E4F54FF537E53725E0F538AB33AA34A9F9
:107888003585378212170CF536C4540FFF121722AC
:10789800EFF0121722E0B40F19E54F7015E53770B5
:1078A8000EFE7F147D0F7B017A05791002358C85D9
:1078B800384FE536540FFF12172EEFF012172EE04F
:1078C800B40F09E54F7005E53804F54FE537B409FD
:1078D80007E54F7003754F140537E537640A70954F
:0178E800227D
:108EB700C285D2357B017D037F801283B97B017D1B
:108EC700097F011283B97B017D097F031283B9C230
:048ED70035D28522E9
:1082D0008F347F207A0479A31218FCC22CC20DE5DA
:1082E00050131218CD1275917F041283187F081253
:1082F0008318125FEA7B017D037F18128C1312151D
:10830000CAFE1284DBE534B40103128675E550120F
:1083100018CD1280CD02836E7B017D03128C132257
:10836E00A2A89241A2A99242C2A8C2A9D235C285A0
:10837E007B017D037FA01283B97B017D06E4FF1292
:10838E0083B9E4F53B74A3253B12135CE0FFE4FBD9
:10839E007D081283B9053BE53BC3942040E7D285A7
:0A83AE00C235A24192A8A24292A992
:0183B80022A2
:0683B9008D3CAA07A90398
:1083BF00E4FBEBC3953C5039C280EA30E703E97028
:1083CF0007EA30E007E97004D2948002C2947F027A
:1083DF007E00128FF075FEFFD280E96006EA25E07D
:1083EF00FA8004EAC313FA7F027E00128FF00B802B
:0383FF00C1D29454
:018402002257
:087CBB00540F75F00A84ADF0CE
:107CC300D22AED90891893FEEFC3940D5023EF123F
:107CD300163BE0540FFDEEC454F04DFD74A22F1279
:107CE3001640EDF0EE25E054E0121358E0541F80E7
:107CF30027EFC394195027EF24F412163BE054F0F6
:107D0300FDEE540F4DFD74A22F121640EDF0EEC49C
:0E7D13005407121358E054F84E121358EEF0B5
:017D2100223F
:108C1300D22ABB01127401A805088002C333D8FC11
:108C2300121358E04E8013AE057401A806088002A3
:108C3300C333D8FCF4121358E05E121358EEF0223B
:105FEA00202926E4F53AE53A25E0240D12159FFE0C
:105FFA00C4127CBBE53A25E0240E12159F127CBB25
:10600A00053AE53AC3940440DD9004C17403F0E410
:10601A00F539753A011211501214C7AF3AE4FCFD72
:10602A00FE12336C8F388E378D368C35E53AB40ACA
:10603A000B1216828F388E378D368C35121648E43D
:10604A00F53F1278E91216ACE47FFF121602700AC5
:10605A009008091235170000000012119D1214C78A
:10606A0012164812335E1286F5EF2539F539053ACC
:10607A00E53AD3940A409EC3900539E094E190052D
:10608A0038E0942E400375390AE539C39403500D5C
:10609A00E49004BF1217D19004C1F08026E539C3F9
:1060AA0094075013E49004BFF09004C1740F1217C0
:1060BA00D39004C0F0800C9004C0740F1217D190D2
:0860CA0004BFF012836EC22A2C
:0160D20022AB
:1084DB00900542EEF0A3EFF0D3940FEE94274012E9
:1084EB00D226900542E0FFA3E090049ACFF0A3EFD1
:1084FB00F022C226900542E0FCA3E0FDD394E7EC0A
:10850B00940340047F15800A900542E0FCA3E0FD34
:06851B007F1612827E2291
:06827E008C358D36AB07C4
:10828400EBD3941540077D0F7F15127CC3C3E536ED
:1082940094E8E535940350067537031B800375375E
:1082A40004E4FAEAC395375022EB2403C39AFFC0CF
:1082B40007AE35AF36121548D007127CC3AE35AFC2
:0B82C400361215488E358F360A80D820
:0182CF00228C
:108D51008F29AB05AA047C007D0AAF03AE02123253
:108D6100E6AD07AF29127CC3E52904FFC007AE02B7
:0A8D7100AF03121548D007027CC3BF
:02712900AC05B3
:10712B00BF0113E54F700FF5397D1C12183BE53984
:10713B00C3940C40F422ECC3940C5015E4F539C302
:10714B00740C9CFFE539C39F50077D0F12183B80D1
:10715B00EEECD3940C400A753B0CEC24F4F53C801C
:10716B00058C3BE4F53CE4F539E539C3953B5044DC
:10717B00E53864017016E53920E008253C12170844
:10718B00C48016E53C2539121708800DE539253CDE
:10719B00F582E433F583123273540FF53AE53A6412
:1071AB000F6011C3740D953B2539FFAD3A127CC3AB
:0471BB00053980B55D
:0171BF0022AD
:108675007B017D03E4FF128C130D7F10128C139088
:1086850004CBE0FD7C007F0112827E900537E0FD82
:108695007C007F0612827E3012157D197F0A127CBE
:1086A500C37D177F0B127CC37D0D7F0C127CC3220B
:1091EA0030150E7D0C7FFF12922FC215E49008AF46
:0291FA00F02261
:1090200090080FE0FD7FFE128D277FFD12144F7F09
:0E903000FC128D277FFB12144F7FFA02922F45
:10852100E4FFFEE42F1211C81218450FBF00010E1F
:10853100E4B507EFEEB402EB90053812113D1216C7
:108541006E1216C8FEED34FFFDEC34FFFC1211ACC7
:1085510012129B121852126D377F007EEC1289E9BC
:0585610074EC1218008B
:0185660022F2
:061FD80090054F12350BCD
:101FDE00E4900553F0A3F0A3F0A3F0121150900576
:101FEE004F1211B890056012350B1215407912126E
:101FFE00116190054F121608700912168290056035
:10200E0012350BE490055FF012156E1213C8121103
:10201E003DD3123496500302211790055712113DED
:10202E001211AD12129212725690092BE0B4FF13D8
:10203E00900557E07002A3E0700990055F7402F0FE
:10204E00022117E4F52D12165D1218A02430F58228
:10205E0074093EF583E0FFE48F31F530F52FF52E50
:10206E00AE30AD2FAC2E1214C21218A02431F58250
:10207E00740912143A1214C21218A02432F5827482
:10208E000912143A78081234D012144612125970EA
:10209E000990055F7403F002210390054F1234E39B
:1020AE00121260400E1216D01211DE12155EFFEEE5
:1020BE001218D89005601234E3121260402F1216D7
:1020CE00D01211DE12155EFF900553EEF0A3EFF065
:1020DE0090055712113D1211AD900559121135127E
:1020EE00335112144690055F7401F08008121924C2
:1020FE00600302205490055FE0FF6401600BEF6403
:10210E0003600612114602201990055FE0700374F9
:10211E0003F090055FE0FF64026005EF64037077E3
:10212E00E4F52DE52D75F020A4FFAEF0EE12166647
:10213E002405FFEE34EC8F82F5831234EF12144631
:10214E00E52E7531008E308D2FF52E121259604707
:10215E0090054F1234E3121260400E1217DB121963
:10216E002BFF740193CF1218D89005601234E3122E
:10217E001260401E1217DBFE12192BFD7401939094
:10218E000553CDF0A3EDF0E48F318E30F52FF52E03
:10219E008005121924708C900553E07002A3E06044
:1021AE0003022261900555E07002A3E0702612151D
:1021BE006E12111AD31234AC401790055712113DFE
:1021CE001214DC90054F1211B8128AB91211468002
:1021DE00E00225D9900556E02401FF900555E03424
:1021EE0000FE900553F0A3EFF0D3900539E09F90D9
:1021FE000538E09E405D900553E0FEA3E0FF128C93
:10220E00A290055FEFF064017049900553E0FEA3C4
:10221E00E0FF1216C8FEE434FFFDE434FFFCE412C6
:10222E00166E1211ACC004C005C006C0079005544E
:10223E00E024FFFF900553121633C333CE33CED8AE
:10224E00F9FFE4FCFDD003D002D001D000123351CF
:10225E00121446C3900554E09402900553E0940086
:10226E00502612156D12111AD31234AC4017900568
:10227E005712113D1214DC90054F1211B8128AB983
:10228E0012114680E00225D99005381213FC9005F4
:10229E0054E09F900553E09E4005E4FF025C20E46D
:1022AE0090055EF0A3E0640160030224CC90092740
:1022BE001234E312889812156D1213C812113DD301
:1022CE0012349650030223CA90055712113D121470
:1022DE00FEEF2531FFEE3530FEED352FFDEC352EC0
:1022EE00FC121292127256E4F52D12165D1216D0D1
:1022FE001211DE12155EAC06F47002ECF4703A9018
:10230E0004EEE02400FF9004EDE03414FEEF7805B7
:10231E00CEC313CE13D8F990055BF0252DFFE43311
:10232E00FED3EF9410EE6480948090055E400574A9
:10233E0001F080307402F0802B9005531213FCEDE7
:10234E009FFFEC9ECF2401FDE43FFC900559121631
:10235E009AAF05742C2BF58274093AF583EFF012BF
:10236E001924708690055EE06401702490055CF07F
:10237E0012193290055CE0FDC39F5014AF2D1284EC
:10238E000312149AC333CE33CED8F912262280E02C
:10239E0090055EE06402601890055712113D12140C
:1023AE00FE9009271211B812129B121852126D3795
:1023BE0090055EE070061211460222C790055EE09F
:1023CE006401600302246190055CF01219329005DD
:1023DE005BE0C39FFFA3E0C39F5035E4A3F09005DD
:1023EE005DE0FDC39420502290055CE0FCC3952D6A
:1023FE00FFE49400FEEF7805C333CE33CED8F92434
:10240E0000FFEE34EE12132780D41225E00223D9FA
:03241E0012156D27
:062421001211BE12263D5F
:102427001211461218A840F2122604121932E49427
:1024370000FE90055BE0C39FFFE49EFEEF7805C3B7
:1024470033CE33CED8F91213BA500C1211D4FD1271
:102457008F8512114680D40224BF90055EE0640286
:10246700705D90055CF090055BE0FFA3E0FDC39F06
:102477005014AF2D12840312149AC333CE33CED81F
:09248700F912262280E01226134E
:062490001211BE12263DF0
:102496001211461218A840F212260490055B121477
:1024A6009DC333CE33CED8F91213BA500C1211D4C1
:1024B600FD128F8512114680E27F007EE61289E9C1
:1024C60012120602258490055FE0FF64026008EFA1
:1024D6006403600302258AE490055CF090055312BC
:1024E60013FC121676FE90055CE0C39FE49E5039FD
:1024F600E4A3F090055DE0FDC394205026900554BA
:10250600E024FFFFEF540FFF90055CE0FC2F121450
:10251600A0C333CE33CED8F92400FFEE34EC121329
:0C2526002780D01225E00224E2122613C8
:102532001211BE900564F0E42FFFEE34E6FE128F16
:012542008513
:102543001211461218A840E77F007EEC1289E912A7
:10255300156D9005531213FC121676FEEF7805C322
:1025630033CE33CED8F91213BA500C1211D4FD1254
:102573008F8512114680DB7F007EE61289E9900881
:10258300021234E31288989005531213FC12167644
:10259300CF2401CF3400F0A3EFF024FF121632C38F
:1025A30033CE33CED8F92400FFEE34EC9004EDF0B3
:1025B300A3EFF012156D12111AD31234AC40179019
:1025C300055712113D1214DC90054F1211B8128AEF
:0C25D300B912114680E09005601215520C
:1025DF002290055CE075F020A4242BF9740935F0E6
:1025EF00FA7B01900553E0FCA3E0FD1280199005E2
:1025FF005CE004F0227F007EEC1289E9E49005573D
:10260F00F0A3F0227F007EE61289E9E4900557F0EF
:10261F00A3F022242BF974093EFA7B01900553E0B5
:10262F00FCA3E0FD12801990055CE004F0229005F8
:0D263F0064F0E42FFFEE34E6FE128F8522DA
:07840300900565EFF0A905EB
:10840A00E4F532E975F020A42400FFE5F034ECFE2F
:10841A007C00EF2532FFEC3E12192BFDE9FF900597
:10842A0065E02F1214A0C333CE33CED8F9FFE5325C
:10843A007A002FFFEA3EFE1218450532E532B420D3
:01844A00C26F
:01844B00220E
:0680190090056512355DC3
:10801F007534007535007536321217EA12325A125E
:10802F0019391232A01217EA900001123273121985
:10803F00391217BDAF05C3E5339DCFE5329CCF2471
:10804F0001F533E43FF53212325A1217E9EF1232CB
:10805F00A01219399000011232731217E990000122
:04806F00EF0232B238
:1086F50090056F740AF07B017A057965900577E43A
:10870500F0A3740AF0127256E4FF74652FF582E443
:108715003405F583E0F4600F90056FE004F0E0D3D5
:0E872500940D40037F01220FEFB40ADE7F00A7
:018733002223
:0F924E007E007F0A7DFF7B017A08791402358C40
:0E925D00EFC4540F75F00AA4FEEF540F2EFF5D
:01926B0022E0
:108C7300121540E4FCFD79121214DE1214D04004E4
:108C830012154F22121150E51B2FFFE51A3EFEE588
:0F8C9300193DFDE5183C8F1B8E1A8D19F518221F
:108CA200AD07AC06900538E0FAA3E0FBD39411EAD5
:108CB200940050037F0222EB24FEFFEA1214B31247
:0F8CC20017F0D3ED9FEC9E50037F01227F02221B
:108824009008121219401232A09008111219403304
:10883400333354F8FD9008101219401313543F4D6C
:108844001217BDEFC4333354C0FD90080FE0FF127C
:0A885400925DED4F9000020232B277
:1090780020250DE49004CEF0A3F09004EBF0D22567
:0C908800C22EC21CE4900925F0A3F022C7
:108AEC0030252E1215759004CEEEF0A3EFF07B20FE
:108AFC007ABF7902780012157B9004EBEFF0121517
:108B0C0075E47A0E12166FAF039004CEEAF0A3EF61
:028B1C00F02245
:0F926C001214601213009005861217C3026C864D
:102CB800900538E0FEA3E0FFD39401EE94005003A2
:102CC8000230EAC3E5539401E55294005003023000
:102CD800EAD3EF9553EE955250030230EAE490059B
:102CE80043F0A3F0A3F01215D89008B012350BE505
:102CF800536401455270089008B01234E38010E51F
:102D08005324FFFFE55234FFFE126E961215D89039
:102D180008E512350BAF53AE52128CA2EF64026075
:102D280003022EF2900538E0FEA3E0FF540F640280
:102D38006003022DE31216C8FED3EF9410EE940040
:102D48005003022DDE12312C1214A81216C91214C7
:102D5800129E502D12113D1211AD1212921272567E
:102D680090054112113D1214FE9009271211B890D6
:102D7800056C121295126D37900541121149022DFA
:102D88005090054112113D1211AD12129212725655
:0A2D9800900B0DE054DFF01230EB59
:062DA2009005411211C171
:102DA80012311A12114912173A40EF1230FA9005EF
:102DB80041E0FCA3E0FD24001211D612315C12118F
:102DC8004912173A40E812120612314E1248B71249
:102DD80016DB1217FE22E4FF025C201218B0E5533E
:102DE80024FFFFEF540FFF1214139400502BE490AC
:102DF8000546F012180850191211FCC333CE33CE11
:102E0800D8F91211E7C333CE33CED8F91212AF80F6
:102E1800E290054112114980C51215CAFEEFB5535B
:102E280032EEB5522EE55324FE121632C333CE339A
:102E3800CED8F9FF242DF58274093EF583E054DFDE
:102E4800FD742D2FF58274093EF583EDF01248B715
:102E5800022EA8E4900541F0E553540FA3F0121494
:102E6800039E503CE4900546F0121808501C1211BD
:102E7800FCC333CE33CED8F91211E7C333CE33CEE9
:102E8800D8F912185C1212BB80DF1211FCC333CEC2
:102E980033CED8F912313D900541121149022E6600
:092EA8001216DB1217871230EB41
:062EB1009005411211C161
:102EB70012311A12114912173A40EF1230FA9005DF
:102EC70039E024FE1219471214A0C333CE33CED8EB
:102ED700F99005411213BD500B1211D412315C1237
:102EE700114980DA7F007EE60289E912312C12143B
:102EF700A81217F09005411213BE4003022FB3ED3D
:102F07002401FFE43CFEEFB5530DEEB552099005E1
:102F1700457401F0022FAA900545E0FD900541E0B8
:102F2700F8A3E0F5828883C39D121632C333CE33EC
:102F3700CED8F9121951C003C002C001AF82AE83C7
:102F4700E4FCFD7B20FA1211B0900577E4F0A3743E
:102F570020F0D001D002D003127256900545E0FF51
:102F6700B40117C3900542E09FFF90054112163345
:102F7700C333CE33CED8F912310990054312114924
:102F8700900544E0540F701B1216E51216C9FEE4B3
:102F9700FC1214FD9009271211B890056C121295B6
:102FA700126D37900541121149022EF5900539E04F
:102FB700540F64027030900546F0900546E0FFC359
:102FC7009420500F12141EC333CE33CED8F91212E9
:102FD700AF80E712142FC333CE33CED8F91231099D
:102FE7001217FE023083E4900546F0900546E0FF95
:102FF700C39420500F12141EC333CE33CED8F91208
:1030070012AF80E712142FC333CE33CED8F912197B
:10301700517D027C001280191216E5FFE41214FD9F
:103027009009271211B890056C121295126D3790FE
:103037000541E4F0A304F01214039E503CE490050C
:1030470046F0121808501C1211FCC333CE33CED8E9
:10305700F91211E7C333CE33CED8F912185C121226
:10306700BB80DF1211FCC333CE33CED8F912313D0A
:1030770090054112114902303E12178712120612AB
:05308700314E1218B0EB
:10308C009005411211C1900547F0E42FFFEE34E694
:04309C00FE128F850C
:1030A00090054112114912173A40E17F007EEC125F
:1030B00089E91218B0900539E024FD12194712145D
:1030C000A0C333CE33CED8F9FF9005411213BE50C2
:1030D0000F1211D4FD128F8590054112114980D530
:0A30E0007F007EE61289E91216DB7C
:1030EA00227F007EE61289E9E4900541F0A3F022EE
:1030FA007F007EEC1289E9E4900541F0A3F02224D6
:10310A002BF974093EFA7B017D027C001280192298
:10311A00900547F0E42FFFEE34E6FE128F85900506
:10312A0041229009271234E3128898E4900541F06D
:10313A00A3F022240BF974093EFA7B017D027C007C
:10314A00128019221234E31288987F007EE61289CF
:0A315A00E922FD128F859005412245
:1048B7009008E51234E39008B0121608406412120B
:1048C7002E60069005481211491213B39008B012D2
:1048D700139C1218119008B0121248600690054AEE
:1048E7001211491217421213F39DEE9C500B12112D
:1048F7005F124A8F12114980EDE4FFFEFD1212A2EA
:10490700700E90054812113D1214DC1215988C1484
:1049170090054812113D1214DCD31212A4407502FF
:10492700498D1213B39008B012139C1218119008F6
:10493700B0121248600690054A121149E490054CDE
:10494700F0A3F01213F39DEE9C500B12115F124A65
:104957008F12114980ED12122E6006900548121130
:10496700491213B390091512139C1218111217420A
:104977001213F39DEE9C500E12115F128AB9900527
:104987004C12114980EA90054812113D1214DC12AD
:1049970015988C14E490054EF090054CF0A304F0A4
:1049A7001216821212A34014E41215F9F51BF51A18
:1049B700F519F51890054E04F0024A271211501206
:1049C70014C790054C12113D12336C121555900502
:1049D7004CE07004A3E0640A700312154FE51B2432
:1049E700A0FFE51A3415FEE51934FFFDE51834FF7D
:1049F7001212A2402B1217A5AB17AA16A915A814B5
:104A0700D31234AC500890054E7401F08012900513
:104A17004C12114990054CE07004A3E0640B7080C0
:104A270090054EE06401702C1216821214D04003D8
:104A37001215F01217A5753F011278E9121193129A
:104A470016F71286F590054EEFF07005128C7380FD
:104A57000312920DC3E51B9517FFE51A9516FEE5A0
:104A6700199515FDE51895148F2C8E2B8D2AF52990
:104A7700E47F607EEAFDFCAB2CAA2BA92AA829D3E8
:074A87001234AC4002C23002
:084A8E0022128AB990054C22A6
:108B50001213B31233F7E4FD90090EE0FCEDC39C51
:108B6000501C121506B50707EAB506037F0122124D
:108B70001506D39FEA9E40037F00220D80DA7F0016
:018B800022D2
:0878E9008F3E8E3D8D3C8C3B6F
:1078F1008F448E438D428C4175400190090EE0FF0B
:10790100E540D39F5052AF44AE43AD42AC41128BE0
:1079110050EF7005E54014FF22E53FB4010B12184A
:10792100E03402FDE43541801EE4FFFE7D02FCAB44
:107931003EAA3DA93CA83BC31234AC40141218E046
:1079410034FEFDE54134FF8F448E438D42F5418085
:0A795100037FFF22054080A37F00A2
:01795B002209
:108320008F5C8E5B8D5A8C59E55C2560FFE55B3573
:108330005FFEE55A355EFDE559355D1213A2123335
:10834000F7C004C005C006C0071213B3AF5CAE5B34
:10835000AD5AAC591233F71214C7D007D006D00566
:0E836000D004C31234AC70037F01227F0022D0
:087EA7008F368E358D348C33CB
:107EAF00E4F53DFBFA7902F81233F78E3B8F3CE590
:107EBF0036253AFFE5353539FEE5343538FDE533FE
:107ECF0035371213A21233F7E4FD90090EE0FCEDE3
:107EDF00C39C501F121506FBD39FEA9E5015C3EB90
:107EEF00953CEA953B4009D3EB9FEA9E5002053D36
:057EFF000D80D7AF3D2E
:017F0400225A
:0C92980013292B2A212322191B1A111262
:103D000078107C057D017B017A0479D47E007F14D4
:103D10001232349004CAE0F54F7B017A057910E441
:103D2000F538AD4F22E0FEA3E0FF7C037DE81232C0
:103D3000E67F647E00CFCDCFCECCCE1232E6AD078B
:103D40002235F0FA7B0178417C057D017E007F0DF4
:103D50000232347C277D10E0FEA3E0FF0232E6FD54
:103D60007C00129284E54E75F00A8422E55175F0CC
:103D70000A84229004CE7D3CE0FEA3E0FF7C00029A
:103D800032E6E55875F00DA422E4751301F512F53D
:103D900011F51022900537F0900539E024FFF55316
:103DA000900538E034FFF55222E5532401FFE43555
:103DB00052FE900538E0227D00900541E075F00D3F
:103DC000A4227410254FF582E43405F58322900374
:103DD0000FE075F00A8422900542E0254FFFE4339E
:103DE000FE227B32FAF9F8AF13AE12AD11AC10021D
:103DF00033F7AE52AF537C277D100232E6D23790B4
:103E0000089E74FFF022AFF09004C375F00AA42F4F
:103E1000F022900524E0FEA3E0FF7C00227F207BBF
:103E2000017A0479A302358CD3E5539401E55294C9
:103E300000221234E39008021234FFC30234AC9023
:103E400004EAE0FF9004ECE0FD2213135401F54A6C
:103E50007D01FF22054FE54EFD7C007F0A2275F0B3
:103E60000AA4FF900541E02F22E014FF900541E0F5
:103E7000FEC39F22752D00752E00752F4B227F07E4
:103E8000FD7C00029284E53575F00A84ADF022C312
:103E9000900539E094E1900538E0942E22D3900506
:103EA00039E09401900538E0940022854B4AE54AB8
:103EB000FD7C0022AF1BAE1AAD19AC1822E4FB7DCD
:103EC000047F1022F0E0900906F07F082274452557
:103ED0004FF8A64B229552FE900537E0C39FE49E13
:103EE000229FEE6480F8748098222550F55054F09B
:103EF000131313541F22900524E0FCA3E0FD22E5D8
:103F00005814900541F022E4900B3FF0900923F003
:103F1000A322C313F5827583000232739004EAEF83
:103F2000F09004ECEDF0229004D27401F02290099C
:103F300001E0547FF07F0322E0FEA3E0FFD322F5EF
:103F40004E054FFD7C007F0A22054FE54F2408FFF8
:103F50007D1522E54F2409FF7D1D7C00227B017D1C
:103F6000037F12227D641232E67E007F0A22E5532F
:103F70006401455222E4F545F546F547F54822AF80
:103F8000038F37E537C3940F22900530E4F0A37414
:103F90005AF0223EA801FC7D0122900541E004F088
:083FA00022900541741DF0227E
:10264C0053D9BF75891174FF900923F0A3F0F54994
:10265C00E49004E9F090081EF0C21AC20FC232C214
:10266C00361289B3D2A975FEFFC21FE4900536F06D
:10267C0030A00E128EFE75E24075E301127DE980EA
:10268C001D53D9BF1292BB75FD0343D9401290C89C
:10269C0075E24075E301758E42C218129002E4F5A2
:1026AC00C875912843E680D2AFD2A8C212754CFFF0
:1026BC0075FEFF30A00520180280FE20A005301802
:1026CC000280FE900915123E32600D90091D123EDB
:1026DC0032600530180280FE30183D900498E0B44A
:1026EC000117E55764176011E4FF128E91E4900412
:1026FC0098F0755717D220801F900498E0B40213FD
:10270C00E557B4170E203A0B7D077FFF12922FD29C
:10271C003A8000E4900498F0900801E0FFD3940014
:10272C005008900921E094004036301833EFB40182
:10273C00141235B8900B42E0602614F0E070219032
:10274C000801F0801B900921E0FFB40204E4F08042
:10275C000FEFB403028004EFB40405E4900921F0F8
:10276C00201803022855E51CD39401400E201219A1
:10277C00D212E55770131292D8800E30120BC2127F
:10278C00E55770057F01128E9112445F90053CEF66
:10279C00F064016008E064026003022831C239E48D
:1027AC00FF7E02FDFC900919123E38401B9009195E
:1027BC001234E3E42FFFEE34FEFEED34FFFDEC3477
:1027CC00FFFC90091912350B12676590053CE0B4BB
:1027DC00020312920DE557B418077F011287AC80E3
:1027EC005AE5576414701A303002801B123E8F4029
:1027FC0002801412468F900925E4F0A37496F080A1
:10280C003AE557640160077F01128E91802DC22931
:10281C00123D197F01127129E55030E20312468FE7
:10282C00129078801690053CE0B4030F30390CC23E
:10283C00397F01128E91D228123F27123FA89005A2
:10284C003CEFF0BF01031260D320A251200F4ED2F7
:10285C0086301A34E557640A701E30111B128BE354
:10286C00123DFD755701C210C211127B15E5503097
:10287C00E20312468F129078E557B418067557018B
:10288C00127B15127FBD80132018051271C08003B6
:10289C00127D22127FBD755701C210D20F30A210CB
:1028AC00300F0D201A08301805E4FF1287ACC20F48
:1028BC00201803300F4D1258EB8F49E54964017015
:1028CC004230A03F301A0F20A205127FBD8034E4A5
:1028DC00FF1287AC802D303318E4FF128E91123F1B
:1028EC002E12923F755701C233123D007F011271B7
:1028FC002930A20AD284D293127D22755701C210BC
:10290C00127AAAE549F4600312008E7549FF20186B
:10291C0003022C87900923E07004A3E06446701C2A
:10292C00E557B4170F1277087F01128E91C23AC285
:10293C0038123F27123F077447F0C286900923E0F4
:10294C007004A3E064C870123010077F01128E91DE
:10295C00C210123F0774C9F0C28630381F90080E9F
:10296C00E0B40B18128E6B7B017A08791412787212
:10297C00123D197F01127129C238D209E555540F45
:10298C00FF900B3FE0FE6F702DEE602A12926C747C
:10299C00FFFFFEFDFCAB0FAA0EA90DA80CC3123451
:1029AC00AC6013E4FFFEFDFCA80CC31234AC600653
:1029BC00203003128EDB9008AFE06003129138E5F3
:1029CC0057700D30340A12902075E702C234D21BB6
:1029DC00900925E07004A3E06496700D900925F031
:1029EC00A37497F0302502D22E303114E4FF128EEE
:1029FC0091127AAA7F707E17128D2E125EFEC23152
:102A0C0030123030182D300A057F0A125D18C20AB8
:102A1C002020033009057F0B125D18C220C209303B
:102A2C0014057F0C125D18C2143028057F0D125D41
:102A3C0018C228900807123F38941AEE940F5003CE
:102A4C00022B0DEF94BEEE940F4003022B0D2029A8
:102A5C000C300B09E4FB7D027F1F128C13302C0F02
:102A6C00300B0C9004EAE0FF7D0F127CC380253004
:102A7C000D22300B1F123E3FE4FB128C139004EA24
:102A8C00E0B41B109004ECE0B40209E4FB7D037F7E
:102A9C0010128C13302665300B6290049AE0FEA362
:102AAC00E0FF7C277D10202D1C1232E6AD077F1530
:102ABC00127CC37D1C7F16127CC37D1C7F17127C7D
:102ACC00C37D0F80301232E67E037FE8123D357FE6
:102ADC0015122CB1123D257F16122CB17C007D6491
:102AEC00123D577F0A123D337F17127CC390049A14
:102AFC007D0A123D787F18127CC3C21EC20B022BBA
:102B0C00D2D3900808E094E2900807E0941D50039B
:102B1C00022BD2200B097B017D027F1F128C13200C
:102B2C001E07200B04B22DD21E302C0B200B0812CA
:102B3C003E3F127CC38025300D22200B1F123E3FDE
:102B4C007B01128C139004EAE0B41B109004ECE0AF
:102B5C00B402097B017D037F10128C13200B6730AC
:102B6C0025629004CCE0FF64016004EFB4032A7B7F
:102B7C00207ABF79027800123DE79004EBEFF0E485
:102B8C00123DE2E47B107A0EF9F81233F7AF0390A2
:102B9C0004CEEAF0A3EFF0802B9004CEE475F001A4
:102BAC0012333BC39004CFE094109004CEE0940E0B
:102BBC004012E4F0A3F09004EBE004F0E075F06454
:102BCC0084E5F0F0D20B302E47201C13E4FB7D0380
:102BDC00FF128C13123EBD128C1312910DD21C904D
:102BEC0004EBE0FD7C007F04128D517D1C7F0612EE
:102BFC007CC3123D737C007D3C1232E67F07128D44
:102C0C00517D1C7F09127CC3123D737F0A128D51BA
:102C1C00301B077F021273FEC21B302A03125FEABD
:102C2C00302205125FEAC22230270C7F011273FE9C
:102C3C007F011273FEC227303D0CC219303C0312C7
:102C4C00553CC23CC23D301F329004D3E0FF7011A2
:102C5C00D39008A8E094709008A7E09402401C80E0
:102C6C00167E007C037D0D1232D4D39008A8E09F11
:102C7C009008A7E09E4004C21FC2A1203603022682
:102C8C00BC9008A7123F389471EE94035011EF9446
:102C9C001EEE940050030226BC3018030226BC1210
:052CAC007BEB0226BCD9
:072CB100127CC390049A227B
:10008E00201808AF49129177027C549004CCE0B44A
:10009E000110E549B41D0B7B01E41210FB7403F053
:1000AE00801A9004CCE0B40313E549641D6005E5A5
:1000BE0049B42D08E4FB1210FB7401F0E55712351C
:1000CE006601150002FE01081002086E030D980469
:1000DE000EB20505E20605E2070461080583090C68
:1000EE005D0A0D0B0C0D4B0D07120E075F0F08E08E
:1000FE001008E01108E01208E0130B8D140BA21586
:10010E000B5E1600000FB9E549B40524303003022A
:10011E000FB9123E8F4003020FB9C210E4FF1273E3
:10012E00FE1290029004D27402F0755714020CB9AC
:10013E00E549642D701F123E9D5003020FB9C21780
:10014E00C2101210BA700B123D947F0112636B1223
:10015E00768E02033CE549B41716C21075570AC2D3
:10016E000EC223C21D1210976003020FB9020C8932
:10017E00E549B4200E121097700312918B75570C2F
:10018E00D21022E549B4180E1210A770031291FC7A
:10019E0075570DD21022E549B41E0E1210A770032A
:1001AE00128C43755708D21022E549B41F10121055
:1001BE00C170057F0112750E755709D21022E549DF
:1001CE00B4260E7557061210BA7003128F20D21075
:1001DE0022E549B4280E7557071210C17003128F0D
:1001EE0020D21022E549B416131211057008E550FD
:1001FE00123E4A1280CD75570ED21022E549641078
:10020E00703575570FF54FC208D224C216FEFD1277
:10021E003E1D7F041210DA7F081210DA7D177F065A
:10022E00127CC37D1B7F07127CC37D177F08127C57
:10023E00C312836ED21022E549B42F1212109E7093
:10024E0007FF12750E754D01C22475570222E5493E
:10025E00B4301112109E700612914D754D01C224CC
:10026E0075570322E549B42713C21712110C7006F5
:10027E00120046754D01C22475570522E5496408E2
:10028E006012E5496403600CE54964026006E549C5
:10029E00640D703FD210E549B40805755710801EE5
:1002AE00E549B403057557118014E549B402057587
:1002BE005712800AE549B40D05755713C210E5575C
:1002CE00B4130B12110C6003020FB902092CC20CED
:1002DE0002092CE549642E6003020FB91211057054
:1002EE0009E55013123E4A127591755704D2102229
:1002FE00E549642D703C201A39123E9D5003020FC1
:10030E00B9C217D23378D47C047D017B017A05798A
:10031E00107E007F141232349004CAE54FF012673B
:10032E0065C22E7F01127A3EEF700312007675576A
:10033E001522E549642C600CE549B4050F9004A123
:10034E00E0B40208E55020E203026765E549640A5D
:10035E007040303212900900E04409F0301A1890C3
:10036E000903749DF08010900900E054F6F0301AE5
:10037E0006900903749CF07F0212923F7F05129241
:10038E003FB232A232E433FB7D017F1A128C13028C
:10039E00045CE549B40E14301F0302045CD21FD274
:1003AE00A1E49008A7F0A3F002045CE549B4152679
:1003BE009004D0E0FF700302045C241D75F01E84CF
:1003CE00E5F075F00DA42404F9740035F0FA7B0104
:1003DE00128A5202045C1210576062303303020F0D
:1003EE00B9AF4B127C549004D2E07003020FB9E502
:1003FE005030E20312468F129078E54FB41422E487
:10040E00FF74112FF582E43405F583E0FE74102F8E
:10041E00123DC6EEF00FBF13E8900523E54BF080BA
:10042E0008123DC2E54BF0054F123D19FF1271291E
:10043E00E54FC394025003020FB9D20A22E549B424
:10044E00050512468F8007E549B41002D2217F01BF
:10045E00020B5BE549641E7003020EBDE549B42C28
:10046E0003020EBD300C0B120FCE6003020FB90249
:10047E008C43120FBA700302055EE54F7030E54BE8
:10048E00C3940050030205DFE54BD39402400302F0
:10049E0005DF123D6CE54B123E06F551054F12106D
:1004AE00E2123D6CE5F0FD7C007F08020527E54F6A
:1004BE006401702E123D6C75F00AA4254BFF90045A
:1004CE00C3F07418D39F5003020FB99004C3E0F524
:1004DE0051054FE5511210E2123D65FD7C007F0A79
:1004EE008037E54F64027037E54BC394005003022A
:1004FE0005DFE54BD3940540030205DF123D65AFE2
:10050E00F0E54B9004A0123E0B123F3F128D51129C
:10051E003D65E5F0FD7C007F0B1292840205DFE560
:10052E004F640360030205DF123D6575F00AA425D2
:10053E004BFF9004A0F0743CD39F5003020FB99070
:10054E0004A0E0F54E123E54128D51C22C0205DF6E
:10055E00E549B4251ED234E4F5E7AF4E1291B390BF
:10056E00080FEFF0AF511291B3900810EFF07F012A
:10057E00128E91805CE549641F6005E549B42C0339
:10058E00020EBD300C0D120FCE6003020FB97F01AB
:10059E0002750E120FBA6009E4FDAF4B1253EF80D5
:1005AE0030E5496425702AD234F5E7AF4E1291B387
:1005BE00900811EFF0AF511291B3900812EFF09036
:1005CE00030FE0FF1291B3900813EFF07F01128E2C
:1005DE0091028A86E549B42606E5576406601BE556
:1005EE0049B42806E55764076010E549642C600A93
:1005FE00E549B42508E554B40103020EBD300C1FC5
:10060E00E557B406047F0180027F021257BB8F5656
:10061E00E55664016003020FB91210D1028F201249
:10062E000FDA7003020FB9E554D394014003020FA1
:10063E00B9E5547003123ECDE554B4010E74C625CF
:10064E004FF582E43404F583E54BF0123F49127CFA
:10065E00C3E54FC39404500302070C128E6BE5548E
:10066E0070237554019004C6F0A3F0A3F0A3F07D9F
:10067E00167F05127CC37D027F06127CC312001EFC
:10068E007F010273FE9004C6E0FF65457058A3E03B
:10069E00FE65467051A3E0FD6547704AA3E0FC6518
:1006AE00487043E557B40610900532EFF0A3EEF014
:1006BE00A3EDF0A3ECF08025E557B407209004C617
:1006CE00E090052CF09004C7E090052DF09004C842
:1006DE00E090052EF09004C9E090052FF012916283
:1006EE00D23CD21B8003128F64E4FB7D047F121276
:1006FE008C13E41210D1C22CD21075540222123F68
:10070E0053020D80E54964166005E549B42C0302D9
:10071E000EBD300C0E120FEE6003020FB9E5501332
:10072E0013800EE549641C6005E549B42409E54AC9
:10073E0004123E4C0280CDE54964256003020FB9D8
:10074E00E55054FBFFE54A25E025E04FF550020E3B
:10075E00A8E549B42C03020EBDE549B414137F027B
