:1088510010C4EA611A03530069006C0069006300E7
:108861006F006E0020004C00610062007300100375
:1088710055005300420020004100500049000A0306
:0C88810031003200330034000F80010091
:108F5F00420D82013B410D7502420D760000420D1C
:0C8F6F00720000420D800000410D8400E3
:105D0D00F0E4A3F090049C123502900D4AEFF09050
:105D1D00049C12350278081234DC900D4BEFF09094
:105D2D00049C12350278101234DC900D4CEFF0907B
:105D3D00049C023502900D487414F07E00FF784AE1
:105D4D007C0D7A0579107D017B010232537E007F37
:105D5D001D7D007B017A0D794722744A252AF58233
:105D6D00E4340DF583740FF0052A22900D70E025B3
:105D7D00E024B8F582E43408F583E0FEA3E0229038
:105D8D000D78E4FBFA7902F812350202341612345A
:105D9D00A890052812352A90052802351EE0AB295A
:105DAD00AA2AA92B9000010232D1EFF0900528020A
:105DBD00350278181234DC900D4DEFF022784A7CC4
:105DCD000D7D017B01FE023253E0FFE4FCFDFE225E
:105DDD00E09000021232D1900003E40232D1E0AB28
:105DED0029AA2AA92B22900D47F0A37404F0E4A34D
:105DFD0022FEE07C002400FFEC3E22900D47F0E4F3
:055E0D00A3F0A3F02248
:10801800128A62908851E493FE740193FF9088530A
:10802800E493FC740193FD7BFF7A88796F90054493
:1080380012357C7A88797F90054712357C9088893B
:10804800E49390054AF090888AE49390054BF09069
:10805800888BE493FB74019390054CCBF0A3EBF071
:0C8068007BFF7A8879551257630291C99A
:03008600028E16D1
:1035D700125D5A1235AB125D607D1D126EFA900DA9
:1035E70047E0123585362E01365702374303361723
:1035F70004392B0538FD0638B707394208396409FD
:1036070039BD0E39CD0F39E81039F11100003A05EF
:10361700900D477404F0A3F0E4A3F07A0579327FA4
:1036270004125DCA023924900D477401F0A304F017
:10363700E4A3F0900538E0FCA3E0FD14900D4AF0F8
:10364700ED24FFEC34FFA3F0125D607D0502393EE7
:10365700900D4BE0900D4A125DFE900D76F0A3EFB2
:10366700F0E02401FF900D76E03400FE126FA9759B
:103677002901752A0D752B6C125DECE41232BF908F
:1036870004F8125DAA9004F9125DDD752901752A07
:103697000D752B789004F5125DEB1232BF9004F68E
:1036A700125DAA9004F7125DDDE4900D74F0FFFE41
:1036B700FDFC900D6C12351EC31234CB6060900D6B
:1036C7006C1235028F3A8E398D388C37900D7812FF
:1036D7003502127FBA900D71EFF06042125DD6FB92
:1036E700FA7902F812338BAB07AA06A905A804904A
:1036F7000D6C12350212337D900D6812352A7B014D
:103707007A0D79688B298A2A892B900001123292C7
:103717009004F8F09000021232929004F9F0900DA4
:10372700477402F0A37420F0E4A3F07A0479F07FE1
:1037370020125DCA125D607D2302393E752901752D
:103747002A0D752B7C900D4D125DEB1232BF900D3B
:103757004C125DAA900D4BE09000021232D1900DF1
:103767004AE09000031232D1900D74E0704004F0EB
:10377700E4900D70F0A3E06035125D78F47002EE0E
:10378700F4602B125D8CA804A905AA06AB07125D8D
:1037970078FFE4FCFDD31234CB4013900D70E004A6
:1037A700F090090EE0FF900D70E0D39F40CB900D95
:0737B70071E0700302384CC1
:1037BE00E4F52EF52F900D70E0F532125D8C8E2C07
:1037CE008F2D900D7C125D8FC3EF952DFFEE952CF6
:1037DE00CF2401F531E43FF530C3E52F9531E52EC9
:1037EE0095305022E532125D7CB52D08EEB52C04D5
:1037FE0005328008052FE52F7002052E052DE52DCB
:10380E0070D7052C80D3900D7C12351EC000C001E0
:10381E00C002C003900D70E0FFC3E5329FFFE49439
:10382E0000FEE4FCFDFBFA7902F812338BD003D0D4
:0E383E0002D001D000123370900D7C12352A9A
:10384C00900D4FE0900D4E125DFEFE900D72F0A3A8
:10385C00EFF0D39400EE94024009900D727402F0D4
:10386C00A3E4F0900B447403F0900D72E0FCA3E021
:10387C00900B45F0ECA3F0900D7C123502900D727C
:10388C00E0FBA3E0900577CBF0A3EBF07B017A0B88
:10389C0079471273697B017A0B7944900D73E0249C
:1038AC0003FD900D72E03400023960900D4D125DF5
:1038BC00D678181234EF125D9EC000900D4C125D3C
:1038CC00D678101234EFD000125D9BC000900D4BD7
:1038DC00125DD678081234EFD000125D9B900D4A21
:1038EC00125DD61234A890052812352AD23FD23E4A
:1038FC00227406125DF3125DB8900D4A125DB77812
:10390C00081234DC900D4B125DB778101234DC9039
:10391C000D4C125DB7125DBF125D607D0780139078
:10392C000D477405F0A314125D0D125DBF125D609E
:10393C007D077C00801F7408125DF3F0A3E559F03D
:10394C009004CCE0900D4BF0A3E54FF0E4A3F01203
:10395C005D607D07FC025BFCE55964017003023A73
:10396C0005E55964187003023A05E55964177003AC
:10397C00023A05303303023A05900D48E0FFD39428
:10398C001450768F51AF517E0078107C057A0D79EA
:10399C004A125D53C374149551FFE49400FE7D0FDD
:1039AC0074102551F9E43405FA7B011235ABD2338E
:1039BC0022301A45301842E5596401703CFF0288E8
:1039CC00C9E55964186006E5596417702CD284D285
:1039DC0093127E35755901C210027BBDE5596010FA
:1039EC00B40116800BE55964146005E559B401095E
:0939FC00754B0512008E754BFF9E
:013A0500229E
:025AEB008F2901
:105AED00125D5A1235ABE52924F560491460741422
:105AFD00607124FB7003025BC724086003025BED39
:105B0D00200A03025BED900D47740AF0A37414F0A4
:105B1D00E4A3F0FE7F14125D4B85512AE52AC39450
:105B2D00145005125D6780F4125D607D177C0012C4
:105B3D005BFCC20A22202106200903025BED740BD7
:105B4D00125E08300912125D4285512AE52AC3946E
:105B5D00145005125D6780F4125D60125BEEC22178
:105B6D00C20922201403302977900D47E529F0A3AF
:105B7D007419125D0D125DBF9004D2E0900D4EF0C0
:105B8D00784F7C0D7D017B017A0579107E007F14A5
:105B9D0012325385512AE52AC39414500E744F25A1
:105BAD002AF582E4340D125D7080EB125D607D1C70
:105BBD007C00125BFCC214C22922301B237412120A
:105BCD005E08E5516012125D4285512AE52AC394A3
:105BDD00145005125D6780F4125D60125BEEC21BFE
:0F5BED0022900D48E02403FDE433FC125BFC2200
:03008B00027AE214
:107AE200C0E0C0F0C083C082C0D075D000C000C06A
:107AF20001C002C003C004C005C006C0071293A49F
:107B02008F1DE51D30E20C9008017401F0900B42CC
:107B1200E004F0E51D30E1069009217402F0E51D54
:107B220030E7069009217403F0E51D30E60690095E
:107B3200217404F0D007D006D005D004D003D002BF
:0F7B4200D001D000D0D0D082D083D0F0D0E032AC
:1092E00031302F33302F31330031373A32383A347E
:0292F000360046
:104D2F00F518F517F516F515900B40E0FEA3E0FF0B
:104D3F007C007D0A123305E4FCFDFBFA7902F802D0
:104D4F00338BE4FB7A08F9F8123502123416EF248C
:104D5F0001FFE43EFEE43DFDE43CFC22E52925E0B5
:104D6F0024B8F582E43408F58322E4FCFDFE9008B4
:104D7F000912352AE4FFFE7D02FC90080912351E48
:104D8F0002338B900915E4FBFA7902F80235029091
:104D9F000915123502C3AB18AA17A916A8150234A4
:104DAF00CBFFEE34FFFEE434FFFDE434FFFCE422DE
:104DBF0012352A9008E1E09008E024FFFFE034FF6D
:104DCF00FE22FFE4FCFD12351E023370E0FFA3E06C
:104DDF00900586CFF0A3EFF02290091512351E90A3
:104DEF00091D12350212337DE4FBFA7902F81234F1
:104DFF001690089CEFF022FEE43516FDE435158F72
:104E0F00188E178D1622AF18AE17AD16AC1522934C
:104E1F00FE740193FFEE900538F0A3EFF0221235E8
:104E2F0002E4FB7A08F9F802338BE5182496FFE5C4
:104E3F00173415FEE51634FFFDE51534FFFC228F00
:104E4F001C8E1B8D1A8C192234EA8F82F583E49302
:104E5F00229004EEE024E2FF9004EDE034FF22AB59
:104E6F0007AA06123502C3EF9B22123502900802E1
:104E7F0002352AE52925E024B6F582E43408F583C6
:104E8F002275F004A42400FFE5F034E8FE22AF2AD7
:104E9F007E00AC2BAD2C0232F3123416900B40EE89
:104EAF00F0A3EFF0229004EDE0FEA3E02212351EF6
:104EBF00C30234CB9FFFE09E900586F0A3EFF02254
:104ECF00FDEE34FF8D82F583E49322900530E4F0FC
:104EDF00A3745AF0229004ED74ECF0A3E4F0229046
:104EEF000570023573E0FEA3E029F9EA3EFA22903D
:0B4EFF000557023573900565023573FE
:10909F00A2AF924375FEFFC2AF8F828E83758F0191
:0F90AF0075B7A575B7F1EDF0E4F58FA24392AF59
:0190BE00228F
:108B0600A2AF924275FEFFC2AF75FF8075EF028E6F
:108B1600408F4175B7A575B7F1438F0375FF807513
:108B2600EF02854182854083E4F0538FFCA2429296
:048B3600AF75FEFF1A
:018B3A002218
:101FE60090EA2BE493F529E529B4FF189005387497
:101FF60001F0A3E4F09008A112353610000000E4C9
:10200600FF125F15E4900590F090EA0093F529E53C
:1020160029F460061252170221B9124EDA900528E9
:10202600123536FFFFFFFF90049C12353600000084
:102036000090049C123502128EBFE4900532F0A384
:10204600F0A3F0A3F090052CF0A3F0A3F0A3F0907A
:1020560008A1123536000000009009151235360029
:1020660000000090091D12353600000000E49008BB
:102076009CF0FE7F287DFF7B017A0879B81235AB8C
:102086007F01125E12E49004EFF0F529124D6BE029
:10209600FEA3E0FFBEFF0BBFFF0890090EE529F087
:1020A60080070529E529B414E3752B07752CF890EC
:1020B60008E07408F0A3E4F090090EE0F529E5299C
:1020C600D39400403A124E82E0FEA3E0FFC3952C63
:1020D600EE952B402AEF24F8F52CEE34FFF52B90E5
:1020E60008E0EEF0A3EFF0124E8274FFF0A3F0903A
:1020F60004EF7404F090090EE014F0152980BF90E7
:1021060008E0E0FEA3E0FF7C007D0A1233058E2B7B
:102116008F2CE4F52990090EE0FFE529C39F4003C3
:102126000221B6E4F52A124E9D124D6BE0FAA3E0A9
:10213600FBB5070BEAB506079004EFE04402F01280
:102146004E9DEF24FFFFEE34FFFEEBB50712EAB516
:10215600060EE52AD3940040079004EFE04402F00F
:10216600052AE52AB40ABFE52925E024BAF582E462
:102176003408F583E0FEA3E024FFFFEE34FFFE12F1
:102186004D6BE0FCA3E0B50722ECB5061EE529245D
:1021960001FFE433FE90090EE0FDC3EF9D7480F865
:1021A6006E9850079004EFE04401F0052902211BC8
:1021B600128AD0E4F52BF52C752A0AE4252AFFE4C9
:1021C600124E57F529F46004E5297046E52A641590
:1021D6007038F52B752C01124DC2124D469008A190
:1021E600124DBFEF24FD124DB0124D4990091D123C
:1021F6004DBFEF24FA124DB0124D49900915123514
:102206002A124D92124EA8124DE8052AE52A6416A6
:1022160070A9E52C6401452B700312561BC23E9033
:10222600EC00E4124E1EF47002EEF4705890E600D4
:10223600124E1EF47002EEF4604B900538E0700208
:10224600A3E060417F007EEC128B06E4F52BF52CB3
:10225600E4252CFFE52B34E68F82F583740193F594
:1022660029E4252CFFE52B34ECFEAD2912909F05C1
:102276002CE52C7002052BC3E52B940240D27F007F
:102286007EE6128B067B017A09792B90057774021C
:10229600F0A3E4F0FFFE7DF27C0F1273699005381F
:1022A600E0FEA3E0FF64014E7003022344EFF470E6
:1022B60002EEF47003022344900538A3EF24FE12C5
:1022C6004DB07B20FAF9F812338B900915124DD5D3
:1022D600124E7C900538E0FFA3E0CF124E25122661
:1022E6004A855454855555900538E0FAA3E0FB24F9
:1022F600FFFFEA34FFFEEFB55506EEB55402803E09
:10230600EB24FEFFEA124DB27B20FAF9F812338B6A
:1023160090091D124DD5124E7C12264A900539E0C1
:10232600900538124DC9EFB5550FEEB5540B90090F
:102336001D124E79900915800E75FEFF80FB9009DF
:1023460015124E7990091D12350290092712352A69
:10235600900538E4F0A304F0124EE4F52B752C0139
:10236600124EB4F5828E83E493F529F4600C900442
:10237600EDE475F02012335A800C900538E52BF009
:10238600A3E52CF0800E052CE52C7002052B6411BC
:10239600452B70CC900538E07004A3E06401700F03
:1023A600E52C6401452B7007124D2F124E4E22125A
:1023B6004EB4FF24E0124ECFFD740193900538CD44
:1023C600F0A3EDF0900538E475F00112335AEF24CE
:1023D600E5FFEE34FFFE128752124E0E8C15E51500
:1023E6007518008E178D16F5157B007A00790DE4A9
:1023F6001232BF124EB4FF24E8124ECF90000112E3
:1024060032D1EF24E9FFEE34FF124E59900002124A
:1024160032D1900003E41232D1AF10AE0FAD0EAC44
:102426000D7AFF79FF7800D31234CB40030224EBF8
:10243600124E1590081F12352AE4F529124D9E50AA
:102446000A124E151288128F298003E4F529E52910
:1024560060030224DB90081F12351EC3E5189BFF9C
:10246600E5179AFEE51699FDE515988F108E0F8DE6
:102476000EF50DE4FF7E04FDFCAB10AA0FA90EA815
:102486000DD31234CBE4500AF510F50FF50EF50D09
:1024960080192510FFE50F34FCFEE50E34FFFDE53F
:1024A6000D34FF8F108E0F8D0EF50D9004EEE02487
:1024B600E8124E66FE7B007A00790E754102128B99
:1024C6003B124E60FE124E59F5295329EFAD2912E3
:1024D600909F02256AE42518FFE5173402124E067E
:1024E600F515022442124E60124E59F529E51825BB
:1024F60010FFE517350FFEE516350EFDE515350D12
:10250600124E0EF515E52920E40DE42518FFE51712
:102516003404124E06F515E52920E548E518FFE5D1
:1025260017FEE5165401FDE4FCFBFAF9F8C3123474
:10253600CB6031E47902F8124E15124D5AE4124D71
:1025460049124E0E8C15124E39128812EF70157BF9
:10255600FF7A8A7957124E3990056CE4F0A3740518
:10256600F0126E4AE4F529F52B752C01124D9E40AA
:1025760014E4F518F517F516F515F51CF51BF51AFF
:10258600F5190225DB124D37A804A905AA06AB07E3
:10259600AE2BAF2CE4FCFD12338B124E4EE52C64B1
:1025A6000A452B7009900915123502124E4EE51C8C
:1025B60024A0FFE51B3415FEE51A34FFFDE51934AA
:1025C600FFFC124DA44021AF1CAE1BAD1AAC19D3B3
:1025D600124DA55005752901800E052CE52C7002BB
:1025E600052B640B452B7084E52964017055900911
:1025F60015123502AB1CAA1BA91AA819C31234CB93
:102606004011E4F51CF51BF51AF519F518F517F543
:1026160016F515AF1CAE1BAD1AAC19754101127932
:10262600FC124D79EF251CFFEE351BFEED351AFD2C
:10263600EC3519FC1288128F29E5297003028D5E8C
:03264600129327C5
:10264900227B007A007954900802123502900577AE
:0A265900E4F0A37402F0127369228A
:088EBF008F3B8E3A8D398C388F
:108EC700E53B547FFFE4AD07ED7006FF7EE8128BAC
:108ED70006ED124E907B007A007938754104028BBB
:018EE7003B4F
:107F5C00E4F531F530F52FF52EF535F534F533F52F
:107F6C0032F52DE52D124E901287528F358E348DB1
:107F7C00338C3274FFFFFEFDFCAB35AA34A933A859
:107F8C0032C31234CB7009E52D701AFFFEFDFC22B2
:107F9C0085353185343085332F85322E052DE52DF1
:0D7FAC00C3948040BEAF31AE30AD2FAC2E7F
:017FB90022A5
:107895007D117F03127DD67D1F7F04127DD67D0C61
:1078A5007F05127DD67D177F06127DD67D117F0758
:1078B500127DD67D217F08127DD67D0C7F09127D34
:1078C500D67D137F0A127DD67D137F0B127DD612CE
:1078D50084D3E4F533F534AE33AF34124D46128B11
:1078E500D60534E53470020533C3E533940840E723
:1078F5007F007EEC128B067EE8128B067EEA128BE9
:08790500067EE6128B0680FEEF
:025F15008F3CBF
:105F1700900538E07004A3E06401700302600CE5AB
:105F27003C6401702A7D107F03127DD67D117F04AA
:105F3700127DD67D137F05127DD67D117F06127DDA
:105F4700D67D187F07127DD67D117F08127DD6E496
:105F5700F53DF53E9008A1124D95123416A804A9F7
:105F670005AA06AB07AE3DAF3EE4FCFDD31234CB2A
:105F77004052AE3DAF3E124D46128812EF603AAE28
:105F87003DAF3E124D46128BD6E53C6401702AC3E5
:105F9700E53E947FE494005005753F1D8003753FEF
:105FA7000FAD3F7F09127DD6AD3F7F0A127DD6AD7B
:105FB7003F7F0B127DD61284D3053EE53E70020566
:105FC7003D025F5B7F007EEC128B06E53CB401214E
:105FD700E4900537F09004CDF09004E8F09004D0F9
:105FE700F09004C4F09004D1F09004C5F09004CB75
:105FF700F0900538E4F0A304F0E4124D2F124E4E52
:05600700124EE4C2325C
:01600C002271
:10888D00124E159008A912352A9008A11235021220
:10889D004E0E8C157B007A007933900586E4F0A39B
:1088AD0004F0126D99E533F46006124E15128BD655
:0B88BD009008A9123502124E0E8C1517
:0188C800228D
:10561B007F007EEA128B067B017A05793275410495
:10562B00128B3B7B017A05792C7541047F047EEA52
:10563B00128B3BAD577F087EEA12909FAD520F1233
:10564B00909F7B017A0979157541040F128B3B7B77
:10565B00017A09791D7541047F0E7EEA128B3B7B23
:10566B00017A0879A17541047F127EEA128B3B7B8C
:10567B00017A0579287541047F167EEA128B3B90DF
:10568B00090FE0FD7F207EEA12909F900913E0FD49
:10569B007F2412909F9009141257399008FD1257CE
:1056AB00399008E21257409008061257409004A216
:1056BB001257559004D312575590059012575C9082
:1056CB00053012575C900530A3E0FD0F12909F90B0
:1056DB0004EFE0FD7F2F12909FE4F9E975F002A42F
:1056EB002430FBE5F034EAFAE9124D6DE0FDAF032F
:1056FB00AE0212909FE975F002A42431FFE5F0345D
:10570B00EAFEE9124D6DA3E0FD12909F09E9B41476
:10571B00CAE4F9E924E09092E0125747B408F4E4A4
:0D572B00F9E924F09092E9125747B408F410
:1057380022E0FD0F12909F22E0FD0F12909F22FFA2
:10574800E434EBFEE993FD12909F09E922E0FD0F96
:0B57580012909F22E0FD0F12909F2294
:1052170075FEFF90EA00E493900532F090EA01E40E
:1052270093900533F090EA02E493900534F090EA06
:1052370003E493900535F090EA04E49390052CF08D
:1052470090EA05E49390052DF090EA06E493900523
:105257002EF090EA07E49390052FF090EA08E49384
:10526700F557A3E493F5527F0A7EEA128752900915
:105277001512352A7F0E7EEA12875290091D1235C4
:105287002A7F127EEA1287529008A112352A7F16CA
:105297007EEA12875290052812352A124DE890EAC5
:1052A70020E49390090FF090EA24E493900913F017
:1052B70090EA25E493900914F090EA26E493900885
:1052C700FDF090EA27E4939008E2F090EA28E4934F
:1052D700900806F090EA29E4939004A2F090EA2A55
:1052E700E4939004D3F090EA2CE493FE740193FFC7
:1052F700900530EEF0A3EFF0D3945AEE94004003FC
:10530700124EDA90EA2FE4939004EFF0E4FDED7586
:10531700F002A42430FFE5F0124E57FE740193FF0C
:10532700ED124D6DEEF0A3EFF00DEDB414E0E4FDDA
:10533700ED124D6DE0FEA3E0FFBEFF0ABFFF079031
:10534700090EEDF080050DEDB414E5E4FBFA7902E2
:10535700F89008A1123502123416EF2401FFE43E3B
:105367009008E0F0A3EFF0124D92124EA8127F5C66
:0653770090049C02352A9F
:0C73690090057012357C90057312352AD7
:10737500900573124D5190057912352A90057912B1
:107385004E2D90057912352A900577E0FEA3E09001
:107395000573124DD1900579124EBC504790057377
:1073A500123502900579124E6EFFEE9A90057DF02A
:1073B500A3EFF0124EEE90057D124DDB9005731292
:1073C5003502126D99124EEE90057D124EF4900520
:1073D5007DA3E0FFC3900578E0900577124EC3903A
:1073E5000579800C124EEE900577124DDB900573F2
:0673F500123502126D9931
:0173FB00226F
:0C6AC20090055712357C90055A12352AB9
:106ACE0090055A124D5190056012352A90056012AC
:106ADE004E2D90056012352A90055EE0FEA3E090E3
:106AEE00055A124DD1900560124EBC90055A505861
:106AFE00123502900560124E6EFFEE9A900564F00C
:106B0E00A3EFF0124EFE900564124DDB90055A1263
:106B1E003502126D99900560126B73124D799005C6
:106B2E0060124DD5C006C007124EFE900564124E7F
:106B3E00F4900564A3E0FFC390055FE090055E123C
:106B4E004EC3D007D0068019126B73124D79900583
:106B5E005A124DD5C007124EFE90055E124DDBD077
:046B6E0007126D9904
:0B6B7200221235027541011279FC224D
:0C6E4A0090056512357C90056812352A11
:106E5600E4FB7A08F9F8900568124D5790056E1212
:106E6600352A90056E124E2D90056E12352A900524
:106E76006CE0FEA3E0FFE4FCFD900568124DD590A2
:106E8600056E124EBC5051900568123502AB07AA2A
:106E96000690056E124E72F53DEE9AF53C90056829
:106EA600123502124F04900579E53CF0A3E53DF05A
:106EB600127055124F04E9253DF9EA353CFA900562
:106EC6006CE0FEA3E0C3953DFFEE953C900579F09E
:106ED600A3EFF090056E8015124F0490056CE0FF4D
:106EE600A3E0900579CFF0A3EFF090056812350284
:036EF600127055C2
:016EF9002276
:108A29008780848881858982868A838B5F503D7996
:108A3900726B6F517F7B0C48776E0F007C2F270E6E
:108A4900576C376B2E5E4C7A20087F07640003074A
:098A59000F080C0E0F0103070FBA
:1011190090054F12351E90056012350212337DE499
:10112900FBFA7902F8123416900557A804A905AA02
:1011390006AB07E0FEA3E0FFE4FCFD22900557E4BF
:1011490075F00102335A900B40E0FEA3E0FF7C00EA
:101159007D0A1233057902E4FCFDFBFAF802338BB0
:10116900D283C28325E0FFA282E4334FD283C283B4
:1011790025E0FFA282E4334FD283C28325E0FFA298
:1011890082E4334FD283C28322E4FCFDFE90080936
:1011990012352AE4FFFE7D02FC90080912351E0271
:1011A900338BE4FB7A02F9F812338B90080212357B
:1011B9001E023370900557E0FEA3E0FF2400FDEE08
:1011C90034EC8D82F583E493FD22E42DFFEC34ECBD
:1011D900FE742B2DF58274093CF583E0222400FF6F
:1011E900EE34ECFE7C00EF2DFFEC3E8F82F583E4BC
:1011F90093FB900541E0FEA3E078052290080212D6
:10120900350290081F12352A9009271235029008D5
:101219000212352A90081F12350290092712352A21
:1012290090092722E4FBFA7902F89008E5123502C1
:10123900123416900548EEF0A3EFF09008E5123548
:1012490002ED5401FDE4FCFBFAF9F8C30234CB7456
:10125900FF7F00FEFDFCAB3BAA3AA939A838C302BF
:1012690034CBE5142402FFE43513FEE43512FDE422
:101279003511FCE47B14FAF9F812338BAB10AA0F81
:10128900A90EA80DC30234CB9005777402F0A3E42C
:10129900F07B017A09792B22FCC3AB18AA17A9168E
:1012A900A8150234CB9004EEE0240AFF9004EDE087
:1012B9003400FE222DFFEE3CFE742B2FF5827409BB
:1012C9003EF583EBF0900546E004F022C283A203C9
:1012D9009282D283C283A2029282D283C283A20162
:1012E9009282D283C28322FFE50A34FFFEE50934E4
:1012F900FFFDE50834FF8F0B8E0A8D09F50822FCE6
:10130900C3AB0BAA0AA909A8080234CB123502EF0C
:101319002401FFE43EFEE43DFDE43CFC22FEED7ABF
:10132900002FFFEA3E8F82F583E493FF75F020ECEE
:10133900A42DF582E435F0F583E582242BF582E5C9
:10134900833409F583EFF090055DE004F022FE7423
:10135900A32FF582E43404F58322F0900912E025E5
:10136900E025E0FF9008E4E0C454F04F900904F050
:10137900900913E075F008A490090CF0900914E0A5
:1013890075F008A490090DF022900919E47B14FA6C
:10139900F9F8123502023416FCEF24FFFFEE34FF90
:1013A900FEED34FFFDEC34FFFCE4FBFA7902F82290
:1013B900900557FFE0FCA3E0FDC39FEC9E22900837
:1013C9009CE0FFE4FCFDFEFB7A10F9F812338BE494
:1013D9007B10FAF9F812870EEF2401FBE43EFAE4D8
:1013E9003DF9E43CF89005572290054AE0FCA3E05A
:1013F900FDA3E0FEA3E0FFC322900539E024FEFF30
:10140900EF540F2401FFE433FEC3900542E09F909F
:101419000541E022EFFD7C002400FFEC34EC8F82D3
:10142900F583E493FB7E00900544E0540F78052290
:101439003EF583E0FFE4FCFDFE1234A88F3B8E3AB3
:101449008D398C3822A3E0FD1293497F0A7E001260
:101459008E48A3E0FD229008A1123502EF24D0FFA7
:10146900EE34FBFEED3401FDE43C222518FFE517BF
:101479003402FEE43516FDE43515FC90081F1235DB
:101489001E12337DAB2CAA2BA92AA829C30234CB5F
:1014990090055CE02537FFE433FEEF7805229005DF
:1014A90039E024FEFF900538E034FFC4F854F0C851
:1014B90068FEEFC4540F482278081234EFA804A933
:1014C90005AA06AB0722C3AB1CAA1BA91AA81902B5
:1014D90034CB7902FBFAF802338B90081F123502DC
:1014E9008F0B8E0A8D098C08E4751401F513F5121A
:1014F900F51122FDFB7A02F9F802338BED25E02480
:10150900B8F582E43408F583E0FAA3E022E4FEFDAD
:10151900FCAB14AA13A912A811C30234CBC2837F4E
:10152900047E0002910A900807E0FFA3E090089F5B
:10153900CFF0A3EFF022900B40E0FEA3E0FF7C0088
:101549007D0A0233059009151235028F1C8E1B8DF9
:101559001A8C1922FE742C2DF58274093CF583E04E
:10156900FDED22E4900557F0A3F022E47B32FAF96D
:10157900F8AF14AE13AD12AC110234167B017A0523
:10158900793DAF0BAE0AAD09AC08221235028F18AE
:101599008E178D1622FFE53CFDC374049DFDE4946E
:1015A90000FC740E2DF58274083CF583E0228F143B
:1015B9008E138D12F51122AF18AE17AD16AC152288
:1015C900900539E024FFFF900538E034FF22128AA4
:1015D9009AE50B2510FFE50A350FFEE509350EFDE5
:1015E900E508350DFC22E4F51CF51BF51AF519F58E
:1015F90018F517F516F51522FEFDFC9008091235A8
:101609001EC30234CBFFE4350AFEE43509FDE43597
:10161900082290081F123502EF2510FFEE350FFE44
:10162900ED350EFDEC350D22FF7E00EF540F7805E8
:101639002225E0FF24A2F582E43404F58322E53A69
:101649002496FFE5393415FEE53834FFFDE53734D6
:10165900FFFC22E53775F020A4FFE5F0900559F06D
:10166900A3EFF022FA7B10F9F8023416900539E05D
:101679009FFF900538E09E229009150235029008D7
:101689001F123502AB0BAA0AA909A808D30234CB49
:10169900FFE0FAA3E0FB242BF58274093AF583EF06
:1016A900F022E4FCFDFE90080902352A35F0A80174
:1016B900FC7D017B017A0879147E007F0A22EF24E0
:1016C900FFFFEE34FF22900559E0FCA3E0FD242B37
:1016D9002290053874FFF5F002335A900543E0C4AF
:1016E900F854F0C868FEA3E0C4540F4822EF251C43
:1016F900FFEE351BFEED351AFDEC3519FC22C3133F
:10170900F582758300023292900807E0FFA3E0900A
:1017190008A5CFF0A3EFF0227410253DF582E4343B
:1017290005F583227411253DF582E43405F58322FC
:10173900C3900541E0940222900548E0FFA3E090A0
:10174900054CCFF0A3EFF022C43354E0FF9008001A
:10175900E04F900905F022E55254F0FF131313549A
:101769001F900908F022D23990089E74FFF022E0F8
:101779009000021232D1900003E40232D174FF7555
:10178900F0E09004ED02335A74089008FFF09009D4
:101799000122758A10758CAAD28C22AF1CAE1BADA2
:1017A9001AAC1922E0FEA3E0FF900807E0FCA3E0D1
:1017B900FD22E09000010232D1FC7B007A00790D14
:1017C900E4F0A37404F022F0A3F0E53B908A579368
:1017D9002290055AE02400FF900559E034EC22FFDD
:1017E900900565023573C4F8540FC868FFEEC454F8
:1017F900F048FE2274EE9004EDF0A3E4F022900587
:1018090046E0FDC394202290054AEEF0A3EFF022B2
:1018190075D4FF75D5C075D6FF75DFC022FFE435D5
:1018290013FEE43512FDE43511229004A1E06402AF
:1018390022E53E04FF127DD6053E22742B2FF58248
:1018490074093EF583EDF02290056C7402F0A3E46F
:10185900F0222DFFEE3CFE740B2FF5827409221B3A
:10186900C3EB64809480221AC3EA648094802212B4
:10187900338B8F2C8E2B8D2A8C29229004A1F0FD7D
:101889007FFF129349E42275F00DA4FFAEF0227E8A
:10189900007F0D023253900559E0FEA3E022C39068
:1018A9000557E0940222E4900541F0A3F022C28298
:1018B90012910AD28202910AE0FFC3740A9FFFE4DF
:1018C90094002213135401F54CE4FDAF4C2290050A
:1018D90055F0A3EFF022E42546FFE43545FEE54443
:1018E900229008FFF07F0122C28DC28CE490081E6D
:1018F900F0227E007D007B010235AB90090A744716
:10190900F022AC00AD01AE02AF03E422E47B14FA8D
:10191900F9F8223EA801FC7D01220537E53764105C
:10192900228F82F583E49322C374109537FF22AB8B
:101939003EAA3FA94022E0FF129377EF22FF9005CC
:1019490038EF540F240122242BF974093EFA7B0144
:01195900226B
:0A93D50043868375A904E4F5B22273
:0793DF0043B20343A902227F
:1091E200E4F5C775B03F75A0F5F59075808E75A44E
:0891F2001075A50812181922DE
:1090180075C7FF75B03F75A0FD7590F07580EF7549
:10902800A45075A5EC75A60275A7C275AEFF1218F7
:029038001922FB
:03000B00027488F4
:10748800C0E0C0F0C083C082C0D075D000C000C0CA
:1074980001C002C003C004C005C006C007C28DC237
:1074A8008C30184A900B3FE004F090090AE06447DA
:1074B80060047D4780027D437F0C126A007D027F55
:1074C8000A126A007F5E7E01128E4890090AE4F073
:1074D8007F0C129359900908E4F07F0A129359908F
:1074E800081EE4F01218EA129359C23CC292D0075F
:1074F800D006D005D004D003D002D001D000D0D01F
:09750800D082D083D0F0D0E03233
:03001B00028074EC
:10807400C0E0C0F0C083C082C0D075D000C000C0D2
:1080840006C007C28F9009231211489009251211C6
:1080940048758BAF758D3C900923E0FEA3E0FF6427
:1080A4000A4E7002D23FEF64D24E700AC2AB9009FE
:1080B4002374FFF0A3F0303702D223D007D006D0C8
:0C80C40000D0D0D082D083D0F0D0E032C9
:0300730002839174
:10839100C0E0C0F0C083C082C0D075D000C000E58D
:1083A1009130E62C5391BF9008071211489008A70D
:1083B100121148D3900808E09484900807E0941EB5
:1083C100400EE4F0A3F0050CE50CB43C03750C0081
:1083D100303702D223D000D0D0D082D083D0F0D099
:0283E100E03288
:0C90FE001392827F047E0012910AD2833C
:10910A00E4FDFCC3ED9FEC9E50070DBD00010C80F1
:01911A00F262
:01911B002231
:078E41001293497F0A7E0035
:108E4800E4FDFC75FEFFE4FBFAC3EB9FEA9E5007C6
:108E58000BBB00010A80F20DBD00010CBC01E4BD92
:028E68002CE1FB
:018E6A0022E5
:0270FF00A907DF
:1071010075FEFFA2AF9242C2AF2018427B03C28339
:10711100E9A803088002C313D8FC139282D2831218
:10712100186850EAC283D282D283C283D283C282D8
:10713100D282C283A282E43312116925E0FFA282C6
:10714100E4334F121169D283A24292AFFF2243A4CA
:107151000C7B03121526E9A803088002C313D8FC8F
:107161001290FE12186850EB121526D28212910568
:10717100C2831291051218B753A4FB7B071215267F
:10718100EA25E0FFA282E4334FFA7F04129105124F
:10719100186850E9121526D28353A4F3A24292AF84
:0371A100AF022218
:0F93590074FE2FF582E43408F583E0FD026A000C
:026A0000AB07E2
:106A020075FEFFA2AF9243C2AF8D20C28320183F12
:106A1200C283A2071212E9A2061212E9A2051212F9
:106A2200E9A2049282D2831212D5A2009282D28368
:106A32008B201212D5A2001212E9C282D283C28323
:106A4200D282D283C282D282C283D283026ABD43FD
:106A5200A40CE520C4540FF97A03C283E9A8020802
:106A62008002C313D8FC1290FE12187050EC7A0305
:106A7200C283E520A802088002C313D8FC1290FE4C
:106A820012187050EB7A03C283EBA802088002C38B
:106A920013D8FC1290FE12187050EC121526C28206
:106AA200129105C28312910AD2821291051218B76D
:0F6AB200C28312910575FEFF53A4F3A24392AF66
:016AC10022B2
:1080D0009008FE74BFF02034089009007409F08005
:1080E00005E4900900F01217917430F0900823E035
:1080F000FFC394045006EF04F5298003752907E5B2
:108100002925E0FF9004A2E04F900903F0E5291231
:108110001751900806E09009061213631292F2C2FA
:0B812000931218F11291FAC284C21AE7
:01812B002231
:107BBD00D2937F017E00128E481291FA1218F1D2E3
:107BCD0084D21A9008FE30110574EFF0800374FF13
:107BDD00F020340E9009007409F0900903749DF0A3
:107BED00800BE4900900F0900903749CF0740E1260
:107BFD0017937438F0900823E01217519008E2E0C3
:107C0D00900906F09008FDE0900908F090090FE04A
:0B7C1D0044409009071213630292F22A
:1092F200E4F538AF381293590538E538C394104075
:01930200F278
:019303002247
:10911C007F107A0879FE1218FB9008FE7489F09083
:0E912C0009097480F090090B7418F00292F299
:109158009008FE7489F0E4FF129359E41218EA1299
:0D9168009359900903744CF07F0502935950
:107D67008F35203861E535D3940B505AD238E490DB
:107D770008A7F0A3F0900903E0440E54FEF07F0536
:107D8700129359201A0890090074A0F080199009DD
:107D9700007460F09008FDE0D3940A400A90090847
:107DA700740AF0FF1293597F0212935990090174D4
:107DB70001F07F03129359E535908A299390090AB8
:077DC700F07F0C129359221A
:1072D30030A002D29330A0067FD07E0780047F01C6
:1072E3007E00128E487D617F0B126A0030A0067FFC
:1072F300E87E0380047F017E00128E487D417F0B70
:10730300126A0030A0077FB87E0B128E487F0212EC
:1073130070FFEFC3941450089008237407F080198A
:10732300EFD3943B4003E4800C74EC2F75F0058499
:10733300FFC374079F900823F0C293900823E0D300
:1073430094029008004010740BF09008E47405F068
:107353009009127403F0227411F09008E47402F09F
:0573630090091214F076
:017368002202
:027511008F34B5
:107513009008FFE0900542F09008FF7482F0A3E02A
:10752300900543F09009003011057460F0800374F6
:1075330040F0E53490090A70057422F08003742E3C
:10754300F01217601292F27F2C7E01128E4890087F
:10755300FF7406F07F01129359E534B401067FF4FA
:107563007E0180047FD07E07128E48E490090AF0E2
:107573007F0C129359E4900908F07F0A12935990F3
:107583000542E01218EA129359900543E09009006E
:06759300F07F0202935993
:03000300024F0A9F
:104F0A00C0E0C0F0C083C082C0D075D000C000C06D
:0D4F1A0001C002C003C004C005C006C007EE
:104F2700E4FF1270FF90053AEFF0301820C39009A4
:104F370024E09403900923E094005003025080D2A8
:104F4700861291FA900923E4F0A37403F020A203D8
:104F570002508030930302508090053AE0C394805A
:104F6700500302508090081EE070359008FF74824D
:104F7700F07F011293599009007440F07F02129359
:104F87005990090874C3F07F0A1293593018031215
:104F9700179B90081E7401F090053BE4F0025080C7
:104FA70090081EE06401704F90090874CFF09008D4
:104FB700FF7406F0208716D284308704E4F0800956
:104FC70030180690090874D1F0C284800930180699
:104FD70090090874D9F07F0A1293597F01129359E7
:104FE7001219047F0C12935930180312179B90085B
:104FF7001E7402F002508090053BE0FF700A121900
:105007000475FEFFD292805FEFB40207121904C243
:10501700928054EFB4040A90090A7443F0D2928044
:1050270046EFB4062090090A7443F0C2929004D266
:10503700E4F0301832E5596417602C900498740135
:10504700F0C210802230181FEFB4071B90092230DE
:105057003C04E4F08003E004F0900498E07008E575
:1050670059B417037402F012179B90053BE004F044
:09507700E05407F07F0C1293597C
:10508000D007D006D005D004D003D002D001D00084
:0B509000D0D0D082D083D0F0D0E0322E
:1092110075B48B75B5FF75D21075E50D75AC4375D9
:06922100E70275F70222CE
:0300830002496AC5
:10496A00C0E0C0F0C083C082C0D075D000C000C013
:10497A0001C002C003C004C005C006C007E5D25486
:10498A00C06003129211E5D220E003024B2853D2F1
:10499A00FE9008E3E5D3F0203903024A25E0FFB48C
:1049AA00552290089EE0645460067454F0024B2825
:1049BA0090089EEFF0E51424011218261215B7C2CA
:1049CA0039024B289008E3E0FFB4662490089EE081
:1049DA00646560067465F0024B2890089EEFF090BB
:1049EA0008B41213159008B412352AC239024B289A
:1049FA009008E3E0FFB4771D90089EE064766006B5
:104A0A007476F0024B2890089EEFF0C23990089D08
:104A1A00E4F0024B28121771024B2890089EE064BA
:104A2A0066704C1218337045203D429008E3E090BE
:104A3A0009101216999009191213159009191235AD
:104A4A002AC3EB94FFEA9401400D12139212190B38
:104A5A001212507002D23D9009101211481213928C
:104A6A0012190B1212506003024B288026802490E0
:104A7A00089EE064776003024B2890089DE0FF706F
:104A8A001A9008E3E0FE7480D39E500F9008AFEEB0
:104A9A00F0C215121771D239024B28EF7019203A59
:104AAA00169008E3E0FF90089DE0240EF582E434B6
:104ABA0008F583EFF0803D20363A90089DE0D394C4
:104ACA000B4009740BF0A374FFF0D23990089DE0F3
:104ADA00FFB4010F9008E3E0FE90080FE06E600358
:104AEA00750C009008E3E0FE740E2FF582E434089A
:104AFA00F583EEF090089DE004F090080EE0FF24A4
:104B0A0001FDE433FC90089DE0B50512E4B5040EFE
:104B1A00A374FFF0D239EFB40B02D23AD22CE5D209
:104B2A0030E10353D2FD303702D223D007D006D06A
:104B3A0005D004D003D002D001D000D0D0D082D08A
:064B4A0083D0F0D0E03240
:109349008FD38DD3BD0B02D2157FF47E0102910A12
:10473A00E490053DF0203D03024907121711E5599F
:10474A00B40A25E42518FBE5173402FAE43516F90C
:10475A00E43515F812145FFCD31234CB5003024827
:10476A006CC23DD2287F0122E55964187036E5579C
:10477A0054F07012F52C752BDD752A6DF52912147B
:10478A00745021024867E55754F0C4540FFFE4FC03
:10479A00FDFE7B607AEAF9F8121878E41214745074
:1047AA00030248677F007EFD7DFF7C009009191295
:1047BA00351ED31234CB40030248671215C01214B7
:1047CA00CF50030248581216811212A2400302481F
:1047DA00581213B21215C01234161213181213B249
:1047EA00121878C3E52C9518FFE52B9517FEE52AD4
:1047FA009516FDE5299515FCE47B607AEAF9F8D36C
:10480A001234CB405DAF2CAE2BAD2AAC29124963D2
:10481A00121192EF252CFFEE352BFEED352AFDEC19
:10482A003529FCD31214D05039121681A819C31293
:10483A0034CB40081215EF90053D04F01217A4126C
:10484A0049631211921216F6128812BF0105C23D6F
:10485A007F0222128D5E90053DE0B40105C23D7FC4
:10486A0001221215C0128C3BEF1215C07002804C47
:10487A007541011279FC1216AB90091912351EC046
:10488A0000C001C002C00312119C1219151234167D
:10489A0012191512338BD003D002D001D000123373
:1048AA0070900919121199E5182FFFE5173EFEE5D8
:1048BA00163DFDE5153C121597F515FC12129A9056
:1048CA000579121854127055E42518FFE5173402B9
:1048DA00FEE43516FDE43515121597F51590091005
:1048EA00E05401F0E0FEA3E0FF782B7C097D017B18
:1048FA00017A0B792B123253C23D7F0322121833ED
:10490A00704D9008A51217ADD39FEC9E4011ED9FF4
:10491A00FFEC9EFED3EF94C0EE94124032802690B4
:10492A000808E02484FF900807E0341EFE9008A5DA
:10493A00E0FCA3E0FDC3EF9DFFEE9CFED3EF94C025
:10494A00EE9412400A7D027FFF1293491217117DDD
:08495A0001E4FF1266E47F0096
:08496200227541011279FC22CB
:1040430090089EE06455600302429512152F900478
:10405300CCE0B403037F0022E4FF121517700612AD
:10406300176F7F0222E4FFFEFDFC12128570037FAF
:104073000122202D0302411FE47FC8FEFD12130815
:104083005003024117E50B244C1212F0FCE4F541F6
:104093001279FC1216ABE4FF121601605112119C47
:1040A30090055312352A900553123502D312130A81
:1040B300403990055312351EC3E50B9BFFE50A9A61
:1040C300FEE50999FDE508981212FF9005531213B6
:1040D30095C3E5149FFFE5139EFEE5129DFDE511D3
:1040E3009C1215B7121687500580001214E312169E
:1040F300875002801F7F0A121516401BE51424F611
:10410300FFE51334FFFEE51234FFFDE51134FF1222
:1041130015B780031214E3C22D0241C32013030217
:1041230041C8E514240112126F50037F0122E50BED
:1041330024DC12160E1212FF12161B1213084074FF
:10414300E50B24381212F09005517401F0900551DB
:10415300E075F014A4FFEF250BFBE5F0350AFAE454
:104163003509F9E43508F812161BFCC31234CB5099
:1041730008900551E004F080D49005511218C1FE57
:104183007C007D141232F3C3E50B9FFFE50A9EFE0C
:10419300E5099400FDE50894001212FF1218C1FA14
:1041A300C3E5149FFFE5139AFEE5129400FDE511A4
:1041B30094008007E514240A1218261215B7C213B7
:1041C300128C09801912126B50037F01227F011296
:1041D3001516600AE50B241412160E1212FFE5D20F
:1041E30030E5FB75D35512158B128C3B900552EFBE
:1041F300F0E50B241312160EFC128C3B900552E0D3
:104203002FF0E07011121585900577F0A37414F068
:1042130012736902426312158590055EE4F0A3747C
:1042230014F0126AC212119CE50B2FFFE50A3EFE41
:10423300E5093DFDE5083C1212FF12119C12191508
:10424300123416121318E5142FFFE5133EFEE51280
:104253003DFDE5113C1215B712126B50037F01228D
:10426300E4900551F0E5D230E5FB900551E0FF0401
:10427300F0743D2FF582E43405F583E0F5D3900522
:1042830051E0C3941440DEE4FDFF1266E412176F9D
:10429300802F90089F1217ADC39FFFEC9EFED3EFB4
:1042A3009440EE9406401AD3ED94C8EC9400401168
:1042B3009004A1E0B4030A7D037FFF129349121512
:0342C3002F7F004A
:0142C60022D5
:10923D00301807E4F5CDF5CC800675CDC375CC554A
:05924D00C2CFD2CA22CD
:05000600C2CAC2CF22B6
:1077A1007D017F01127C939008FF741EF030111847
:1077B1009008FE74FDF09009017480F0E4A3F0904C
:1077C1000900F0900903802330350F121791E0442E
:1077D10080F09009067401F080159008FE74F9F0AC
:1077E100E4900900F0A3F0A304F0A3E054FEF0122A
:1077F10017601292F27D037FFF1293499004A174E6
:1078010003F012152FE4FBFD7F1B128CFE9004CCBC
:0A7811007401F0E4F5141214F522DE
:108CCE009004A1E064037027E4FD7F01127C9320E1
:108CDE00350F129158900902E054FEF07F04129362
:108CEE00597406121884F5141214F59004CCF0225F
:108A9A007B007A00790DE41232BF9004F81217BBFA
:108AAA009004F91217787A0079089004F5E01232E6
:108ABA00BF9004F61217BB9004F712177812158BA1
:068ACA0090081F02352A8E
:02647E008F3657
:10648000E559B40A1A1293869008A11235028F0BAF
:106490008E0A8D098C0890081F12352A026528E59E
:1064A00036B40107AF55AE54126FA9128A9A900400
:1064B000F2E0C413135403F537E4FB7D047F0412A8
:1064C0008CFEE4FB7D047F0E128CFEE53770087BAA
:1064D000017D047F04800BE537B401097B017D0455
:1064E0007F0E128CFE9004F2E0FFA3E0FDA3E0FB20
:1064F00012790D7B017D027F1F128CFE7B017D03D3
:106500007F12128CFEAF55AE541285F8128F857B28
:10651000017A0479FA1279857B017A057910E4F51C
:106520003DAD517F0112723CAF10AE0FAD0EAC0D00
:106530007B007AFF79FF7800D31234CB5009E4F561
:0C65400010F50FF50EF50DC22602919229
:1042C70012183370030244F6303209E559640A6064
:1042D700030244F6900538E0FAA3E0FBC394E1EA51
:1042E700942E4009E559640A60030244F6E49009F4
:1042F70010F0A3F090091912353600000000E559B7
:10430700640A601AD3EB9410EA9400400B1215C9A3
:10431700EF540F700312863E900537E004F0E5591D
:10432700640A600BE55964146005E559B4182CE577
:10433700599008FEB4181074FBF0A3741EF0E4A3A0
:10434700F0A37420F0800B74F9F0A37418F0A37431
:1043570008F090090374DCF01292F27D01E4FF1279
:104367007C93C23B7D027FFF1293499004A17402A4
:10437700F0900807E0FAA3E0FB9008A5EAF0A3EBAA
:10438700F0E559B40A141215C09008A912352A90FD
:1043970008A11215948C150244D79008ADEAF0A332
:1043A700EBF0900538E0FD9004EDE0FEA3E0FF128E
:1043B700909F9004EEE024011212B4900538A3E018
:1043C700FD12909F9008121244F79004D2E075F006
:1043D70040A444304536F5359004EEE0240212122D
:1043E700B4AD3512909F9008111244F7E536333378
:1043F7003354F8F5359008101244FFE5361313547B
:104407003F42359004EEE024031212B4AD3512900A
:104417009FE536C4333354C0F53590080F1244FF77
:10442700E53642359004EEE024041212B4AD35129D
:10443700909F900813E0FF1293778F369004EEE079
:1044470024181212B4AD3612909FE50CD3943B405A
:1044570003750C3B9004EEE024191212B4AD0C1254
:10446700909F9004D2E07027F5371212AE7C00EFD0
:104477002537FFEC3EFE74142537F582E43408F542
:1044870083E0FD12909F0537E537C3940A40DB9020
:1044970004EEE024051212B47B007A007915754109
:1044A70003128B3B90049C12131590049C12352A1F
:1044B700D2149004EEE024141212B47B017A04792A
:1044C7009C754104128B3B90049C123502128EBFDF
:1044D700C226129192E5596414600BE559640A608B
:0F44E70005E559B41809900925E4F0A37495F080
:1044F60022E0FF1293778F3622E0FF1293778F36F2
:014506002292
:10687800121833600302693CE4FDFF127C9374052F
:10688800121884FB7A02F9F890091912139BE41282
:1068980014FD8F108E0F8D0E8C0D90091912353640
:1068A80000000000E4900910F0A3F0E559B40A1EB6
:1068B80012915812145F121597F515900579121751
:1068C800C21270559008A91215948C15805E900418
:1068D800EEE024081212B47B007A00790E754102AA
:1068E800128B3B9004D2E064017034F536E536250E
:1068F800E02410121725E0C454F0FFE53625E02403
:1069080011121731E04FFD1212AEE5367A002FFF53
:10691800EA3EFE12909F0536E536C3940A40CE90B3
:106928000538121148E475F02012178BE5596401F7
:046938006002C22611
:01693C002238
:048752008E368F3799
:10875600E4F53BF53AF539F538F53C753D00753EDF
:1087660038FFEF7C002537FDEC35368D82F583E446
:1087760093AB3CAA3DA93E8F827583001232D10F7E
:0B878600BF04DFAF3BAE3AAD39AC38AA
:0187910022C5
:0A8B3B008E3C8F3D8B3E8A3F89403F
:108B4500E4F542E542C39541501F7E00E53D2542CF
:108B5500FFEE353CFEAB3EAA3FA940854282121787
:098B65000BFD12909F054280DA1D
:018B6E0022E4
:1091FA00301813E4900923F0A3F0C23F758BAF75C2
:07920A008D3CD2ABD28E2295
:107C28009004CDE0641E702FF533E53312189024CC
:107C38001FF974033EFA7B01C00174122FF9740313
:107C480012191CD0011218980533E533B41DDB90C6
:107C580004E8741EF0800C9004E8E004F09004CD71
:107C6800E004F09004E8E075F00DA42405F974032D
:107C780035F0FA7B011289419004E8E075F00DA413
:0B7C88002408F974031216B5023253F1
:10781B009004C5E0641E702FF535E53512189024E1
:10782B0094F974013EFA7B01C00174872FF974013E
:10783B0012191CD0011218980535E535B41DDB90D3
:10784B0004D1741EF0800C9004D1E004F09004C5B8
:10785B00E004F09004CBE0C3941E5003E004F090DE
:10786B0004D1E075F00DA4247AF9740135F0FA7B9C
:10787B00011289419004D1E075F00DA4247DF974B7
:0A788B00011216B512325302936881
:10772300E55160799004C4E0641E702FF535E535AA
:10773300121890240EF974003EFA7B01C001740103
:107743002FF9740012191CD0011218980535E5356C
:10775300B41DDB9004D0741EF0800C9004D0E004C0
:10776300F09004C4E004F09004D0E075F00DA4247C
:10777300F4F974FF35F0FA7B011289419004D0E0EB
:1077830075F00DA424F7F974FF35F0FA7B01C003FB
:0D7793008B39753A05753B10D0031287D273
:0177A00022C6
:067985008B388A39893AB3
:10798B00E4F551F53CE53C25E0F53DAB38AA39A9CA
:10799B003A853C8212170BF53BC4540FFF1217218B
:1079AB00EFF0121721E0B40F19E5517015E53C709B
:1079BB000EFE7F147D0F7B017A0579100235AB85A6
:1079CB003D51E53B540FFF12172DEFF012172DE031
:1079DB00B40F09E5517005E53D04F551E53CB409DB
:1079EB0007E5517003755114053CE53C640A70952D
:0179FB002269
:108FD100C285D2377B017D037F8012851E7B017D97
:108FE100097F0112851E7B017D097F0312851EC247
:048FF10037D28522CC
:108435008F367F207A0479A31218FBC22EC20DE570
:1084450052131218CC1276A47F0412847D7F081271
:10845500847D1260F97B017D037F18128CFE121555
:10846500C9FE1285F8E536B40103128792E552126A
:1084750018CC1281E00284D37B017D03128CFE228D
:1084D300A2A89243A2A99244C2A8C2A9D237C28534
:1084E3007B017D037FA012851E7B017D06E4FF12C5
:1084F300851EE4F54074A3254012135BE0FFE4FB03
:108503007D0812851E0540E540C3942040E7D285CF
:0A851300C237A24392A8A24492A925
:01851D00223B
:06851E008D41AA07A9032C
:10852400E4FBEBC395415039C280EA30E703E970BC
:1085340007EA30E007E97004D2948002C2947F0213
:108544007E0012910A75FEFFD280E96006EA25E0FA
:10855400FA8004EAC313FA7F027E0012910A0B80A8
:03856400C1D294ED
:0185670022F1
:087DCE00540F75F00A84ADF0BA
:107DD600D22CED908A3593FEEFC3940D5023EF120B
:107DE600163AE0540FFDEEC454F04DFD74A22F1266
:107DF600163FEDF0EE25E054E0121357E0541F80D5
:107E060027EFC394195027EF24F412163AE054F0E2
:107E1600FDEE540F4DFD74A22F12163FEDF0EEC489
:0E7E26005407121357E054F84E121357EEF0A3
:017E3400222B
:108CFE00D22CBB01127401A805088002C333D8FC24
:108D0E00121357E04E8013AE057401A806088002B8
:108D1E00C333D8FCF4121357E05E121357EEF02251
:1060F900202B26E4F53CE53C25E0240D12159EFEF7
:10610900C4127DCEE53C25E0240E12159E127DCEEB
:10611900053CE53CC3940440DD9004C17403F0E4FC
:10612900F53B753C0112114F1214C6AF3CE4FCFD5E
:10613900FE12338B8F3A8E398D388C37E53CB40A91
:106149000B1216818F3A8E398D388C37121647E427
:10615900F5411279FC1216ABE47FFF121601700AA1
:106169009008091235360000000012119C1214C65D
:1061790012164712337D128812EF253BF53B053C79
:10618900E53CD3940A409EC3900539E094E190051B
:1061990038E0942E4003753B0AE53BC39403500D48
:1061A900E49004BF1217D09004C1F08026E53BC3E8
:1061B90094075013E49004BFF09004C1740F1217B0
:1061C900D29004C0F0800C9004C0740F1217D090C4
:0861D90004BFF01284D3C22CB4
:0161E100229B
:1085F800900542EEF0A3EFF0D3940FEE94274012CB
:10860800D227900542E0FFA3E090049ACFF0A3EFB1
:10861800F022C227900542E0FCA3E0FDD394E7ECEA
:10862800940340047F15800A900542E0FCA3E0FD16
:068638007F161283E3220D
:0683E3008C388D39AB0758
:1083E900EBD3941540077D0F7F15127DD6C3E53970
:1083F90094E8E53894035006753A031B8003753AEF
:1084090004E4FAEAC3953A5022EB2403C39AFFC065
:1084190007AE38AF39121547D007127DD6AE38AF3F
:0B842900391215478E388F390A80D8B1
:018434002225
:108E6B008F33AB05AA047C007D0AAF03AE0212332D
:108E7B0005AD07AF33127DD6E53304FFC007AE0255
:0A8E8B00AF03121547D007027DD691
:02723C00AC059F
:10723E00BF0113E551700FF53E7D1C12183AE53E65
:10724E00C3940C40F422ECC3940C5015E4F53EC3E9
:10725E00740C9CFFE53EC39F50077D0F12183A80B9
:10726E00EEECD3940C400A75400CEC24F4F54180FE
:10727E00058C40E4F541E4F53EE53EC395405044AF
:10728E00E53D64017016E53E20E008254112170722
:10729E00C48016E541253E121707800DE53E2541B7
:1072AE00F582E433F583123292540FF53FE53F64D5
:1072BE000F6011C3740D9540253EFFAD3F127DD674
:0472CE00053E80B544
:0172D2002299
:108792007B017D03E4FF128CFE0D7F10128CFE9094
:1087A20004CBE0FD7C007F011283E3900537E0FDFE
:1087B2007C007F061283E33012157D197F0A127D39
:1087C200D67D177F0B127DD67D0D7F0C127DD622B2
:1093040030150E7D0C7FFF129349C215E49008AF0F
:02931400F02245
:10913A0090080FE0FD7FFE128E417FFD12144E7FD4
:0E914A00FC128E417FFB12144E7FFA029349F5
:10863E00E4FFFEE42F1211C71218440FBF00010E03
:10864E00E4B507EFEEB402EB90053812113C1216AA
:10865E006D1216C7FEED34FFFDEC34FFFC1211ABAC
:10866E0012129A121851126E4A7F007EEC128B066D
:05867E0074EC1217FF6F
:0186830022D4
:0626630090054F12352A1C
:10266900E4900553F0A3F0A3F0A3F012114F9005E5
:102679004F1211B790056012352A12153F791212BF
:10268900116090054F1216077009121681900560A6
:1026990012352AE490055FF012156D1213C7121155
:1026A9003CD31234B550030227A290055712113CAE
:1026B9001211AC12129112736990092BE0B4FF1335
:1026C900900557E07002A3E0700990055F7402F06D
:1026D9000227A2E4F53712165C12189F2430F582FE
:1026E90074093EF583E0FFE48F3BF53AF539F53897
:1026F900AE3AAD39AC381214C112189F2431F582A3
:1027090074091214391214C112189F2432F58274F3
:102719000912143978081234EF121445121258703C
:102729000990055F7403F002278E90054F12350258
:1027390012125F400E1216CF1211DD12155DFFEE57
:102749001218D790056012350212125F402F121627
:10275900CF1211DD12155DFF900553EEF0A3EFF0D6
:1027690090055712113C1211AC90055912113412EF
:10277900337012144590055F7401F0800812192313
:1027890060030226DF90055FE0FF6401600BEF64E0
:102799000360061211450226A490055FE0700374D8
:1027A90003F090055FE0FF64026005EF6403707752
:1027B900E4F537E53775F020A4FFAEF0EE121665A3
:1027C9002405FFEE34EC8F82F58312350E12144581
:1027D900E538753B008E3A8D39F538121258604745
:1027E90090054F12350212125F400E1217DA1219B4
:1027F9002AFF740193CF1218D7900560123502127F
:10280900125F401E1217DAFE12192AFD7401939005
:102819000553CDF0A3EDF0E48F3B8E3AF539F53849
:102829008005121923708C900553E07002A3E060B3
:10283900030228EC900555E07002A3E070261215FA
:102849006D121119D31234CB401790055712113C50
:102859001214DB90054F1211B7128BD61211458055
:10286900E0022C64900556E02401FF900555E03400
:1028790000FE900553F0A3EFF0D3900539E09F9047
:102889000538E09E405D900553E0FEA3E0FF128D00
:102899008D90055FEFF064017049900553E0FEA348
:1028A900E0FF1216C7FEE434FFFDE434FFFCE41236
:1028B900166D1211ABC004C005C006C007900554BF
:1028C900E024FFFF900553121632C333CE33CED81E
:1028D900F9FFE4FCFDD003D002D001D0001233701F
:1028E900121445C3900554E09402900553E09400F6
:1028F900502612156C121119D31234CB40179005BA
:102909005712113C1214DB90054F1211B7128BD6D6
:1029190012114580E0022C649005381213FB9005D2
:1029290054E09F900553E09E4005E4FF025F15E4E3
:1029390090055EF0A3E064016003022B579009271C
:102949001235021289B512156C1213C712113CD334
:102959001234B55003022A5590055712113C12142E
:10296900FDEF253BFFEE353AFEED3539FDEC353807
:10297900FC121291127369E4F53712165C1216CF24
:102989001211DD12155DAC06F47002ECF4703A9088
:1029990004EEE02400FF9004EDE03414FEEF780526
:1029A900CEC313CE13D8F990055BF02537FFE43376
:1029B900FED3EF9410EE6480948090055E40057418
:1029C90001F080307402F0802B9005531213FBED57
:1029D9009FFFEC9ECF2401FDE43FFC9005591216A0
:1029E90099AF05742C2BF58274093AF583EFF0122F
:1029F9001923708690055EE06401702490055CF0EF
:102A090012193190055CE0FDC39F5014AF37128550
:102A190068121499C333CE33CED8F9122CAD80E0A5
:102A290090055EE06402601890055712113C12147B
:102A3900FD9009271211B712129A121851126E4AF3
:102A490090055EE0700612114502295290055EE07C
:102A590064016003022AEC90055CF01219319005BB
:102A69005BE0C39FFFA3E0C39F5035E4A3F090054B
:102A79005DE0FDC39420502290055CE0FCC39537CE
:102A8900FFE49400FEEF7805C333CE33CED8F924A2
:102A990000FFEE34EE12132680D4122C6B022A6446
:032AA90012156C97
:062AAC001211BD122CC83E
:102AB2001211451218A740F2122C8F121931E49408
:102AC20000FE90055BE0C39FFFE49EFEEF7805C326
:102AD20033CE33CED8F91213B9500C1211D3FD12E2
:102AE200909F12114580D4022B4A90055EE0640249
:102AF200705D90055CF090055BE0FFA3E0FDC39F75
:102B02005014AF37128568121499C333CE33CED81E
:092B1200F9122CAD80E0122C9E9A
:062B1B001211BD122CC8CE
:102B21001211451218A740F2122C8F90055B121456
:102B31009CC333CE33CED8F91213B9500C1211D332
:102B4100FD12909F12114580E27F007EE6128B06F6
:102B5100121205022C0F90055FE0FF64026008EF7E
:102B610064036003022C15E490055CF09005531298
:102B710013FB121675FE90055CE0C39FE49E50396D
:102B8100E4A3F090055DE0FDC39420502690055428
:102B9100E024FFFFEF540FFF90055CE0FC2F1214BF
:102BA1009FC333CE33CED8F92400FFEE34EC121399
:0C2BB1002680D0122C6B022B6D122C9E83
:102BBD001211BD900564F0E42FFFEE34E6FE129085
:012BCD009F68
:102BCE001211451218A740E77F007EEC128B0612F9
:102BDE00156C9005531213FB121675FEEF7805C394
:102BEE0033CE33CED8F91213B9500C1211D3FD12C5
:102BFE00909F12114580DB7F007EE6128B069008B7
:102C0E00021235021289B59005531213FB12167576
:102C1E00CF2401CF3400F0A3EFF024FF121631C3FE
:102C2E0033CE33CED8F92400FFEE34EC9004EDF021
:102C3E00A3EFF012156C121119D31234CB4017906A
:102C4E00055712113C1214DB90054F1211B7128B5F
:0C2C5E00D612114580E09005601215515F
:102C6A002290055CE075F020A4242BF9740935F054
:102C7A00FA7B01900553E0FCA3E0FD12812C90053C
:102C8A005CE004F0227F007EEC128B06E49005578C
:102C9A00F0A3F0227F007EE6128B06E4900557F03F
:102CAA00A3F022242BF974093EFA7B01900553E024
:102CBA00FCA3E0FD12812C90055CE004F022900553
:0D2CCA0064F0E42FFFEE34E6FE12909F222E
:07856800900565EFF0A90585
:10856F00E4F53CE975F020A42400FFE5F034ECFEBF
:10857F007C00EF253CFFEC3E12192AFDE9FF900528
:10858F0065E02F12149FC333CE33CED8F9FFE53CED
:10859F007A002FFFEA3EFE121844053CE53CB4205A
:0185AF00C209
:0185B00022A8
:06812C0090056512357C90
:10813200753E00753F0075403C1217E91232791204
:1081420019381232BF1217E9900001123292121935
:10815200381217BCAF05C3E53D9DCFE53C9CCF244B
:1081620001F53DE43FF53C1232791217E8EF123285
:10817200BF1219389000011232921217E8900001D2
:04818200EF0232D105
:1088120090056F740AF07B017A057965900577E41B
:10882200F0A3740AF0127369E4FF74652FF582E411
:108832003405F583E0F4600F90056FE004F0E0D3B7
:0E884200940D40037F01220FEFB40ADE7F0089
:018850002205
:0F9368007E007F0A7DFF7B017A0879140235AB06
:0E937700EFC4540F75F00AA4FEEF540F2EFF42
:0193850022C5
:108D5E0012153FE4FCFD79121214DD1214CF4004FB
:108D6E0012154E2212114FE51C2FFFE51B3EFEE59C
:0F8D7E001A3DFDE5193C8F1C8E1B8D1AF519222D
:108D8D00AD07AC06900538E0FAA3E0FBD39411EAE9
:108D9D00940050037F0222EB24FEFFEA1214B2125C
:0F8DAD0017EFD3ED9FEC9E50037F01227F022230
:1089410090081212193F1232BF90081112193F33C9
:10895100333354F8FD90081012193F1313543F4D4F
:108961001217BCEFC4333354C0FD90080FE0FF125F
:0A8971009377ED4F9000020232D11F
:1091920020260DE49004CEF0A3F09004EBF0D2264A
:0C91A200C230C21DE4900925F0A3F022A9
:108C090030262E1215749004CEEEF0A3EFF07B20DF
:108C19007ABF7902780012157A9004EBEFF01215F9
:108C290074E47A0E12166EAF039004CEEAF0A3EF45
:028C3900F02227
:0F93860012145F1212FF9005861217C2026D9922
:102CD700900538E0FEA3E0FFD39401EE9400500383
:102CE700023109C3E5559401E554940050030231BC
:102CF70009D3EF9555EE95545003023109E4900539
:102D070043F0A3F0A3F01215D79008B012352AE5C7
:102D1700556401455470089008B01235028010E5DB
:102D27005524FFFFE55434FFFE126FA91215D79003
:102D370008E512352AAF55AE54128D8DEF64026047
:102D470003022F11900538E0FEA3E0FF540F640241
:102D57006003022E021216C7FED3EF9410EE940002
:102D67005003022DFD12314B1214A71216C812146C
:102D7700119E502D12113C1211AC1212911273694F
:102D870090054112113C1214FD9009271211B790BA
:102D9700056C121294126E4A900541121148022DC9
:102DA7006F90054112113C1211AC12129112736906
:0A2DB700900B0DE054DFF012310A1A
:062DC1009005411211C053
:102DC70012313912114812173940EF123119900593
:102DD70041E0FCA3E0FD24001211D512317B121152
:102DE7004812173940E812120512316D124B501272
:102DF70016DA1217FD22E4FF025F151218AFE55528
:102E070024FFFFEF540FFF1214129400502BE4908D
:102E17000546F012180750191211FBC333CE33CEF3
:102E2700D8F91211E6C333CE33CED8F91212BD80CA
:102E3700E290054112114880C51215C9FEEFB5553C
:102E470032EEB5542EE55524FE121631C333CE3378
:102E5700CED8F9FF242DF58274093EF583E054DFBF
:102E6700FD742D2FF58274093EF583EDF0124B505A
:102E7700022EC7E4900541F0E555540FA3F0121454
:102E8700029E503CE4900546F0121807501C1211A0
:102E9700FBC333CE33CED8F91211E6C333CE33CECC
:102EA700D8F912185B1212C980DF1211FBC333CE97
:102EB70033CED8F912315C900541121148022E85A4
:092EC7001216DA12178612310A04
:062ED0009005411211C043
:102ED60012313912114812173940EF123119900583
:102EE60039E024FE12194612149FC333CE33CED8CE
:102EF600F99005411213BC500B1211D312317B12FB
:102F0600114880DA7F007EE6028B0612314B1214DE
:102F1600A71217EF9005411213BD4003022FD2ED01
:102F26002401FFE43CFEEFB5550DEEB554099005BE
:102F3600457401F0022FC9900545E0FD900541E07A
:102F4600F8A3E0F5828883C39D121631C333CE33CE
:102F5600CED8F9121950C003C002C001AF82AE83A9
:102F6600E4FCFD7B20FA1211AF900577E4F0A37420
:102F760020F0D001D002D003127369900545E0FF1E
:102F8600B40117C3900542E09FFF90054112163227
:102F9600C333CE33CED8F9123128900543121148E7
:102FA600900544E0540F701B1216E41216C8FEE496
:102FB600FC1214FC9009271211B790056C1212949A
:102FC600126E4A900541121148022F14900539E0FD
:102FD600540F64027030900546F0900546E0FFC33A
:102FE6009420500F12141DC333CE33CED8F91212CB
:102FF600BD80E712142EC333CE33CED8F912312852
:103006001217FD0230A2E4900546F0900546E0FF57
:10301600C39420500F12141DC333CE33CED8F912E9
:1030260012BD80E712142EC333CE33CED8F912194F
:10303600507D027C0012812C1216E4FFE41214FC6F
:103046009009271211B790056C121294126E4A90CD
:103056000541E4F0A304F01214029E503CE49005EE
:1030660046F0121807501C1211FBC333CE33CED8CC
:10307600F91211E6C333CE33CED8F912185B121209
:10308600C980DF1211FBC333CE33CED8F912315CBF
:1030960090054112114802305D1217861212051270
:0530A600316D1218AFAE
:1030AB009005411211C0900547F0E42FFFEE34E676
:0430BB00FE12909FD2
:1030BF0090054112114812173940E17F007EEC1242
:1030CF008B061218AF900539E024FD121946121421
:1030DF009FC333CE33CED8F9FF9005411213BD50A5
:1030EF000F1211D3FD12909F90054112114880D5F8
:0A30FF007F007EE6128B061216DA3F
:10310900227F007EE6128B06E4900541F0A3F022AF
:103119007F007EEC128B06E4900541F0A3F0222497
:103129002BF974093EFA7B017D027C0012812C2265
:10313900900547F0E42FFFEE34E6FE12909F9005CC
:1031490041229009271235021289B5E4900541F010
:10315900A3F022240BF974093EFA7B017D027C005D
:1031690012812C221235021289B57F007EE6128B5C
:0A3179000622FD12909F90054122EE
:104B50009008E51235029008B01216074064121250
:104B60002D60069005481211481213B29008B01239
:104B7000139B1218109008B0121247600690054A55
:104B80001211481217411213F29DEE9C500B121194
:104B90005E124D2812114880EDE4FFFEFD1212A1B5
:104BA000700E90054812113C1214DB1215978C15EB
:104BB00090054812113C1214DBD31212A340750267
:104BC0004C261213B29008B012139B1218109008C2
:104BD000B0121247600690054A121148E490054C45
:104BE000F0A3F01213F29DEE9C500B12115E124DC9
:104BF0002812114880ED12122D60069005481211FE
:104C0000481213B290091512139B12181012174173
:104C10001213F29DEE9C500E12115E128BD690056F
:104C20004C12114880EA90054812113C1214DB1214
:104C300015978C15E490054EF090054CF0A304F008
:104C40001216811212A24014E41215F8F51CF51B7D
:104C5000F51AF51990054E04F0024CC012114F12CE
:104C600014C690054C12113C12338B12155490054A
:104C70004CE07004A3E0640A700312154EE51C2496
:104C8000A0FFE51B3415FEE51A34FFFDE51934FFDE
:104C90001212A1402B1217A4AB18AA17A916A81517
:104CA000D31234CB500890054E7401F08012900559
:104CB0004C12114890054CE07004A3E0640B708026
:104CC00090054EE06401702C1216811214CF40033F
:104CD0001215EF1217A47541011279FC12119212EC
:104CE00016F612881290054EEFF07005128D5E8058
:104CF00003129327C3E51C9518FFE51B9517FEE5E6
:104D00001A9516FDE51995158F368E358D34F533C8
:104D1000E47F607EEAFDFCAB36AA35A934A833D324
:074D20001234CB4002C23245
:084D270022128BD690054C22EC
:108C3B001213B2123416E4FD90090EE0FCEDC39C46
:108C4B00501C121505B50707EAB506037F01221262
:108C5B001505D39FEA9E40037F00220D80DA7F002B
:018C6B0022E6
:0879FC008F408E3F8D3E8C3D53
:107A04008F468E458D448C4375420190090EE0FFEC
:107A1400E542D39F5052AF46AE45AD44AC43128CC1
:107A24003BEF7005E54214FF22E541B4010B121847
:107A3400DF3402FDE43543801EE4FFFE7D02FCAB2F
:107A440040AA3FA93EA83DC31234CB40141218DF0C
:107A540034FEFDE54334FF8F468E458D44F5438067
:0A7A6400037FFF22054280A37F008C
:017A6E0022F5
:108485008F5E8E5D8D5C8C5BE55E2562FFE55D35FF
:1084950061FEE55C3560FDE55B355F1213A11234C5
:1084A50016C004C005C006C0071213B2AF5EAE5DAC
:1084B500AD5CAC5B1234161214C6D007D006D005DD
:0E84C500D004C31234CB70037F01227F00224B
:087FBA008F368E358D348C33B7
:107FC200E4F53DFBFA7902F81234168E3B8F3CE55C
:107FD20036253AFFE5353539FEE5343538FDE533EA
:107FE20035371213A1123416E4FD90090EE0FCEDB0
:107FF200C39C501F121505FBD39FEA9E5015C3EB7D
:10800200953CEA953B4009D3EB9FEA9E5002053D21
:058012000D80D7AF3D19
:018017002246
:0C93B20013292B2A212322191B1A111247
:103D940078107C057D017B017A0479D47E007F1440
:103DA4001232539004CAE0F5517B017A057910E48C
:103DB400F53DAD5122E0FEA3E0FF7C037DE8123324
:103DC400057F647E00CFCDCFCECCCE123305AD07B8
:103DD4002235F0FA7B0178417C057D017E007F0D60
:103DE4000232537C277D10E0FEA3E0FF023305FD81
:103DF4007C0012939EE55075F00A8422E55375F019
:103E04000A84229004CE7D3CE0FEA3E0FF7C000205
:103E14003305E55A75F00DA422E4751401F513F584
:103E240012F51122900537F0900539E024FFF5557D
:103E3400900538E034FFF55422E5552401FFE435BC
:103E440054FE900538E0227D00900541E075F00DA8
:103E5400A42274102551F582E43405F583229003DD
:103E64000FE075F00A8422900542E02551FFE43307
:103E7400FE227B32FAF9F8AF14AE13AD12AC110284
:103E84003416AE54AF557C277D10023305D23990D9
:103E9400089E74FFF022AFF09004C375F00AA42FBB
:103EA400F022900524E0FEA3E0FF7C00227F207B2B
:103EB400017A0479A30235ABD3E5559401E5549412
:103EC400002212350290080212351EC30234CB9030
:103ED40004EAE0FF9004ECE0FD2213135401F54CD6
:103EE4007D01FF220551E550FD7C007F0A2275F01B
:103EF4000AA4FF900541E02F22E014FF900541E061
:103F0400FEC39F2275370075380075394D227F072F
:103F1400FD7C0002939EE53A75F00A84ADF022C35D
:103F2400900539E094E1900538E0942E22D3900571
:103F340039E09401900538E0940022854D4CE54C1D
:103F4400FD7C0022AF1CAE1BAD1AAC1922E4FB7D34
:103F5400047F1022F0E0900906F07F0822744725C0
:103F640051F8A64D229554FE900537E0C39FE49E78
:103F7400229FEE6480F8748098222552F55254F002
:103F8400131313541F22900524E0FCA3E0FD22E543
:103F94005A14900541F022E4900B3FF0900923F06D
:103FA400A322C313F5827583000232929004EAEFD0
:103FB400F09004ECEDF0229004D27401F022900908
:103FC40001E0547FF07F0322E0FEA3E0FFD322F55B
:103FD400500551FD7C007F0A220551E5512408FF5C
:103FE4007D1522E5512409FF7D1D7C00227B017D86
:103FF400037F12228F58E5586401227D6412330531
:104004007E007F0A22E5556401455422E4F547F514
:1040140048F549F54A22AF038F39E539C3940F2295
:10402400900530E4F0A3745AF0223EA801FC7D010F
:0F40340022900541E004F022900541741DF02216
:10195A0053D9BF75891174FF900923F0A3F0F54B91
:10196A00E49004E9F090081EF0C21AC20FC234C211
:10197A0038128AD0D2A975FEFFC220E4900536F04B
:10198A0030A00E12901875E24075E301127EFC80B9
:10199A001D53D9BF1293D575FD0343D9401291E265
:1019AA0075E24075E301758E42C21812911CE4F586
:1019BA00C875912843E680D2AFD2A8C212754EFFED
:1019CA0075FEFF30A00520180280FE20A005301801
:1019DA000280FE900915123EC6600D90091D123E46
:1019EA00C6600530180280FE30183D900498E0B4B5
:1019FA000117E55964176011E4FF128FABE49004F4
:101A0A0098F0755917D221801F900498E0B40213F8
:101A1A00E559B4170E203C0B7D077FFF129349D27C
:101A2A003C8000E4900498F0900801E0FFD3940011
:101A3A005008900921E094004036301833EFB40181
:101A4A00141235D7900B42E0602614F0E070219012
:101A5A000801F0801B900921E0FFB40204E4F08041
:101A6A000FEFB403028004EFB40405E4900921F0F7
:101A7A00201803021B63E51DD39401400E2012199E
:101A8A00D212E55970131293F2800E30120BC21261
:101A9A00E55970057F01128FAB12473A90053CEF6A
:101AAA00F064016008E064026003021B3FC23BE489
:101ABA00FF7E02FDFC900919123ECC401B900919C9
:101ACA00123502E42FFFEE34FEFEED34FFFDEC3456
:101ADA00FFFC90091912352A12687890053CE0B487
:101AEA000203129327E559B418077F011288C980A7
:101AFA005AE5596414701A303202801B123F23408F
:101B0A000280141242C7900925E4F0A37496F0806B
:101B1A003AE559640160077F01128FAB802DC22B11
:101B2A00123DAD7F0112723CE55230E2031242C708
:101B3A00129192801690053CE0B4030F303B0CC220
:101B4A003B7F01128FABD229123FBB124043900553
:101B5A003CEFF0BF01031262C420A251200F4ED203
:101B6A0086301A34E559640A701E30111B128CCE65
:101B7A00123E91755901C210C211127C28E55230E9
:101B8A00E2031242C7129192E559B4180675590137
:101B9A00127C281280D080132018051272D3800379
:101BAA00127E351280D0755901C210D20F30A210A0
:101BBA00300F0D201A08301805E4FF1288C9C20F29
:101BCA00201803300F4D1259CA8F4BE54B64017030
:101BDA004230A03F301A0F20A2051280D08034E490
:101BEA00FF1288C9802D303518E4FF128FAB123FDF
:101BFA00C2129359755901C235123D947F0112726E
:101C0A003C30A20AD284D293127E35755901C21091
:101C1A00127BBDE54BF4600312008E754BFF201852
:101C2A0003021FB5900923E07004A3E06446701E06
:101C3A00E559B4171112781B7F01128FABC23CD23F
:101C4A001BC23A123FBB123F9B7447F0C2869009EF
:101C5A0023E07004A3E064C870123010077F0112F9
:101C6A008FABC210123F9B74C9F0C286303A1F90E4
:101C7A00080EE0B40B18128F857B017A08791412CA
:101C8A007985123DAD7F0112723CC23AD209E557FD
:101C9A00540FFF900B3FE0FE6F702DEE602A1293F7
:101CAA008674FFFFFEFDFCAB10AA0FA90EA80DC398
:101CBA001234CB6013E4FFFEFDFCA80DC31234CB33
:101CCA006006203203128FF59008AFE0600312928B
:101CDA0052E559700D30360A12913A75E702C2364A
:101CEA00D21C900925E07004A3E06496700D900957
:101CFA0025F0A37497F0302602D230303314E4FF73
:101D0A00128FAB127BBD7F707E17128E4812600D48
:101D1A00C23330123A301837300A057F0A125AEBAA
:101D2A00C20A2021033009057F0B125AEBC221C2D5
:101D3A00093014057F0C125AEBC2143029057F0DA5
:101D4A00125AEBC229301B057F12125AEBC21B90A2
:101D5A000807123FCC941AEE940F5003021E27EF85
:101D6A0094BEEE940F4003021E27202B0C300B0961
:101D7A00E4FB7D027F1F128CFE302E0F300B0C907D
:101D8A0004EAE0FF7D0F127DD68025300D22300B4C
:101D9A001F123ED3E4FB128CFE9004EAE0B41B103F
:101DAA009004ECE0B40209E4FB7D037F10128CFE80
:101DBA00302765300B6290049AE0FEA3E0FF7C278F
:101DCA007D10202F1C123305AD077F15127DD67D9D
:101DDA001C7F16127DD67D1C7F17127DD67D0F8043
:101DEA00301233057E037FE8123DC97F15121FDFCB
:101DFA00123DB97F16121FDF7C007D64123DEB7F16
:101E0A000A123DC77F17127DD690049A7D0A123EA8
:101E1A000C7F18127DD6C21FC20B021EECD390088B
:101E2A0008E094E2900807E0941D5003021EEC209B
:101E3A000B097B017D027F1F128CFE201F07200BDE
:101E4A0004B22FD21F302E0B200B08123ED3127D64
:101E5A00D68025300D22200B1F123ED37B01128C17
:101E6A00FE9004EAE0B41B109004ECE0B402097B93
:101E7A00017D037F10128CFE200B673026629004CE
:101E8A00CCE0FF64016004EFB4032A7B207ABF79B7
:101E9A00027800123E7B9004EBEFF0E4123E76E407
:101EAA007B107A0EF9F8123416AF039004CEEAF0DA
:101EBA00A3EFF0802B9004CEE475F00112335AC3DD
:101ECA009004CFE094109004CEE0940E4012E4F017
:101EDA00A3F09004EBE004F0E075F06484E5F0F020
:101EEA00D20B303047201D13E4FB7D03FF128CFE1A
:101EFA00123F51128CFE129227D21D9004EBE0FD84
:101F0A007C007F04128E6B7D1C7F06127DD6123EEA
:101F1A00077C007D3C1233057F07128E6B7D1C7F88
:101F2A0009127DD6123E077F0A128E6B301C077F7C
:101F3A0002127511C21C302C031260F930230512EB
:101F4A0060F9C22330280C7F011275117F011275C6
:101F5A0011C228900923E07004A3E064C6700A90B5
:101F6A000923F0A374C7F0C219303F0A303E0312A6
:101F7A00561BC23EC23F3020329004D3E0FF70119C
:101F8A00D39008A8E094709008A7E09402401C80BF
:101F9A00167E007C037D0D1232F3D39008A8E09FD1
:101FAA009008A7E09E4004C220C2A120380302196B
:101FBA00CA9008A7123FCC9471EE94035011EF9483
:101FCA001EEE940050030219CA3018030219CA12ED
:051FDA007CFE0219CAA3
:071FDF00127DD690049A2246
:10008E00201808AF4B129291027D679004CCE0B419
:10009E000110E54BB41D0B7B01E41210FA7403F052
:1000AE00801A9004CCE0B40313E54B641D6005E5A3
:1000BE004BB42D08E4FB1210FA7401F0E559123519
:1000CE00850115000300010812020870030D9A0441
:1000DE000EB40505E40605E4070463080585090C5E
:1000EE005F0A0D0D0C0D4D0D07140E07610F08E282
:1000FE001008E21108E21208E2130B8F140BA4157C
:10010E000B601600000FB8E54BB405243032030225
:10011E000FB8123F234003020FB8C210E4FF12754E
:10012E001112911C9004D27402F0755914020CBB7A
:10013E00E54B642D701F123F315003020FB8C217EA
:10014E00C2101210B9700B123E287F0112647E127B
:10015E0077A102033EE54BB41716C21075590AC2B9
:10016E000EC224C21E1210966003020FB8020C8B30
:10017E00E54BB4200E12109670031292A575590C11
:10018E00D21022E54BB4180E1210A670031293165D
:10019E0075590DD21022E54BB41E0E1210A6700327
:1001AE00128D2E755908D21022E54BB41F10121065
:1001BE00C070057F01127621755909D21022E54BC8
:1001CE00B4260E7559061210B9700312903AD21059
:1001DE0022E54BB4280E7559071210C07003129009
:1001EE003AD21022E54BB416131211047008E552E0
:1001FE00123EDE1281E075590ED21022E54B6410CC
:10020E00703775590FF551C208D225C216C22AFE93
:10021E00FD123EB17F041210D97F081210D97D173E
:10022E007F06127DD67D1B7F07127DD67D177F0838
:10023E00127DD61284D3D21022E54BB42F12121097
:10024E009D7007FF127621754F01C2257559022246
:10025E00E54BB4301112109D7006129267754F0166
:10026E00C22575590322E54BB42713C21712110B81
:10027E007006120046754F01C22575590522E54BD1
:10028E0064086012E54B6403600CE54B6402600683
:10029E00E54B640D703FD210E54BB408057559104F
:1002AE00801EE54BB403057559118014E54BB4025D
:1002BE0005755912800AE54BB40D05755913C21018
:1002CE00E559B4130B12110B6003020FB802092E7D
:1002DE00C20C02092EE54B642E6003020FB81211F8
:1002EE00047009E55213123EDE1276A4755904D23B
:1002FE001022E54B642D703C201A39123F31500309
:10030E00020FB8C217D23578D47C047D017B017AF6
:10031E000579107E007F141232539004CAE551F015
:10032E00126878C2307F01127B51EF700312007693
:10033E0075591522E54B642C600CE54BB4050F90F6
:10034E0004A1E0B40208E55220E203026878E54B0E
:10035E00640A7040303412900900E04409F0301AFB
:10036E0018900903749DF08010900900E054F6F087
:10037E00301A06900903749CF07F021293597F0580
:10038E00129359B234A234E433FB7D017F1A128CDE
:10039E00FE02045EE54BB40E1430200302045ED25E
:1003AE0020D2A1E49008A7F0A3F002045EE54BB4BE
:1003BE0015269004D0E0FF700302045E241D75F034
:1003CE001E84E5F075F00DA42404F9740035F0FADE
:1003DE007B01128B6F02045E121056606230350381
:1003EE00020FB8AF4D127D679004D2E07003020F7A
:1003FE00B8E55230E2031242C7129192E551B4149D
:10040E0022E4FF74112FF582E43405F583E0FE74C7
:10041E00102F123E5AEEF00FBF13E8900523E54D54
:10042E00F08008123E56E54DF00551123DADFF121B
:10043E00723CE551C394025003020FB8D20A22E572
:10044E004BB405051242C78007E54BB41002D22209
:10045E007F01020B5DE54B641E7003020EBFE54B80
:10046E00B42C03020EBF300C0B120FCD6003020F23
:10047E00B8028D2E120FB97003020560E55170306F
:10048E00E54DC3940050030205E1E54DD3940240BF
:10049E00030205E1123E00E54D123E9AF553055159
:1004AE001210E1123E00E5F0FD7C007F08020529E6
:1004BE00E5516401702E123E0075F00AA4254DFF21
:1004CE009004C3F07418D39F5003020FB89004C366
:1004DE00E0F5530551E5531210E1123DF9FD7C0094
:1004EE007F0A8037E55164027037E54DC3940050A2
:1004FE00030205E1E54DD3940540030205E1123DEB
:10050E00F9AFF0E54D9004A0123E9F123FD3128E2C
:10051E006B123DF9E5F0FD7C007F0B12939E0205F8
:10052E00E1E551640360030205E1123DF975F00A3D
:10053E00A4254DFF9004A0F0743CD39F5003020FEE
:10054E00B89004A0E0F550123EE8128E6BC22E0257
:10055E0005E1E54BB4251ED236E4F5E7AF50129215
:10056E00CD90080FEFF0AF531292CD900810EFF030
:10057E007F01128FAB805CE54B641F6005E54BB4C9
:10058E002C03020EBF300C0D120FCD6003020FB8FC
:10059E007F01027621120FB96009E4FDAF4D1254AE
:1005AE00CE8030E54B6425702AD236F5E7AF501277
:1005BE0092CD900811EFF0AF531292CD900812EF3A
:1005CE00F090030FE0FF1292CD900813EFF07F0131
:1005DE00128FAB028BA3E54BB42606E55964066079
:1005EE001BE54BB42806E55964076010E54B642CF7
:1005FE00600AE54BB42508E556B40103020EBF3080
:10060E000C1FE559B406047F0180027F0212589A2E
:10061E008F58E55864016003020FB81210D0029093
:10062E003A120FD97003020FB8E556D39401400366
:10063E00020FB8E5567003123F61E556B4010E7411
:10064E00C62551F582E43404F583E54DF0123FDD05
:10065E00127DD6E551C39404500302070E128F8506
:10066E00E55670237556019004C6F0A3F0A3F0A3CF
