:1088100010C4EA611A03530069006C006900630028
:108820006F006E0020004C006100620073001003B6
:1088300055005300420020004100500049000A0347
:0C88400031003200330034000F800100D2
:108F1E00420D82013B410D7502420D760000420D5D
:0C8F2E00720000420D800000410D840024
:105EDC00F0E4A3F090049C1234F6900D4AEFF0908D
:105EEC00049C1234F678081234D0900D4BEFF090DD
:105EFC00049C1234F678101234D0900D4CEFF090C4
:105F0C00049C0234F6784A7C0D7A0579107D017B6D
:105F1C00010232477E007F1D7D007B017A0D79479F
:105F2C0022900D70E025E024B8F582E43408F58366
:105F3C00E0FEA3E022900D78E4FBFA7902F812342B
:105F4C00F602340A12349C90052812351E9005284E
:105F5C00023512E0AB29AA2AA92B9000010232C506
:105F6C00744A252AF582E4340DF583740FF0052A62
:105F7C0022EFF09005280234F678181234D0900DE8
:105F8C004DEFF022784A7C0D7D017B01FE023247F9
:105F9C00E0FFE4FCFDFE22E09000021232C590000E
:105FAC0003E40232C5E0AB29AA2AA92B22900D47A3
:105FBC00F0A37404F0E4A322FEE07C002400FFECC8
:025FCC003E2273
:107FD700128A21908810E493FE740193FF9088120F
:107FE700E493FC740193FD7BFF7A88792E90054416
:107FF7001235707A88793E90054712357090884817
:10800700E49390054AF0908849E49390054BF090EB
:10801700884AE493FB74019390054CCBF0A3EBF0F3
:0C8027007BFF7A8879141257540291886C
:03008600028DD513
:1035CB00125F2012359F125F267D1D126EB9900D72
:1035DB0047E0123579362201364B02373703360B6B
:1035EB0004391F0538F10638AB0739360839580945
:1035FB0039B10E39C10F39DC1039E511000039F63C
:10360B00900D477404F0A3F0E4A3F07A0579327FB0
:10361B0004125F90023918900D477401F0A304F067
:10362B00E4A3F0900538E0FCA3E0FD14900D4AF004
:10363B00ED24FFEC34FFA3F0125F267D0502393237
:10364B00900D4BE0900D4A125FC4900D76F0A3EFF6
:10365B00F0E02401FF900D76E03400FE126F6875E8
:10366B002901752A0D752B6C125FB2E41232B390DF
:10367B0004F8125F5F9004F9125FA3752901752A94
:10368B000D752B789004F5125FB11232B39004F6DE
:10369B00125F5F9004F7125FA3E4900D74F0FFFECE
:1036AB00FDFC900D6C123512C31234BF6060900D8F
:1036BB006C1234F68F3A8E398D388C37900D781218
:1036CB0034F6127F79900D71EFF06042125F9CFB24
:1036DB00FA7902F812337FAB07AA06A905A8049062
:1036EB000D6C1234F6123371900D6812351E7B017E
:1036FB007A0D79688B298A2A892B900001123286E0
:10370B009004F8F09000021232869004F9F0900DBC
:10371B00477402F0A37420F0E4A3F07A0479F07FED
:10372B0020125F90125F267D2302393275290175B5
:10373B002A0D752B7C900D4D125FB11232B3900D8B
:10374B004C125F5F900D4BE09000021232C5900D52
:10375B004AE09000031232C5900D74E0704004F003
:10376B00E4900D70F0A3E06035125F2DF47002EE63
:10377B00F4602B125F41A804A905AA06AB07125FE0
:10378B002DFFE4FCFDD31234BF4013900D70E00409
:10379B00F090090EE0FF900D70E0D39F40CB900DA1
:0737AB0071E07003023840D9
:1037B200E4F52EF52F900D70E0F532125F418E2C5C
:1037C2008F2D900D7C125F44C3EF952DFFEE952C4B
:1037D200CF2401F531E43FF530C3E52F9531E52ED5
:1037E20095305022E532125F31B52D08EEB52C042A
:1037F20005328008052FE52F7002052E052DE52DD7
:1038020070D7052C80D3900D7C123512C000C001F8
:10381200C002C003900D70E0FFC3E5329FFFE49445
:1038220000FEE4FCFDFBFA7902F812337FD003D0EC
:0E38320002D001D000123364900D7C12351EBE
:10384000900D4FE0900D4E125FC4FE900D72F0A3EC
:10385000EFF0D39400EE94024009900D727402F0E0
:10386000A3E4F0900B447403F0900D72E0FCA3E02D
:10387000900B45F0ECA3F0900D7C1234F6900D7295
:10388000E0FBA3E0900577CBF0A3EBF07B017A0B94
:1038900079471273287B017A0B7944900D73E024E9
:1038A00003FD900D72E03400023954900D4D125F0B
:1038B0009C78181234E3125F53C000900D4C125FD5
:1038C0009C78101234E3D000125F50C000900D4B72
:1038D000125F9C78081234E3D000125F50900D4ABA
:1038E000125F9C12349C90052812351ED23ED23DA8
:1038F000227406125FB9125F7E900D4A125F7D78C6
:10390000081234D0900D4B125F7D78101234D09095
:103910000D4C125F7D125F85125F267D078013902C
:103920000D477405F0A314125EDC125F85125F264A
:103930007D077C00801F7408125FB9F0A3E559F081
:103940009004CCE0900D4BF0A3E54FF0E4A3F0120F
:103950005F267D07FC025ADCE559640170030239D9
:10396000F6E559641870030239F6E55964177003D7
:103970000239F63032030239F6900D48E0FFD39455
:103980001450738F51AF517E0078107C057A0D79F9
:103990004A125F19C374149551FFE49400FE7D0F21
:1039A00074102551F9E43405FA7B0112359FD232A7
:1039B00022301A4230183FE55964017039FF0288FD
:1039C00088E55964186006E55964177029D284D2D5
:1039D00093127DF4755901C210027B7CE559601089
:1039E000B40113800BE55964146005E559B4010670
:0639F000754B0512008E6C
:0139F60022AE
:025DE8008F2901
:105DEA00125F2012359FE52924F5604814700302DA
:105DFA005E85147003025E8524036003025EDB2065
:105E0A000A03025EDB900D47740AF0A37414F0E4EF
:105E1A00A3F0FE7F14125F1185512AE52AC3941458
:105E2A005005125F6C80F4125F267D177C00125AAF
:105E3A00DCC20A22202006200903025EDB900D47FD
:105E4A00740BF0E4A3F0A3F030091B900D4874140E
:105E5A00F07E00FF125F1185512AE52AC39414507F
:105E6A0005125F6C80F4125F26900D48E02403FD52
:105E7A00E433FC125ADCC220C2092220140330285F
:105E8A0050900D47E529F0A37419125EDC125F8564
:105E9A009004D2E0900D4EF0784F7C0D7D017B018D
:105EAA007A0579107E007F1412324785512AE52A35
:105EBA00C39414500E744F252AF582E4340D125FF0
:105ECA007580EB125F267D1C7C00125ADCC214C25C
:015EDA00289F
:015EDB0022A4
:03008B00027AA155
:107AA100C0E0C0F0C083C082C0D075D000C000C0AB
:107AB10001C002C003C004C005C006C00712936321
:107AC1008F1DE51D30E20C9008017401F0900B420E
:107AD100E004F0E51D30E1069009217402F0E51D96
:107AE10030E7069009217403F0E51D30E6069009A0
:107AF100217404F0D007D006D005D004D003D00201
:0F7B0100D001D000D0D0D082D083D0F0D0E032ED
:10929F0031302F30382F31330031353A30323A34C4
:0292AF0032008B
:104D2000F518F517F516F515900B40E0FEA3E0FF1A
:104D30007C007D0A1232F9E4FCFDFBFA7902F802EC
:104D4000337FE4FB7A08F9F81234F612340AEF24C0
:104D500001FFE43EFEE43DFDE43CFC22E52925E0C4
:104D600024B8F582E43408F58322E4FCFDFE9008C3
:104D70000912351EE4FFFE7D02FC9008091235126F
:104D800002337F900915E4FBFA7902F80234F690B9
:104D900009151234F6C3AB18AA17A916A8150234C0
:104DA000BFFFEE34FFFEE434FFFDE434FFFCE422F9
:104DB00012351E9008E1E09008E024FFFFE034FF88
:104DC000FE22FFE4FCFD123512023364E0FFA3E093
:104DD000900586CFF0A3EFF02290091512351290BE
:104DE000091D1234F6123371E4FBFA7902F8123419
:104DF0000A90089CEFF022FEE43516FDE435158F8D
:104E0000188E178D1622AF18AE17AD16AC1522935B
:104E1000FE740193FFEE900538F0A3EFF0221234F8
:104E2000F6E4FB7A08F9F802337FE5182496FFE5EB
:104E3000173415FEE51634FFFDE51534FFFC228F0F
:104E40001C8E1B8D1A8C192234EA8F82F583E49311
:104E5000229004EEE024E2FF9004EDE034FF22AB68
:104E600007AA061234F6C3EF9B221234F69008020A
:104E700002351EE52925E024B6F582E43408F583E1
:104E80002275F004A42400FFE5F034E8FE22AF2AE6
:104E90007E00AC2BAD2C0232E712340A900B40EEB0
:104EA000F0A3EFF0229004EDE0FEA3E02212351211
:104EB000C30234BF9FFFE09E900586F0A3EFF0226F
:104EC000FDEE34FF8D82F583E49322900530E4F00B
:104ED000A3745AF0229004ED74ECF0A3E4F0229055
:104EE0000570023567E0FEA3E029F9EA3EFA229058
:0B4EF000055702356790056502356725
:10905E00A2AF924275FEFFC2AF8F828E83758F01D3
:0F906E0075B7A575B7F1EDF0E4F58FA24292AF9B
:01907D0022D0
:108AC500A2AF924175FEFFC2AF75FF8075EF028EB2
:108AD500408F4175B7A575B7F1438F0375FF807555
:108AE500EF02854182854083E4F0538FFCA24192D9
:048AF500AF75FEFF5C
:018AF900225A
:101FDA0090EA2BE493F529E529B4FF1890053874A3
:101FEA0001F0A3E4F09008A112352A10000000E4E1
:101FFA00FF125CF0E4900590F090EA0093F529E571
:10200A0029F460061252080221AD124ECB9005281F
:10201A0012352AFFFFFFFF90049C12352A000000A8
:10202A000090049C1234F6128E7EE4900532F0A3DE
:10203A00F0A3F0A3F090052CF0A3F0A3F0A3F09086
:10204A0008A112352A0000000090091512352A004D
:10205A0000000090091D12352A00000000E49008D3
:10206A009CF0FE7F287DFF7B017A0879B812359FA4
:10207A007F01125BEDE49004EFF0F529124D5CE06C
:10208A00FEA3E0FFBEFF0BBFFF0890090EE529F093
:10209A0080070529E529B414E3752B07752CF890F8
:1020AA0008E07408F0A3E4F090090EE0F529E529A8
:1020BA00D39400403A124E73E0FEA3E0FFC3952C7E
:1020CA00EE952B402AEF24F8F52CEE34FFF52B90F1
:1020DA0008E0EEF0A3EFF0124E7374FFF0A3F09055
:1020EA0004EF7404F090090EE014F0152980BF90F3
:1020FA0008E0E0FEA3E0FF7C007D0A1232F98E2B95
:10210A008F2CE4F52990090EE0FFE529C39F4003CF
:10211A000221AAE4F52A124E8E124D5CE0FAA3E0DF
:10212A00FBB5070BEAB506079004EFE04402F0128C
:10213A004E8EEF24FFFFEE34FFFEEBB50712EAB531
:10214A00060EE52AD3940040079004EFE04402F01B
:10215A00052AE52AB40ABFE52925E024BAF582E46E
:10216A003408F583E0FEA3E024FFFFEE34FFFE12FD
:10217A004D5CE0FCA3E0B50722ECB5061EE5292478
:10218A0001FFE433FE90090EE0FDC3EF9D7480F871
:10219A006E9850079004EFE04401F0052902210FE0
:1021AA00128A8FE4F52BF52C752A0AE4252AFFE416
:1021BA00124E48F529F46004E5297046E52A6415AB
:1021CA007038F52B752C01124DB3124D379008A1BA
:1021DA00124DB0EF24FD124DA1124D3A90091D1275
:1021EA004DB0EF24FA124DA1124D3A90091512354D
:1021FA001E124D83124E99124DD9052AE52A6416EC
:10220A0070A9E52C6401452B700312560CC23D904F
:10221A00EC00E4124E0FF47002EEF4705890E600EF
:10222A00124E0FF47002EEF4604B900538E0700223
:10223A00A3E060417F007EEC128AC5E4F52BF52C01
:10224A00E4252CFFE52B34E68F82F583740193F5A0
:10225A0029E4252CFFE52B34ECFEAD2912905E050E
:10226A002CE52C7002052BC3E52B940240D27F008B
:10227A007EE6128AC57B017A09792B90057774026A
:10228A00F0A3E4F0FFFE7DF27C0F1273289005386C
:10229A00E0FEA3E0FF64014E7003022338EFF470FE
:1022AA0002EEF47003022338900538A3EF24FE12DD
:1022BA004DA17B20FAF9F812337F900915124DC609
:1022CA00124E6D900538E0FFA3E0CF124E1612268B
:1022DA003E855454855555900538E0FAA3E0FB2411
:1022EA00FFFFEA34FFFEEFB55506EEB55402803E15
:1022FA00EB24FEFFEA124DA37B20FAF9F812337F92
:10230A0090091D124DC6124E6D12263E900539E0F7
:10231A00900538124DBAEFB5550FEEB5540B90092A
:10232A001D124E6A900915800E75FEFF80FB9009FA
:10233A0015124E6A90091D1234F690092712351E9D
:10234A00900538E4F0A304F0124ED5F52B752C0154
:10235A00124EA5F5828E83E493F529F4600C90045D
:10236A00EDE475F02012334E800C900538E52BF021
:10237A00A3E52CF0800E052CE52C7002052B6411C8
:10238A00452B70CC900538E07004A3E06401700F0F
:10239A00E52C6401452B7007124D20124E3F221284
:1023AA004EA5FF24E0124EC0FD740193900538CD6E
:1023BA00F0A3EDF0900538E475F00112334EEF24E6
:1023CA00E5FFEE34FFFE128711124DFF8C15E5155D
:1023DA007518008E178D16F5157B007A00790DE4B5
:1023EA001232B3124EA5FF24E8124EC09000011219
:1023FA0032C5EF24E9FFEE34FF124E4A9000021272
:10240A0032C5900003E41232C5AF10AE0FAD0EAC68
:10241A000D7AFF79FF7800D31234BF40030224DF1C
:10242A00124E0690081F12351EE4F529124D8F50E0
:10243A000A124E061287D18F298003E4F529E5296D
:10244A0060030224CF90081F123512C3E5189BFFC0
:10245A00E5179AFEE51699FDE515988F108E0F8DF2
:10246A000EF50DE4FF7E04FDFCAB10AA0FA90EA821
:10247A000DD31234BFE4500AF510F50FF50EF50D21
:10248A0080192510FFE50F34FCFEE50E34FFFDE54B
:10249A000D34FF8F108E0F8D0EF50D9004EEE02493
:1024AA00E8124E57FE7B007A00790E754102128AB5
:1024BA00FA124E51FE124E4AF5295329EFAD29124E
:1024CA00905E02255EE42518FFE5173402124DF7E7
:1024DA00F515022436124E51124E4AF529E51825F1
:1024EA0010FFE517350FFEE516350EFDE515350D1E
:1024FA00124DFFF515E52920E40DE42518FFE5172F
:10250A003404124DF7F515E52920E548E518FFE5ED
:10251A0017FEE5165401FDE4FCFBFAF9F8C3123480
:10252A00BF6031E47902F8124E06124D4BE4124DA7
:10253A003A124DFF8C15124E2A1287D1EF70157B75
:10254A00FF7A8A7916124E2A90056CE4F0A3740574
:10255A00F0126E09E4F529F52B752C01124D8F4006
:10256A0014E4F518F517F516F515F51CF51BF51A0B
:10257A00F5190225CF124D28A804A905AA06AB070A
:10258A00AE2BAF2CE4FCFD12337F124E3FE52C64D8
:10259A000A452B70099009151234F6124E3FE51CB4
:1025AA0024A0FFE51B3415FEE51A34FFFDE51934B6
:1025BA00FFFC124D954021AF1CAE1BAD1AAC19D3CE
:1025CA00124D965005752901800E052CE52C7002D6
:1025DA00052B640B452B7084E5296401705590091D
:1025EA00151234F6AB1CAA1BA91AA819C31234BFB8
:1025FA004011E4F51CF51BF51AF519F518F517F550
:10260A0016F515AF1CAE1BAD1AAC1975410112793E
:10261A00BB124D6AEF251CFFEE351BFEED351AFD88
:10262A00EC3519FC1287D18F29E5297003028D1D1B
:03263A001292E613
:10263D00227B007A0079549008021234F6900577C7
:0A264D00E4F0A37402F012732822D7
:088E7E008F3B8E3A8D398C38D0
:108E8600E53B547FFFE4AD07ED7006FF7EE8128AEE
:108E9600C5ED124E817B007A007938754104028A4D
:018EA600FAD1
:107F1B00E4F531F530F52FF52EF535F534F533F570
:107F2B0032F52DE52D124E811287118F358E348D42
:107F3B00338C3274FFFFFEFDFCAB35AA34A933A89A
:107F4B0032C31234BF7009E52D701AFFFEFDFC22FF
:107F5B0085353185343085332F85322E052DE52D32
:0D7F6B00C3948040BEAF31AE30AD2FAC2EC0
:017F780022E6
:107854007D117F03127D957D1F7F04127D957D0C24
:107864007F05127D957D177F06127D957D117F071B
:10787400127D957D217F08127D957D0C7F09127DF7
:10788400957D137F0A127D957D137F0B127D9512D2
:107894008492E4F533F534AE33AF34124D37128BA2
:1078A400950534E53470020533C3E533940840E7A5
:1078B4007F007EEC128AC57EE8128AC57EEA128AAF
:0878C400C57EE6128AC580FEB4
:025CF0008F3CE7
:105CF200900538E07004A3E064017003025DE7E5FB
:105D02003C6401702A7D107F03127D957D117F0412
:105D1200127D957D137F05127D957D117F06127D83
:105D2200957D187F07127D957D117F08127D95E480
:105D3200F53DF53E9008A1124D8612340AA804A939
:105D420005AA06AB07AE3DAF3EE4FCFDD31234BF5D
:105D52004052AE3DAF3E124D371287D1EF603AAEA0
:105D62003DAF3E124D37128B95E53C6401702AC35C
:105D7200E53E947FE494005005753F1D8003753F16
:105D82000FAD3F7F09127D95AD3F7F0A127D95AD24
:105D92003F7F0B127D95128492053EE53E7002050F
:105DA2003D025D367F007EEC128AC5E53CB40121DE
:105DB200E4900537F09004CDF09004E8F09004D020
:105DC200F09004C4F09004D1F09004C5F09004CB9C
:105DD200F0900538E4F0A304F0E4124D20124E3F97
:055DE200124ED5C23194
:015DE7002299
:10884C00124E069008A912351E9008A11234F61289
:10885C004DFF8C157B007A007933900586E4F0A3EC
:10886C0004F0126D58E533F46006124E06128B9527
:0B887C009008A91234F6124DFF8C1575
:0188870022CE
:10560C007F007EEA128AC57B017A057932754104E6
:10561C00128AFA7B017A05792C7541047F047EEAA3
:10562C00128AFAAD577F087EEA12905EAD520F12C5
:10563C00905E7B017A0979157541040F128AFA7B09
:10564C00017A09791D7541047F0E7EEA128AFA7B74
:10565C00017A0879A17541047F127EEA128AFA7BDD
:10566C00017A0579287541047F167EEA128AFA9030
:10567C00090FE0FD7F207EEA12905E900913E0FD99
:10568C007F2412905E90091412572A9008FD12572D
:10569C002A9008E21257319008061257319004A252
:1056AC001257469004D312574690059012574D90BE
:1056BC00053012574D900530A3E0FD0F12905E900F
:1056CC0004EFE0FD7F2F12905EE4F9E975F002A47F
:1056DC002430FBE5F034EAFAE9124D5EE0FDAF034D
:1056EC00AE0212905EE975F002A42431FFE5F034AD
:1056FC00EAFEE9124D5EA3E0FD12905E09E9B414D6
:10570C00CAE4F9E924E090929F125738B408F4E403
:0D571C00F9E924F09092A8125738B408F46F
:1057290022E0FD0F12905E22E0FD0F12905E22FF33
:10573900E434EBFEE993FD12905E09E922E0FD0FE6
:0B57490012905E22E0FD0F12905E2225
:1052080075FEFF90EA00E493900532F090EA01E41D
:1052180093900533F090EA02E493900534F090EA15
:1052280003E493900535F090EA04E49390052CF09C
:1052380090EA05E49390052DF090EA06E493900532
:105248002EF090EA07E49390052FF090EA08E49393
:10525800F557A3E493F5527F0A7EEA128711900965
:105268001512351E7F0E7EEA12871190091D123520
:105278001E7F127EEA1287119008A112351E7F1632
:105288007EEA12871190052812351E124DD990EA30
:1052980020E49390090FF090EA24E493900913F026
:1052A80090EA25E493900914F090EA26E493900894
:1052B800FDF090EA27E4939008E2F090EA28E4935E
:1052C800900806F090EA29E4939004A2F090EA2A64
:1052D800E4939004D3F090EA2CE493FE740193FFD6
:1052E800900530EEF0A3EFF0D3945AEE940040030B
:1052F800124ECB90EA2FE4939004EFF0E4FDED75A5
:10530800F002A42430FFE5F0124E48FE740193FF2A
:10531800ED124D5EEEF0A3EFF00DEDB414E0E4FDF8
:10532800ED124D5EE0FEA3E0FFBEFF0ABFFF07904F
:10533800090EEDF080050DEDB414E5E4FBFA7902F1
:10534800F89008A11234F612340AEF2401FFE43E63
:105358009008E0F0A3EFF0124D83124E99127F1BD4
:0653680090049C02351EBA
:0C73280090057012357090057312351E30
:10733400900573124D4290057912351E900579120D
:107344004E1E90057912351E900577E0FEA3E0905D
:107354000573124DC2900579124EAD5047900573D6
:107364001234F6900579124E5FFFEE9A90057DF087
:10737400A3EFF0124EDF90057D124DCC90057312F1
:1073840034F6126D58124EDF90057D124EE59005CD
:107394007DA3E0FFC3900578E0900577124EB4908A
:1073A4000579800C124EDF900577124DCC90057351
:0673B4001234F6126D58C0
:0173BA0022B0
:0C6A810090055712357090055A12351E12
:106A8D0090055A124D4290056012351E9005601208
:106A9D004E1E90056012351E90055EE0FEA3E0903F
:106AAD00055A124DC2900560124EAD90055A5058C0
:106ABD001234F6900560124E5FFFEE9A900564F069
:106ACD00A3EFF0124EEF900564124DCC90055A12C3
:106ADD0034F6126D58900560126B32124D6A9005A6
:106AED0060124DC6C006C007124EEF900564124EDF
:106AFD00E5900564A3E0FFC390055FE090055E128D
:106B0D004EB4D007D0068019126B32124D6A900523
:106B1D005A124DC6C007124EEF90055E124DCCD0E5
:046B2D0007126D5886
:0B6B3100221234F67541011279BB22DC
:0C6E090090056512357090056812351E6A
:106E1500E4FB7A08F9F8900568124D4890056E1262
:106E2500351E90056E124E1E90056E12351E90058C
:106E35006CE0FEA3E0FFE4FCFD900568124DC690F2
:106E4500056E124EAD50519005681234F6AB07AA87
:106E55000690056E124E63F53DEE9AF53C90056879
:106E65001234F6124EF5900579E53CF0A3E53DF0B8
:106E7500127014124EF5E9253DF9EA353CFA9005F4
:106E85006CE0FEA3E0C3953DFFEE953C900579F0DF
:106E9500A3EFF090056E8015124EF590056CE0FF9E
:106EA500A3E0900579CFF0A3EFF09005681234F6D2
:036EB50012701444
:016EB80022B7
:1089E8008780848881858982868A838B5F503D79D8
:1089F800726B6F517F7B0C48776E0F007C2F270EB0
:108A0800576C376B2E5E4C7A20087F07640003078B
:098A18000F080C0E0F0103070FFB
:1011190090054F1235129005601234F6123371E4BE
:10112900FBFA7902F812340A900557A804A905AA0E
:1011390006AB07E0FEA3E0FFE4FCFD22900557E4BF
:1011490075F00102334E900B40E0FEA3E0FF7C00F6
:101159007D0A1232F97902E4FCFDFBFAF802337FC9
:10116900D283C28325E0FFA282E4334FD283C283B4
:1011790025E0FFA282E4334FD283C28325E0FFA298
:1011890082E4334FD283C28322E4FCFDFE90080936
:1011990012351EE4FFFE7D02FC9008091235120289
:1011A900337FE4FB7A02F9F812337F900802123593
:1011B90012023364900557E0FEA3E0FF2400FDEE20
:1011C90034EC8D82F583E493FD22E42DFFEC34ECBD
:1011D900FE742B2DF58274093CF583E0222400FF6F
:1011E900EE34ECFE7C00EF2DFFEC3E8F82F583E4BC
:1011F90093FB900541E0FEA3E078052290080212D6
:1012090034F690081F12351E9009271234F69008FB
:101219000212351E90081F1234F690092712351E46
:1012290090092722E4FBFA7902F89008E51234F6CE
:1012390012340A900548EEF0A3EFF09008E5123455
:10124900F6ED5401FDE4FCFBFAF9F8C30234BF746E
:10125900FF7F00FEFDFCAB3BAA3AA939A838C302BF
:1012690034BFE5142402FFE43513FEE43512FDE42E
:101279003511FCE47B14FAF9F812337FAB10AA0F8D
:10128900A90EA80DC30234BF9005777402F0A3E438
:10129900F07B017A09792B22FCC3AB18AA17A9168E
:1012A900A8150234BF9004EEE0240AFF9004EDE093
:1012B9003400FE222DFFEE3CFE742B2FF5827409BB
:1012C9003EF583EBF0900546E004F022C283A203C9
:1012D9009282D283C283A2029282D283C283A20162
:1012E9009282D283C28322FFE50A34FFFEE50934E4
:1012F900FFFDE50834FF8F0B8E0A8D09F50822FCE6
:10130900C3AB0BAA0AA909A8080234BF1234F6EF25
:101319002401FFE43EFEE43DFDE43CFC22FEED7ABF
:10132900002FFFEA3E8F82F583E493FF75F020ECEE
:10133900A42DF582E435F0F583E582242BF582E5C9
:10134900833409F583EFF090055DE004F022FE7423
:10135900A32FF582E43404F58322F0900912E025E5
:10136900E025E0FF9008E4E0C454F04F900904F050
:10137900900913E075F008A490090CF0900914E0A5
:1013890075F008A490090DF022900919E47B14FA6C
:10139900F9F81234F602340AFCEF24FFFFEE34FFA9
:1013A900FEED34FFFDEC34FFFCE4FBFA7902F82290
:1013B900900557FFE0FCA3E0FDC39FEC9E22900837
:1013C9009CE0FFE4FCFDFEFB7A10F9F812337FE4A0
:1013D9007B10FAF9F81286CDEF2401FBE43EFAE41A
:1013E9003DF9E43CF89005572290054AE0FCA3E05A
:1013F900FDA3E0FEA3E0FFC322900539E024FEFF30
:10140900EF540F2401FFE433FEC3900542E09F909F
:101419000541E022EFFD7C002400FFEC34EC8F82D3
:10142900F583E493FB7E00900544E0540F78052290
:101439003EF583E0FFE4FCFDFE12349C8F3B8E3ABF
:101449008D398C3822A3E0FD1293087F0A7E0012A1
:101459008E07A3E0FD229008A11234F6EF24D0FFF5
:10146900EE34FBFEED3401FDE43C222518FFE517BF
:101479003402FEE43516FDE43515FC90081F1235DB
:1014890012123371AB2CAA2BA92AA829C30234BF83
:1014990090055CE02537FFE433FEEF7805229005DF
:1014A90039E024FEFF900538E034FFC4F854F0C851
:1014B90068FEEFC4540F482278081234E3A804A93F
:1014C90005AA06AB0722C3AB1CAA1BA91AA81902B5
:1014D90034BF7902FBFAF802337F90081F1234F601
:1014E9008F0B8E0A8D098C08E4751401F513F5121A
:1014F900F51122FDFB7A02F9F802337FED25E0248C
:10150900B8F582E43408F583E0FAA3E022E4FEFDAD
:10151900FCAB14AA13A912A811C30234BFC2837F5A
:10152900047E000290C9900807E0FFA3E090089F9D
:10153900CFF0A3EFF022900B40E0FEA3E0FF7C0088
:101549007D0A0232F99009151234F68F1C8E1B8D13
:101559001A8C1922FE742C2DF58274093CF583E04E
:10156900FDED22E4900557F0A3F022E47B32FAF96D
:10157900F8AF14AE13AD12AC1102340A7B017A052F
:10158900793DAF0BAE0AAD09AC08221234F68F18BB
:101599008E178D1622FFE53CFDC374049DFDE4946E
:1015A90000FC740E2DF58274083CF583E0228F143B
:1015B9008E138D12F51122AF18AE17AD16AC152288
:1015C900900539E024FFFF900538E034FF22128AA4
:1015D90059E50B2510FFE50A350FFEE509350EFD26
:1015E900E508350DFC22E4F51CF51BF51AF519F58E
:1015F90018F517F516F51522FEFDFC9008091235A8
:1016090012C30234BFFFE4350AFEE43509FDE435AF
:10161900082290081F1234F6EF2510FFEE350FFE51
:10162900ED350EFDEC350D22FF7E00EF540F7805E8
:101639002225E0FF24A2F582E43404F58322E53A69
:101649002496FFE5393415FEE53834FFFDE53734D6
:10165900FFFC22E53775F020A4FFE5F0900559F06D
:10166900A3EFF022FA7B10F9F802340A900539E069
:101679009FFF900538E09E229009150234F69008E4
:101689001F1234F6AB0BAA0AA909A808D30234BF62
:10169900FFE0FAA3E0FB242BF58274093AF583EF06
:1016A900F022E4FCFDFE90080902351E35F0A80180
:1016B900FC7D017B017A0879147E007F0A22EF24E0
:1016C900FFFFEE34FF22900559E0FCA3E0FD242B37
:1016D9002290053874FFF5F002334E900543E0C4BB
:1016E900F854F0C868FEA3E0C4540F4822EF251C43
:1016F900FFEE351BFEED351AFDEC3519FC22C3133F
:10170900F582758300023286900807E0FFA3E09016
:1017190008A5CFF0A3EFF0227410253DF582E4343B
:1017290005F583227411253DF582E43405F58322FC
:10173900C3900541E0940222900548E0FFA3E090A0
:10174900054CCFF0A3EFF022C43354E0FF9008001A
:10175900E04F900905F022E55254F0FF131313549A
:101769001F900908F022D23890089E74FFF022E0F9
:101779009000021232C5900003E40232C574FF756D
:10178900F0E09004ED02334E74089008FFF09009E0
:101799000122758A10758CAAD28C22AF1CAE1BADA2
:1017A9001AAC1922E0FEA3E0FF900807E0FCA3E0D1
:1017B900FD22E09000010232C5FC7B007A00790D20
:1017C900E4F0A37404F022F0A3F0E53B908A1693A9
:1017D9002290055AE02400FF900559E034EC22FFDD
:1017E900900565023567C4F8540FC868FFEEC45404
:1017F900F048FE2274EE9004EDF0A3E4F022900587
:1018090046E0FDC394202290054AEEF0A3EFF022B2
:1018190075D4FF75D5C075D6FF75DFC022FFE435D5
:1018290013FEE43512FDE43511229004A1E06402AF
:1018390022E53E04FF127D95053E22742B2FF58289
:1018490074093EF583EDF02290056C7402F0A3E46F
:10185900F0222DFFEE3CFE740B2FF5827409221B3A
:10186900C3EB64809480221AC3EA648094802212B4
:10187900337F8F2C8E2B8D2A8C29229004A1F0FD89
:101889007FFF129308E42275F00DA4FFAEF0227ECB
:10189900007F0D023247900559E0FEA3E022C39074
:1018A9000557E0940222E4900541F0A3F022C28298
:1018B9001290C9D2820290C9E0FFC3740A9FFFE463
:1018C90094002213135401F54CE4FDAF4C2290050A
:1018D90055F0A3EFF022E42546FFE43545FEE54443
:1018E900229008FFF07F0122C28DC28CE490081E6D
:1018F900F0227E007D007B0102359F90090A744722
:10190900F022AC00AD01AE02AF03E422E47B14FA8D
:10191900F9F8223EA801FC7D01220537E53764105C
:10192900228F82F583E49322C374109537FF22AB8B
:101939003EAA3FA94022E0FF129336EF22FF90050D
:1019490038EF540F240122242BF974093EFA7B0144
:01195900226B
:0A93940043868375A904E4F5B222B4
:07939E0043B20343A90222C0
:1091A100E4F5C775B03F75A0F5F59075808E75A48F
:0891B1001075A508121819221F
:108FD70075C7FF75B03F75A0FD7590F07580EF758B
:108FE700A45075A5EC75A60275A7C275AEFF121839
:028FF70019223D
:03000B0002744735
:10744700C0E0C0F0C083C082C0D075D000C000C00B
:1074570001C002C003C004C005C006C007C28DC278
:107467008C30184A900B3FE004F090090AE064471B
:1074770060047D4780027D437F0C1269BF7D027FD8
:107487000A1269BF7F5E7E01128E0790090AE4F037
:107497007F0C129318900908E4F07F0A1293189052
:1074A700081EE4F01218EA129318C23BC292D007E2
:1074B700D006D005D004D003D002D001D000D0D060
:0974C700D082D083D0F0D0E03275
:03001B000280332D
:10803300C0E0C0F0C083C082C0D075D000C000C013
:1080430006C007C28F900923121148900925121107
:1080530048758BAF758D3C900923E0FEA3E0FF6468
:108063000A4E7002D23EEF64D24E700AC2AB900940
:108073002374FFF0A3F0303602D222D007D006D00B
:0C80830000D0D0D082D083D0F0D0E0320A
:03007300028350B5
:10835000C0E0C0F0C083C082C0D075D000C000E5CE
:108360009130E62C5391BF9008071211489008A74E
:10837000121148D3900808E09484900807E0941EF6
:10838000400EE4F0A3F0050CE50CB43C03750C00C2
:10839000303602D222D000D0D0D082D083D0F0D0DC
:0283A000E032C9
:0C90BD001392827F047E001290C9D283BF
:1090C900E4FDFCC3ED9FEC9E50070DBD00010C8033
:0190D900F2A4
:0190DA002273
:078E00001293087F0A7E00B7
:108E0700E4FDFC75FEFFE4FBFAC3EB9FEA9E500707
:108E17000BBB00010A80F20DBD00010CBC01E4BDD3
:028E27002CE13C
:018E29002226
:0270BE00A90720
:1070C00075FEFFA2AF9241C2AF2018427B03C2837C
:1070D000E9A803088002C313D8FC139282D283125A
:1070E000186850EAC283D282D283C283D283C2821A
:1070F000D282C283A282E43312116925E0FFA28208
:10710000E4334F121169D283A24192AFFF2243A40C
:107110000C7B03121526E9A803088002C313D8FCD0
:107120001290BD12186850EB121526D2821290C42C
:10713000C2831290C41218B753A4FB7B0712152602
:10714000EA25E0FFA282E4334FFA7F041290C412D2
:10715000186850E9121526D28353A4F3A24192AFC6
:03716000AF022259
:0F93180074FE2FF582E43408F583E0FD0269BF8F
:0269BF00AB0724
:1069C10075FEFFA2AF9242C2AF8D20C28320183F55
:1069D100C283A2071212E9A2061212E9A20512123B
:1069E100E9A2049282D2831212D5A2009282D283AA
:1069F1008B201212D5A2001212E9C282D283C28365
:106A0100D282D283C282D282C283D283026A7C437F
:106A1100A40CE520C4540FF97A03C283E9A8020843
:106A21008002C313D8FC1290BD12187050EC7A0387
:106A3100C283E520A802088002C313D8FC1290BDCE
:106A410012187050EB7A03C283EBA802088002C3CC
:106A510013D8FC1290BD12187050EC121526C28288
:106A61001290C4C2831290C9D2821290C41218B774
:0F6A7100C2831290C475FEFF53A4F3A24292AFEA
:016A800022F3
:10808F009008FE74BFF02033089009007409F08047
:10809F0005E4900900F01217917430F0900823E076
:1080AF00FFC394045006EF04F5298003752907E5F3
:1080BF002925E0FF9004A2E04F900903F0E5291273
:1080CF001751900806E09009061213631292B1C27D
:0B80DF00931218F11291B9C284C21A6A
:0180EA002273
:107B7C00D2937F017E00128E071291B91218F1D2A6
:107B8C0084D21A9008FE30110574EFF0800374FF54
:107B9C00F020330E9009007409F0900903749DF0E5
:107BAC00800BE4900900F0900903749CF0740E12A1
:107BBC0017937438F0900823E01217519008E2E004
:107BCC00900906F09008FDE0900908F090090FE08C
:0B7BDC0044409009071213630292B1AD
:1092B100E4F538AF381293180538E538C3941040F7
:0192C100F2BA
:0192C2002289
:1090DB007F107A0879FE1218FB9008FE7489F090C5
:0E90EB0009097480F090090B7418F00292B11C
:109117009008FE7489F0E4FF129318E41218EA121B
:0D9127009318900903744CF07F0502931813
:107D26008F35203761E535D3940B505AD237E4901E
:107D360008A7F0A3F0900903E0440E54FEF07F0577
:107D4600129318201A0890090074A0F0801990095F
:107D5600007460F09008FDE0D3940A400A90090888
:107D6600740AF0FF1293187F021293189009017497
:107D760001F07F03129318E5359089E89390090A7C
:077D8600F07F0C129318229C
:1072920030A002D29330A0067FD07E0780047F0107
:1072A2007E00128E077D617F0B1269BF30A0067FC0
:1072B200E87E0380047F017E00128E077D417F0BF2
:1072C2001269BF30A0077FB87E0B128E077F0212B1
:1072D20070BEEFC3941450089008237407F080190D
:1072E200EFD3943B4003E4800C74EC2F75F00584DB
:1072F200FFC374079F900823F0C293900823E0D342
:1073020094029008004010740BF09008E47405F0A9
:107312009009127403F0227411F09008E47402F0E0
:0573220090091214F0B7
:017327002243
:0274D0008F34F7
:1074D2009008FFE0900542F09008FF7482F0A3E06C
:1074E200900543F09009003011057460F080037438
:1074F20040F0E53490090A70057422F08003742E7E
:10750200F01217601292B17F2C7E01128E07900842
:10751200FF7406F07F01129318E534B401067FF47C
:107522007E0180047FD07E07128E07E490090AF064
:107532007F0C129318E4900908F07F0A12931890B6
:107542000542E01218EA129318900543E0900900F0
:06755200F07F0202931815
:03000300024EFBAF
:104EFB00C0E0C0F0C083C082C0D075D000C000C07D
:0D4F0B0001C002C003C004C005C006C007FD
:104F1800E4FF1270BE90053AEFF0301820C39009F4
:104F280024E09403900923E094005003025071D2C6
:104F3800861291B9900923E4F0A37403F020A20328
:104F480002507130930302507190053AE0C3948087
:104F5800500302507190081EE070359008FF74826B
:104F6800F07F011293189009007440F07F021293A9
:104F78001890090874C3F07F0A12931830180312A6
:104F8800179B90081E7401F090053BE4F0025071E5
:104F980090081EE06401704F90090874CFF09008E3
:104FA800FF7406F0208716D284308704E4F0800965
:104FB80030180690090874D1F0C2848009301806A8
:104FC80090090874D9F07F0A1293187F0112931878
:104FD8001219047F0C12931830180312179B9008AB
:104FE8001E7402F002507190053BE0FF700A12191E
:104FF8000475FEFFD292805FEFB40207121904C253
:10500800928054EFB4040A90090A7443F0D2928053
:1050180046EFB4062090090A7443F0C2929004D275
:10502800E4F0301832E5596417602C900498740144
:10503800F0C210802230181FEFB4071B90092230ED
:105048003B04E4F08003E004F0900498E07008E585
:1050580059B417037402F012179B90053BE004F053
:09506800E05407F07F0C129318CC
:10507100D007D006D005D004D003D002D001D00093
:0B508100D0D0D082D083D0F0D0E0323D
:1091D00075B48B75B5FF75D21075E50D75AC43751B
:0691E000E70275F7022210
:0300830002495BD4
:10495B00C0E0C0F0C083C082C0D075D000C000C022
:10496B0001C002C003C004C005C006C007E5D25495
:10497B00C060031291D0E5D220E003024B1953D251
:10498B00FE9008E3E5D3F0203803024A16E0FFB4AB
:10499B00552290089EE0645460067454F0024B1943
:1049AB0090089EEFF0E51424011218261215B7C2D9
:1049BB0038024B199008E3E0FFB4662490089EE0A0
:1049CB00646560067465F0024B1990089EEFF090D9
:1049DB0008B41213159008B412351EC238024B19C5
:1049EB009008E3E0FFB4771D90089EE064766006C4
:1049FB007476F0024B1990089EEFF0C23890089D28
:104A0B00E4F0024B19121771024B1990089EE064E7
:104A1B0066704C1218337045203C429008E3E090CE
:104A2B0009101216999009191213159009191235BC
:104A3B001EC3EB94FFEA9401400D12139212190B53
:104A4B001212507002D23C9009101211481213929C
:104A5B0012190B1212506003024B198026802490FE
:104A6B00089EE064776003024B1990089DE0FF708D
:104A7B001A9008E3E0FE7480D39E500F9008AFEEBF
:104A8B00F0C215121771D238024B19EF7019203979
:104A9B00169008E3E0FF90089DE0240EF582E434C5
:104AAB0008F583EFF0803D20353A90089DE0D394D4
:104ABB000B4009740BF0A374FFF0D23890089DE003
:104ACB00FFB4010F9008E3E0FE90080FE06E600367
:104ADB00750C009008E3E0FE740E2FF582E43408A9
:104AEB00F583EEF090089DE004F090080EE0FF24B3
:104AFB0001FDE433FC90089DE0B50512E4B5040E0E
:104B0B00A374FFF0D238EFB40B02D239D22BE5D21B
:104B1B0030E10353D2FD303602D222D007D006D07B
:104B2B0005D004D003D002D001D000D0D0D082D099
:064B3B0083D0F0D0E0324F
:109308008FD38DD3BD0B02D2157FF47E010290C995
:10472B00E490053DF0203C030248F8121711E559BF
:10473B00B40A25E42518FBE5173402FAE43516F91B
:10474B00E43515F812145FFCD31234BF5003024842
:10475B005DC23CD2277F0122E55964187036E557BC
:10476B0054F07012F52C752BDD752A6DF52912148A
:10477B00745021024858E55754F0C4540FFFE4FC21
:10478B00FDFE7B607AEAF9F8121878E41214745083
:10479B00030248587F007EFD7DFF7C0090091912B3
:1047AB003512D31234BF40030248581215C01214ED
:1047BB00CF50030248491216811212A2400302483D
:1047CB00491213B21215C012340A1213181213B273
:1047DB00121878C3E52C9518FFE52B9517FEE52AE3
:1047EB009516FDE5299515FCE47B607AEAF9F8D37B
:1047FB001234BF405DAF2CAE2BAD2AAC29124954FD
:10480B00121192EF252CFFEE352BFEED352AFDEC28
:10481B003529FCD31214D05039121681A819C312A2
:10482B0034BF40081215EF90053D04F01217A41287
:10483B0049541211921216F61287D1BF0105C23CD0
:10484B007F0222128D1D90053DE0B40105C23C7F15
:10485B0001221215C0128BFAEF1215C07002804C98
:10486B007541011279BB1216AB900919123512C0A2
:10487B0000C001C002C00312119C12191512340A98
:10488B0012191512337FD003D002D001D00012338E
:10489B0064900919121199E5182FFFE5173EFEE5F3
:1048AB00163DFDE5153C121597F515FC12129A9065
:1048BB000579121854127014E42518FFE517340209
:1048CB00FEE43516FDE43515121597F51590091014
:1048DB00E05401F0E0FEA3E0FF782B7C097D017B27
:1048EB00017A0B792B123247C23C7F032212183309
:1048FB00704D9008A51217ADD39FEC9E4011ED9F04
:10490B00FFEC9EFED3EF94C0EE94124032802690C3
:10491B000808E02484FF900807E0341EFE9008A5E9
:10492B00E0FCA3E0FDC3EF9DFFEE9CFED3EF94C034
:10493B00EE9412400A7D027FFF1293081217117D2D
:08494B0001E4FF1266A37F00E6
:08495300227541011279BB221B
:1040340090089EE06455600302428612152F900496
:10404400CCE0B403037F0022E4FF121517700612BC
:10405400176F7F0222E4FFFEFDFC12128570037FBE
:104064000122202C03024110E47FC8FEFD12130834
:104074005003024108E50B244C1212F0FCE4F54114
:104084001279BB1216ABE4FF121601605112119C97
:1040940090055312351E9005531234F6D312130AA9
:1040A4004039900553123512C3E50B9BFFE50A9A7C
:1040B400FEE50999FDE508981212FF9005531213C5
:1040C40095C3E5149FFFE5139EFEE5129DFDE511E2
:1040D4009C1215B7121687500580001214E31216AD
:1040E400875002801F7F0A121516401BE51424F620
:1040F400FFE51334FFFEE51234FFFDE51134FF1232
:1041040015B780031214E3C22C0241B42013030236
:1041140041B9E514240112126F50037F0122E50B0B
:1041240024DC12160E1212FF12161B12130840740E
:10413400E50B24381212F09005517401F0900551EA
:10414400E075F014A4FFEF250BFBE5F0350AFAE463
:104154003509F9E43508F812161BFCC31234BF50B4
:1041640008900551E004F080D49005511218C1FE66
:104174007C007D141232E7C3E50B9FFFE50A9EFE27
:10418400E5099400FDE50894001212FF1218C1FA23
:10419400C3E5149FFFE5139AFEE5129400FDE511B3
:1041A40094008007E514240A1218261215B7C213C6
:1041B400128BC8801912126B50037F01227F0112E7
:1041C4001516600AE50B241412160E1212FFE5D21E
:1041D40030E5FB75D35512158B128BFA900552EF0F
:1041E400F0E50B241312160EFC128BFA900552E024
:1041F4002FF0E07011121585900577F0A37414F078
:1042040012732802425412158590055EE4F0A374DB
:1042140014F0126A8112119CE50B2FFFE50A3EFE91
:10422400E5093DFDE5083C1212FF12119C12191517
:1042340012340A121318E5142FFFE5133EFEE5129B
:104244003DFDE5113C1215B712126B50037F01229C
:10425400E4900551F0E5D230E5FB900551E0FF0410
:10426400F0743D2FF582E43405F583E0F5D3900531
:1042740051E0C3941440DEE4FDFF1266A312176FED
:10428400802F90089F1217ADC39FFFEC9EFED3EFC3
:104294009440EE9406401AD3ED94C8EC9400401177
:1042A4009004A1E0B4030A7D037FFF129308121562
:0342B4002F7F0059
:0142B70022E4
:1091FC00301807E4F5CDF5CC800675CDC375CC558C
:05920C00C2CFD2CA220E
:05000600C2CAC2CF22B6
:107760007D017F01127C529008FF741EF0301118C9
:107770009008FE74FDF09009017480F0E4A3F0908D
:107780000900F0900903802330340F121791E04470
:1077900080F09009067401F080159008FE74F9F0ED
:1077A000E4900900F0A3F0A304F0A3E054FEF0126B
:1077B00017601292B17D037FFF1293089004A174A9
:1077C00003F012152FE4FBFD7F1B128CBD9004CC3F
:0A77D0007401F0E4F5141214F52220
:108C8D009004A1E064037027E4FD7F01127C522063
:108C9D00340F129117900902E054FEF07F041293E5
:108CAD00187406121884F5141214F59004CCF022E1
:108A59007B007A00790DE41232B39004F81217BB47
:108A69009004F91217787A0079089004F5E0123227
:108A7900B39004F61217BB9004F712177812158BEE
:068A890090081F02351EDB
:02643D008F3698
:10643F00E559B40A1A1293459008A11234F68F0B3E
:10644F008E0A8D098C0890081F12351E0264E7E52D
:10645F0036B40107AF55AE54126F68128A599004C3
:10646F00F2E0C413135403F537E4FB7D047F0412E9
:10647F008CBDE4FB7D047F0E128CBDE53770087B6D
:10648F00017D047F04800BE537B401097B017D0496
:10649F007F0E128CBD9004F2E0FFA3E0FDA3E0FBA2
:1064AF001278CC7B017D027F1F128CBD7B017D0397
:1064BF007F12128CBDAF55AE541285B7128F447B2D
:1064CF00017A0479FA1279447B017A057910E4F59F
:1064DF003DAD517F011271FBAF10AE0FAD0EAC0D84
:1064EF007B007AFF79FF7800D31234BF5009E4F5AF
:0C64FF0010F50FF50EF50DC225029151AD
:1042B80012183370030244E7303109E559640A6083
:1042C800030244E7900538E0FAA3E0FBC394E1EA6F
:1042D800942E4009E559640A60030244E7E4900912
:1042E80010F0A3F090091912352A00000000E559D2
:1042F800640A601AD3EB9410EA9400400B1215C9B3
:10430800EF540F70031285FD900537E004F0E5596E
:10431800640A600BE55964146005E559B4182CE586
:10432800599008FEB4181074FBF0A3741EF0E4A3AF
:10433800F0A37420F0800B74F9F0A37418F0A37440
:1043480008F090090374DCF01292B17D01E4FF12C9
:104358007C52C23A7D027FFF1293089004A1740236
:10436800F0900807E0FAA3E0FB9008A5EAF0A3EBB9
:10437800F0E559B40A141215C09008A912351E9018
:1043880008A11215948C150244C89008ADEAF0A350
:10439800EBF0900538E0FD9004EDE0FEA3E0FF129D
:1043A800905E9004EEE024011212B4900538A3E068
:1043B800FD12905E9008121244E89004D2E075F065
:1043C80040A444304536F5359004EEE0240212123C
:1043D800B4AD3512905E9008111244E8E5363333D7
:1043E8003354F8F5359008101244F0E53613135499
:1043F8003F42359004EEE024031212B4AD3512901A
:104408005EE536C4333354C0F53590080F1244F0D6
:10441800E53642359004EEE024041212B4AD3512AC
:10442800905E900813E0FF1293368F369004EEE00A
:1044380024181212B4AD3612905EE50CD3943B40AA
:1044480003750C3B9004EEE024191212B4AD0C1263
:10445800905E9004D2E07027F5371212AE7C00EF20
:104468002537FFEC3EFE74142537F582E43408F551
:1044780083E0FD12905E0537E537C3940A40DB9070
:1044880004EEE024051212B47B007A007915754118
:1044980003128AFA90049C12131590049C12351E7C
:1044A800D2149004EEE024141212B47B017A047939
:1044B8009C754104128AFA90049C1234F6128E7E7E
:1044C800C225129151E5596414600BE559640A60DC
:0F44D80005E559B41809900925E4F0A37495F08F
:1044E70022E0FF1293368F3622E0FF1293368F3683
:0144F70022A2
:1068370012183360030268FBE4FDFF127C527405F3
:10684700121884FB7A02F9F890091912139BE412C3
:1068570014FD8F108E0F8D0E8C0D90091912352A8D
:1068670000000000E4900910F0A3F0E559B40A1EF7
:1068770012911712145F121597F5159005791217D3
:10688700C21270149008A91215948C15805E90049A
:10689700EEE024081212B47B007A00790E754102EB
:1068A700128AFA9004D2E064017034F536E5362591
:1068B700E02410121725E0C454F0FFE53625E02444
:1068C70011121731E04FFD1212AEE5367A002FFF95
:1068D700EA3EFE12905E0536E536C3940A40CE9036
:1068E7000538121148E475F02012178BE559640139
:0468F7006002C22554
:0168FB00227A
:048711008E368F37DA
:10871500E4F53BF53AF539F538F53C753D00753E20
:1087250038FFEF7C002537FDEC35368D82F583E487
:1087350093AB3CAA3DA93E8F827583001232C50FCB
:0B874500BF04DFAF3BAE3AAD39AC38EB
:018750002206
:0A8AFA008E3C8F3D8B3E8A3F894081
:108B0400E4F542E542C39541501F7E00E53D254210
:108B1400FFEE353CFEAB3EAA3FA9408542821217C8
:098B24000BFD12905E054280DA9F
:018B2D002225
:1091B900301813E4900923F0A3F0C23E758BAF7504
:0791C9008D3CD2ABD28E22D7
:107BE7009004CDE0641E702FF533E533121890240E
:107BF7001FF974033EFA7B01C00174122FF9740355
:107C070012191CD0011218980533E533B41DDB9007
:107C170004E8741EF0800C9004E8E004F09004CDB2
:107C2700E004F09004E8E075F00DA42405F974036E
:107C370035F0FA7B011289009004E8E075F00DA495
:0B7C47002408F974031216B50232473E
:1077DA009004C5E0641E702FF535E5351218902423
:1077EA0094F974013EFA7B01C00174872FF9740180
:1077FA0012191CD0011218980535E535B41DDB9015
:10780A0004D1741EF0800C9004D1E004F09004C5F9
:10781A00E004F09004CBE0C3941E5003E004F0901F
:10782A0004D1E075F00DA4247AF9740135F0FA7BDD
:10783A00011289009004D1E075F00DA4247DF97439
:0A784A00011216B51232470293270F
:1076E200E55160799004C4E0641E702FF535E535EC
:1076F200121890240EF974003EFA7B01C001740145
:107702002FF9740012191CD0011218980535E535AD
:10771200B41DDB9004D0741EF0800C9004D0E00401
:10772200F09004C4E004F09004D0E075F00DA424BD
:10773200F4F974FF35F0FA7B011289009004D0E06D
:1077420075F00DA424F7F974FF35F0FA7B01C0033C
:0D7752008B39753A05753B10D003128791F5
:01775F002207
:067944008B388A39893AF4
:10794A00E4F551F53CE53C25E0F53DAB38AA39A90B
:10795A003A853C8212170BF53BC4540FFF121721CC
:10796A00EFF0121721E0B40F19E5517015E53C70DC
:10797A000EFE7F147D0F7B017A05791002359F85F3
:10798A003D51E53B540FFF12172DEFF012172DE072
:10799A00B40F09E5517005E53D04F551E53CB4091C
:1079AA0007E5517003755114053CE53C640A70956E
:0179BA0022AA
:108F9000C285D2367B017D037F801284DD7B017D1B
:108FA000097F011284DD7B017D097F031284DDC20C
:048FB00036D285220E
:1083F4008F367F207A0479A31218FBC22DC20DE5B3
:1084040052131218CC1276637F0412843C7F081234
:10841400843C1260BA7B017D037F18128CBD121557
:10842400C9FE1285B7E536B40103128751E552122D
:1084340018CC12819F0284927B017D03128CBD2291
:10849200A2A89242A2A99243C2A8C2A9D236C28578
:1084A2007B017D037FA01284DD7B017D06E4FF1248
:1084B20084DDE4F54074A3254012135BE0FFE4FB86
:1084C2007D081284DD0540E540C3942040E7D28553
:0A84D200C236A24292A8A24392A96A
:0184DC00227D
:0684DD008D41AA07A9036E
:1084E300E4FBEBC395415039C280EA30E703E970FE
:1084F30007EA30E007E97004D2948002C2947F0255
:108503007E001290C975FEFFD280E96006EA25E07D
:10851300FA8004EAC313FA7F027E001290C90B802B
:03852300C1D2942E
:018526002232
:087D8D00540F75F00A84ADF0FB
:107D9500D22BED9089F493FEEFC3940D5023EF128F
:107DA500163AE0540FFDEEC454F04DFD74A22F12A7
:107DB500163FEDF0EE25E054E0121357E0541F8016
:107DC50027EFC394195027EF24F412163AE054F024
:107DD500FDEE540F4DFD74A22F12163FEDF0EEC4CB
:0E7DE5005407121357E054F84E121357EEF0E5
:017DF300226D
:108CBD00D22BBB01127401A805088002C333D8FC66
:108CCD00121357E04E8013AE057401A806088002FA
:108CDD00C333D8FCF4121357E05E121357EEF02293
:1060BA00202A26E4F53CE53C25E0240D12159EFE37
:1060CA00C4127D8DE53C25E0240E12159E127D8DAD
:1060DA00053CE53CC3940440DD9004C17403F0E43C
:1060EA00F53B753C0112114F1214C6AF3CE4FCFD9E
:1060FA00FE12337F8F3A8E398D388C37E53CB40ADD
:10610A000B1216818F3A8E398D388C37121647E466
:10611A00F5411279BB1216ABE47FFF121601700A21
:10612A0090080912352A0000000012119C1214C6A8
:10613A001216471233711287D1EF253BF53B053C06
:10614A00E53CD3940A409EC3900539E094E190055A
:10615A0038E0942E4003753B0AE53BC39403500D87
:10616A00E49004BF1217D09004C1F08026E53BC327
:10617A0094075013E49004BFF09004C1740F1217EF
:10618A00D29004C0F0800C9004C0740F1217D09003
:08619A0004BFF0128492C22B35
:0161A20022DA
:1085B700900542EEF0A3EFF0D3940FEE942740120C
:1085C700D226900542E0FFA3E090049ACFF0A3EFF4
:1085D700F022C226900542E0FCA3E0FDD394E7EC2D
:1085E700940340047F15800A900542E0FCA3E0FD58
:0685F7007F161283A22290
:0683A2008C388D39AB0799
:1083A800EBD3941540077D0F7F15127D95C3E539F2
:1083B80094E8E53894035006753A031B8003753A30
:1083C80004E4FAEAC3953A5022EB2403C39AFFC0A7
:1083D80007AE38AF39121547D007127D95AE38AFC2
:0B83E800391215478E388F390A80D8F3
:0183F3002267
:108E2A008F33AB05AA047C007D0AAF03AE0212326F
:108E3A00F9AD07AF33127D95E53304FFC007AE02E3
:0A8E4A00AF03121547D007027D9513
:0271FB00AC05E1
:1071FD00BF0113E551700FF53E7D1C12183AE53EA7
:10720D00C3940C40F422ECC3940C5015E4F53EC32A
:10721D00740C9CFFE53EC39F50077D0F12183A80FA
:10722D00EEECD3940C400A75400CEC24F4F541803F
:10723D00058C40E4F541E4F53EE53EC395405044F0
:10724D00E53D64017016E53E20E008254112170763
:10725D00C48016E541253E121707800DE53E2541F8
:10726D00F582E433F583123286540FF53FE53F6422
:10727D000F6011C3740D9540253EFFAD3F127D95F6
:04728D00053E80B585
:0172910022DA
:108751007B017D03E4FF128CBD0D7F10128CBD9057
:1087610004CBE0FD7C007F011283A2900537E0FD80
:108771007C007F061283A23012157D197F0A127DBB
:10878100957D177F0B127D957D0D7F0C127D9522B6
:1092C30030150E7D0C7FFF129308C215E49008AF92
:0292D300F02287
:1090F90090080FE0FD7FFE128E007FFD12144E7F57
:0E910900FC128E007FFB12144E7FFA029308B8
:1085FD00E4FFFEE42F1211C71218440FBF00010E45
:10860D00E4B507EFEEB402EB90053812113C1216EB
:10861D006D1216C7FEED34FFFDEC34FFFC1211ABED
:10862D0012129A121851126E097F007EEC128AC531
:05863D0074EC1217FFB0
:018642002215
:0626570090054F12351E34
:10265D00E4900553F0A3F0A3F0A3F012114F9005F1
:10266D004F1211B790056012351E12153F791212D7
:10267D00116090054F1216077009121681900560B2
:10268D0012351EE490055FF012156D1213C712116D
:10269D003CD31234A9500302279690055712113CD2
:1026AD001211AC12129112732890092BE0B4FF1382
:1026BD00900557E07002A3E0700990055F7402F079
:1026CD00022796E4F53712165C12189F2430F58216
:1026DD0074093EF583E0FFE48F3BF53AF539F538A3
:1026ED00AE3AAD39AC381214C112189F2431F582AF
:1026FD0074091214391214C112189F2432F5827400
:10270D000912143978081234E31214451212587054
:10271D000990055F7403F002278290054F1234F67D
:10272D0012125F400E1216CF1211DD12155DFFEE63
:10273D001218D79005601234F612125F402F121640
:10274D00CF1211DD12155DFF900553EEF0A3EFF0E2
:10275D0090055712113C1211AC90055912113412FB
:10276D00336412144590055F7401F080081219232B
:10277D0060030226D390055FE0FF6401600BEF64F8
:10278D0003600612114502269890055FE0700374F0
:10279D0003F090055FE0FF64026005EF640370775E
:1027AD00E4F537E53775F020A4FFAEF0EE121665AF
:1027BD002405FFEE34EC8F82F58312350212144599
:1027CD00E538753B008E3A8D39F538121258604751
:1027DD0090054F1234F612125F400E1217DA1219CD
:1027ED002AFF740193CF1218D79005601234F61298
:1027FD00125F401E1217DAFE12192AFD7401939012
:10280D000553CDF0A3EDF0E48F3B8E3AF539F53855
:10281D008005121923708C900553E07002A3E060BF
:10282D00030228E0900555E07002A3E07026121512
:10283D006D121119D31234BF401790055712113C68
:10284D001214DB90054F1211B7128B9512114580A2
:10285D00E0022C58900556E02401FF900555E03418
:10286D0000FE900553F0A3EFF0D3900539E09F9053
:10287D000538E09E405D900553E0FEA3E0FF128D0C
:10288D004C90055FEFF064017049900553E0FEA395
:10289D00E0FF1216C7FEE434FFFDE434FFFCE41242
:1028AD00166D1211ABC004C005C006C007900554CB
:1028BD00E024FFFF900553121632C333CE33CED82A
:1028CD00F9FFE4FCFDD003D002D001D00012336437
:1028DD00121445C3900554E09402900553E0940002
:1028ED00502612156C121119D31234BF40179005D2
:1028FD005712113C1214DB90054F1211B7128B9524
:10290D0012114580E0022C589005381213FB9005EA
:10291D0054E09F900553E09E4005E4FF025CF0E417
:10292D0090055EF0A3E064016003022B4B90092734
:10293D001234F612897412156C1213C712113CD38E
:10294D001234A95003022A4990055712113C121452
:10295D00FDEF253BFFEE353AFEED3539FDEC353813
:10296D00FC121291127328E4F53712165C1216CF71
:10297D001211DD12155DAC06F47002ECF4703A9094
:10298D0004EEE02400FF9004EDE03414FEEF780532
:10299D00CEC313CE13D8F990055BF02537FFE43382
:1029AD00FED3EF9410EE6480948090055E40057424
:1029BD0001F080307402F0802B9005531213FBED63
:1029CD009FFFEC9ECF2401FDE43FFC9005591216AC
:1029DD0099AF05742C2BF58274093AF583EFF0123B
:1029ED001923708690055EE06401702490055CF0FB
:1029FD0012193190055CE0FDC39F5014AF3712855D
:102A0D0027121499C333CE33CED8F9122CA180E0FE
:102A1D0090055EE06402601890055712113C121487
:102A2D00FD9009271211B712129A121851126E0940
:102A3D0090055EE0700612114502294690055EE094
:102A4D0064016003022AE090055CF01219319005D3
:102A5D005BE0C39FFFA3E0C39F5035E4A3F0900557
:102A6D005DE0FDC39420502290055CE0FCC39537DA
:102A7D00FFE49400FEEF7805C333CE33CED8F924AE
:102A8D0000FFEE34EE12132680D4122C5F022A586A
:032A9D0012156CA3
:062AA0001211BD122CBC56
:102AA6001211451218A740F2122C83121931E49420
:102AB60000FE90055BE0C39FFFE49EFEEF7805C332
:102AC60033CE33CED8F91213B9500C1211D3FD12EE
:102AD600905E12114580D4022B3E90055EE06402A2
:102AE600705D90055CF090055BE0FFA3E0FDC39F81
:102AF6005014AF37128527121499C333CE33CED86C
:092B0600F9122CA180E0122C92BE
:062B0F001211BD122CBCE6
:102B15001211451218A740F2122C8390055B12146E
:102B25009CC333CE33CED8F91213B9500C1211D33E
:102B3500FD12905E12114580E27F007EE6128AC585
:102B4500121205022C0390055FE0FF64026008EF96
:102B550064036003022C09E490055CF090055312B0
:102B650013FB121675FE90055CE0C39FE49E503979
:102B7500E4A3F090055DE0FDC39420502690055434
:102B8500E024FFFFEF540FFF90055CE0FC2F1214CB
:102B95009FC333CE33CED8F92400FFEE34EC1213A5
:0C2BA5002680D0122C5F022B61122C92B3
:102BB1001211BD900564F0E42FFFEE34E6FE129091
:012BC1005EB5
:102BC2001211451218A740E77F007EEC128AC51247
:102BD200156C9005531213FB121675FEEF7805C3A0
:102BE20033CE33CED8F91213B9500C1211D3FD12D1
:102BF200905E12114580DB7F007EE6128AC5900846
:102C0200021234F61289749005531213FB121675D0
:102C1200CF2401CF3400F0A3EFF024FF121631C30A
:102C220033CE33CED8F92400FFEE34EC9004EDF02D
:102C3200A3EFF012156C121119D31234BF40179082
:102C4200055712113C1214DB90054F1211B7128B6B
:0C2C52009512114580E0900560121551AC
:102C5E002290055CE075F020A4242BF9740935F060
:102C6E00FA7B01900553E0FCA3E0FD1280EB90058A
:102C7E005CE004F0227F007EEC128AC5E4900557DA
:102C8E00F0A3F0227F007EE6128AC5E4900557F08D
:102C9E00A3F022242BF974093EFA7B01900553E030
:102CAE00FCA3E0FD1280EB90055CE004F0229005A1
:0D2CBE0064F0E42FFFEE34E6FE12905E227B
:07852700900565EFF0A905C6
:10852E00E4F53CE975F020A42400FFE5F034ECFE00
:10853E007C00EF253CFFEC3E12192AFDE9FF900569
:10854E0065E02F12149FC333CE33CED8F9FFE53C2E
:10855E007A002FFFEA3EFE121844053CE53CB4209B
:01856E00C24A
:01856F0022E9
:0680EB00900565123570DE
:1080F100753E00753F0075403C1217E912326D1252
:1081010019381232B31217E990000112328612198E
:10811100381217BCAF05C3E53D9DCFE53C9CCF248C
:1081210001F53DE43FF53C12326D1217E8EF1232D2
:10813100B31219389000011232861217E89000012B
:04814100EF0232C552
:1087D10090056F740AF07B017A057965900577E45D
:1087E100F0A3740AF0127328E4FF74652FF582E494
:1087F1003405F583E0F4600F90056FE004F0E0D3F9
:0E880100940D40037F01220FEFB40ADE7F00CA
:01880F002246
:0F9327007E007F0A7DFF7B017A08791402359F53
:0E933600EFC4540F75F00AA4FEEF540F2EFF83
:019344002206
:108D1D0012153FE4FCFD79121214DD1214CF40043C
:108D2D0012154E2212114FE51C2FFFE51B3EFEE5DD
:0F8D3D001A3DFDE5193C8F1C8E1B8D1AF519226E
:108D4C00AD07AC06900538E0FAA3E0FBD39411EA2A
:108D5C00940050037F0222EB24FEFFEA1214B2129D
:0F8D6C0017EFD3ED9FEC9E50037F01227F022271
:1089000090081212193F1232B390081112193F3316
:10891000333354F8FD90081012193F1313543F4D90
:108920001217BCEFC4333354C0FD90080FE0FF12A0
:0A8930009336ED4F9000020232C5AD
:1091510020250DE49004CEF0A3F09004EBF0D2258D
:0C916100C22FC21CE4900925F0A3F022EC
:108BC80030252E1215749004CEEEF0A3EFF07B2022
:108BD8007ABF7902780012157A9004EBEFF012153B
:108BE80074E47A0E12166EAF039004CEEAF0A3EF87
:028BF800F02269
:0F93450012145F1212FF9005861217C2026D58A4
:102CCB00900538E0FEA3E0FFD39401EE940050038F
:102CDB000230FDC3E5559401E554940050030230D6
:102CEB00FDD3EF9555EE955450030230FDE490055E
:102CFB0043F0A3F0A3F01215D79008B012351EE5E0
:102D0B00556401455470089008B01234F68010E5F4
:102D1B005524FFFFE55434FFFE126F681215D79050
:102D2B0008E512351EAF55AE54128D4CEF640260A0
:102D3B0003022F05900538E0FEA3E0FF540F640259
:102D4B006003022DF61216C7FED3EF9410EE94001B
:102D5B005003022DF112313F1214A71216C8121490
:102D6B00119E502D12113C1211AC1212911273289C
:102D7B0090054112113C1214FD9009271211B790C6
:102D8B00056C121294126E09900541121148022D16
:102D9B006390054112113C1211AC1212911273285F
:0A2DAB00900B0DE054DFF01230FE33
:062DB5009005411211C05F
:102DBB0012312D12114812173940EF12310D9005B7
:102DCB0041E0FCA3E0FD24001211D512316F12116A
:102DDB004812173940E8121205123161124B411299
:102DEB0016DA1217FD22E4FF025CF01218AFE5555C
:102DFB0024FFFFEF540FFF1214129400502BE4909A
:102E0B000546F012180750191211FBC333CE33CEFF
:102E1B00D8F91211E6C333CE33CED8F91212BD80D6
:102E2B00E290054112114880C51215C9FEEFB55548
:102E3B0032EEB5542EE55524FE121631C333CE3384
:102E4B00CED8F9FF242DF58274093EF583E054DFCB
:102E5B00FD742D2FF58274093EF583EDF0124B4175
:102E6B00022EBBE4900541F0E555540FA3F012146C
:102E7B00029E503CE4900546F0121807501C1211AC
:102E8B00FBC333CE33CED8F91211E6C333CE33CED8
:102E9B00D8F912185B1212C980DF1211FBC333CEA3
:102EAB0033CED8F9123150900541121148022E79C8
:092EBB001216DA1217861230FE1D
:062EC4009005411211C04F
:102ECA0012312D12114812173940EF12310D9005A7
:102EDA0039E024FE12194612149FC333CE33CED8DA
:102EEA00F99005411213BC500B1211D312316F1213
:102EFA00114880DA7F007EE6028AC512313F121439
:102F0A00A71217EF9005411213BD4003022FC6ED19
:102F1A002401FFE43CFEEFB5550DEEB554099005CA
:102F2A00457401F0022FBD900545E0FD900541E092
:102F3A00F8A3E0F5828883C39D121631C333CE33DA
:102F4A00CED8F9121950C003C002C001AF82AE83B5
:102F5A00E4FCFD7B20FA1211AF900577E4F0A3742C
:102F6A0020F0D001D002D003127328900545E0FF6B
:102F7A00B40117C3900542E09FFF90054112163233
:102F8A00C333CE33CED8F912311C900543121148FF
:102F9A00900544E0540F701B1216E41216C8FEE4A2
:102FAA00FC1214FC9009271211B790056C121294A6
:102FBA00126E09900541121148022F08900539E056
:102FCA00540F64027030900546F0900546E0FFC346
:102FDA009420500F12141DC333CE33CED8F91212D7
:102FEA00BD80E712142EC333CE33CED8F912311C6A
:102FFA001217FD023096E4900546F0900546E0FF70
:10300A00C39420500F12141DC333CE33CED8F912F5
:10301A0012BD80E712142EC333CE33CED8F912195B
:10302A00507D027C001280EB1216E4FFE41214FCBD
:10303A009009271211B790056C121294126E09901A
:10304A000541E4F0A304F01214029E503CE49005FA
:10305A0046F0121807501C1211FBC333CE33CED8D8
:10306A00F91211E6C333CE33CED8F912185B121215
:10307A00C980DF1211FBC333CE33CED8F9123150D7
:10308A009005411211480230511217861212051288
:05309A0031611218AFC6
:10309F009005411211C0900547F0E42FFFEE34E682
:0430AF00FE12905E1F
:1030B30090054112114812173940E17F007EEC124E
:1030C3008AC51218AF900539E024FD12194612146F
:1030D3009FC333CE33CED8F9FF9005411213BD50B1
:1030E3000F1211D3FD12905E90054112114880D545
:0A30F3007F007EE6128AC51216DA8D
:1030FD00227F007EE6128AC5E4900541F0A3F022FE
:10310D007F007EEC128AC5E4900541F0A3F02224E5
:10311D002BF974093EFA7B017D027C001280EB22B3
:10312D00900547F0E42FFFEE34E6FE12905E900519
:10313D0041229009271234F6128974E4900541F06A
:10314D00A3F022240BF974093EFA7B017D027C0069
:10315D001280EB221234F61289747F007EE6128AF9
:0A316D00C522FD12905E900541227C
:104B41009008E51234F69008B0121607406412126C
:104B51002D60069005481211481213B29008B01248
:104B6100139B1218109008B0121247600690054A64
:104B71001211481217411213F29DEE9C500B1211A3
:104B81005E124D1912114880EDE4FFFEFD1212A1D3
:104B9100700E90054812113C1214DB1215978C15FA
:104BA10090054812113C1214DBD31212A340750276
:104BB1004C171213B29008B012139B1218109008E0
:104BC100B0121247600690054A121148E490054C54
:104BD100F0A3F01213F29DEE9C500B12115E124DD8
:104BE1001912114880ED12122D600690054812111C
:104BF100481213B290091512139B12181012174183
:104C01001213F29DEE9C500E12115E128B959005BF
:104C11004C12114880EA90054812113C1214DB1223
:104C210015978C15E490054EF090054CF0A304F017
:104C31001216811212A24014E41215F8F51CF51B8C
:104C4100F51AF51990054E04F0024CB112114F12EC
:104C510014C690054C12113C12337F121554900565
:104C61004CE07004A3E0640A700312154EE51C24A5
:104C7100A0FFE51B3415FEE51A34FFFDE51934FFED
:104C81001212A1402B1217A4AB18AA17A916A81526
:104C9100D31234BF500890054E7401F08012900574
:104CA1004C12114890054CE07004A3E0640B708035
:104CB10090054EE06401702C1216811214CF40034E
:104CC1001215EF1217A47541011279BB121192123C
:104CD10016F61287D190054EEFF07005128D1D80EA
:104CE100031292E6C3E51C9518FFE51B9517FEE537
:104CF1001A9516FDE51995158F368E358D34F533D8
:104D0100E47F607EEAFDFCAB36AA35A934A833D333
:074D11001234BF4002C23161
:084D180022128B9590054C223C
:108BFA001213B212340AE4FD90090EE0FCEDC39C94
:108C0A00501C121505B50707EAB506037F012212A3
:108C1A001505D39FEA9E40037F00220D80DA7F006C
:018C2A002227
:0879BB008F408E3F8D3E8C3D94
:1079C3008F468E458D448C4375420190090EE0FF2E
:1079D300E542D39F5052AF46AE45AD44AC43128B04
:1079E300FAEF7005E54214FF22E541B4010B1218CA
:1079F300DF3402FDE43543801EE4FFFE7D02FCAB71
:107A030040AA3FA93EA83DC31234BF40141218DF59
:107A130034FEFDE54334FF8F468E458D44F54380A8
:0A7A2300037FFF22054280A37F00CD
:017A2D002236
:108444008F5E8E5D8D5C8C5BE55E2562FFE55D3540
:1084540061FEE55C3560FDE55B355F1213A1123406
:108464000AC004C005C006C0071213B2AF5EAE5DF9
:10847400AD5CAC5B12340A1214C6D007D006D0052A
:0E848400D004C31234BF70037F01227F002298
:087F79008F368E358D348C33F8
:107F8100E4F53DFBFA7902F812340A8E3B8F3CE5A9
:107F910036253AFFE5353539FEE5343538FDE5332B
:107FA10035371213A112340AE4FD90090EE0FCEDFD
:107FB100C39C501F121505FBD39FEA9E5015C3EBBE
:107FC100953CEA953B4009D3EB9FEA9E5002053D63
:057FD1000D80D7AF3D5B
:017FD6002288
:0C93710013292B2A212322191B1A111288
:103D850078107C057D017B017A0479D47E007F144F
:103D95001232479004CAE0F5517B017A057910E4A7
:103DA500F53DAD5122E0FEA3E0FF7C037DE8123234
:103DB500F97F647E00CFCDCFCECCCE1232F9AD07E0
:103DC5002235F0FA7B0178417C057D017E007F0D6F
:103DD5000232477C277D10E0FEA3E0FF0232F9FDA9
:103DE5007C0012935DE55075F00A8422E55375F069
:103DF5000A84229004CE7D3CE0FEA3E0FF7C000215
:103E050032F9E55A75F00DA422E4751401F513F5A0
:103E150012F51122900537F0900539E024FFF5558C
:103E2500900538E034FFF55422E5552401FFE435CB
:103E350054FE900538E0227D00900541E075F00DB7
:103E4500A42274102551F582E43405F583229003EC
:103E55000FE075F00A8422900542E02551FFE43316
:103E6500FE227B32FAF9F8AF14AE13AD12AC110293
:103E7500340AAE54AF557C277D100232F9D2389002
:103E8500089E74FFF022AFF09004C375F00AA42FCA
:103E9500F022900524E0FEA3E0FF7C00227F207B3A
:103EA500017A0479A302359FD3E5559401E554942D
:103EB50000221234F6900802123512C30234BF9064
:103EC50004EAE0FF9004ECE0FD2213135401F54CE5
:103ED5007D01FF220551E550FD7C007F0A2275F02A
:103EE5000AA4FF900541E02F22E014FF900541E070
:103EF500FEC39F2275370075380075394D227F073F
:103F0500FD7C0002935DE53A75F00A84ADF022C3AD
:103F1500900539E094E1900538E0942E22D3900580
:103F250039E09401900538E0940022854D4CE54C2C
:103F3500FD7C0022AF1CAE1BAD1AAC1922E4FB7D43
:103F4500047F1022F0E0900906F07F0822744725CF
:103F550051F8A64D229554FE900537E0C39FE49E87
:103F6500229FEE6480F8748098222552F55254F011
:103F7500131313541F22900524E0FCA3E0FD22E552
:103F85005A14900541F022E4900B3FF0900923F07C
:103F9500A322C313F5827583000232869004EAEFEB
:103FA500F09004ECEDF0229004D27401F022900917
:103FB50001E0547FF07F0322E0FEA3E0FFD322F56A
:103FC500500551FD7C007F0A220551E5512408FF6B
:103FD5007D1522E5512409FF7D1D7C00227B017D95
:103FE500037F12228F58E5586401227D641232F94D
:103FF5007E007F0A22E5556401455422E4F547F524
:1040050048F549F54A22AF038F39E539C3940F22A4
:10401500900530E4F0A3745AF0223EA801FC7D011E
:0F40250022900541E004F022900541741DF02225
:10195A0053D9BF75891174FF900923F0A3F0F54B91
:10196A00E49004E9F090081EF0C21AC20FC233C212
:10197A0037128A8FD2A975FEFFC21FE4900536F08E
:10198A0030A00E128FD775E24075E301127EBB803C
:10199A001D53D9BF12939475FD0343D9401291A1E7
:1019AA0075E24075E301758E42C2181290DBE4F5C8
:1019BA00C875912843E680D2AFD2A8C212754EFFED
:1019CA0075FEFF30A00520180280FE20A005301801
:1019DA000280FE900915123EB7600D90091D123E55
:1019EA00B7600530180280FE30183D900498E0B4C4
:1019FA000117E55964176011E4FF128F6AE4900435
:101A0A0098F0755917D220801F900498E0B40213F9
:101A1A00E559B4170E203B0B7D077FFF129308D2BE
:101A2A003B8000E4900498F0900801E0FFD3940012
:101A3A005008900921E094004036301833EFB40181
:101A4A00141235CB900B42E0602614F0E07021901E
:101A5A000801F0801B900921E0FFB40204E4F08041
:101A6A000FEFB403028004EFB40405E4900921F0F7
:101A7A00201803021B63E51DD39401400E2012199E
:101A8A00D212E55970131293B1800E30120BC212A2
:101A9A00E55970057F01128F6A12472B90053CEFBA
:101AAA00F064016008E064026003021B3FC23AE48A
:101ABA00FF7E02FDFC900919123EBD401B900919D8
:101ACA001234F6E42FFFEE34FEFEED34FFFDEC3463
:101ADA00FFFC90091912351E12683790053CE0B4D4
:101AEA0002031292E6E559B418077F01128888802A
:101AFA005AE5596414701A303102801B123F14409F
:101B0A000280141242B8900925E4F0A37496F0807A
:101B1A003AE559640160077F01128F6A802DC22A53
:101B2A00123D9E7F011271FBE55230E2031242B868
:101B3A00129151801690053CE0B4030F303A0CC262
:101B4A003A7F01128F6AD228123FAC1240349005B4
:101B5A003CEFF0BF010312628320A251200F4ED244
:101B6A0086301A34E559640A701E30111B128C8DA6
:101B7A00123E82755901C210C211127BE7E552303A
:101B8A00E2031242B8129151E559B4180675590187
:101B9A00127BE712808F801320180512729280033D
:101BAA00127DF412808F755901C210D20F30A21023
:101BBA00300F0D201A08301805E4FF128888C20F6A
:101BCA00201803300F4D1259BB8F4BE54B6401703F
:101BDA004230A03F301A0F20A20512808F8034E4D1
:101BEA00FF128888802D303418E4FF128F6A123F62
:101BFA00B3129318755901C234123D857F011271CF
:101C0A00FB30A20AD284D293127DF4755901C21014
:101C1A00127B7CE54BF4600312008E754BFF201893
:101C2A0003021FA9900923E07004A3E06446701C14
:101C3A00E559B4170F1277DA7F01128F6AC23BC2D5
:101C4A0039123FAC123F8C7447F0C286900923E0E8
:101C5A007004A3E064C870123010077F01128F6A03
:101C6A00C210123F8C74C9F0C28630391F90080E18
:101C7A00E0B40B18128F447B017A08791412794464
:101C8A00123D9E7F011271FBC239D209E557540FEA
:101C9A00FF900B3FE0FE6F702DEE602A12934574A1
:101CAA00FFFFFEFDFCAB10AA0FA90EA80DC312344C
:101CBA00BF6013E4FFFEFDFCA80DC31234BF60062B
:101CCA00203103128FB49008AFE06003129211E53D
:101CDA0059700D30350A1290F975E702C235D21BD8
:101CEA00900925E07004A3E06496700D900925F030
:101CFA00A37497F0302502D22F303214E4FF128FEA
:101D0A006A127B7C7F707E17128E07125FCEC232F8
:101D1A0030123030182D300A057F0A125DE8C20AE7
:101D2A002020033009057F0B125DE8C220C209306A
:101D3A0014057F0C125DE8C2143028057F0D125D70
:101D4A00E8C228900807123FBD941AEE940F500378
:101D5A00021E1BEF94BEEE940F4003021E1B202AA4
:101D6A000C300B09E4FB7D027F1F128CBD302D0F56
:101D7A00300B0C9004EAE0FF7D0F127D9580253030
:101D8A000D22300B1F123EC4E4FB128CBD9004EAF4
:101D9A00E0B41B109004ECE0B40209E4FB7D037F7D
:101DAA0010128CBD302665300B6290049AE0FEA3B7
:101DBA00E0FF7C277D10202E1C1232F9AD077F151B
:101DCA00127D957D1C7F16127D957D1C7F17127DD5
:101DDA00957D0F80301232F97E037FE8123DBA7F7B
:101DEA0015121FD3123DAA7F16121FD37C007D64E1
:101DFA00123DDC7F0A123DB87F17127D9590049A36
:101E0A007D0A123DFD7F18127D95C21EC20B021E6D
:101E1A00E0D3900808E094E2900807E0941D50038C
:101E2A00021EE0200B097B017D027F1F128CBD2060
:101E3A001E07200B04B22ED21E302D0B200B0812C7
:101E4A003EC4127D958025300D22200B1F123EC400
:101E5A007B01128CBD9004EAE0B41B109004ECE004
:101E6A00B402097B017D037F10128CBD200B673001
:101E7A0025629004CCE0FF64016004EFB4032A7B7E
:101E8A00207ABF79027800123E6C9004EBEFF0E4FE
:101E9A00123E67E47B107A0EF9F812340AAF039007
:101EAA0004CEEAF0A3EFF0802B9004CEE475F001A3
:101EBA0012334EC39004CFE094109004CEE0940EF7
:101ECA004012E4F0A3F09004EBE004F0E075F06453
:101EDA0084E5F0F0D20B302F47201C13E4FB7D037E
:101EEA00FF128CBD123F42128CBD1291E6D21C9099
:101EFA0004EBE0FD7C007F04128E2A7D1C7F061213
:101F0A007D95123DF87C007D3C1232F97F07128ED6
:101F1A002A7D1C7F09127D95123DF87F0A128E2AAE
:101F2A00301B077F021274D0C21B302B031260BA17
:101F3A003022051260BAC22230270C7F011274D0F7
:101F4A007F011274D0C227900923E07004A3E064D1
:101F5A00C6700A900923F0A374C7F0C219303E0A6A
:101F6A00303D0312560CC23DC23E301F329004D39C
:101F7A00E0FF7011D39008A8E094709008A7E0944D
:101F8A0002401C80167E007C037D0D1232E7D3903E
:101F9A0008A8E09F9008A7E09E4004C21FC2A120A3
:101FAA0037030219CA9008A7123FBD9471EE940331
:101FBA005011EF941EEE940050030219CA30180310
:091FCA000219CA127CBD0219CAF9
:071FD300127D9590049A2293
:10008E00201808AF4B129250027D269004CCE0B49B
:10009E000110E54BB41D0B7B01E41210FA7403F052
:1000AE00801A9004CCE0B40313E54B641D6005E5A3
:1000BE004BB42D08E4FB1210FA7401F0E559123519
:1000CE00790115000300010812020870030D9A044D
:1000DE000EB40505E40605E4070463080585090C5E
:1000EE005F0A0D0D0C0D4D0D07140E07610F08E282
:1000FE001008E21108E21208E2130B8F140BA4157C
:10010E000B601600000FB8E54BB405243031030226
:10011E000FB8123F144003020FB8C210E4FF12745E
:10012E00D01290DB9004D27402F0755914020CBBFD
:10013E00E54B642D701F123F225003020FB8C217F9
:10014E00C2101210B9700B123E197F0112643D12CB
:10015E00776002033EE54BB41716C21075590AC2FA
:10016E000EC223C21D1210966003020FB8020C8B32
:10017E00E54BB4200E121096700312926475590C52
:10018E00D21022E54BB4180E1210A670031292D59F
:10019E0075590DD21022E54BB41E0E1210A6700327
:1001AE00128CED755908D21022E54BB41F101210A7
:1001BE00C070057F011275E0755909D21022E54B0A
:1001CE00B4260E7559061210B97003128FF9D2109B
:1001DE0022E54BB4280E7559071210C07003128F0A
:1001EE00F9D21022E54BB416131211047008E55221
:1001FE00123ECF12819F75590ED21022E54B64101C
:10020E00703775590FF551C208D224C216C229FE95
:10021E00FD123EA27F041210D97F081210D97D174D
:10022E007F06127D957D1B7F07127D957D177F08BA
:10023E00127D95128492D21022E54BB42F12121019
:10024E009D7007FF1275E0754F01C2247559022289
:10025E00E54BB4301112109D7006129226754F01A7
:10026E00C22475590322E54BB42713C21712110B82
:10027E007006120046754F01C22475590522E54BD2
:10028E0064086012E54B6403600CE54B6402600683
:10029E00E54B640D703FD210E54BB408057559104F
:1002AE00801EE54BB403057559118014E54BB4025D
:1002BE0005755912800AE54BB40D05755913C21018
:1002CE00E559B4130B12110B6003020FB802092E7D
:1002DE00C20C02092EE54B642E6003020FB81211F8
:1002EE00047009E55213123ECF127663755904D28B
:1002FE001022E54B642D703C201A39123F22500318
:10030E00020FB8C217D23478D47C047D017B017AF7
:10031E000579107E007F141232479004CAE551F021
:10032E00126837C22F7F01127B10EF700312007616
:10033E0075591522E54B642C600CE54BB4050F90F6
:10034E0004A1E0B40208E55220E203026837E54B4F
:10035E00640A7040303312900900E04409F0301AFC
:10036E0018900903749DF08010900900E054F6F087
:10037E00301A06900903749CF07F021293187F05C1
:10038E00129318B233A233E433FB7D017F1A128C21
:10039E00BD02045EE54BB40E14301F0302045ED2A0
:1003AE001FD2A1E49008A7F0A3F002045EE54BB4BF
:1003BE0015269004D0E0FF700302045E241D75F034
:1003CE001E84E5F075F00DA42404F9740035F0FADE
:1003DE007B01128B2E02045E1210566062303403C3
:1003EE00020FB8AF4D127D269004D2E07003020FBB
:1003FE00B8E55230E2031242B8129151E551B414ED
:10040E0022E4FF74112FF582E43405F583E0FE74C7
:10041E00102F123E4BEEF00FBF13E8900523E54D63
:10042E00F08008123E47E54DF00551123D9EFF1239
:10043E0071FBE551C394025003020FB8D20A22E5B4
:10044E004BB405051242B88007E54BB41002D22119
:10045E007F01020B5DE54B641E7003020EBFE54B80
:10046E00B42C03020EBF300C0B120FCD6003020F23
:10047E00B8028CED120FB97003020560E5517030B1
:10048E00E54DC3940050030205E1E54DD3940240BF
:10049E00030205E1123DF1E54D123E8BF553055178
:1004AE001210E1123DF1E5F0FD7C007F08020529F6
:1004BE00E5516401702E123DF175F00AA4254DFF31
:1004CE009004C3F07418D39F5003020FB89004C366
:1004DE00E0F5530551E5531210E1123DEAFD7C00A3
:1004EE007F0A8037E55164027037E54DC3940050A2
:1004FE00030205E1E54DD3940540030205E1123DEB
:10050E00EAAFF0E54D9004A0123E90123FC4128E59
:10051E002A123DEAE5F0FD7C007F0B12935D020589
:10052E00E1E551640360030205E1123DEA75F00A4C
:10053E00A4254DFF9004A0F0743CD39F5003020FEE
:10054E00B89004A0E0F550123ED9128E2AC22D02A8
:10055E0005E1E54BB4251ED235E4F5E7AF50129216
:10056E008C90080FEFF0AF5312928C900810EFF0B2
:10057E007F01128F6A805CE54B641F6005E54BB40A
:10058E002C03020EBF300C0D120FCD6003020FB8FC
:10059E007F010275E0120FB96009E4FDAF4D1254F0
:1005AE00BF8030E54B6425702AD235F5E7AF501287
:1005BE00928C900811EFF0AF5312928C900812EFBC
:1005CE00F090030FE0FF12928C900813EFF07F0172
:1005DE00128F6A028B62E54BB42606E559640660FB
:1005EE001BE54BB42806E55964076010E54B642CF7
:1005FE00600AE54BB42508E556B40103020EBF3080
:10060E000C1FE559B406047F0180027F0212588B3D
:10061E008F58E55864016003020FB81210D0028F94
:10062E00F9120FD97003020FB8E556D394014003A7
:10063E00020FB8E5567003123F52E556B4010E7420
:10064E00C62551F582E43404F583E54DF0123FCE14
:10065E00127D95E551C39404500302070E128F4488
:10066E00E55670237556019004C6F0A3F0A3F0A3CF
:10067E00F07D167F05127D957D027F06127D951207
:10068E00001E7F010274D09004C6E0FF65477058CB
:10069E00A3E0FE65487051A3E0FD6549704AA3E0F2
:1006AE00FC654A7043E559B40610900532EFF0A38D
