:1086DA0010C4EA611A03530069006C006900630060
:1086EA006F006E0020004C006100620073001003EE
:1086FA0055005300420020004100500049000A037F
:0C870A0031003200330034000F80010009
:108DEB00420D82013B410D7502420D760000420D92
:0C8DFB00720000420D800000410D840059
:105EDA00F0E4A3F090049C1234CC900D4AEFF090B9
:105EEA00049C1234CC78081234A6900D4BEFF09033
:105EFA00049C1234CC78101234A6900D4CEFF0901A
:105F0A00049C0234CC7E007F1D7D007B017A0D79D2
:105F1A004722900D70E025E024B8F582E43408F5B4
:105F2A0083E0FEA3E0227D017B017A0579107E00E1
:105F3A0002321D900D78E4FBFA7902F81234CC0291
:105F4A0033E01234729005281234F4900528023492
:105F5A00E8E0AB29AA2AA92B90000102329BEFF0B4
:105F6A009005280234CC78181234A6900D4DEFF023
:105F7A0022E0FFE4FCFDFE22E090000212329B9038
:105F8A000003E402329BF0E4A3F0784A7C0D7D0121
:105F9A007B0122E0AB29AA2AA92B22900D47F0A364
:105FAA007404F0E4A322FEE07C002400FFEC3E220D
:107EAB001288EB9086DAE493FE740193FF9086DCE4
:107EBB00E493FC740193FD7BFF7A8679F89005447B
:107ECB001235467A87790890054712354690871206
:107EDB00E49390054AF0908713E49390054BF09050
:107EEB008714E493FB74019390054CCBF0A3EBF058
:0C7EFB007BFF7A8679DE125671029055EA
:03008600028CA247
:1035A100125F0F123575125F157D1D126D8D900D15
:1035B10047E012354F35F201361B0237070335DB81
:1035C1000438EF0538C106387B0739060839280960
:1035D10039670E39720F00003981900D477404F07C
:1035E100A3125F907A057932FE7F0412321D0238F0
:1035F100E8900D477401F0A304F0E4A3F0900538BE
:10360100E0FCA3E0FD14900D4AF0ED24FFEC34FF43
:10361100A3F0125F157D05023902900D4BE0900D6C
:103621004A125FB0900D76F0A3EFF0E02401FF9015
:103631000D76E03400FE126E3C752901752A0D7578
:103641002B6C125F9EE41232899004F8125F5B903A
:1036510004F9125F82752901752A0D752B78900482
:10366100F5125F9D1232899004F6125F5B9004F7A8
:10367100125F82E4900D74F0FFFEFDFC900D6C1260
:1036810034E8C31234956060900D6C1234CC8F3ADB
:103691008E398D388C37900D781234CC127E4D9046
:1036A1000D71EFF06042125F7BFBFA7902F8123381
:1036B10055AB07AA06A905A804900D6C1234CC12CB
:1036C1003347900D681234F47B017A0D79688B29A8
:1036D1008A2A892B90000112325C9004F8F0900044
:1036E1000212325C9004F9F0900D477402F0A37459
:1036F10020125F907A0479F0FE7F2012321D125F52
:10370100157D23023902752901752A0D752B7C90CF
:103711000D4D125F9D123289900D4C125F5B900D21
:103721004BE090000212329B900D4AE09000031290
:10373100329B900D74E0704004F0E4900D70F0A3A2
:10374100E06035125F1CF47002EEF4602B125F3DF5
:10375100A804A905AA06AB07125F1CFFE4FCFDD370
:103761001234954013900D70E004F090090EE0FFC3
:10377100900D70E0D39F40CB900D71E07003023843
:013781001037
:10378200E4F52EF52F900D70E0F532125F3D8E2C90
:103792008F2D900D7C125F40C3EF952DFFEE952C7F
:1037A200CF2401F531E43FF530C3E52F9531E52E05
:1037B20095305022E532125F20B52D08EEB52C046B
:1037C20005328008052FE52F7002052E052DE52D07
:1037D20070D7052C80D3900D7C1234E8C000C00154
:1037E200C002C003900D70E0FFC3E5329FFFE49476
:1037F20000FEE4FCFDFBFA7902F8123355D003D047
:0E38020002D001D00012333A900D7C1234F443
:10381000900D4FE0900D4E125FB0FE900D72F0A330
:10382000EFF0D39400EE94024009900D727402F010
:10383000A3E4F0900B447403F0900D72E0FCA3E05D
:10384000900B45F0ECA3F0900D7C1234CC900D72EF
:10385000E0FBA3E0900577CBF0A3EBF07B017A0BC4
:1038600079471271FC7B017A0B7944900D73E02447
:1038700003FD900D72E03400023924900D4D125F6B
:103880007B78181234B9125F4FC000900D4C125F54
:103890007B78101234B9D000125F4CC000900D4BF1
:1038A000125F7B78081234B9D000125F4C900D4A39
:1038B000125F7B1234729005281234F4D23DD23C50
:1038C000227406125FA5125F69900D4A125F687834
:1038D000081234A6900D4B125F6878101234A6902F
:1038E0000D4C125F68125F70125F157D0780139098
:1038F0000D477405F0A314125EDA125F70125F15A3
:103900007D077C00801F7408125FA5F0A3E557F0C7
:103910009004CCE0900D4BF0A3E54DF0E4A3F01241
:103920005F157D07FC0259F9203156900D48E0FFE4
:10393000D39414504C8F4FAF4F7E0078107C057D90
:10394000017B017A0D794A12321DC37414954FFF21
:10395000E49400FE7D0F7410254FF9E43405FA7BE2
:1039600001123575D23122301A17301814E4FF02D3
:103970008752D284D293127CC8755701C210127A32
:0139800050F6
:013981002223
:026896008F2948
:10689800125F0F123575E52924F4606014605D24D9
:1068A80002600302695420200620090302695490FB
:1068B8000D47740BF0E4A3F0A3F030092A900D48BB
:1068C8007414F0784A7C0DFF125F30854F2AE52A50
:1068D800C394145012744A252AF582E4340DF583C2
:1068E800740FF0052A80E7125F15900D48E0240325
:1068F800FDE433FC1259F9C220C2092220140330E6
:10690800284A900D47E529F0A37419125EDA125F40
:10691800709004D2E0900D4EF0784F7C0D7F1412E9
:106928005F30854F2AE52AC394145012744F252AE4
:10693800F582E4340DF583740FF0052A80E7125FC1
:0C694800157D1C7C001259F9C214C228F5
:016954002220
:03008B0002797582
:10797500C0E0C0F0C083C082C0D075D000C000C0D8
:1079850001C002C003C004C005C006C00712923082
:107995008F1CE51C30E20C9008017401F0900B423D
:1079A500E004F0E51C30E1069009217402F0E51CC5
:1079B50030E7069009217403F0E51C30E6069009CE
:1079C500217404F0D007D006D005D004D003D0022E
:0F79D500D001D000D0D0D082D083D0F0D0E0321B
:10916C0030352F32322F31330032313A33353A30F9
:02917C003700BA
:104A8300F517F516F515F514900B40E0FEA3E0FFBE
:104A93007C007D0A1232CFE4FCFDFBFA7902F802B6
:104AA3003355E4FB7A08F9F81234CC1233E0EF24DF
:104AB30001FFE43EFEE43DFDE43CFC22E52925E064
:104AC30024B8F582E43408F58322E4FCFDFE900863
:104AD300091234F4E4FFFE7D02FC9008091234E865
:104AE300023355900915E4FBFA7902F80234CC90AD
:104AF30009151234CCC3AB17AA16A915A81402348E
:104B030095FFEE34FFFEE434FFFDE434FFFCE422C2
:104B13001234F49008E1E09008E024FFFFE034FF52
:104B2300FE22FFE4FCFD1234E802333AE0FFA3E087
:104B3300900586CFF0A3EFF0229009151234E89088
:104B4300091D1234CC123347E4FBFA7902F812330D
:104B5300E090089CEFF022FEE43515FDE435148F58
:104B6300178E168D1522AF17AE16AD15AC14229302
:104B7300FE740193FFEE900538F0A3EFF022123498
:104B8300CCE4FB7A08F9F8023355E5172496FFE5E0
:104B9300163415FEE51534FFFDE51434FFFC228FB2
:104BA3001B8E1A8D198C182234EA8F82F583E493B5
:104BB300229004EEE024E2FF9004EDE034FF22AB08
:104BC30007AA061234CCC3EF9B221234CC900802FE
:104BD3000234F4E52925E024B6F582E43408F583AC
:104BE3002275F004A42400FFE5F034E8FE22AF2A86
:104BF3007E00AC2BAD2C0232BD1233E0900B40EEA5
:104C0300F0A3EFF0229004EDE0FEA3E0221234E8DB
:104C1300C30234959FFFE09E900586F0A3EFF02238
:104C2300FDEE34FF8D82F583E49322900530E4F0AA
:104C3300A3745AF0229004ED74ECF0A3E4F02290F4
:104C4300057002353DE0FEA3E029F9EA3EFA229021
:0B4C5300055702353D90056502353D18
:108F2B00A2AF924175FEFFC2AF8F828E83758F0108
:0F8F3B0075B7A575B7F1EDF0E4F58FA24192AFD0
:018F4A002204
:10898F00A2AF924075FEFFC2AF75FF8075EF028EEA
:10899F003A8F3B75B7A575B7F1438F0375FF807598
:1089AF00EF02853B82853A83E4F0538FFCA240921D
:0489BF00AF75FEFF93
:0189C3002291
:10194E0090EA2BE493F529E529B4FF189005387435
:10195E0001F0A3E4F09008A112350010000000E49D
:10196E00FF125C0DE4900590F090EA0093F529E5E6
:10197E0029F46006125125021B21124C2E900528C7
:10198E00123500FFFFFFFF90049C1235000000008F
:10199E000090049C1234CC128D4BE4900532F0A3CF
:1019AE00F0A3F0A3F090052CF0A3F0A3F0A3F09019
:1019BE0008A1123500000000009009151235000034
:1019CE0000000090091D12350000000000E4900890
:1019DE009CF0FE7F287DFF7B017A0879B812357561
:1019EE007F01125B0AE49004EFF0F529124ABFE082
:1019FE00FEA3E0FFBEFF0BBFFF0890090EE529F026
:101A0E0080070529E529B414E3752B07752CF8908A
:101A1E0008E07408F0A3E4F090090EE0F529E5293A
:101A2E00D39400403A124BD6E0FEA3E0FFC3952CB0
:101A3E00EE952B402AEF24F8F52CEE34FFF52B9083
:101A4E0008E0EEF0A3EFF0124BD674FFF0A3F09087
:101A5E0004EF7404F090090EE014F0152980BF9085
:101A6E0008E0E0FEA3E0FF7C007D0A1232CF8E2B51
:101A7E008F2CE4F52990090EE0FFE529C39F400362
:101A8E00021B1EE4F52A124BF1124ABFE0FAA3E044
:101A9E00FBB5070BEAB506079004EFE04402F0121F
:101AAE004BF1EF24FFFFEE34FFFEEBB50712EAB564
:101ABE00060EE52AD3940040079004EFE04402F0AE
:101ACE00052AE52AB40ABFE52925E024BAF582E401
:101ADE003408F583E0FEA3E024FFFFEE34FFFE1290
:101AEE004ABFE0FCA3E0B50722ECB5061EE52924AB
:101AFE0001FFE433FE90090EE0FDC3EF9D7480F804
:101B0E006E9850079004EFE04401F00529021A8305
:101B1E00128959E4F52BF52C752A0AE4252AFFE4DF
:101B2E00124BABF529F46004E5297046E52A6415DD
:101B3E007038F52B752C01124B16124A9A9008A18B
:101B4E00124B13EF24FD124B04124A9D90091D12E5
:101B5E004B13EF24FA124B04124A9D9009151234BE
:101B6E00F4124AE6124BFC124B3C052AE52A641687
:101B7E0070A9E52C6401452B7003125529C23C90C7
:101B8E00EC00E4124B72F47002EEF4705890E60022
:101B9E00124B72F47002EEF4604B900538E0700256
:101BAE00A3E060417F007EEC12898FE4F52BF52CCB
:101BBE00E4252CFFE52B34E68F82F583740193F533
:101BCE0029E4252CFFE52B34ECFEAD29128F2B05D5
:101BDE002CE52C7002052BC3E52B940240D27F001E
:101BEE007EE612898F7B017A09792B900577740234
:101BFE00F0A3E4F0FFFE7DF27C0F1271FC9005382D
:101C0E00E0FEA3E0FF64014E7003021CACEFF47023
:101C1E0002EEF47003021CAC900538A3EF24FE1202
:101C2E004B047B20FAF9F8123355900915124B2903
:101C3E00124BD0900538E0FFA3E0CF124B79121F64
:101C4E00B2855252855353900538E0FAA3E0FB2437
:101C5E00FFFFEA34FFFEEFB55306EEB55202803EAB
:101C6E00EB24FEFFEA124B067B20FAF9F8123355ED
:101C7E0090091D124B29124BD0121FB2900539E05C
:101C8E00900538124B1DEFB5530FEEB5520B900960
:101C9E001D124BCD900915800E75FEFF80FB90092D
:101CAE0015124BCD90091D1234CC9009271234F425
:101CBE00900538E4F0A304F0124C38F52B752C0186
:101CCE00124C08F5828E83E493F529F4600C90048F
:101CDE00EDE475F020123324800C900538E52BF0DE
:101CEE00A3E52CF0800E052CE52C7002052B64115B
:101CFE00452B70CC900538E07004A3E06401700FA2
:101D0E00E52C6401452B7007124A83124BA2221256
:101D1E004C08FF24E0124C23FD740193900538CD3E
:101D2E00F0A3EDF0900538E475F001123324EF24A2
:101D3E00E5FFEE34FFFE1285DB124B628C14E514C8
:101D4E007517008E168D15F5147B007A00790CE44C
:101D5E00123289124C08FF24E8124C239000011213
:101D6E00329BEF24E9FFEE34FF124BAD90000212CE
:101D7E00329B900003E412329BAF0FAE0EAD0DAC52
:101D8E000C7AFF79FF7800D31234954003021E536C
:101D9E00124B6990081F1234F4E4F529124AF250DE
:101DAE000A124B6912869B8F298003E4F529E529D7
:101DBE006003021E4390081F1234E8C3E5179BFF11
:101DCE00E5169AFEE51599FDE514988F0F8E0E8D8A
:101DDE000DF50CE4FF7E04FDFCAB0FAA0EA90DA8B9
:101DEE000CD3123495E4500AF50FF50EF50DF50CE3
:101DFE008019250FFFE50E34FCFEE50D34FFFDE5E1
:101E0E000C34FF8F0F8E0E8D0DF50C9004EEE0242A
:101E1E00E8124BBAFE7B007A00790D753F021289EB
:101E2E00C4124BB4FE124BADF5295329EFAD291256
:101E3E008F2B021ED2E42517FFE5163402124B5AE1
:101E4E00F514021DAA124BB4124BADF529E5172558
:101E5E000FFFE516350EFEE515350DFDE514350CB7
:101E6E00124B62F514E52920E40DE42517FFE51663
:101E7E003404124B5AF514E52920E548E517FFE521
:101E8E0016FEE5155401FDE4FCFBFAF9F8C3123415
:101E9E00956031E47902F8124B69124AAEE4124AA7
:101EAE009D124B628C14124B8D12869BEF70157B1C
:101EBE00FF7A8879E0124B8D90056CE4F0A37405DF
:101ECE00F0126CDDE4F529F52B752C01124AF24067
:101EDE0014E4F517F516F515F514F51BF51AF519A5
:101EEE00F518021F43124A8BA804A905AA06AB07D0
:101EFE00AE2BAF2CE4FCFD123355124BA2E52C6435
:101F0E000A452B70099009151234CC124BA2E51B11
:101F1E0024A0FFE51A3415FEE51934FFFDE518344B
:101F2E00FFFC124AF84021AF1BAE1AAD19AC18D304
:101F3E00124AF95005752901800E052CE52C700208
:101F4E00052B640B452B7084E529640170559009AF
:101F5E00151234CCAB1BAA1AA919A818C3123495A2
:101F6E004011E4F51BF51AF519F518F517F516F5E8
:101F7E0015F514AF1BAE1AAD19AC18753F011278DA
:101F8E008F124ACDEF251BFFEE351AFEED3519FDEA
:101F9E00EC3518FC12869B8F29E5297003028C19EB
:031FAE001291B3DA
:101FB100227B007A0079529008021234CC90057786
:0A1FC100E4F0A37402F01271FC2298
:088D4B008F398E388D378C360C
:108D5300E539547FFFE4AD07ED7006FF7EE8128925
:108D63008FED124BE47B007A007936753F0402895C
:018D7300C43B
:107DEF00E4F531F530F52FF52EF535F534F533F59E
:107DFF0032F52DE52D124BE41285DB8F358E348D48
:107E0F00338C3274FFFFFEFDFCAB35AA34A933A8C7
:107E1F0032C31234957009E52D701AFFFEFDFC2256
:107E2F0085353185343085332F85322E052DE52D5F
:0D7E3F00C3948040BEAF31AE30AD2FAC2EED
:017E4C002213
:107728007D117F03127C697D1F7F04127C697D0CAB
:107738007F05127C697D177F06127C697D117F07A2
:10774800127C697D217F08127C697D0C7F09127C7F
:10775800697D137F0A127C697D137F0B127C691285
:107768008314E4F529F52AAE29AF2A124A9A128A17
:107778005F052AE52A70020529C3E529940840E730
:107788007F007EEC12898F7EE812898F7EEA12894B
:087798008F7EE612898F80FE4E
:025C0D008F32D4
:105C0F00900538E07004A3E064017003025D04E5C1
:105C1F00326401702A7D107F03127C697D117F042D
:105C2F00127C697D137F05127C697D117F06127CC2
:105C3F00697D187F07127C697D117F08127C69E4EA
:105C4F00F533F5349008A1124AE91233E0A804A9FC
:105C5F0005AA06AB07AE33AF34E4FCFDD31234957F
:105C6F004052AE33AF34124A9A12869BEF603AAE6F
:105C7F0033AF34124A9A128A5FE5326401702AC335
:105C8F00E534947FE49400500575351D8003753518
:105C9F000FAD357F09127C69AD357F0A127C69AD76
:105CAF00357F0B127C691283140534E534700205BD
:105CBF0033025C537F007EEC12898FE532B40121F1
:105CCF00E4900537F09004CDF09004E8F09004D004
:105CDF00F09004C4F09004D1F09004C5F09004CB80
:105CEF00F0900538E4F0A304F0E4124A83124BA2BB
:055CFF00124C38C23018
:015D0400227C
:10871600124B699008A91234F49008A11234CC12B5
:108726004B628C147B007A007929900586E4F0A3CD
:1087360004F0126C2CE529F46006124B69128A5F6C
:0B8746009008A91234CC124B628C1476
:018751002205
:105529007F007EEA12898F7B017A057932753F0403
:105539001289C47B017A05792C753F047F047EEAC0
:105549001289C4AD557F087EEA128F2BAD500F1218
:105559008F2B7B017A097915753F040F1289C47B5A
:10556900017A09791D753F047F0E7EEA1289C47B91
:10557900017A0879A1753F047F127EEA1289C47BFA
:10558900017A057928753F047F167EEA1289C4904D
:10559900090FE0FD7F207EEA128F2B900913E0FDB1
:1055A9007F24128F2B9009141256479008FD12562A
:1055B900479008E212564E90080612564E9004A2E1
:1055C9001256639004D312566390059012566A904E
:1055D900053012566A900530A3E0FD0F128F2B900B
:1055E90004EFE0FD7F2F128F2BE4F9E975F002A497
:1055F9002430FBE5F034EAFAE9124AC1E0FDAF03D1
:10560900AE02128F2BE975F002A42431FFE5F034C4
:10561900EAFEE9124AC1A3E0FD128F2B09E9B4148D
:10562900CAE4F9E924E090916C125655B408F4E4FF
:0D563900F9E924F0909175125655B408F46B
:1056460022E0FD0F128F2B22E0FD0F128F2B22FF7F
:10565600E434EBFEE993FD128F2B09E922E0FD0FFE
:0B566600128F2B22E0FD0F128F2B2271
:1051250075FEFF90EA00E493900532F090EA01E401
:1051350093900533F090EA02E493900534F090EAF9
:1051450003E493900535F090EA04E49390052CF080
:1051550090EA05E49390052DF090EA06E493900516
:105165002EF090EA07E49390052FF090EA08E49377
:10517500F555A3E493F5507F0A7EEA1285DB900985
:10518500151234F47F0E7EEA1285DB90091D123468
:10519500F47F127EEA1285DB9008A11234F47F16A3
:1051A5007EEA1285DB9005281234F4124B3C90EA16
:1051B50020E49390090FF090EA24E493900913F00A
:1051C50090EA25E493900914F090EA26E493900878
:1051D500FDF090EA27E4939008E2F090EA28E49342
:1051E500900806F090EA29E4939004A2F090EA2A48
:1051F500E4939004D3F090EA2CE493FE740193FFBA
:10520500900530EEF0A3EFF0D3945AEE94004003EE
:10521500124C2E90EA2FE4939004EFF0E4FDED7527
:10522500F002A42430FFE5F0124BABFE740193FFAE
:10523500ED124AC1EEF0A3EFF00DEDB414E0E4FD7C
:10524500ED124AC1E0FEA3E0FFBEFF0ABFFF0790D3
:10525500090EEDF080050DEDB414E5E4FBFA7902D5
:10526500F89008A11234CC1233E0EF2401FFE43E9C
:105275009008E0F0A3EFF0124AE6124BFC127DEF26
:0652850090049C0234F4C9
:0C71FC009005701235469005731234F4B3
:10720800900573124AA59005791234F49005791205
:107218004B819005791234F4900577E0FEA3E09055
:107228000573124B25900579124C10504790057341
:107238001234CC900579124BC2FFEE9A90057DF07E
:10724800A3EFF0124C4290057D124B2F900573125C
:1072580034CC126C2C124C4290057D124C4890058F
:107268007DA3E0FFC3900578E0900577124C179056
:107278000579800C124C42900577124B2F900573BC
:067288001234CC126C2C44
:01728E0022DD
:0C69550090055712354690055A1234F494
:1069610090055A124AA59005601234F49005601200
:106971004B819005601234F490055EE0FEA3E09037
:10698100055A124B25900560124C1090055A50582B
:106991001234CC900560124BC2FFEE9A900564F060
:1069A100A3EFF0124C52900564124B2F90055A122E
:1069B10034CC126C2C900560126A06124ACD9005F7
:1069C10060124B29C006C007124C52900564124C4C
:1069D10048900564A3E0FFC390055FE090055E1257
:1069E1004C17D007D0068019126A06124ACD9005BD
:1069F1005A124B29C007124C5290055E124B2FD0F0
:046A010007126C2CE0
:0B6A0500221234CC753F0112788F2262
:0C6CDD009005651235469005681234F4ED
:106CE900E4FB7A08F9F8900568124AAB90056E1230
:106CF90034F490056E124B8190056E1234F49005B0
:106D09006CE0FEA3E0FFE4FCFD900568124B2990BE
:106D1900056E124C1050519005681234CCAB07AA7D
:106D29000690056E124BC6F537EE9AF53690056852
:106D39001234CC124C58900579E536F0A3E537F0BA
:106D4900126EE8124C58E92537F9EA3536FA9005FA
:106D59006CE0FEA3E0C39537FFEE9536900579F018
:106D6900A3EFF090056E8015124C5890056CE0FF6A
:106D7900A3E0900579CFF0A3EFF09005681234CC29
:036D8900126EE89F
:016D8C0022E4
:1088B2008780848881858982868A838B5F503D790F
:1088C200726B6F517F7B0C48776E0F007C2F270EE7
:1088D200576C376B2E5E4C7A20087F0764000307C3
:0988E2000F080C0E0F0103070F33
:10110D0090054F1234E89005601234CC123347E449
:10111D00FBFA7902F81233E0900557A804A905AA45
:10112D0006AB07E0FEA3E0FFE4FCFD22900557E4CB
:10113D0075F001023324900B40E0FEA3E0FF7C002C
:10114D007D0A1232CF7902E4FCFDFBFAF802335529
:10115D00D283C28325E0FFA282E4334FD283C283C0
:10116D0025E0FFA282E4334FD283C28325E0FFA2A4
:10117D0082E4334FD283C28322E4FCFDFE90080942
:10118D001234F4E4FFFE7D02FC9008091234E802EB
:10119D003355E4FB7A02F9F81233559008021234F4
:1011AD00E802333A900557E0FEA3E0FF2400FDEE80
:1011BD0034EC8D82F583E493FD22E42DFFEC34ECC9
:1011CD00FE742B2DF58274093CF583E0222400FF7B
:1011DD00EE34ECFE7C00EF2DFFEC3E8F82F583E4C8
:1011ED0093FB900541E0FEA3E078052290080212E2
:1011FD0034CC90081F1234F49009271234CC900887
:10120D00021234F490081F1234CC9009271234F4D2
:10121D0090092722E4FBFA7902F89008E51234CC04
:10122D001233E0900548EEF0A3EFF09008E512348C
:10123D00CCED5401FDE4FCFBFAF9F8C302349574CE
:10124D00FF7F00FEFDFCAB31AA30A92FA82EC302F3
:10125D003495E5132402FFE43512FEE43511FDE467
:10126D003510FCE47B14FAF9F8123355AB0FAA0EC6
:10127D00A90DA80CC30234959005777402F0A3E470
:10128D00F07B017A09792B22FCC3AB17AA16A9159D
:10129D00A8140234952DFFEE3CFE742B2FF58274AD
:1012AD00093EF583EBF0900546E004F0229004EE44
:1012BD00E0240AFF9004EDE03400FE22C283A20375
:1012CD009282D283C283A2029282D283C283A2016E
:1012DD009282D283C28322FFE50A34FFFEE50934F0
:1012ED00FFFDE50834FF8F0B8E0A8D09F50822FCF2
:1012FD00C3AB0BAA0AA909A8080234951234CCEF86
:10130D002401FFE43EFEE43DFDE43CFC22FEED7ACB
:10131D00002FFFEA3E8F82F583E493FF75F020ECFA
:10132D00A42DF582E435F0F583E582242BF582E5D5
:10133D00833409F583EFF090055DE004F022FE742F
:10134D00A32FF582E43404F58322F0900912E025F1
:10135D00E025E0FF9008E4E0C454F04F900904F05C
:10136D00900913E075F008A490090CF0900914E0B1
:10137D0075F008A490090DF022900919E47B14FA78
:10138D00F9F81234CC0233E0FCEF24FFFFEE34FF0A
:10139D00FEED34FFFDEC34FFFCE4FBFA7902F8229C
:1013AD00900557FFE0FCA3E0FDC39FEC9E22900843
:1013BD009CE0FFE4FCFDFEFB7A10F9F8123355E4D6
:1013CD007B10FAF9F8128597EF2401FBE43EFAE45D
:1013DD003DF9E43CF89005572290054AE0FCA3E066
:1013ED00FDA3E0FEA3E0FFC322900539E024FEFF3C
:1013FD00EF540F2401FFE433FEC3900542E09F90AC
:10140D000541E022EFFD7C002400FFEC34EC8F82DF
:10141D00F583E493FB7E00900544E0540F7805229C
:10142D003EF583E0FFE4FCFDFE1234728F318E3009
:10143D008D2F8C2E22A3E0FD1291D57F0A7E0012F6
:10144D008CD4A3E0FD229008A11234CCEF24D0FF60
:10145D00EE34FBFEED3401FDE43C222517FFE516CD
:10146D003402FEE43515FDE43514FC90081F1234EA
:10147D00E8123347AB2CAA2BA92AA829C30234950D
:10148D0090055CE0252DFFE433FEEF7805229005F5
:10149D0039E024FEFF900538E034FFC4F854F0C85D
:1014AD0068FEEFC4540F482278081234B9A804A975
:1014BD0005AA06AB0722C3AB1BAA1AA919A81802C5
:1014CD0034957902FBFAF802335590081F1234CC8B
:1014DD008F0B8E0A8D098C08E4751301F512F51129
:1014ED00F51022FDFB7A02F9F8023355ED25E024C3
:1014FD00B8F582E43408F583E0FAA3E022E4FEFDBA
:10150D00FCAB13AA12A911A810C3023495C2837F94
:10151D00047E00028F96900807E0FFA3E090089FDD
:10152D00CFF0A3EFF022900B40E0FEA3E0FF7C0094
:10153D007D0A0232CF9009151234CC8F1B8E1A8D75
:10154D00198C1822FE742C2DF58274093CF583E05C
:10155D00FDED22E4900557F0A3F022E47B32FAF979
:10156D00F8AF13AE12AD11AC100233E07B017A056A
:10157D00793DAF0BAE0AAD09AC08221234CC8F17F2
:10158D008E168D1522FFE53AFDC374049DFDE4947E
:10159D0000FC740E2DF58274083CF583E0228F1348
:1015AD008E128D11F51022AF17AE16AD15AC14229B
:1015BD00900539E024FFFF900538E034FF221289B1
:1015CD0023E50B250FFFE50A350EFEE509350DFD6B
:1015DD00E508350CFC22E4F51BF51AF519F518F59F
:1015ED0017F516F515F51422FEFDFC9008091234B9
:1015FD00E8C3023495FFE4350AFEE43509FDE43510
:10160D00082290081F1234CCEF250FFFEE350EFE89
:10161D00ED350DFDEC350C22FF7E00EF540F7805F6
:10162D002225E0FF24A2F582E43404F58322E53877
:10163D002496FFE5373415FEE53634FFFDE53534E8
:10164D00FFFC22E52D75F020A4FFE5F0900559F083
:10165D00A3EFF022FA7B10F9F80233E0900539E0A0
:10166D009FFF900538E09E229009150234CC90081A
:10167D001F1234CCAB0BAA0AA909A808D3023495C2
:10168D00FFE0FAA3E0FB242BF58274093AF583EF12
:10169D00F022E4FCFDFE9008090234F435F0A801B7
:1016AD00FC7D017B017A0879147E007F0A22EF24EC
:1016BD00FFFFEE34FF22900559E0FCA3E0FD242B43
:1016CD002290053874FFF5F0023324900543E0C4F1
:1016DD00F854F0C868FEA3E0C4540F4822EF251B50
:1016ED00FFEE351AFEED3519FDEC3518FC22C3134E
:1016FD00F58275830002325C900807E0FFA3E0904D
:10170D0008A5CFF0A3EFF02274102538F582E4344C
:10171D0005F5832274112538F582E43405F583220D
:10172D00C3900541E0940222900548E0FFA3E090AC
:10173D00054CCFF0A3EFF022C43354E0FF90080026
:10174D00E04F900905F022E55054F0FF13131354A8
:10175D001F900908F022D23790089E74FFF022E006
:10176D0090000212329B900003E402329B74FF75CD
:10177D00F0E09004ED02332474089008FFF0900916
:10178D000122758A10758CAAD28C22AF1BAE1AADB0
:10179D0019AC1822E0FEA3E0FF900807E0FCA3E0DF
:1017AD00FD22E090000102329BFC7B007A00790C57
:1017BD00E4F0A37404F022F0A3F0E5399088E093EF
:1017CD002290055AE02400FF900559E034EC22FFE9
:1017DD0090056502353DC4F8540FC868FFEEC4543A
:1017ED00F048FE2274EE9004EDF0A3E4F022900593
:1017FD0046E0FDC394202290054AEEF0A3EFF022BF
:10180D0075D4FF75D5C075D6FF75DFC022FFE435E1
:10181D0012FEE43511FDE43510229004A1E06402BE
:10182D0022E53904FF127C69053922742B2FF582CC
:10183D0074093EF583EDF02290056C7402F0A3E47B
:10184D00F0222DFFEE3CFE740B2FF5827409221B46
:10185D00C3EB64809480221AC3EA648094802212C0
:10186D0033558F2C8E2B8D2A8C29229004A1F0FDBF
:10187D007FFF1291D5E42275F00DA4FFAEF0227E0C
:10188D00007F0D02321D900559E0FEA3E022C390AA
:10189D000557E0940222E4900541F0A3F022C282A4
:1018AD00128F96D282028F96E0FFC3740A9FFFE4D7
:1018BD0094002213135401F54AE4FDAF4A2290051A
:1018CD0055F0A3EFF022E42544FFE43543FEE54255
:1018DD00229008FFF07F0122C28DC28CE490081E79
:1018ED00F0227E007D007B0102357590090A744758
:1018FD00F022AC00AD01AE02AF03E422E47B14FA9A
:10190D00F9F8223EA801FC7D0122052DE52D64107C
:10191D00228F82F583E49322C37410952DFF22ABA1
:10192D0034AA35A93622E0FF129203EF22FF90056B
:10193D0038EF540F240122242BF974093EFA7B0150
:01194D002277
:0A92610043868375A904E4F5B222E8
:07926B0043B20343A90222F4
:10906E00E4F5C775B03F75A0F5F59075808E75A4C3
:08907E001075A50812180D225F
:108EA40075C7FF75B03F75A0FD7590F07580EF75BF
:108EB400A45075A5EC75A60275A7C275AEFF12186D
:028EC4000D227D
:03000B0002731B62
:10731B00C0E0C0F0C083C082C0D075D000C000C038
:10732B0001C002C003C004C005C006C007C28DC2A5
:10733B008C30184A900B3FE004F090090AE0644748
:10734B0060047D4780027D437F0C1267D47D027FF2
:10735B000A1267D47F5E7E01128CD490090AE4F086
:10736B007F0C1291E5900908E4F07F0A1291E590E9
:10737B00081EE4F01218DE1291E5C23AC292D00751
:10738B00D006D005D004D003D002D001D000D0D08D
:09739B00D082D083D0F0D0E032A2
:03001B00027F075A
:107F0700C0E0C0F0C083C082C0D075D000C000C040
:107F170006C007C28F90092312113C900925121140
:107F27003C758BAF758D3C900923E0FEA3E0FF64A1
:107F37000A4E7002D23DEF64D24E700AC2AB90096E
:107F47002374FFF0A3F0303502D222D007D006D039
:0C7F570000D0D0D082D083D0F0D0E03237
:030073000283F213
:1083F200C0E0C0F0C083C082C0D075D000C000E52C
:108402009130E6225391BF90080712113C9008A7C1
:1084120012113CD3900808E09484900807E0941E5F
:108422004004E4F0A3F0303502D222D000D0D0D004
:0884320082D083D0F0D0E032CB
:0C8F8A001392827F047E00128F96D28327
:108F9600E4FDFCC3ED9FEC9E50070DBD00010C8067
:018FA600F2D8
:018FA70022A7
:078CCD001291D57F0A7E0021
:108CD400E4FDFC75FEFFE4FBFAC3EB9FEA9E50073C
:108CE4000BBB00010A80F20DBD00010CBC01E4BD08
:028CF4002CE171
:018CF600225B
:026F9200A9074D
:106F940075FEFFA2AF9240C2AF2018427B03C283AA
:106FA400E9A803088002C313D8FC139282D2831287
:106FB400185C50EAC283D282D283C283D283C28253
:106FC400D282C283A282E43312115D25E0FFA28241
:106FD400E4334F12115DD283A24092AFFF2243A447
:106FE4000C7B0312151AE9A803088002C313D8FC0A
:106FF400128F8A12185C50EB12151AD282128F91DA
:10700400C283128F911218AB53A4FB7B0712151A7B
:10701400EA25E0FFA282E4334FFA7F04128F911233
:10702400185C50E912151AD28353A4F3A24092AF0C
:03703400AF022286
:0F91E50074FE2FF582E43408F583E0FD0267D4B1
:0267D400AB0711
:1067D60075FEFFA2AF9241C2AF8D20C28320183F43
:1067E600C283A2071212DDA2061212DDA205121240
:1067F600DDA2049282D2831212C9A2009282D283AF
:106806008B201212C9A2001212DDC282D283C28369
:10681600D282D283C282D282C283D2830268914359
:10682600A40CE520C4540FF97A03C283E9A8020830
:106836008002C313D8FC128F8A12186450EC7A03B4
:10684600C283E520A802088002C313D8FC128F8AEF
:1068560012186450EB7A03C283EBA802088002C3C5
:1068660013D8FC128F8A12186450EC12151AC282C1
:10687600128F91C283128F96D282128F911218AB09
:0F688600C283128F9175FEFF53A4F3A24192AF0C
:0168950022E0
:107F63009008FE74BFF02032089009007409F08075
:107F730005E4900900F01217857430F0900823E0AF
:107F8300FFC394045006EF04F5298003752907E520
:107F93002925E0FF9004A2E04F900903F0E52912A0
:107FA3001745900806E090090612135712917EC2F6
:0B7FB300931218E5129086C284C21AD7
:017FBE0022A0
:107A5000D2937F017E00128CD41290861218E5D248
:107A600084D21A9008FE30110574EFF0800374FF81
:107A7000F020320E9009007409F0900903749DF013
:107A8000800BE4900900F0900903749CF0740E12CE
:107A900017877438F0900823E01217459008E2E049
:107AA000900906F09008FDE0900908F090090FE0B9
:0B7AB000444090090712135702917E1A
:10917E00E4F536AF361291E50536E536C394104068
:01918E00F2EE
:01918F0022BD
:108FA8007F107A0879FE1218EF9008FE7489F09005
:0E8FB80009097480F090090B7418F002917E84
:108FE4009008FE7489F0E4FF1291E5E41218DE1291
:0D8FF40091E5900903744CF07F050291E5B2
:107BFA008F2B203661E52BD3940B505AD236E49062
:107C0A0008A7F0A3F0900903E0440E54FEF07F05A4
:107C1A001291E5201A0890090074A0F080199009C1
:107C2A00007460F09008FDE0D3940A400A900908B5
:107C3A00740AF0FF1291E57F021291E5900901742E
:107C4A0001F07F031291E5E52B9088B29390090A1F
:077C5A00F07F0C1291E522FE
:1071660030A002D29330A0067FD07E0780047F0134
:107176007E00128CD47D617F0B1267D430A0067F0F
:10718600E87E0380047F017E00128CD47D417F0B54
:107196001267D430A0077FB87E0B128CD47F021200
:1071A6006F92EFC3941450089008237407F0801967
:1071B600EFD3943B4003E4800C74EC2F75F0058408
:1071C600FFC374079F900823F0C293900823E0D36F
:1071D60094029008004010740BF09008E47405F0D7
:1071E6009009127403F0227411F09008E47402F00E
:0571F60090091214F0E5
:0171FB002271
:0273A4008F2A2E
:1073A6009008FFE0900542F09008FF7482F0A3E099
:1073B600900543F09009003011057460F080037465
:1073C60040F0E52A90090A70057422F08003742EB5
:1073D600F012175412917E7F2C7E01128CD49008E5
:1073E600FF7406F07F011291E5E52AB401067FF4E9
:1073F6007E0180047FD07E07128CD4E490090AF0C7
:107406007F0C1291E5E4900908F07F0A1291E5904D
:107416000542E01218DE1291E5900543E09009005E
:06742600F07F020291E577
:03000300024E1892
:104E1800C0E0C0F0C083C082C0D075D000C000C060
:0D4E280001C002C003C004C005C006C007E1
:104E3500E4FF126F9290053AEFF0301820C3900905
:104E450024E09403900923E094005003024F8ED28E
:104E550086129086900923E4F0A37403F020A20340
:104E6500024F8E309303024F8E90053AE0C3948033
:104E75005003024F8E90081EE070359008FF748233
:104E8500F07F011291E59009007440F07F021291C4
:104E9500E590090874C3F07F0A1291E530180312F2
:104EA500178F90081E7401F090053BE4F0024F8EB9
:104EB50090081EE06401704F90090874CFF09008C7
:104EC500FF7406F0208716D284308704E4F0800949
:104ED50030180690090874D1F0C28480093018068C
:104EE50090090874D9F07F0A1291E57F011291E5C6
:104EF5001218F87F0C1291E530180312178F9008DD
:104F05001E7402F0024F8E90053BE0FF700A1218E6
:104F1500F875FEFFD292805FEFB402071218F8C24F
:104F2500928054EFB4040A90090A7443F0D2928037
:104F350046EFB4062090090A7443F0C2929004D259
:104F4500E4F0301832E5576417602C90049874012A
:104F5500F0C210802230181FEFB4071B90092230D1
:104F65003A04E4F08003E004F0900498E07008E56A
:104F750057B417037402F012178F90053BE004F045
:094F8500E05407F07F0C1291E5E5
:104F8E00D007D006D005D004D003D002D001D00077
:0B4F9E00D0D0D082D083D0F0D0E03221
:10909D0075B48B75B5FF75D21075E50D75AC43754F
:0690AD00E70275F7022244
:03008300024C5ECE
:104C5E00C0E0C0F0C083C082C0D075D000C000C01C
:104C6E0001C002C003C004C005C006C007E5D2548F
:104C7E00C0600312909DE5D220E003024DF053D2A6
:104C8E00FE9008E3E5D3F0203703024D19E0FFB4A0
:104C9E00552290089EE0645460067454F0024DF064
:104CAE0090089EEFF0E513240112181A1215ABC2EC
:104CBE0037024DF09008E3E0FFB4662490089EE0C2
:104CCE00646560067465F0024DF090089EEFF090FA
:104CDE0008B41213099008B41234F4C237024DF01E
:104CEE009008E3E0FFB4771D90089EE064766006BE
:104CFE007476F0024DF090089EEFF0C23790089D4A
:104D0E00E4F0024DF0121765024DF090089EE0643B
:104D1E0066704C1218277045203B429008E3E090D5
:104D2E00091012168D9009191213099009191234CF
:104D3E00F4C3EB94FFEA9401400D1213861218FF90
:104D4E001212447002D23B90091012113C121386BB
:104D5E001218FF1212446003024DF080238021903E
:104D6E00089EE06477707B90089DE0FF70199008B4
:104D7E00E3E0FE7480D39E500E9008AFEEF0C215A5
:104D8E00121765D237805BEF700520380280152030
:104D9E00342690089DE0D3940B4009740BF0A37455
:104DAE00FFF0D2379008E3E0FF90089DE0240EF567
:104DBE0082E43408F583EFF090089DE004F090084B
:104DCE000EE0FF2401FDE433FC90089DE0B50512D2
:104DDE00E4B5040EA374FFF0D237EFB40B02D23851
:104DEE00D22AE5D230E10353D2FD303502D222D0A1
:104DFE0007D006D005D004D003D002D001D000D009
:0A4E0E00D0D082D083D0F0D0E03283
:1091D5008FD38DD3BD0B02D2157FF47E01028F96FE
:10444C00E490053DF0203B03024619121705E55791
:10445C00B40A25E42517FBE5163402FAE43515F900
:10446C00E43514F8121453FCD3123495500302455E
:10447C007EC23BD2277F0122E55764187036E55582
:10448C0054F07012F52C752BDD752A6DF52912146C
:10449C00685021024579E55554F0C4540FFFE4FCF3
:1044AC00FDFE7B607AEAF9F812186CE4121468507D
:1044BC00030245797F007EFD7DFF7C009009191277
:1044CC0034E8D312349540030245791215B4121412
:1044DC00C3500302456A1216751212964003024528
:1044EC006A1213A61215B41233E012130C1213A68F
:1044FC0012186CC3E52C9517FFE52B9516FEE52AD3
:10450C009515FDE5299514FCE47B607AEAF9F8D35E
:10451C00123495405DAF2CAE2BAD2AAC29124675EA
:10452C00121186EF252CFFEE352BFEED352AFDEC16
:10453C003529FCD31214C45039121675A818C3129D
:10454C00349540081215E390053D04F012179812AB
:10455C0046751211861216EA12869BBF0105C23BE4
:10456C007F0222128C1990053DE0B40105C23B7FFD
:10457C0001221215B4128AF6EF1215B47002804C97
:10458C00753F0112788F12169F9009191234E8C0EA
:10459C0000C001C002C0031211901219091233E0BD
:1045AC00121909123355D003D002D001D0001233A6
:1045BC003A90091912118DE5172FFFE5163EFEE50D
:1045CC00153DFDE5143C12158BF514FC12128E9062
:1045DC000579121848126EE8E42517FFE516340227
:1045EC00FEE43515FDE4351412158BF51490091005
:1045FC00E05401F0E0FEA3E0FF782B7C097D017B09
:10460C00017A0B792B12321DC23B7F032212182721
:10461C00704D9008A51217A1D39FEC9E4011ED9FF1
:10462C00FFEC9EFED3EF94C0EE94124032802690A5
:10463C000808E02484FF900807E0341EFE9008A5CB
:10464C00E0FCA3E0FDC3EF9DFFEE9CFED3EF94C016
:10465C00EE9412400A7D027FFF1291D51217057D50
:08466C0001E4FF1264B87F00B5
:0846740022753F0112788F222C
:103F950090089EE0645560030241E71215239004E2
:103FA500CCE0B403037F0022E4FF12150B70061268
:103FB50017637F0222E4FFFEFDFC12127970037F76
:103FC5000122202B03024071E47FC8FEFD1212FC82
:103FD5005003024069E50B244C1212E4FCE4F53F62
:103FE50012788F12169FE4FF1215F5605112119089
:103FF5009005531234F49005531234CCD31212FEAB
:1040050040399005531234E8C3E50B9BFFE50A9A46
:10401500FEE50999FDE508981212F3900553121370
:1040250089C3E5139FFFE5129EFEE5119DFDE51091
:104035009C1215AB12167B500580001214D7121670
:104045007B5002801F7F0A12150A401BE51324F6D8
:10405500FFE51234FFFEE51134FFFDE51034FF12D4
:1040650015AB80031214D7C22B024115201303028E
:10407500411AE513240112126350037F0122E50B57
:1040850024DC1216021212F312160F1212FC4074DF
:10409500E50B24381212E49005517401F090055196
:1040A500E075F014A4FFEF250BFBE5F0350AFAE403
:1040B5003509F9E43508F812160FFCC3123495508A
:1040C50008900551E004F080D49005511218B5FE12
:1040D5007C007D141232BDC3E50B9FFFE50A9EFEF1
:1040E500E5099400FDE50894001212F31218B5FADB
:1040F500C3E5139FFFE5129AFEE5119400FDE51057
:1041050094008007E513240A12181A1215ABC2137E
:10411500128A92801912125F50037F01227F0112C9
:10412500150A600AE50B24141216021212F3E5D2E1
:1041350030E5FB75D35512157F128AF6900552EFBF
:10414500F0E50B2413121602FC128AF6900552E0D4
:104155002FF0E07011121579900577F0A37414F023
:104165001271FC0241B512157990055EE4F0A37455
:1041750014F0126955121190E50B2FFFE50A3EFE6A
:10418500E5093DFDE5083C1212F3121190121909DB
:104195001233E012130CE5132FFFE5123EFEE51175
:1041A5003DFDE5103C1215AB12125F50037F012255
:1041B500E4900551F0E5D230E5FB900551E0FF04B0
:1041C500F0743D2FF582E43405F583E0F5D39005D1
:1041D50051E0C3941440DEE4FDFF1264B812176386
:1041E500802F90089F1217A1C39FFFEC9EFED3EF6F
:1041F5009440EE9406401AD3ED94C8EC9400401117
:104205009004A1E0B4030A7D037FFF1291D5121536
:03421500237F0004
:014218002283
:1090C900301807E4F5CDF5CC800675CDC375CC55C0
:0590D900C2CFD2CA2243
:05000600C2CAC2CF22B6
:107634007D017F01127B269008FF741EF030111823
:107644009008FE74FDF09009017480F0E4A3F090BA
:107654000900F0900903802330330F121785E044AA
:1076640080F09009067401F080159008FE74F9F01A
:10767400E4900900F0A3F0A304F0A3E054FEF01298
:10768400175412917E7D037FFF1291D59004A1744B
:1076940003F0121523E4FBFD7F1B128BB99004CC7D
:0A76A4007401F0E4F5131214E9225A
:108B89009004A1E064037027E4FD7F01127B262095
:108B9900330F128FE4900902E054FEF07F04129122
:108BA900E57406121878F5131214E99004CCF02232
:108923007B007A00790CE41232899004F81217AFB5
:108933009004F912176C7A0079089004F5E012326A
:10894300899004F61217AF9004F712176C12157F73
:0689530090081F0234F43D
:026252008F2C8F
:10625400E557B40A1A1292129008A11234CC8F0B8B
:106264008E0A8D098C0890081F1234F40262FCE532
:106274002CB40107AF53AE52126E3C128923900422
:10628400F2E0C413135403F52DE4FB7D047F0412E0
:106294008BB9E4FB7D047F0E128BB9E52D70087B6E
:1062A400017D047F04800BE52DB401097B017D048D
:1062B4007F0E128BB99004F2E0FFA3E0FDA3E0FB94
:1062C4001277A07B017D027F1F128BB97B017D03B6
:1062D4007F12128BB9AF53AE52128481128E117B8E
:1062E400017A0479FA1278187B017A057910E4F5B9
:1062F40038AD4F7F011270CFAF0FAE0EAD0DAC0CA9
:106304007B007AFF79FF7800D31234955009E4F5C5
:0C6314000FF50EF50DF50CC22502901ED1
:10467C001218277003024893303009E557640A601A
:10468C0003024893900538E0FAA3E0FBC394E1EAF7
:10469C00942E4009E557640A6003024893E490099C
:1046AC0010F0A3F090091912350000000000E55736
:1046BC00640A601AD3EB9410EA9400400B1215BDF7
:1046CC00EF540F70031284C7900537E004F0E557E0
:1046DC00640A600BE55764146005E557B4182CE5C3
:1046EC00579008FEB4181074FBF0A3741EF0E4A3EA
:1046FC00F0A37420F0800B74F9F0A37418F0A37479
:10470C0008F090090374DCF012917E7D01E4FF1235
:10471C007B26C2397D027FFF1291D59004A17402D1
:10472C00F0900807E0FAA3E0FB9008A5EAF0A3EBF1
:10473C00F0E557B40A141215B49008A91234F49089
:10474C0008A11215888C140248749008ADEAF0A3E5
:10475C00EBF0900538E0FD9004EDE0FEA3E0FF12D5
:10476C008F2B9004EEE024011212C0900538A3E0C8
:10477C00FD128F2B9008121248949004D2E075F021
:10478C0040A444304534F5339004EEE02402121278
:10479C00C0AD33128F2B900811124894E53433338B
:1047AC003354F8F53390081012489CE53413135425
:1047BC003F42339004EEE024031212C0AD33128F4B
:1047CC002BE534C4333354C0F53390080F12489C96
:1047DC00E53442339004EEE024041212C0AD3312DF
:1047EC008F2B900813E0FF1292038F349004EEE0AD
:1047FC0024181212C0AD34128F2B9004D2E0702703
:10480C00F5351212BA7C00EF2535FFEC3EFE741420
:10481C002535F582E43408F583E0FD128F2B053540
:10482C00E535C3940A40DB9004EEE024051212C077
:10483C007B007A007914753F031289C490049C1292
:10484C00130990049C1234F4D2149004EEE0241456
:10485C001212C07B017A04799C753F041289C490B2
:10486C00049C1234CC128D4BC22512901EE5576459
:10487C0014600BE557640A6005E557B418099009F4
:07488C0025E4F0A37495F090
:1048930022E0FF1292038F3422E0FF1292038F343F
:0148A30022F2
:10664C001218276003026710E4FDFF127B26740505
:10665C00121878FB7A02F9F890091912138FE412C8
:10666C0014F18F0F8E0E8D0D8C0C900919123500B4
:10667C0000000000E4900910F0A3F0E557B40A1EE6
:10668C00128FE412145312158BF51490057912170E
:10669C00B6126EE89008A91215888C14805E9004CE
:1066AC00EEE024081212C07B007A00790D753F02CF
:1066BC001289C49004D2E064017034F534E53425B9
:1066CC00E02410121719E0C454F0FFE53425E0243F
:1066DC0011121725E04FFD1212BAE5347A002FFF84
:1066EC00EA3EFE128F2B0534E534C3940A40CE905B
:1066FC00053812113CE475F02012177FE557640140
:04670C006002C22540
:016710002266
:0485DB008E368F3712
:1085DF00E4F53BF53AF539F538F53C753D00753E58
:1085EF0038FFEF7C002537FDEC35368D82F583E4BF
:1085FF0093AB3CAA3DA93E8F8275830012329B0F2D
:0B860F00BF04DFAF3BAE3AAD39AC3822
:01861A00223D
:0A89C4008E3A8F3B8B3C8A3D893EC2
:1089CE00E4F540E540C3953F501F7E00E53B254052
:1089DE00FFEE353AFEAB3CAA3DA93E85408212160B
:0989EE00FFFD128F2B054080DA19
:0189F700225D
:10908600301813E4900923F0A3F0C23D758BAF7539
:079096008D3CD2ABD28E220B
:107ABB009004CDE0641E702FF533E5331218842447
:107ACB001FF974033EFA7B01C00174122FF9740382
:107ADB00121910D00112188C0533E533B41DDB904D
:107AEB0004E8741EF0800C9004E8E004F09004CDE0
:107AFB00E004F09004E8E075F00DA42405F974039C
:107B0B0035F0FA7B011287CA9004E8E075F00DA4FA
:0B7B1B002408F974031216A902321DA1
:1076AE009004C5E0641E702FF533E5331218842460
:1076BE0094F974013EFA7B01C00174872FF97401AD
:1076CE00121910D00112188C0533E533B41DDB905E
:1076DE0004D1741EF0800C9004D1E004F09004C527
:1076EE00E004F09004CBE0C3941E5003E004F0904D
:1076FE0004D1E075F00DA4247AF9740135F0FA7B0B
:10770E00011287CA9004D1E075F00DA4247DF9749E
:0A771E00011216A912321D0291F4A7
:1075B600E54F60799004C4E0641E702FF533E5331F
:1075C600121884240EF974003EFA7B01C00174017E
:1075D6002FF97400121910D00112188C0533E533F7
:1075E600B41DDB9004D0741EF0800C9004D0E0042F
:1075F600F09004C4E004F09004D0E075F00DA424EB
:10760600F4F974FF35F0FA7B011287CA9004D0E0D2
:1076160075F00DA424F7F974FF35F0FA7B01C00369
:0D7626008B37753805753910D00312865B5F
:017633002234
:067818008B338A34893530
:10781E00E4F54FF537E53725E0F538AB33AA34A953
:10782E00358537821216FFF536C4540FFF12171521
:10783E00EFF0121715E0B40F19E54F7015E537701C
:10784E000EFE7F147D0F7B017A057910023575854A
:10785E00384FE536540FFF121721EFF0121721E0C3
:10786E00B40F09E54F7005E53804F54FE537B40957
:10787E0007E54F7003754F140537E537640A7095A9
:01788E0022D7
:108E5D00C285D2357B017D037F8012835F7B017DCF
:108E6D00097F0112835F7B017D097F0312835FC23E
:048E7D0035D2852243
:108276008F347F207A0479A31218EFC22CC20DE541
:1082860050131218C01275377F041282BE7F08126F
:1082960082BE125DF17B017D037F18128BB9121528
:1082A600BDFE128481E534B4010312861BE550122B
:1082B60018C01280730283147B017D03128BB922CE
:10831400A2A89241A2A99242C2A8C2A9D235C285FA
:108324007B017D037FA012835F7B017D06E4FF1246
:10833400835FE4F53B74A3253B12134FE0FFE4FB9A
:108344007D0812835F053BE53BC3942040E7D2855B
:0A835400C235A24192A8A24292A9EC
:01835E0022FC
:06835F008D3CAA07A903F2
:10836500E4FBEBC3953C5039C280EA30E703E97082
:1083750007EA30E007E97004D2948002C2947F02D4
:108385007E00128F9675FEFFD280E96006EA25E031
:10839500FA8004EAC313FA7F027E00128F960B80DF
:0383A500C1D294AE
:0183A80022B2
:087C6100540F75F00A84ADF028
:107C6900D22AED9088BE93FEEFC3940D5023EF12F4
:107C7900162EE0540FFDEEC454F04DFD74A22F12E0
:107C89001633EDF0EE25E054E012134BE0541F805B
:107C990027EFC394195027EF24F412162EE054F05D
:107CA900FDEE540F4DFD74A22F121633EDF0EEC404
:0E7CB900540712134BE054F84E12134BEEF02A
:017CC700229A
:108BB900D22ABB01127401A805088002C333D8FC6C
:108BC90012134BE04E8013AE057401A8060880020B
:108BD900C333D8FCF412134BE05E12134BEEF022B0
:105DF100202926E4F53AE53A25E0240D121592FE14
:105E0100C4127C61E53A25E0240E121592127C61E0
:105E1100053AE53AC3940440DD9004C17403F0E40B
:105E2100F539753A011211431214BAAF3AE4FCFD87
:105E3100FE1233558F388E378D368C35E53AB40ADC
:105E41000B1216758F388E378D368C3512163BE452
:105E5100F53F12788F12169FE47FFF1215F5700A35
:105E6100900809123500000000001211901214BAB6
:105E710012163B12334712869BEF2539F539053A45
:105E8100E53AD3940A409EC3900539E094E1900528
:105E910038E0942E400375390AE539C39403500D57
:105EA100E49004BF1217C49004C1F08026E539C301
:105EB10094075013E49004BFF09004C1740F1217BB
:105EC100C69004C0F0800C9004C0740F1217C490E7
:085ED10004BFF0128314C22A81
:015ED90022A6
:10848100900542EEF0A3EFF0D3940FEE9427401243
:10849100D226900542E0FFA3E090049ACFF0A3EF2B
:1084A100F022C226900542E0FCA3E0FDD394E7EC64
:1084B100940340047F15800A900542E0FCA3E0FD8F
:0684C1007F161282242246
:068224008C358D36AB071E
:10822A00EBD3941540077D0F7F15127C69C3E536A1
:10823A0094E8E535940350067537031B80037537B8
:10824A0004E4FAEAC395375022EB2403C39AFFC029
:10825A0007AE35AF3612153BD007127C69AE35AF83
:0B826A003612153B8E358F360A80D887
:0182750022E6
:108CF7008F29AB05AA047C007D0AAF03AE021232AE
:108D0700CFAD07AF29127C69E52904FFC007AE0282
:0A8D1700AF0312153BD007027C6980
:0270CF00AC050E
:1070D100BF0113E54F700FF5397D1C12182EE539EC
:1070E100C3940C40F422ECC3940C5015E4F539C35D
:1070F100740C9CFFE539C39F50077D0F12182E8039
:10710100EEECD3940C400A753B0CEC24F4F53C8076
:10711100058C3BE4F53CE4F539E539C3953B504436
:10712100E53864017016E53920E008253C1216FBAC
:10713100C48016E53C25391216FB800DE539253C46
:10714100F582E433F58312325C540FF53AE53A6483
:107151000F6011C3740D953B2539FFAD3A127C695F
:04716100053980B5B7
:017165002207
:10861B007B017D03E4FF128BB90D7F10128BB99098
:10862B0004CBE0FD7C007F01128224900537E0FD36
:10863B007C007F061282243012157D197F0A127C72
:10864B00697D177F0B127C697D0D7F0C127C692273
:1091900030150E7D0C7FFF1291D5C215E49008AFFB
:0291A000F022BB
:108FC60090080FE0FD7FFE128CCD7FFD1214427FCC
:0E8FD600FC128CCD7FFB1214427FFA0291D563
:1084C700E4FFFEE42F1211BB1218380FBF00010E94
:1084D700E4B507EFEEB402EB90053812113012162F
:1084E700611216BBFEED34FFFDEC34FFFC12119F49
:1084F70012128E121845126CDD7F007EEC12898FE6
:0585070074EC1217F3F3
:01850C00224C
:061FCB0090054F1234F4F2
:101FD100E4900553F0A3F0A3F0A3F0121143900590
:101FE1004F1211AB9005601234F4121533791212AD
:101FF100115490054F1215FB70091216759005606A
:102001001234F4E490055FF01215611213BB121142
:1020110030D312347F500302210A90055712113038
:102021001211A01212851271FC90092BE0B4FF135A
:10203100900557E07002A3E0700990055F7402F00B
:1020410002210AE4F52D1216501218932430F5825C
:1020510074093EF583E0FFE48F31F530F52FF52E5D
:10206100AE30AD2FAC2E1214B51218932431F58277
:10207100740912142D1214B51218932432F58274B6
:102081000912142D78081234B912143912124C7035
:102091000990055F7403F00220F690054F1234CCCD
:1020A100121253400E1216C31211D1121551FFEE26
:1020B1001218CB9005601234CC121253402F121615
:1020C100C31211D1121551FF900553EEF0A3EFF099
:1020D1009005571211301211A090055912112812B2
:1020E100333A12143990055F7401F0800812191700
:1020F100600302204790055FE0FF6401600BEF641D
:1021010003600612113902200C90055FE070037420
:1021110003F090055FE0FF64026005EF64037077F0
:10212100E4F52DE52D75F020A4FFAEF0EE12165961
:102131002405FFEE34EC8F82F5831234D812143962
:10214100E52E7531008E308D2FF52E12124C604721
:1021510090054F1234CC121253400E1217CE1219A1
:102161001EFF740193CF1218CB9005601234CC126C
:102171001253401E1217CEFE12191EFD74019390C8
:102181000553CDF0A3EDF0E48F318E30F52FF52E10
:102191008005121917708C900553E07002A3E0605E
:1021A10003022254900555E07002A3E07026121537
:1021B1006112110DD3123495401790055712113049
:1021C1001214CF90054F1211AB128A5F1211398090
:1021D100E00225CC900556E02401FF900555E0343E
:1021E10000FE900553F0A3EFF0D3900539E09F90E6
:1021F1000538E09E405D900553E0FEA3E0FF128CA0
:102201004890055FEFF064017049900553E0FEA32B
:10221100E0FF1216BBFEE434FFFDE434FFFCE412E0
:10222100166112119FC004C005C006C00790055475
:10223100E024FFFF900553121626C333CE33CED8C8
:10224100F9FFE4FCFDD003D002D001D00012333AF3
:10225100121439C3900554E09402900553E09400A0
:10226100502612156012110DD312349540179005A6
:10227100571211301214CF90054F1211AB128A5F11
:1022810012113980E00225CC9005381213EF900528
:1022910054E09F900553E09E4005E4FF025C0DE48D
:1022A10090055EF0A3E0640160030224BF9009275A
:1022B1001234CC12883E1215601213BB121130D3A6
:1022C10012347F50030223BD9005571211301214AE
:1022D100F1EF2531FFEE3530FEED352FFDEC352EDA
:1022E100FC1212851271FCE4F52D1216501216C360
:1022F1001211D1121551AC06F47002ECF4703A903F
:1023010004EEE02400FF9004EDE03414FEEF7805C4
:10231100CEC313CE13D8F990055BF0252DFFE4331E
:10232100FED3EF9410EE6480948090055E400574B6
:1023310001F080307402F0802B9005531213EFED01
:102341009FFFEC9ECF2401FDE43FFC90055912163E
:102351008DAF05742C2BF58274093AF583EFF012D9
:102361001917708690055EE06401702490055CF099
:1023710012192590055CE0FDC39F5014AF2D128307
:10238100A912148DC333CE33CED8F912261580E0AD
:1023910090055EE064026018900557121130121426
:1023A100F19009271211AB12128E121845126CDD31
:1023B10090055EE070061211390222BA90055EE0C6
:1023C1006401600302245490055CF0121925900504
:1023D1005BE0C39FFFA3E0C39F5035E4A3F09005EA
:1023E1005DE0FDC39420502290055CE0FCC3952D77
:1023F100FFE49400FEEF7805C333CE33CED8F92441
:1024010000FFEE34EE12131A80D41225D30223CC2E
:0324110012156041
:062414001211B112263086
:10241A0012113912189B40F21225F7121925E49469
:10242A0000FE90055BE0C39FFFE49EFEEF7805C3C4
:10243A0033CE33CED8F91213AD500C1211C7FD1298
:10244A008F2B12113980D40224B290055EE0640207
:10245A00705D90055CF090055BE0FFA3E0FDC39F13
:10246A005014AF2D1283A912148DC333CE33CED894
:09247A00F912261580E012260675
:062483001211B112263017
:1024890012113912189B40F21225F790055B1214AC
:1024990090C333CE33CED8F91213AD500C1211C7F5
:1024A900FD128F2B12113980E27F007EE612898F8F
:1024B9001211F902257790055FE0FF64026008EFC9
:1024C9006403600302257DE490055CF090055312D6
:1024D90013EF121669FE90055CE0C39FE49E503924
:1024E900E4A3F090055DE0FDC394205026900554C7
:1024F900E024FFFFEF540FFF90055CE0FC2F12145E
:1025090093C333CE33CED8F92400FFEE34EC121343
:0C2519001A80D01225D30224D512260609
:102525001211B1900564F0E42FFFEE34E6FE128F30
:012535002B7A
:1025360012113912189B40E77F007EEC12898F1228
:1025460015609005531213EF121669FEEF7805C356
:1025560033CE33CED8F91213AD500C1211C7FD127B
:102566008F2B12113980DB7F007EE612898F90084F
:10257600021234CC12883E9005531213EF121669DC
:10258600CF2401CF3400F0A3EFF024FF121625C3A9
:1025960033CE33CED8F92400FFEE34EC9004EDF0C0
:1025A600A3EFF012156012110DD312349540179057
:1025B60005571211301214CF90054F1211AB128A23
:0C25C6005F12113980E09005601215458D
:1025D2002290055CE075F020A4242BF9740935F0F3
:1025E200FA7B01900553E0FCA3E0FD127FBF90054A
:1025F2005CE004F0227F007EEC12898FE4900557A4
:10260200F0A3F0227F007EE612898FE4900557F056
:10261200A3F022242BF974093EFA7B01900553E0C2
:10262200FCA3E0FD127FBF90055CE004F022900560
:0D26320064F0E42FFFEE34E6FE128F2B2241
:0783A900900565EFF0A90546
:1083B000E4F532E975F020A42400FFE5F034ECFE8A
:1083C0007C00EF2532FFEC3E12191EFDE9FF9005FF
:1083D00065E02F121493C333CE33CED8F9FFE532C4
:1083E0007A002FFFEA3EFE1218380532E532B4203B
:0183F000C2CA
:0183F1002269
:067FBF0090056512354635
:107FC5007534007535007536321217DD12324312DD
:107FD500192C1232891217DD90000112325C121928
:107FE5002C1217B0AF05C3E5339DCFE5329CCF24E6
:107FF50001F533E43FF5321232431217DCEF12324A
:108005008912192C90000112325C1217DC900001C4
:04801500EF02329BA9
:10869B0090056F740AF07B017A057965900577E494
:1086AB00F0A3740AF01271FCE4FF74652FF582E4F9
:1086BB003405F583E0F4600F90056FE004F0E0D330
:0E86CB00940D40037F01220FEFB40ADE7F0002
:0186D900227E
:0F91F4007E007F0A7DFF7B017A087914023575B2
:0E920300EFC4540F75F00AA4FEEF540F2EFFB7
:01921100223A
:108C1900121533E4FCFD79121214D11214C3400465
:108C290012154222121143E51B2FFFE51A3EFEE5FC
:0F8C3900193DFDE5183C8F1B8E1A8D19F5182279
:108C4800AD07AC06900538E0FAA3E0FBD39411EA2F
:108C5800940050037F0222EB24FEFFEA1214A612AE
:0F8C680017E3D3ED9FEC9E50037F01227F022282
:1087CA009008121219331232899008111219333390
:1087DA00333354F8FD9008101219331313543F4DD4
:1087EA001217B0EFC4333354C0FD90080FE0FF12E4
:0A87FA009203ED4F90000202329B43
:10901E0020250DE49004CEF0A3F09004EBF0D225C1
:0C902E00C22EC21CE4900925F0A3F02221
:108A920030252E1215689004CEEEF0A3EFF07B2065
:108AA2007ABF7902780012156E9004EBEFF012157E
:108AB20068E47A0E121662AF039004CEEAF0A3EFD6
:028AC200F022A0
:0F9212001214531212F39005861217B6026C2C29
:102CA100900538E0FEA3E0FFD39401EE94005003B9
:102CB1000230D3C3E5539401E5529400500302302E
:102CC100D3D3EF9553EE955250030230D3E49005E0
:102CD10043F0A3F0A3F01215CB9008B01234F4E541
:102CE100536401455270089008B01234CC8010E54D
:102CF1005324FFFFE55234FFFE126E3C1215CB90B8
:102D010008E51234F4AF53AE52128C48EF640260FE
:102D110003022EDB900538E0FEA3E0FF540F6402AE
:102D21006003022DCC1216BBFED3EF9410EE94007B
:102D31005003022DC712311512149B1216BC121426
:102D4100059E502D1211301211A01212851271FC24
:102D51009005411211301214F19009271211AB9014
:102D6100056C121288126CDD90054112113C022D86
:102D7100399005411211301211A01212851271FC05
:0A2D8100900B0DE054DFF01230D487
:062D8B009005411211B495
:102D910012310312113C12172D40EF1230E390054E
:102DA10041E0FCA3E0FD24001211C91231451211CA
:102DB1003C12172D40E81211F91231371248A412B2
:102DC10016CE1217F122E4FF025C0D1218A3E5538F
:102DD10024FFFFEF540FFF1214069400502BE490D0
:102DE1000546F01217FB50191211EFC333CE33CE43
:102DF100D8F91211DAC333CE33CED8F91212A28028
:102E0100E290054112113C80C51215BDFEEFB5538C
:102E110032EEB5522EE55324FE121625C333CE33BE
:102E2100CED8F9FF242DF58274093EF583E054DFF5
:102E3100FD742D2FF58274093EF583EDF01248A43F
:102E4100022E91E4900541F0E553540FA3F01213C3
:102E5100F69E503CE4900546F01217FB501C1211EF
:102E6100EFC333CE33CED8F91211DAC333CE33CE1A
:102E7100D8F912184F1212AE80DF1211EFC333CE00
:102E810033CED8F912312690054112113C022E4F52
:092E91001216CE12177A1230D489
:062E9A009005411211B485
:102EA00012310312113C12172D40EF1230E390053E
:102EB00039E024FE12193A121493C333CE33CED81C
:102EC000F99005411213B0500B1211C7123145127F
:102ED000113C80DA7F007EE602898F1231151214D0
:102EE0009B1217E39005411213B14003022F9CED92
:102EF0002401FFE43CFEEFB5530DEEB552099005F9
:102F0000457401F0022F93900545E0FD900541E0E6
:102F1000F8A3E0F5828883C39D121625C333CE3310
:102F2000CED8F9121944C003C002C001AF82AE83EB
:102F3000E4FCFD7B20FA1211A3900577E4F0A37462
:102F400020F0D001D002D0031271FC900545E0FFC3
:102F5000B40117C3900542E09FFF90054112162669
:102F6000C333CE33CED8F91230F290054312113C60
:102F7000900544E0540F701B1216D81216BCFEE4E4
:102F8000FC1214F09009271211AB90056C121288F4
:102F9000126CDD90054112113C022EDE900539E0E5
:102FA000540F64027030900546F0900546E0FFC370
:102FB0009420500F121411C333CE33CED8F912120D
:102FC000A280E7121422C333CE33CED8F91230F2E6
:102FD0001217F102306CE4900546F0900546E0FFD0
:102FE000C39420500F121411C333CE33CED8F9122C
:102FF00012A280E7121422C333CE33CED8F91219AD
:10300000447D027C00127FBF1216D8FFE41214F038
:103010009009271211AB90056C121288126CDD908A
:103020000541E4F0A304F01213F69E503CE4900531
:1030300046F01217FB501C1211EFC333CE33CED81B
:10304000F91211DAC333CE33CED8F912184F121257
:10305000AE80DF1211EFC333CE33CED8F912312652
:1030600090054112113C02302712177A1211F91201
:0530700031371218A326
:103075009005411211B4900547F0E42FFFEE34E6B8
:04308500FE128F2B7D
:1030890090054112113C12172D40E17F007EEC1290
:10309900898F1218A3900539E024FD12193A1214E8
:1030A90093C333CE33CED8F9FF9005411213B150F3
:1030B9000F1211C7FD128F2B90054112113C80D5BB
:0A30C9007F007EE612898F1216CEFA
:1030D300227F007EE612898FE4900541F0A3F0225F
:1030E3007F007EEC12898FE4900541F0A3F0222447
:1030F3002BF974093EFA7B017D027C00127FBF220B
:10310300900547F0E42FFFEE34E6FE128F2B900577
:1031130041229009271234CC12883EE4900541F0F5
:10312300A3F022240BF974093EFA7B017D027C0093
:10313300127FBF221234CC12883E7F007EE61289B2
:0A3143008F22FD128F2B9005412210
:1048A4009008E51234CC9008B01215FB4064121243
:1048B40021600690054812113C1213A69008B0120C
:1048C400138F1218049008B012123B600690054A28
:1048D40012113C1217351213E69DEE9C500B121167
:1048E40052124A7C12113C80EDE4FFFEFD12129537
:1048F400700E9005481211301214CF12158B8C14BF
:104904009005481211301214CFD312129740750239
:10491400497A1213A69008B012138F121804900843
:10492400B012123B600690054A12113CE490054C0B
:10493400F0A3F01213E69DEE9C500B121152124A92
:104944007C12113C80ED1212216006900548121170
:104954003C1213A690091512138F1218041217355E
:104964001213E69DEE9C500E121152128A5F9005AE
:104974004C12113C80EA9005481211301214CF12E7
:10498400158B8C14E490054EF090054CF0A304F0C4
:104994001216751212964014E41215ECF51BF51A52
:1049A400F519F51890054E04F0024A141211431239
:1049B40014BA90054C121130123355121548900553
:1049C4004CE07004A3E0640A7003121542E51B2452
:1049D400A0FFE51A3415FEE51934FFFDE51834FF90
:1049E400121295402B121798AB17AA16A915A814E2
:1049F400D3123495500890054E7401F0801290053E
:104A04004C12113C90054CE07004A3E0640B7080E0
:104A140090054EE06401702C1216751214C3400305
:104A24001215E3121798753F0112788F121186122E
:104A340016EA12869B90054EEFF07005128C1980D1
:104A4400031291B3C3E51B9517FFE51A9516FEE50E
:104A5400199515FDE51895148F2C8E2B8D2AF529A3
:104A6400E47F607EEAFDFCAB2CAA2BA92AA829D3FB
:074A74001234954002C2302C
:084A7B0022128A5F90054C2213
:108AF6001213A61233E0E4FD90090EE0FCEDC39CD0
:108B0600501C1214F9B50707EAB506037F012212B5
:108B160014F9D39FEA9E40037F00220D80DA7F007E
:018B2600222C
:08788F008F3E8E3D8D3C8C3BC9
:107897008F448E438D428C4175400190090EE0FF65
:1078A700E540D39F5052AF44AE43AD42AC41128A3C
:1078B700F6EF7005E54014FF22E53FB4010B1218FF
:1078C700D33402FDE43541801EE4FFFE7D02FCABAC
:1078D7003EAA3DA93CA83BC312349540141218D3C5
:1078E70034FEFDE54134FF8F448E438D42F54180E0
:0A78F700037FFF22054080A37F00FD
:017901002263
:1082C6008F5C8E5B8D5A8C59E55C2560FFE55B35CE
:1082D6005FFEE55A355EFDE559355D12139512339D
:1082E600E0C004C005C006C0071213A6AF5CAE5BB3
:1082F600AD5AAC591233E01214BAD007D006D005E5
:0E830600D004C312349570037F01227F002241
:087E4D008F368E358D348C3325
:107E5500E4F53DFBFA7902F81233E08E3B8F3CE501
:107E650036253AFFE5353539FEE5343538FDE53358
:107E750035371213951233E0E4FD90090EE0FCED61
:107E8500C39C501F1214F9FBD39FEA9E5015C3EBF8
:107E9500953CEA953B4009D3EB9FEA9E5002053D90
:057EA5000D80D7AF3D88
:017EAA0022B5
:0C923E0013292B2A212322191B1A1112BC
:103CED0078107C057D017B017A0479D47E007F14E8
:103CFD0012321D9004CAE0F54F7B017A057910E46C
:103D0D00F538AD4F22E0FEA3E0FF7C037DE81232D3
:103D1D00CF7F647E00CFCDCFCECCCE1232CFAD07CC
:103D2D002235F0FA7B0178417C057D017E007F0D07
:103D3D0002321D7C277D10E0FEA3E0FF0232CFFD95
:103D4D007C0012922AE54E75F00A8422E55175F039
:103D5D000A84229004CE7D3CE0FEA3E0FF7C0002AD
:103D6D0032CFE55875F00DA422E4751301F512F567
:103D7D0011F51022900537F0900539E024FFF55329
:103D8D00900538E034FFF55222E5532401FFE43568
:103D9D0052FE900538E0227D00900541E075F00D52
:103DAD00A4227410254FF582E43405F58322900387
:103DBD000FE075F00A8422900542E0254FFFE433B1
:103DCD00FE227B32FAF9F8AF13AE12AD11AC100230
:103DDD0033E0AE52AF537C277D100232CFD23790F5
:103DED00089E74FFF022AFF09004C375F00AA42F63
:103DFD00F022900524E0FEA3E0FF7C00227F207BD3
:103E0D00017A0479A3023575D3E5539401E55294F3
:103E1D0000221234CC9008021234E8C3023495907B
:103E2D0004EAE0FF9004ECE0FD2213135401F54A7F
:103E3D007D01FF22054FE54EFD7C007F0A2275F0C6
:103E4D000AA4FF900541E02F22E014FF900541E008
:103E5D00FEC39F22752D00752E00752F4B227F07F7
:103E6D00FD7C0002922AE53575F00A84ADF022C37F
:103E7D00900539E094E1900538E0942E22D3900519
:103E8D0039E09401900538E0940022854B4AE54ACB
:103E9D00FD7C0022AF1BAE1AAD19AC1822E4FB7DE0
:103EAD00047F1022F0E0900906F07F08227445256A
:103EBD004FF8A64B229552FE900537E0C39FE49E26
:103ECD00229FEE6480F8748098222550F55054F0AE
:103EDD00131313541F22900524E0FCA3E0FD22E5EB
:103EED005814900541F022E4900B3FF0900923F017
:103EFD00A322C313F58275830002325C9004EAEFAE
:103F0D00F09004ECEDF0229004D27401F0229009AF
:103F1D0001E0547FF07F0322E0FEA3E0FFD322F502
:103F2D004E054FFD7C007F0A22054FE54F2408FF0B
:103F3D007D1522E54F2409FF7D1D7C00227B017D2F
:103F4D00037F12227D641232CF7E007F0A22E55359
:103F5D006401455222E4F545F546F547F54822AF93
:103F6D00038F37E537C3940F22900530E4F0A37427
:103F7D005AF0223EA801FC7D0122900541E004F09B
:083F8D0022900541741DF02291
:10263F0053D9BF75891174FF900923F0A3F0F549A1
:10264F00E49004E9F090081EF0C21AC20FC232C221
:10265F0036128959D2A975FEFFC21FE4900536F0D4
:10266F0030A00E128EA475E24075E301127D8F80AB
:10267F001D53D9BF12926175FD0343D94012906E5D
:10268F0075E24075E301758E42C218128FA8E4F50A
:10269F00C875912843E680D2AFD2A8C212754CFFFD
:1026AF0075FEFF30A00520180280FE20A00530180F
:1026BF000280FE900915123E1F600D90091D123EFB
:1026CF001F600530180280FE30183D900498E0B46A
:1026DF000117E55764176011E4FF128E37E4900479
:1026EF0098F0755717D220801F900498E0B402130A
:1026FF00E557B4170E203A0B7D077FFF1291D5D205
:10270F003A8000E4900498F0900801E0FFD3940021
:10271F005008900921E094004036301833EFB4018F
:10272F00141235A1900B42E0602614F0E070219056
:10273F000801F0801B900921E0FFB40204E4F0804F
:10274F000FEFB403028004EFB40405E4900921F005
:10275F00201803022848E51CD39401400E201219BB
:10276F00D212E557701312927E800E30120BC212E6
:10277F00E55770057F01128E3712444C90053CEFE0
:10278F00F064016008E064026003022824C239E4A7
:10279F00FF7E02FDFC900919123E25401B9009197E
:1027AF001234CCE42FFFEE34FEFEED34FFFDEC349B
:1027BF00FFFC9009191234F412664C90053CE0B4FA
:1027CF0002031291B3E557B418077F0112875280A5
:1027DF005AE5576414701A303002801B123E7C4049
:1027EF0002801412467C900925E4F0A37496F080C1
:1027FF003AE557640160077F01128E37802DC22999
:10280F00123D067F011270CFE55030E20312467C75
:10281F0012901E801690053CE0B4030F30390CC2A5
:10282F00397F01128E37D228123F14123F9590052F
:10283F003CEFF0BF0103125FBA20A251200F4ED21E
:10284F0086301A34E557640A701E30111B128B89BB
:10285F00123DEA755701C210C211127ABBE5503012
:10286F00E20312467C12901EE557B4180675570105
:10287F00127ABB127F6380132018051271668003D2
:10288F00127CC8127F63755701C210D20F30A2108D
:10289F00300F0D201A08301805E4FF128752C20FAF
:1028AF00201803300F4D1258D88F49E54964017035
:1028BF004230A03F301A0F20A205127F638034E40C
:1028CF00FF128752802D303318E4FF128E37123FDC
:1028DF001B1291E5755701C233123CED7F01127047
:1028EF00CF30A20AD284D293127CC8755701C2107E
:1028FF00127A50E549F4600312008E7549FF2018D3
:10290F0003022C70900923E07004A3E06446701C4E
:10291F00E557B4170F1276AE7F01128E37C23AC247
:10292F0038123F14123EF47447F0C286900923E028
:10293F007004A3E064C870123010077F01128E3745
:10294F00C210123EF474C9F0C28630381F90080EC0
:10295F00E0B40B18128E117B017A087914127818D3
:10296F00123D067F011270CFC238D209E555540FC0
:10297F00FF900B3FE0FE6F702DEE602A12921274E3
:10298F00FFFFFEFDFCAB0FAA0EA90DA80CC312345E
:10299F00956013E4FFFEFDFCA80CC312349560068E
:1029AF00203003128E819008AFE060031290DEE5B5
:1029BF0057700D30340A128FC675E702C234D21B1E
:1029CF00900925E07004A3E06496700D900925F03E
:1029DF00A37497F0302502D22E303114E4FF128EFB
:1029EF0037127A507F707E17128CD4125D05C23168
:1029FF003012263018232020033009057F0B126870
:102A0F0096C220C2093014057F0C126896C214308A
:102A1F0028057F0D126896C228900807123F25944B
:102A2F001AEE940F5003022AF6EF94BEEE940F4065
:102A3F0003022AF620290C300B09E4FB7D027F1FCD
:102A4F00128BB9302C0F300B0C9004EAE0FF7D0F86
:102A5F00127C698025300D22300B1F123E2CE4FBB7
:102A6F00128BB99004EAE0B41B109004ECE0B402AE
:102A7F0009E4FB7D037F10128BB9302665300B62A2
:102A8F0090049AE0FEA3E0FF7C277D10202D1C12FE
:102A9F0032CFAD077F15127C697D1C7F16127C69C2
:102AAF007D1C7F17127C697D0F80301232CF7E0321
:102ABF007FE8123D227F15122C9A123D127F1612BB
:102ACF002C9A7C007D64123D447F0A123D207F17B3
:102ADF00127C6990049A7D0A123D657F18127C69F9
:102AEF00C21EC20B022BBBD3900808E094E29008E1
:102AFF0007E0941D5003022BBB200B097B017D02C5
:102B0F007F1F128BB9201E07200B04B22DD21E304F
:102B1F002C0B200B08123E2C127C698025300D22C5
:102B2F00200B1F123E2C7B01128BB99004EAE0B4EC
:102B3F001B109004ECE0B402097B017D037F10129F
:102B4F008BB9200B673025629004CCE0FF640160E5
:102B5F0004EFB4032A7B207ABF79027800123DD4A8
:102B6F009004EBEFF0E4123DCFE47B107A0EF9F80E
:102B7F001233E0AF039004CEEAF0A3EFF0802B9076
:102B8F0004CEE475F001123324C39004CFE0941007
:102B9F009004CEE0940E4012E4F0A3F09004EBE02A
:102BAF0004F0E075F06484E5F0F0D20B302E47208E
:102BBF001C13E4FB7D03FF128BB9123EAA128BB9D3
:102BCF001290B3D21C9004EBE0FD7C007F04128CBA
:102BDF00F77D1C7F06127C69123D607C007D3C12E4
:102BEF0032CF7F07128CF77D1C7F09127C69123D53
:102BFF00607F0A128CF7301B077F021273A4C21B6F
:102C0F00302A03125DF1302205125DF1C222302706
:102C1F000C7F011273A47F011273A4C227303D0CE5
:102C2F00C219303C03125529C23CC23D301F3290AD
:102C3F0004D3E0FF7011D39008A8E094709008A718
:102C4F00E09402401C80167E007C037D0D1232BD85
:102C5F00D39008A8E09F9008A7E09E4004C21FC22F
:102C6F00A12036030226AF9008A7123F259471EEDC
:102C7F0094035011EF941EEE940050030226AF30D0
:0B2C8F0018030226AF127B910226AF53
:072C9A00127C6990049A22EC
:10008E00201808AF4912911D027BFA9004CCE0B4FF
:10009E000110E549B41D0B7B01E41210EE7403F060
:1000AE00801A9004CCE0B40313E549641D6005E5A5
:1000BE0049B42D08E4FB1210EE7401F0E557123529
:1000CE004F01150002FE010803020861030D8B04A7
:1000DE000EA50505D50605D5070454080576090CA9
:1000EE00500A0CFE0C0D3E0D07050E07520F08D3DD
:1000FE001008D31108D31208D3130B80140B9515C7
:10010E000B511600000FACE549B405243030030244
:10011E000FAC123E7C4003020FACC210E4FF127310
:10012E00A4128FA89004D27402F0755714020CAC6E
:10013E00E549642D701F123E8A5003020FACC217A0
:10014E00C2101210AD700B123D817F01126252125D
:10015E00763402033CE549B41716C21075570AC22D
:10016E000EC223C21D12108A6003020FAC020C7C59
:10017E00E549B4200E12108A700312913175570C96
:10018E00D21022E549B4180E12109A70031291A2E1
:10019E0075570DD21022E549B41E0E12109A700337
:1001AE00128BE9755708D21022E549B41F101210B0
:1001BE00B470057F011274B4755709D21022E54947
:1001CE00B4260E7557061210AD7003128EC6D210DD
:1001DE0022E549B4280E7557071210B47003128E1B
:1001EE00C6D21022E549B416131210F87008E55065
:1001FE00123E3712807375570ED21022E5496410E5
:10020E00703575570FF54FC208D224C216FEFD1277
:10021E003E0A7F041210CD7F081210CD7D177F0687
:10022E00127C697D1B7F07127C697D177F08127C0B
:10023E0069128314D21022E549B42F121210917054
:10024E0007FF1274B4754D01C22475570222E54999
:10025E00B4301112109170061290F3754D01C22434
:10026E0075570322E549B42713C2171210FF700603
:10027E00120046754D01C22475570522E5496408E2
:10028E006012E5496403600CE54964026006E549C5
:10029E00640D703FD210E549B40805755710801EE5
:1002AE00E549B403057557118014E549B402057587
:1002BE005712800AE549B40D05755713C210E5575C
:1002CE00B4130B1210FF6003020FAC02091FC20C15
:1002DE0002091FE549642E6003020FAC1210F8707C
:1002EE0009E55013123E37127537755704D2102296
:1002FE00E549642D703C201A39123E8A5003020FD4
:10030E00ACC217D23378D47C047D017B017A057997
:10031E00107E007F1412321D9004CAE54FF0126653
:10032E004CC22E7F011279E4EF70031200767557DE
:10033E001522E549642C600CE549B4050F9004A123
:10034E00E0B40208E55020E20302664CE549640A77
:10035E007040303212900900E04409F0301A1890C3
:10036E000903749DF08010900900E054F6F0301AE5
:10037E0006900903749CF07F021291E57F0512919D
:10038E00E5B232A232E433FB7D017F1A128BB90241
:10039E00044FE549B40E14301F0302044FD21FD28E
:1003AE00A1E49008A7F0A3F002044FE549B4152686
:1003BE009004D0E0FF700302044F241D75F01E84DC
:1003CE00E5F075F00DA42404F9740035F0FA7B0104
:1003DE001289F802044F12104A6055303303020F8F
:1003EE00ACAF4B127BFA9004D2E07003020FACE577
:1003FE005030E20312467C12901EE54FB41422E4F4
:10040E00FF74112FF582E43405F583E0FE74102F8E
:10041E00123DB3EEF00FBF13E8900523E54BF080CD
:10042E0008123DAFE54BF0054F123D06FF0270CFAF
:10043E00E549B4050512467C8007E549B41002D2A1
:10044E00217F01020B4EE549641E7003020EB0E5DA
:10045E0049B42C03020EB0300C0B120FC160030214
:10046E000FAC028BE9120FAD7003020551E54F7010
:10047E0030E54BC3940050030205D2E54BD39402F2
:10048E0040030205D2123D59E54B123DF3F55105DD
:10049E004F1210D5123D59E5F0FD7C007F08020584
:1004AE001AE54F6401702E123D5975F00AA4254BC2
:1004BE00FF9004C3F07418D39F5003020FAC900446
:1004CE00C3E0F551054FE5511210D5123D52FD7C9A
:1004DE00007F0A8037E54F64027037E54BC3940006
:1004EE0050030205D2E54BD3940540030205D21208
:1004FE003D52AFF0E54B9004A0123DF8123F2C1286
:10050E008CF7123D52E5F0FD7C007F0B12922A0211
:10051E0005D2E54F640360030205D2123D5275F019
:10052E000AA4254BFF9004A0F0743CD39F50030205
:10053E000FAC9004A0E0F54E123E41128CF7C22C87
:10054E000205D2E549B4251ED234E4F5E7AF4E12CA
:10055E00915990080FEFF0AF51129159900810EF8A
:10056E00F07F01128E37805CE549641F6005E54916
:10057E00B42C03020EB0300C0D120FC16003020F2B
:10058E00AC7F010274B4120FAD6009E4FDAF4B12E3
:10059E0053DC8030E5496425702AD234F5E7AF4E3E
:1005AE00129159900811EFF0AF5112915990081213
:1005BE00EFF090030FE0FF129159900813EFF07FC8
:1005CE0001128E37028A2CE549B42606E5576406D9
:1005DE00601BE549B42806E55764076010E54964D9
:1005EE002C600AE549B42508E554B40103020EB0A7
:1005FE00300C1FE557B406047F0180027F021257AC
:10060E00A88F56E55664016003020FAC1210C402A7
:10061E008EC6120FCD7003020FACE554D394014079
:10062E0003020FACE5547003123EBAE554B4010E4A
:10063E0074C6254FF582E43404F583E54BF0123F82
:10064E0036127C69E54FC3940450030206FF128EE6
:10065E0011E55470237554019004C6F0A3F0A3F075
:10066E00A3F07D167F05127C697D027F06127C69E0
:10067E0012001E7F010273A49004C6E0FF65457050
:10068E0058A3E0FE65467051A3E0FD6547704AA38E
:10069E00E0FC65487043E557B40610900532EFF064
:1006AE00A3EEF0A3EDF0A3ECF08025E557B4072000
:1006BE009004C6E090052CF09004C7E090052DF054
:1006CE009004C8E090052EF09004C9E090052FF03C
:1006DE00129108D23CD21B8003128F0AE4FB7D04D8
:1006EE007F12128BB9E41210C4C22CD210755402B0
:1006FE0022123F40020D73E54964166005E549B4C8
:10070E002C03020EB0300C0E120FE16003020FAC80
:10071E00E5501313800EE549641C6005E549B424C9
:10072E0009E54A04123E39028073E54964256003E7
:10073E00020FACE55054FBFFE54A25E025E04FF5EE
:10074E0050020E9BE549B42C03020EB0E549B414D9
:10075E00137F021279E4EF70057F01126A1075574C
:10076E0016D21022E549B40E18D208128E117D0C45
:10077E007F04127C699004D3E0FD7C007F08020D9B
:10078E007330081F120FCD6008123E987F08020DBD
:10079E0073E54964256003020FAC9004D3E54AF07B
:1007AE00020E9B30244C12104A6041123EBA054F85
