:1087E30010C4EA611A03530069006C006900630056
:1087F3006F006E0020004C006100620073001003E4
:1088030055005300420020004100500049000A0374
:0C88130031003200330034000F800100FF
:108EF100420D82013B410D7502420D760000420D8B
:0C8F0100720000420D800000410D840051
:105EAF00F0E4A3F090049C1234F6900D4AEFF090BA
:105EBF00049C1234F678081234D0900D4BEFF0900A
:105ECF00049C1234F678101234D0900D4CEFF090F1
:105EDF00049C0234F6784A7C0D7A0579107D017B9B
:105EEF00010232477E007F1D7D007B017A0D7947CD
:105EFF0022900D70E025E024B8F582E43408F58394
:105F0F00E0FEA3E022900D78E4FBFA7902F8123458
:105F1F00F602340A12349C90052812351E9005287B
:105F2F00023512E0AB29AA2AA92B9000010232C533
:105F3F00744A252AF582E4340DF583740FF0052A8F
:105F4F0022EFF09005280234F678181234D0900D15
:105F5F004DEFF022784A7C0D7D017B01FE02324726
:105F6F00E0FFE4FCFDFE22E09000021232C590003B
:105F7F0003E40232C5E0AB29AA2AA92B22900D47D0
:105F8F00F0A37404F0E4A322FEE07C002400FFECF5
:025F9F003E22A0
:107FAA001289F49087E3E493FE740193FF9087E5C6
:107FBA00E493FC740193FD7BFF7A88790190054470
:107FCA001235707A88791190054712357090881B9E
:107FDA00E49390054AF090881CE49390054BF09046
:107FEA00881DE493FB74019390054CCBF0A3EBF04E
:0C7FFA007BFF7A8779E712572702915B22
:03008600028DA840
:1035CB00125EF312359F125EF97D1D126E8C900DFB
:1035DB0047E0123579361C01364502373103360583
:1035EB000439190538EB0638A50739300839520963
:1035FB00399F0E39AF0F000039C9900D477404F095
:10360B00A3F0E4A3F07A0579327F04125F630239E9
:10361B0012900D477401F0A304F0E4A3F090053869
:10362B00E0FCA3E0FD14900D4AF0ED24FFEC34FF19
:10363B00A3F0125EF97D0502392C900D4BE0900D35
:10364B004A125F97900D76F0A3EFF0E02401FF9004
:10365B000D76E03400FE126F3B752901752A0D754E
:10366B002B6C125F85E41232B39004F8125F329028
:10367B0004F9125F76752901752A0D752B78900464
:10368B00F5125F841232B39004F6125F329004F796
:10369B00125F76E4900D74F0FFFEFDFC900D6C1242
:1036AB003512C31234BF6060900D6C1234F68F3A32
:1036BB008E398D388C37900D781234F6127F4C90F2
:1036CB000D71EFF06042125F6FFBFA7902F8123363
:1036DB007FAB07AA06A905A804900D6C1234F6124D
:1036EB003371900D6812351E7B017A0D79688B2929
:1036FB008A2A892B9000011232869004F8F09000F0
:10370B00021232869004F9F0900D477402F0A37404
:10371B0020F0E4A3F07A0479F07F20125F63125E4D
:10372B00F97D2302392C752901752A0D752B7C9097
:10373B000D4D125F841232B3900D4C125F32900D0F
:10374B004BE09000021232C5900D4AE0900003123C
:10375B0032C5900D74E0704004F0E4900D70F0A34E
:10376B00E06035125F00F47002EEF4602B125F1410
:10377B00A804A905AA06AB07125F00FFE4FCFDD362
:10378B001234BF4013900D70E004F090090EE0FF6F
:10379B00900D70E0D39F40CB900D71E07003023819
:0137AB003AE3
:1037AC00E4F52EF52F900D70E0F532125F148E2C8F
:1037BC008F2D900D7C125F17C3EF952DFFEE952C7E
:1037CC00CF2401F531E43FF530C3E52F9531E52EDB
:1037DC0095305022E532125F04B52D08EEB52C045D
:1037EC0005328008052FE52F7002052E052DE52DDD
:1037FC0070D7052C80D3900D7C123512C000C001FF
:10380C00C002C003900D70E0FFC3E5329FFFE4944B
:10381C0000FEE4FCFDFBFA7902F812337FD003D0F2
:0E382C0002D001D000123364900D7C12351EC4
:10383A00900D4FE0900D4E125F97FE900D72F0A31F
:10384A00EFF0D39400EE94024009900D727402F0E6
:10385A00A3E4F0900B447403F0900D72E0FCA3E033
:10386A00900B45F0ECA3F0900D7C1234F6900D729B
:10387A00E0FBA3E0900577CBF0A3EBF07B017A0B9A
:10388A0079471272FB7B017A0B7944900D73E0241D
:10389A0003FD900D72E0340002394E900D4D125F17
:1038AA006F78181234E3125F26C000900D4C125F35
:1038BA006F78101234E3D000125F23C000900D4BD2
:1038CA00125F6F78081234E3D000125F23900D4A1A
:1038DA00125F6F12349C90052812351ED23ED23DDB
:1038EA00227406125F8C125F51900D4A125F507853
:1038FA00081234D0900D4B125F5078101234D090C9
:10390A000D4C125F50125F58125EF97D07801390BA
:10391A000D477405F0A314125EAF125F58125EF9D8
:10392A007D077C00801F7408125F8CF0A3E557F0B6
:10393A009004CCE0900D4BF0A3E54DF0E4A3F01217
:10394A005EF97D07FC025AAFE55764016071E557DD
:10395A006418606BE55764176065203262900D4801
:10396A00E0FFD3941450588F4FAF4F7E0078107CED
:10397A00057A0D794A125EECC37414954FFFE494EC
:10398A0000FE7D0F7410254FF9E43405FA7B01120D
:10399A00359FD23222301A27301824E557B4011F36
:1039AA00E4FF02885BE55764186005E557B4170F12
:0F39BA00D284D293127DC7755701C210127B4F72
:0139C90022DB
:025DBB008F292E
:105DBD00125EF312359FE52924F560481470030235
:105DCD005E58147003025E5824036003025EAE2019
:105DDD000A03025EAE900D47740AF0A37414F0E44A
:105DED00A3F0FE7F14125EE4854F2AE52AC39414B6
:105DFD005005125F3F80F4125EF97D177C00125A38
:105E0D00AFC20A22202006200903025EAE900D4784
:105E1D00740BF0E4A3F0A3F030091B900D4874143B
:105E2D00F07E00FF125EE4854F2AE52AC3941450DC
:105E3D0005125F3F80F4125EF9900D48E02403FDDA
:105E4D00E433FC125AAFC220C209222014033028B9
:105E5D0050900D47E529F0A37419125EAF125F58EB
:105E6D009004D2E0900D4EF0784F7C0D7D017B01BA
:105E7D007A0579107E007F14123247854F2AE52A64
:105E8D00C39414500E744F252AF582E4340D125F1D
:105E9D004880EB125EF97D1C7C00125AAFC214C211
:015EAD0028CC
:015EAE0022D1
:03008B00027A7482
:107A7400C0E0C0F0C083C082C0D075D000C000C0D8
:107A840001C002C003C004C005C006C0071293367B
:107A94008F1DE51D30E20C9008017401F0900B423B
:107AA400E004F0E51D30E1069009217402F0E51DC3
:107AB40030E7069009217403F0E51D30E6069009CD
:107AC400217404F0D007D006D005D004D003D0022E
:0F7AD400D001D000D0D0D082D083D0F0D0E0321B
:1092720030392F33302F31330031333A30303A34F2
:029282003400B6
:104CF300F518F517F516F515900B40E0FEA3E0FF48
:104D03007C007D0A1232F9E4FCFDFBFA7902F80219
:104D1300337FE4FB7A08F9F81234F612340AEF24ED
:104D230001FFE43EFEE43DFDE43CFC22E52925E0F1
:104D330024B8F582E43408F58322E4FCFDFE9008F0
:104D43000912351EE4FFFE7D02FC9008091235129C
:104D530002337F900915E4FBFA7902F80234F690E6
:104D630009151234F6C3AB18AA17A916A8150234ED
:104D7300BFFFEE34FFFEE434FFFDE434FFFCE42226
:104D830012351E9008E1E09008E024FFFFE034FFB5
:104D9300FE22FFE4FCFD123512023364E0FFA3E0C0
:104DA300900586CFF0A3EFF02290091512351290EB
:104DB300091D1234F6123371E4FBFA7902F8123446
:104DC3000A90089CEFF022FEE43516FDE435158FBA
:104DD300188E178D1622AF18AE17AD16AC15229389
:104DE300FE740193FFEE900538F0A3EFF022123426
:104DF300F6E4FB7A08F9F802337FE5182496FFE519
:104E0300173415FEE51634FFFDE51534FFFC228F3C
:104E13001C8E1B8D1A8C192234EA8F82F583E4933E
:104E2300229004EEE024E2FF9004EDE034FF22AB95
:104E330007AA061234F6C3EF9B221234F690080237
:104E430002351EE52925E024B6F582E43408F5830E
:104E53002275F004A42400FFE5F034E8FE22AF2A13
:104E63007E00AC2BAD2C0232E712340A900B40EEDD
:104E7300F0A3EFF0229004EDE0FEA3E0221235123E
:104E8300C30234BF9FFFE09E900586F0A3EFF0229C
:104E9300FDEE34FF8D82F583E49322900530E4F038
:104EA300A3745AF0229004ED74ECF0A3E4F0229082
:104EB3000570023567E0FEA3E029F9EA3EFA229085
:0B4EC300055702356790056502356752
:10903100A2AF924275FEFFC2AF8F828E83758F0100
:0F90410075B7A575B7F1EDF0E4F58FA24292AFC8
:0190500022FD
:108A9800A2AF924175FEFFC2AF75FF8075EF028EDF
:108AA8003A8F3B75B7A575B7F1438F0375FF80758E
:108AB800EF02853B82853A83E4F0538FFCA2419212
:048AC800AF75FEFF89
:018ACC002287
:101FDA0090EA2BE493F529E529B4FF1890053874A3
:101FEA0001F0A3E4F09008A112352A10000000E4E1
:101FFA00FF125CC3E4900590F090EA0093F529E59E
:10200A0029F460061251DB0221AD124E9E9005287A
:10201A0012352AFFFFFFFF90049C12352A000000A8
:10202A000090049C1234F6128E51E4900532F0A30B
:10203A00F0A3F0A3F090052CF0A3F0A3F0A3F09086
:10204A0008A112352A0000000090091512352A004D
:10205A0000000090091D12352A00000000E49008D3
:10206A009CF0FE7F287DFF7B017A0879B812359FA4
:10207A007F01125BC0E49004EFF0F529124D2FE0C6
:10208A00FEA3E0FFBEFF0BBFFF0890090EE529F093
:10209A0080070529E529B414E3752B07752CF890F8
:1020AA0008E07408F0A3E4F090090EE0F529E529A8
:1020BA00D39400403A124E46E0FEA3E0FFC3952CAB
:1020CA00EE952B402AEF24F8F52CEE34FFF52B90F1
:1020DA0008E0EEF0A3EFF0124E4674FFF0A3F09082
:1020EA0004EF7404F090090EE014F0152980BF90F3
:1020FA0008E0E0FEA3E0FF7C007D0A1232F98E2B95
:10210A008F2CE4F52990090EE0FFE529C39F4003CF
:10211A000221AAE4F52A124E61124D2FE0FAA3E039
:10212A00FBB5070BEAB506079004EFE04402F0128C
:10213A004E61EF24FFFFEE34FFFEEBB50712EAB55E
:10214A00060EE52AD3940040079004EFE04402F01B
:10215A00052AE52AB40ABFE52925E024BAF582E46E
:10216A003408F583E0FEA3E024FFFFEE34FFFE12FD
:10217A004D2FE0FCA3E0B50722ECB5061EE52924A5
:10218A0001FFE433FE90090EE0FDC3EF9D7480F871
:10219A006E9850079004EFE04401F0052902210FE0
:1021AA00128A62E4F52BF52C752A0AE4252AFFE443
:1021BA00124E1BF529F46004E5297046E52A6415D8
:1021CA007038F52B752C01124D86124D0A9008A114
:1021DA00124D83EF24FD124D74124D0D90091D12FC
:1021EA004D83EF24FA124D74124D0D9009151235D4
:1021FA001E124D56124E6C124DAC052AE52A641673
:10220A0070A9E52C6401452B70031255DFC23D907D
:10221A00EC00E4124DE2F47002EEF4705890E6001D
:10222A00124DE2F47002EEF4604B900538E0700251
:10223A00A3E060417F007EEC128A98E4F52BF52C2E
:10224A00E4252CFFE52B34E68F82F583740193F5A0
:10225A0029E4252CFFE52B34ECFEAD29129031053B
:10226A002CE52C7002052BC3E52B940240D27F008B
:10227A007EE6128A987B017A09792B900577740297
:10228A00F0A3E4F0FFFE7DF27C0F1272FB9005389A
:10229A00E0FEA3E0FF64014E7003022338EFF470FE
:1022AA0002EEF47003022338900538A3EF24FE12DD
:1022BA004D747B20FAF9F812337F900915124D9963
:1022CA00124E40900538E0FFA3E0CF124DE91226E6
:1022DA003E855252855353900538E0FAA3E0FB2419
:1022EA00FFFFEA34FFFEEFB55306EEB55202803E19
:1022FA00EB24FEFFEA124D767B20FAF9F812337FBF
:10230A0090091D124D99124E4012263E900539E051
:10231A00900538124D8DEFB5530FEEB5520B90095B
:10232A001D124E3D900915800E75FEFF80FB900927
:10233A0015124E3D90091D1234F690092712351ECA
:10234A00900538E4F0A304F0124EA8F52B752C0181
:10235A00124E78F5828E83E493F529F4600C90048A
:10236A00EDE475F02012334E800C900538E52BF021
:10237A00A3E52CF0800E052CE52C7002052B6411C8
:10238A00452B70CC900538E07004A3E06401700F0F
:10239A00E52C6401452B7007124CF3124E122212DF
:1023AA004E78FF24E0124E93FD740193900538CDC8
:1023BA00F0A3EDF0900538E475F00112334EEF24E6
:1023CA00E5FFEE34FFFE1286E4124DD28C15E515B8
:1023DA007518008E178D16F5157B007A00790DE4B5
:1023EA001232B3124E78FF24E8124E939000011273
:1023FA0032C5EF24E9FFEE34FF124E1D900002129F
:10240A0032C5900003E41232C5AF10AE0FAD0EAC68
:10241A000D7AFF79FF7800D31234BF40030224DF1C
:10242A00124DD990081F12351EE4F529124D62503B
:10243A000A124DD91287A48F298003E4F529E529C8
:10244A0060030224CF90081F123512C3E5189BFFC0
:10245A00E5179AFEE51699FDE515988F108E0F8DF2
:10246A000EF50DE4FF7E04FDFCAB10AA0FA90EA821
:10247A000DD31234BFE4500AF510F50FF50EF50D21
:10248A0080192510FFE50F34FCFEE50E34FFFDE54B
:10249A000D34FF8F108E0F8D0EF50D9004EEE02493
:1024AA00E8124E2AFE7B007A00790E753F02128AE4
:1024BA00CD124E24FE124E1DF5295329EFAD2912D5
:1024CA00903102255EE42518FFE5173402124DCA41
:1024DA00F515022436124E24124E1DF529E518254B
:1024EA0010FFE517350FFEE516350EFDE515350D1E
:1024FA00124DD2F515E52920E40DE42518FFE5175C
:10250A003404124DCAF515E52920E548E518FFE51A
:10251A0017FEE5165401FDE4FCFBFAF9F8C3123480
:10252A00BF6031E47902F8124DD9124D1EE4124D02
:10253A000D124DD28C15124DFD1287A4EF70157B2A
:10254A00FF7A8979E9124DFD90056CE4F0A37405D0
:10255A00F0126DDCE4F529F52B752C01124D624061
:10256A0014E4F518F517F516F515F51CF51BF51A0B
:10257A00F5190225CF124CFBA804A905AA06AB0738
:10258A00AE2BAF2CE4FCFD12337F124E12E52C6405
:10259A000A452B70099009151234F6124E12E51CE1
:1025AA0024A0FFE51B3415FEE51A34FFFDE51934B6
:1025BA00FFFC124D684021AF1CAE1BAD1AAC19D3FB
:1025CA00124D695005752901800E052CE52C700203
:1025DA00052B640B452B7084E5296401705590091D
:1025EA00151234F6AB1CAA1BA91AA819C31234BFB8
:1025FA004011E4F51CF51BF51AF519F518F517F550
:10260A0016F515AF1CAE1BAD1AAC19753F01127940
:10261A008E124D3DEF251CFFEE351BFEED351AFDE2
:10262A00EC3519FC1287A48F29E5297003028CF076
:03263A001292B940
:10263D00227B007A0079529008021234F6900577C9
:0A264D00E4F0A37402F01272FB2205
:088E51008F398E388D378C3605
:108E5900E539547FFFE4AD07ED7006FF7EE8128A1D
:108E690098ED124E547B007A007936753F04028AD8
:018E7900CD2B
:107EEE00E4F531F530F52FF52EF535F534F533F59E
:107EFE0032F52DE52D124E541286E48F358E348DCB
:107F0E00338C3274FFFFFEFDFCAB35AA34A933A8C7
:107F1E0032C31234BF7009E52D701AFFFEFDFC222C
:107F2E0085353185343085332F85322E052DE52D5F
:0D7F3E00C3948040BEAF31AE30AD2FAC2EED
:017F4B002213
:107827007D117F03127D687D1F7F04127D687D0CAB
:107837007F05127D687D177F06127D687D117F07A2
:10784700127D687D217F08127D687D0C7F09127D7E
:10785700687D137F0A127D687D137F0B127D681286
:107867008465E4F529F52AAE29AF2A124D0A128B51
:1078770068052AE52A70020529C3E529940840E727
:107887007F007EEC128A987EE8128A987EEA128A36
:08789700987EE6128A9880FE3B
:025CC3008F321E
:105CC500900538E07004A3E064017003025DBAE555
:105CD500326401702A7D107F03127D687D117F0477
:105CE500127D687D137F05127D687D117F06127D0B
:105CF500687D187F07127D687D117F08127D68E435
:105D0500F533F5349008A1124D5912340AA804A9A7
:105D150005AA06AB07AE33AF34E4FCFDD31234BF9E
:105D25004052AE33AF34124D0A1287A4EF603AAE3B
:105D350033AF34124D0A128B68E5326401702AC301
:105D4500E534947FE49400500575351D8003753561
:105D55000FAD357F09127D68AD357F0A127D68ADBF
:105D6500357F0B127D681284650534E534700205B4
:105D750033025D097F007EEC128A98E532B4012179
:105D8500E4900537F09004CDF09004E8F09004D04D
:105D9500F09004C4F09004D1F09004C5F09004CBC9
:105DA500F0900538E4F0A304F0E4124CF3124E121F
:055DB500124EA8C231EE
:015DBA0022C6
:10881F00124DD99008A912351E9008A11234F612E4
:10882F004DD28C157B007A007929900586E4F0A350
:10883F0004F0126D2BE529F46006124DD9128B68E6
:0B884F009008A91234F6124DD28C15CF
:01885A0022FB
:1055DF007F007EEA128A987B017A057932753F0443
:1055EF00128ACD7B017A05792C753F047F047EEA00
:1055FF00128ACDAD557F087EEA129031AD500F1251
:10560F0090317B017A097915753F040F128ACD7B92
:10561F00017A09791D753F047F0E7EEA128ACD7BD0
:10562F00017A0879A1753F047F127EEA128ACD7B39
:10563F00017A057928753F047F167EEA128ACD908C
:10564F00090FE0FD7F207EEA129031900913E0FDF3
:10565F007F241290319009141256FD9008FD1256B6
:10566F00FD9008E21257049008061257049004A206
:10567F001257199004D31257199005901257209072
:10568F000530125720900530A3E0FD0F1290319096
:10569F0004EFE0FD7F2F129031E4F9E975F002A4D9
:1056AF002430FBE5F034EAFAE9124D31E0FDAF03A7
:1056BF00AE02129031E975F002A42431FFE5F03407
:1056CF00EAFEE9124D31A3E0FD12903109E9B4145D
:1056DF00CAE4F9E924E090927212570BB408F4E48B
:0D56EF00F9E924F090927B12570BB408F4F7
:1056FC0022E0FD0F12903122E0FD0F12903122FFBB
:10570C00E434EBFEE993FD12903109E922E0FD0F40
:0B571C0012903122E0FD0F12903122AC
:1051DB0075FEFF90EA00E493900532F090EA01E44B
:1051EB0093900533F090EA02E493900534F090EA43
:1051FB0003E493900535F090EA04E49390052CF0CA
:10520B0090EA05E49390052DF090EA06E49390055F
:10521B002EF090EA07E49390052FF090EA08E493C0
:10522B00F555A3E493F5507F0A7EEA1286E49009C4
:10523B001512351E7F0E7EEA1286E490091D12357B
:10524B001E7F127EEA1286E49008A112351E7F168D
:10525B007EEA1286E490052812351E124DAC90EAB8
:10526B0020E49390090FF090EA24E493900913F053
:10527B0090EA25E493900914F090EA26E4939008C1
:10528B00FDF090EA27E4939008E2F090EA28E4938B
:10529B00900806F090EA29E4939004A2F090EA2A91
:1052AB00E4939004D3F090EA2CE493FE740193FF03
:1052BB00900530EEF0A3EFF0D3945AEE9400400338
:1052CB00124E9E90EA2FE4939004EFF0E4FDED75FF
:1052DB00F002A42430FFE5F0124E1BFE740193FF85
:1052EB00ED124D31EEF0A3EFF00DEDB414E0E4FD53
:1052FB00ED124D31E0FEA3E0FFBEFF0ABFFF0790AA
:10530B00090EEDF080050DEDB414E5E4FBFA79021E
:10531B00F89008A11234F612340AEF2401FFE43E90
:10532B009008E0F0A3EFF0124D56124E6C127EEE89
:06533B0090049C02351EE7
:0C72FB0090057012357090057312351E5E
:10730700900573124D1590057912351E9005791267
:107317004DF190057912351E900577E0FEA3E090B8
:107327000573124D95900579124E8050479005735D
:107337001234F6900579124E32FFEE9A90057DF0E1
:10734700A3EFF0124EB290057D124D9F9005731278
:1073570034F6126D2B124EB290057D124EB8900581
:107367007DA3E0FFC3900578E0900577124E8790E4
:107377000579800C124EB2900577124D9F900573D8
:067387001234F6126D2B1A
:01738D0022DD
:0C6A540090055712357090055A12351E3F
:106A600090055A124D1590056012351E9005601262
:106A70004DF190056012351E90055EE0FEA3E0909A
:106A8000055A124D95900560124E8090055A505847
:106A90001234F6900560124E32FFEE9A900564F0C3
:106AA000A3EFF0124EC2900564124D9F90055A124A
:106AB00034F6126D2B900560126B05124D3D90055A
:106AC00060124D99C006C007124EC2900564124E66
:106AD000B8900564A3E0FFC390055FE090055E12E7
:106AE0004E87D007D0068019126B05124D3D9005D8
:106AF0005A124D99C007124EC290055E124D9FD09A
:046B000007126D2BE0
:0B6B0400221234F6753F0112798E2238
:0C6DDC0090056512357090056812351E98
:106DE800E4FB7A08F9F8900568124D1B90056E12BD
:106DF800351E90056E124DF190056E12351E9005E8
:106E08006CE0FEA3E0FFE4FCFD900568124D99904C
:106E1800056E124E8050519005681234F6AB07AAE1
:106E28000690056E124E36F537EE9AF536900568DF
:106E38001234F6124EC8900579E536F0A3E537F01E
:106E4800126FE7124EC8E92537F9EA3536FA900588
:106E58006CE0FEA3E0C39537FFEE9536900579F018
:106E6800A3EFF090056E8015124EC890056CE0FFF8
:106E7800A3E0900579CFF0A3EFF09005681234F6FF
:036E8800126FE79F
:016E8B0022E4
:1089BB008780848881858982868A838B5F503D7905
:1089CB00726B6F517F7B0C48776E0F007C2F270EDD
:1089DB00576C376B2E5E4C7A20087F0764000307B9
:0989EB000F080C0E0F0103070F29
:1011190090054F1235129005601234F6123371E4BE
:10112900FBFA7902F812340A900557A804A905AA0E
:1011390006AB07E0FEA3E0FFE4FCFD22900557E4BF
:1011490075F00102334E900B40E0FEA3E0FF7C00F6
:101159007D0A1232F97902E4FCFDFBFAF802337FC9
:10116900D283C28325E0FFA282E4334FD283C283B4
:1011790025E0FFA282E4334FD283C28325E0FFA298
:1011890082E4334FD283C28322E4FCFDFE90080936
:1011990012351EE4FFFE7D02FC9008091235120289
:1011A900337FE4FB7A02F9F812337F900802123593
:1011B90012023364900557E0FEA3E0FF2400FDEE20
:1011C90034EC8D82F583E493FD22E42DFFEC34ECBD
:1011D900FE742B2DF58274093CF583E0222400FF6F
:1011E900EE34ECFE7C00EF2DFFEC3E8F82F583E4BC
:1011F90093FB900541E0FEA3E078052290080212D6
:1012090034F690081F12351E9009271234F69008FB
:101219000212351E90081F1234F690092712351E46
:1012290090092722E4FBFA7902F89008E51234F6CE
:1012390012340A900548EEF0A3EFF09008E5123455
:10124900F6ED5401FDE4FCFBFAF9F8C30234BF746E
:10125900FF7F00FEFDFCAB31AA30A92FA82EC302E7
:1012690034BFE5142402FFE43513FEE43512FDE42E
:101279003511FCE47B14FAF9F812337FAB10AA0F8D
:10128900A90EA80DC30234BF9005777402F0A3E438
:10129900F07B017A09792B22FCC3AB18AA17A9168E
:1012A900A8150234BF9004EEE0240AFF9004EDE093
:1012B9003400FE222DFFEE3CFE742B2FF5827409BB
:1012C9003EF583EBF0900546E004F022C283A203C9
:1012D9009282D283C283A2029282D283C283A20162
:1012E9009282D283C28322FFE50A34FFFEE50934E4
:1012F900FFFDE50834FF8F0B8E0A8D09F50822FCE6
:10130900C3AB0BAA0AA909A8080234BF1234F6EF25
:101319002401FFE43EFEE43DFDE43CFC22FEED7ABF
:10132900002FFFEA3E8F82F583E493FF75F020ECEE
:10133900A42DF582E435F0F583E582242BF582E5C9
:10134900833409F583EFF090055DE004F022FE7423
:10135900A32FF582E43404F58322F0900912E025E5
:10136900E025E0FF9008E4E0C454F04F900904F050
:10137900900913E075F008A490090CF0900914E0A5
:1013890075F008A490090DF022900919E47B14FA6C
:10139900F9F81234F602340AFCEF24FFFFEE34FFA9
:1013A900FEED34FFFDEC34FFFCE4FBFA7902F82290
:1013B900900557FFE0FCA3E0FDC39FEC9E22900837
:1013C9009CE0FFE4FCFDFEFB7A10F9F812337FE4A0
:1013D9007B10FAF9F81286A0EF2401FBE43EFAE447
:1013E9003DF9E43CF89005572290054AE0FCA3E05A
:1013F900FDA3E0FEA3E0FFC322900539E024FEFF30
:10140900EF540F2401FFE433FEC3900542E09F909F
:101419000541E022EFFD7C002400FFEC34EC8F82D3
:10142900F583E493FB7E00900544E0540F78052290
:101439003EF583E0FFE4FCFDFE12349C8F318E30D3
:101449008D2F8C2E22A3E0FD1292DB7F0A7E0012E3
:101459008DDAA3E0FD229008A11234F6EF24D0FF23
:10146900EE34FBFEED3401FDE43C222518FFE517BF
:101479003402FEE43516FDE43515FC90081F1235DB
:1014890012123371AB2CAA2BA92AA829C30234BF83
:1014990090055CE0252DFFE433FEEF7805229005E9
:1014A90039E024FEFF900538E034FFC4F854F0C851
:1014B90068FEEFC4540F482278081234E3A804A93F
:1014C90005AA06AB0722C3AB1CAA1BA91AA81902B5
:1014D90034BF7902FBFAF802337F90081F1234F601
:1014E9008F0B8E0A8D098C08E4751401F513F5121A
:1014F900F51122FDFB7A02F9F802337FED25E0248C
:10150900B8F582E43408F583E0FAA3E022E4FEFDAD
:10151900FCAB14AA13A912A811C30234BFC2837F5A
:10152900047E0002909C900807E0FFA3E090089FCA
:10153900CFF0A3EFF022900B40E0FEA3E0FF7C0088
:101549007D0A0232F99009151234F68F1C8E1B8D13
:101559001A8C1922FE742C2DF58274093CF583E04E
:10156900FDED22E4900557F0A3F022E47B32FAF96D
:10157900F8AF14AE13AD12AC1102340A7B017A052F
:10158900793DAF0BAE0AAD09AC08221234F68F18BB
:101599008E178D1622FFE53AFDC374049DFDE49470
:1015A90000FC740E2DF58274083CF583E0228F143B
:1015B9008E138D12F51122AF18AE17AD16AC152288
:1015C900900539E024FFFF900538E034FF22128AA4
:1015D9002CE50B2510FFE50A350FFEE509350EFD53
:1015E900E508350DFC22E4F51CF51BF51AF519F58E
:1015F90018F517F516F51522FEFDFC9008091235A8
:1016090012C30234BFFFE4350AFEE43509FDE435AF
:10161900082290081F1234F6EF2510FFEE350FFE51
:10162900ED350EFDEC350D22FF7E00EF540F7805E8
:101639002225E0FF24A2F582E43404F58322E5386B
:101649002496FFE5373415FEE53634FFFDE53534DC
:10165900FFFC22E52D75F020A4FFE5F0900559F077
:10166900A3EFF022FA7B10F9F802340A900539E069
:101679009FFF900538E09E229009150234F69008E4
:101689001F1234F6AB0BAA0AA909A808D30234BF62
:10169900FFE0FAA3E0FB242BF58274093AF583EF06
:1016A900F022E4FCFDFE90080902351E35F0A80180
:1016B900FC7D017B017A0879147E007F0A22EF24E0
:1016C900FFFFEE34FF22900559E0FCA3E0FD242B37
:1016D9002290053874FFF5F002334E900543E0C4BB
:1016E900F854F0C868FEA3E0C4540F4822EF251C43
:1016F900FFEE351BFEED351AFDEC3519FC22C3133F
:10170900F582758300023286900807E0FFA3E09016
:1017190008A5CFF0A3EFF02274102538F582E43440
:1017290005F5832274112538F582E43405F5832201
:10173900C3900541E0940222900548E0FFA3E090A0
:10174900054CCFF0A3EFF022C43354E0FF9008001A
:10175900E04F900905F022E55054F0FF131313549C
:101769001F900908F022D23890089E74FFF022E0F9
:101779009000021232C5900003E40232C574FF756D
:10178900F0E09004ED02334E74089008FFF09009E0
:101799000122758A10758CAAD28C22AF1CAE1BADA2
:1017A9001AAC1922E0FEA3E0FF900807E0FCA3E0D1
:1017B900FD22E09000010232C5FC7B007A00790D20
:1017C900E4F0A37404F022F0A3F0E5399089E993D9
:1017D9002290055AE02400FF900559E034EC22FFDD
:1017E900900565023567C4F8540FC868FFEEC45404
:1017F900F048FE2274EE9004EDF0A3E4F022900587
:1018090046E0FDC394202290054AEEF0A3EFF022B2
:1018190075D4FF75D5C075D6FF75DFC022FFE435D5
:1018290013FEE43512FDE43511229004A1E06402AF
:1018390022E53904FF127D68053922742B2FF582C0
:1018490074093EF583EDF02290056C7402F0A3E46F
:10185900F0222DFFEE3CFE740B2FF5827409221B3A
:10186900C3EB64809480221AC3EA648094802212B4
:10187900337F8F2C8E2B8D2A8C29229004A1F0FD89
:101889007FFF1292DBE42275F00DA4FFAEF0227EF9
:10189900007F0D023247900559E0FEA3E022C39074
:1018A9000557E0940222E4900541F0A3F022C28298
:1018B90012909CD28202909CE0FFC3740A9FFFE4BD
:1018C90094002213135401F54AE4FDAF4A2290050E
:1018D90055F0A3EFF022E42544FFE43543FEE54249
:1018E900229008FFF07F0122C28DC28CE490081E6D
:1018F900F0227E007D007B0102359F90090A744722
:10190900F022AC00AD01AE02AF03E422E47B14FA8D
:10191900F9F8223EA801FC7D0122052DE52D641070
:10192900228F82F583E49322C37410952DFF22AB95
:1019390034AA35A93622E0FF129309EF22FF900558
:1019490038EF540F240122242BF974093EFA7B0144
:01195900226B
:0A93670043868375A904E4F5B222E1
:0793710043B20343A90222ED
:10917400E4F5C775B03F75A0F5F59075808E75A4BC
:089184001075A508121819224C
:108FAA0075C7FF75B03F75A0FD7590F07580EF75B8
:108FBA00A45075A5EC75A60275A7C275AEFF121866
:028FCA0019226A
:03000B0002741A62
:10741A00C0E0C0F0C083C082C0D075D000C000C038
:10742A0001C002C003C004C005C006C007C28DC2A5
:10743A008C30184A900B3FE004F090090AE0644748
:10744A0060047D4780027D437F0C1269927D027F32
:10745A000A1269927F5E7E01128DDA90090AE4F0BF
:10746A007F0C1292EB900908E4F07F0A1292EB90DB
:10747A00081EE4F01218EA1292EBC23BC292D0073D
:10748A00D006D005D004D003D002D001D000D0D08D
:09749A00D082D083D0F0D0E032A2
:03001B000280065A
:10800600C0E0C0F0C083C082C0D075D000C000C040
:1080160006C007C28F900923121148900925121134
:1080260048758BAF758D3C900923E0FEA3E0FF6495
:108036000A4E7002D23EEF64D24E700AC2AB90096D
:108046002374FFF0A3F0303602D222D007D006D038
:0C80560000D0D0D082D083D0F0D0E03237
:03007300028323E2
:10832300C0E0C0F0C083C082C0D075D000C000E5FB
:108333009130E62C5391BF9008071211489008A77B
:10834300121148D3900808E09484900807E0941E23
:10835300400EE4F0A3F0050CE50CB43C03750C00EF
:10836300303602D222D000D0D0D082D083D0F0D009
:02837300E032F6
:0C9090001392827F047E0012909CD28319
:10909C00E4FDFCC3ED9FEC9E50070DBD00010C8060
:0190AC00F2D1
:0190AD0022A0
:078DD3001292DB7F0A7E0013
:108DDA00E4FDFC75FEFFE4FBFAC3EB9FEA9E500735
:108DEA000BBB00010A80F20DBD00010CBC01E4BD01
:028DFA002CE16A
:018DFC002254
:02709100A9074D
:1070930075FEFFA2AF9241C2AF2018427B03C283A9
:1070A300E9A803088002C313D8FC139282D2831287
:1070B300186850EAC283D282D283C283D283C28247
:1070C300D282C283A282E43312116925E0FFA28235
:1070D300E4334F121169D283A24192AFFF2243A43A
:1070E3000C7B03121526E9A803088002C313D8FCFE
:1070F30012909012186850EB121526D282129097B4
:10710300C2831290971218B753A4FB7B071215265C
:10711300EA25E0FFA282E4334FFA7F04129097122C
:10712300186850E9121526D28353A4F3A24192AFF3
:03713300AF022286
:0F92EB0074FE2FF582E43408F583E0FD026992EA
:02699200AB0751
:1069940075FEFFA2AF9242C2AF8D20C28320183F82
:1069A400C283A2071212E9A2061212E9A205121268
:1069B400E9A2049282D2831212D5A2009282D283D7
:1069C4008B201212D5A2001212E9C282D283C28392
:1069D400D282D283C282D282C283D283026A4F43DA
:1069E400A40CE520C4540FF97A03C283E9A8020871
:1069F4008002C313D8FC12909012187050EC7A03E2
:106A0400C283E520A802088002C313D8FC12909028
:106A140012187050EB7A03C283EBA802088002C3F9
:106A240013D8FC12909012187050EC121526C282E2
:106A3400129097C28312909CD2821290971218B728
:0F6A4400C28312909775FEFF53A4F3A24292AF44
:016A53002220
:108062009008FE74BFF02033089009007409F08074
:1080720005E4900900F01217917430F0900823E0A3
:10808200FFC394045006EF04F5298003752907E520
:108092002925E0FF9004A2E04F900903F0E52912A0
:1080A2001751900806E0900906121363129284C2D7
:0B80B200931218F112918CC284C21AC4
:0180BD0022A0
:107B4F00D2937F017E00128DDA12918C1218F1D22E
:107B5F0084D21A9008FE30110574EFF0800374FF81
:107B6F00F020330E9009007409F0900903749DF012
:107B7F00800BE4900900F0900903749CF0740E12CE
:107B8F0017937438F0900823E01217519008E2E031
:107B9F00900906F09008FDE0900908F090090FE0B9
:0B7BAF00444090090712136302928407
:10928400E4F536AF361292EB0536E536C39410405A
:01929400F2E7
:0192950022B6
:1090AE007F107A0879FE1218FB9008FE7489F090F2
:0E90BE0009097480F090090B7418F002928476
:1090EA009008FE7489F0E4FF1292EBE41218EA1277
:0D90FA0092EB900903744CF07F050292EB9D
:107CF9008F2B203761E52BD3940B505AD237E49060
:107D090008A7F0A3F0900903E0440E54FEF07F05A4
:107D19001292EB201A0890090074A0F080199009BA
:107D2900007460F09008FDE0D3940A400A900908B5
:107D3900740AF0FF1292EB7F021292EB9009017420
:107D490001F07F031292EBE52B9089BB9390090A0E
:077D5900F07F0C1292EB22F7
:1072650030A002D29330A0067FD07E0780047F0134
:107275007E00128DDA7D617F0B12699230A0067F48
:10728500E87E0380047F017E00128DDA7D417F0B4D
:1072950012699230A0077FB87E0B128DDA7F021239
:1072A5007091EFC3941450089008237407F0801967
:1072B500EFD3943B4003E4800C74EC2F75F0058408
:1072C500FFC374079F900823F0C293900823E0D36F
:1072D50094029008004010740BF09008E47405F0D7
:1072E5009009127403F0227411F09008E47402F00E
:0572F50090091214F0E5
:0172FA002271
:0274A3008F2A2E
:1074A5009008FFE0900542F09008FF7482F0A3E099
:1074B500900543F09009003011057460F080037465
:1074C50040F0E52A90090A70057422F08003742EB5
:1074D500F01217601292847F2C7E01128DDA9008CB
:1074E500FF7406F07F011292EBE52AB401067FF4E2
:1074F5007E0180047FD07E07128DDAE490090AF0C0
:107505007F0C1292EBE4900908F07F0A1292EB903F
:107515000542E01218EA1292EB900543E09009004B
:06752500F07F020292EB70
:03000300024ECEDC
:104ECE00C0E0C0F0C083C082C0D075D000C000C0AA
:0D4EDE0001C002C003C004C005C006C0072B
:104EEB00E4FF12709190053AEFF0301820C390094F
:104EFB0024E09403900923E094005003025044D221
:104F0B008612918C900923E4F0A37403F020A20382
:104F1B0002504430930302504490053AE0C394800E
:104F2B00500302504490081EE070359008FF7482C5
:104F3B00F07F011292EB9009007440F07F02129205
:104F4B00EB90090874C3F07F0A1292EB301803122E
:104F5B00179B90081E7401F090053BE4F00250443F
:104F6B0090081EE06401704F90090874CFF0900810
:104F7B00FF7406F0208716D284308704E4F0800992
:104F8B0030180690090874D1F0C2848009301806D5
:104F9B0090090874D9F07F0A1292EB7F011292EB01
:104FAB001219047F0C1292EB30180312179B900806
:104FBB001E7402F002504490053BE0FF700A121978
:104FCB000475FEFFD292805FEFB40207121904C280
:104FDB00928054EFB4040A90090A7443F0D2928081
:104FEB0046EFB4062090090A7443F0C2929004D2A3
:104FFB00E4F0301832E5576417602C900498740174
:10500B00F0C210802230181FEFB4071B900922301A
:10501B003B04E4F08003E004F0900498E07008E5B2
:10502B0057B417037402F012179B90053BE004F082
:09503B00E05407F07F0C1292EB27
:10504400D007D006D005D004D003D002D001D000C0
:0B505400D0D0D082D083D0F0D0E0326A
:1091A30075B48B75B5FF75D21075E50D75AC437548
:0691B300E70275F702223D
:0300830002492E01
:10492E00C0E0C0F0C083C082C0D075D000C000C04F
:10493E0001C002C003C004C005C006C007E5D254C2
:10494E00C060031291A3E5D220E003024AEC53D2D9
:10495E00FE9008E3E5D3F02038030249E9E0FFB406
:10496E00552290089EE0645460067454F0024AEC9E
:10497E0090089EEFF0E51424011218261215B7C206
:10498E0038024AEC9008E3E0FFB4662490089EE0FB
:10499E00646560067465F0024AEC90089EEFF09034
:1049AE0008B41213159008B412351EC238024AEC20
:1049BE009008E3E0FFB4771D90089EE064766006F1
:1049CE007476F0024AEC90089EEFF0C23890089D83
:1049DE00E4F0024AEC121771024AEC90089EE06471
:1049EE0066704C1218337045203C429008E3E090FC
:1049FE0009101216999009191213159009191235EA
:104A0E001EC3EB94FFEA9401400D12139212190B80
:104A1E001212507002D23C900910121148121392C9
:104A2E0012190B1212506003024AEC802680249059
:104A3E00089EE064776003024AEC90089DE0FF70E8
:104A4E001A9008E3E0FE7480D39E500F9008AFEEEC
:104A5E00F0C215121771D238024AECEF70192039D4
:104A6E00169008E3E0FF90089DE0240EF582E434F2
:104A7E0008F583EFF0803D20353A90089DE0D39401
:104A8E000B4009740BF0A374FFF0D23890089DE030
:104A9E00FFB4010F9008E3E0FE90080FE06E600394
:104AAE00750C009008E3E0FE740E2FF582E43408D6
:104ABE00F583EEF090089DE004F090080EE0FF24E0
:104ACE0001FDE433FC90089DE0B50512E4B5040E3B
:104ADE00A374FFF0D238EFB40B02D239D22BE5D249
:104AEE0030E10353D2FD303602D222D007D006D0A9
:104AFE0005D004D003D002D001D000D0D0D082D0C7
:064B0E0083D0F0D0E0327C
:1092DB008FD38DD3BD0B02D2157FF47E0102909CF0
:1046FE00E490053DF0203C030248CB121711E5571C
:10470E00B40A25E42518FBE5173402FAE43516F948
:10471E00E43515F812145FFCD31234BF500302486F
:10472E0030C23CD2277F0122E55764187036E5551A
:10473E0054F07012F52C752BDD752A6DF5291214B7
:10474E0074502102482BE55554F0C4540FFFE4FC7D
:10475E00FDFE7B607AEAF9F8121878E412147450B0
:10476E000302482B7F007EFD7DFF7C00900919120D
:10477E003512D31234BF400302482B1215C0121447
:10478E00CF500302481C1216811212A24003024897
:10479E001C1213B21215C012340A1213181213B2CD
:1047AE00121878C3E52C9518FFE52B9517FEE52A10
:1047BE009516FDE5299515FCE47B607AEAF9F8D3A8
:1047CE001234BF405DAF2CAE2BAD2AAC2912492757
:1047DE00121192EF252CFFEE352BFEED352AFDEC56
:1047EE003529FCD31214D05039121681A819C312D0
:1047FE0034BF40081215EF90053D04F01217A412B5
:10480E0049271211921216F61287A4BF0105C23C57
:10481E007F0222128CF090053DE0B40105C23C7F70
:10482E0001221215C0128BCDEF1215C07002804CF2
:10483E00753F0112798E1216AB900919123512C0FE
:10484E0000C001C002C00312119C12191512340AC5
:10485E0012191512337FD003D002D001D0001233BB
:10486E0064900919121199E5182FFFE5173EFEE520
:10487E00163DFDE5153C121597F515FC12129A9092
:10488E000579121854126FE7E42518FFE517340264
:10489E00FEE43516FDE43515121597F51590091041
:1048AE00E05401F0E0FEA3E0FF782B7C097D017B54
:1048BE00017A0B792B123247C23C7F032212183336
:1048CE00704D9008A51217ADD39FEC9E4011ED9F31
:1048DE00FFEC9EFED3EF94C0EE94124032802690F1
:1048EE000808E02484FF900807E0341EFE9008A517
:1048FE00E0FCA3E0FDC3EF9DFFEE9CFED3EF94C062
:10490E00EE9412400A7D027FFF1292DB1217117D88
:08491E0001E4FF1266767F0040
:0849260022753F0112798E2277
:1040070090089EE06455600302425912152F9004F0
:10401700CCE0B403037F0022E4FF121517700612E9
:10402700176F7F0222E4FFFEFDFC12128570037FEB
:104037000122202C030240E3E47FC8FEFD1213088F
:1040470050030240DBE50B244C1212F0FCE4F53F71
:1040570012798E1216ABE4FF121601605112119CF1
:1040670090055312351E9005531234F6D312130AD6
:104077004039900553123512C3E50B9BFFE50A9AA9
:10408700FEE50999FDE508981212FF9005531213F2
:1040970095C3E5149FFFE5139EFEE5129DFDE5110F
:1040A7009C1215B7121687500580001214E31216DA
:1040B700875002801F7F0A121516401BE51424F64D
:1040C700FFE51334FFFEE51234FFFDE51134FF125F
:1040D70015B780031214E3C22C0241872013030291
:1040E700418CE514240112126F50037F0122E50B66
:1040F70024DC12160E1212FF12161B12130840743C
:10410700E50B24381212F09005517401F090055117
:10411700E075F014A4FFEF250BFBE5F0350AFAE490
:104127003509F9E43508F812161BFCC31234BF50E1
:1041370008900551E004F080D49005511218C1FE93
:104147007C007D141232E7C3E50B9FFFE50A9EFE54
:10415700E5099400FDE50894001212FF1218C1FA50
:10416700C3E5149FFFE5139AFEE5129400FDE511E0
:1041770094008007E514240A1218261215B7C213F3
:10418700128B9B801912126B50037F01227F011241
:104197001516600AE50B241412160E1212FFE5D24B
:1041A70030E5FB75D35512158B128BCD900552EF69
:1041B700F0E50B241312160EFC128BCD900552E07E
:1041C7002FF0E07011121585900577F0A37414F0A5
:1041D7001272FB02422712158590055EE4F0A37464
:1041E70014F0126A5412119CE50B2FFFE50A3EFEEC
:1041F700E5093DFDE5083C1212FF12119C12191545
:1042070012340A121318E5142FFFE5133EFEE512C8
:104217003DFDE5113C1215B712126B50037F0122C9
:10422700E4900551F0E5D230E5FB900551E0FF043D
:10423700F0743D2FF582E43405F583E0F5D390055E
:1042470051E0C3941440DEE4FDFF12667612176F47
:10425700802F90089F1217ADC39FFFEC9EFED3EFF0
:104267009440EE9406401AD3ED94C8EC94004011A4
:104277009004A1E0B4030A7D037FFF1292DB1215BD
:034287002F7F0086
:01428A002211
:1091CF00301807E4F5CDF5CC800675CDC375CC55B9
:0591DF00C2CFD2CA223C
:05000600C2CAC2CF22B6
:107733007D017F01127C259008FF741EF030111823
:107743009008FE74FDF09009017480F0E4A3F090BA
:107753000900F0900903802330340F121791E0449D
:1077630080F09009067401F080159008FE74F9F01A
:10777300E4900900F0A3F0A304F0A3E054FEF01298
:1077830017601292847D037FFF1292DB9004A17431
:1077930003F012152FE4FBFD7F1B128C909004CC99
:0A77A3007401F0E4F5141214F5224D
:108C60009004A1E064037027E4FD7F01127C2520BD
:108C7000340F1290EA900902E054FEF07F04129241
:108C8000EB7406121884F5141214F59004CCF0223B
:108A2C007B007A00790DE41232B39004F81217BB74
:108A3C009004F91217787A0079089004F5E0123254
:108A4C00B39004F61217BB9004F712177812158B1B
:068A5C0090081F02351E08
:026410008F2CCF
:10641200E557B40A1A1293189008A11234F68F0B9A
:106422008E0A8D098C0890081F12351E0264BAE587
:106432002CB40107AF53AE52126F3B128A2C900458
:10644200F2E0C413135403F52DE4FB7D047F041220
:106452008C90E4FB7D047F0E128C90E52D70087BFE
:10646200017D047F04800BE52DB401097B017D04CD
:106472007F0E128C909004F2E0FFA3E0FDA3E0FBFC
:1064820012789F7B017D027F1F128C907B017D031E
:106492007F12128C90AF53AE5212858A128F177BE5
:1064A200017A0479FA1279177B017A057910E4F5F9
:1064B20038AD4F7F011271CEAF10AE0FAD0EAC0DE5
:1064C2007B007AFF79FF7800D31234BF5009E4F5DC
:0C64D20010F50FF50EF50DC22502912407
:10428B0012183370030244BA303109E557640A60DF
:10429B00030244BA900538E0FAA3E0FBC394E1EAC9
:1042AB00942E4009E557640A60030244BAE490096E
:1042BB0010F0A3F090091912352A00000000E55701
:1042CB00640A601AD3EB9410EA9400400B1215C9E0
:1042DB00EF540F70031285D0900537E004F0E557CB
:1042EB00640A600BE55764146005E557B4182CE5B8
:1042FB00579008FEB4181074FBF0A3741EF0E4A3DF
:10430B00F0A37420F0800B74F9F0A37418F0A3746D
:10431B0008F090090374DCF01292847D01E4FF1223
:10432B007C25C23A7D027FFF1292DB9004A17402BE
:10433B00F0900807E0FAA3E0FB9008A5EAF0A3EBE6
:10434B00F0E557B40A141215C09008A912351E9047
:10435B0008A11215948C1502449B9008ADEAF0A3AA
:10436B00EBF0900538E0FD9004EDE0FEA3E0FF12CA
:10437B0090319004EEE024011212B4900538A3E0C2
:10438B00FD1290319008121244BB9004D2E075F0EC
:10439B0040A444304534F5339004EEE0240212126D
:1043AB00B4AD331290319008111244BBE534333362
:1043BB003354F8F5339008101244C3E534131354F7
:1043CB003F42339004EEE024031212B4AD3312904B
:1043DB0031E534C4333354C0F53390080F1244C362
:1043EB00E53442339004EEE024041212B4AD3312E0
:1043FB009031900813E0FF1293098F349004EEE094
:10440B0024181212B4AD34129031E50CD3943B4006
:10441B0003750C3B9004EEE024191212B4AD0C1290
:10442B0090319004D2E07027F5351212AE7C00EF7C
:10443B002535FFEC3EFE74142535F582E43408F582
:10444B0083E0FD1290310535E535C3940A40DB90CE
:10445B0004EEE024051212B47B007A007915753F47
:10446B0003128ACD90049C12131590049C12351ED6
:10447B00D2149004EEE024141212B47B017A047966
:10448B009C753F04128ACD90049C1234F6128E5107
:10449B00C225129124E5576414600BE557640A603A
:0F44AB0005E557B41809900925E4F0A37495F0BE
:1044BA0022E0FF1293098F3422E0FF1293098F340E
:0144CA0022CF
:10680A0012183360030268CEE4FDFF127C2574057A
:10681A00121884FB7A02F9F890091912139BE412F0
:10682A0014FD8F108E0F8D0E8C0D90091912352ABA
:10683A0000000000E4900910F0A3F0E557B40A1E26
:10684A001290EA12145F121597F51590057912172E
:10685A00C2126FE79008A91215948C15805E9004F5
:10686A00EEE024081212B47B007A00790E753F021A
:10687A00128ACD9004D2E064017034F534E53425EF
:10688A00E02410121725E0C454F0FFE53425E02473
:10689A0011121731E04FFD1212AEE5347A002FFFC4
:1068AA00EA3EFE1290310534E534C3940A40CE9094
:1068BA000538121148E475F02012178BE557640168
:0468CA006002C22581
:0168CE0022A7
:0486E4008E368F3708
:1086E800E4F53BF53AF539F538F53C753D00753E4E
:1086F80038FFEF7C002537FDEC35368D82F583E4B5
:1087080093AB3CAA3DA93E8F827583001232C50FF8
:0B871800BF04DFAF3BAE3AAD39AC3818
:018723002233
:0A8ACD008E3A8F3B8B3C8A3D893EB8
:108AD700E4F540E540C3953F501F7E00E53B254048
:108AE700FFEE353AFEAB3CAA3DA93E854082121700
:098AF7000BFD129031054080DAFC
:018B00002252
:10918C00301813E4900923F0A3F0C23E758BAF7531
:07919C008D3CD2ABD28E2204
:107BBA009004CDE0641E702FF533E533121890243B
:107BCA001FF974033EFA7B01C00174122FF9740382
:107BDA0012191CD0011218980533E533B41DDB9035
:107BEA0004E8741EF0800C9004E8E004F09004CDE0
:107BFA00E004F09004E8E075F00DA42405F974039C
:107C0A0035F0FA7B011288D39004E8E075F00DA4F0
:0B7C1A002408F974031216B50232476B
:1077AD009004C5E0641E702FF533E5331218902454
:1077BD0094F974013EFA7B01C00174872FF97401AD
:1077CD0012191CD0011218980533E533B41DDB9046
:1077DD0004D1741EF0800C9004D1E004F09004C527
:1077ED00E004F09004CBE0C3941E5003E004F0904D
:1077FD0004D1E075F00DA4247AF9740135F0FA7B0B
:10780D00011288D39004D1E075F00DA4247DF97494
:0A781D00011216B51232470292FA6A
:1076B500E54F60799004C4E0641E702FF533E5331F
:1076C500121890240EF974003EFA7B01C001740172
:1076D5002FF9740012191CD0011218980533E533DF
:1076E500B41DDB9004D0741EF0800C9004D0E0042F
:1076F500F09004C4E004F09004D0E075F00DA424EB
:10770500F4F974FF35F0FA7B011288D39004D0E0C8
:1077150075F00DA424F7F974FF35F0FA7B01C00369
:0D7725008B37753805753910D00312876455
:017732002234
:067917008B338A34893530
:10791D00E4F54FF537E53725E0F538AB33AA34A953
:10792D003585378212170BF536C4540FFF12172108
:10793D00EFF0121721E0B40F19E54F7015E5377010
:10794D000EFE7F147D0F7B017A05791002359F8520
:10795D00384FE536540FFF12172DEFF012172DE0AB
:10796D00B40F09E54F7005E53804F54FE537B40957
:10797D0007E54F7003754F140537E537640A7095A9
:01798D0022D7
:108F6300C285D2367B017D037F801284B07B017D75
:108F7300097F011284B07B017D097F031284B0C293
:048F830036D285223B
:1083C7008F347F207A0479A31218FBC22DC20DE5E2
:1083D70050131218CC1276367F0412840F7F0812BE
:1083E700840F12608D7B017D037F18128C9012150C
:1083F700C9FE12858AE534B40103128724E55012B9
:1084070018CC1281720284657B017D03128C902245
:10846500A2A89242A2A99243C2A8C2A9D236C285A5
:108475007B017D037FA01284B07B017D06E4FF12A2
:1084850084B0E4F53B74A3253B12135BE0FFE4FBEA
:108495007D081284B0053BE53BC3942040E7D285B7
:0A84A500C236A24292A8A24392A997
:0184AF0022AA
:0684B0008D3CAA07A903A0
:1084B600E4FBEBC3953C5039C280EA30E703E97030
:1084C60007EA30E007E97004D2948002C2947F0282
:1084D6007E0012909C75FEFFD280E96006EA25E0D8
:1084E600FA8004EAC313FA7F027E0012909C0B8086
:0384F600C1D2945C
:0184F9002260
:087D6000540F75F00A84ADF028
:107D6800D22BED9089C793FEEFC3940D5023EF12E9
:107D7800163AE0540FFDEEC454F04DFD74A22F12D4
:107D8800163FEDF0EE25E054E0121357E0541F8043
:107D980027EFC394195027EF24F412163AE054F051
:107DA800FDEE540F4DFD74A22F12163FEDF0EEC4F8
:0E7DB8005407121357E054F84E121357EEF012
:017DC600229A
:108C9000D22BBB01127401A805088002C333D8FC93
:108CA000121357E04E8013AE057401A80608800227
:108CB000C333D8FCF4121357E05E121357EEF022C0
:10608D00202A26E4F53AE53A25E0240D12159EFE68
:10609D00C4127D60E53A25E0240E12159E127D6036
:1060AD00053AE53AC3940440DD9004C17403F0E46D
:1060BD00F539753A0112114F1214C6AF3AE4FCFDD1
:1060CD00FE12337F8F388E378D368C35E53AB40A14
:1060DD000B1216818F388E378D368C35121647E49C
:1060ED00F53F12798E1216ABE47FFF121601700A7E
:1060FD0090080912352A0000000012119C1214C6D6
:10610D001216471233711287A4EF2539F539053A66
:10611D00E53AD3940A409EC3900539E094E1900589
:10612D0038E0942E400375390AE539C39403500DB8
:10613D00E49004BF1217D09004C1F08026E539C356
:10614D0094075013E49004BFF09004C1740F12171C
:10615D00D29004C0F0800C9004C0740F1217D09030
:08616D0004BFF0128465C22B8F
:016175002207
:10858A00900542EEF0A3EFF0D3940FEE9427401239
:10859A00D226900542E0FFA3E090049ACFF0A3EF21
:1085AA00F022C226900542E0FCA3E0FDD394E7EC5A
:1085BA00940340047F15800A900542E0FCA3E0FD85
:0685CA007F1612837522EA
:068375008C358D36AB07CC
:10837B00EBD3941540077D0F7F15127D68C3E5364F
:10838B0094E8E535940350067537031B8003753766
:10839B0004E4FAEAC395375022EB2403C39AFFC0D7
:1083AB0007AE35AF36121547D007127D68AE35AF25
:0B83BB00361215478E358F360A80D829
:0183C6002294
:108DFD008F29AB05AA047C007D0AAF03AE021232A7
:108E0D00F9AD07AF29127D68E52904FFC007AE0251
:0A8E1D00AF03121547D007027D686D
:0271CE00AC050E
:1071D000BF0113E54F700FF5397D1C12183AE539E0
:1071E000C3940C40F422ECC3940C5015E4F539C35D
:1071F000740C9CFFE539C39F50077D0F12183A802D
:10720000EEECD3940C400A753B0CEC24F4F53C8076
:10721000058C3BE4F53CE4F539E539C3953B504436
:10722000E53864017016E53920E008253C1217079F
:10723000C48016E53C2539121707800DE539253C39
:10724000F582E433F583123286540FF53AE53A6459
:107250000F6011C3740D953B2539FFAD3A127D685F
:04726000053980B5B7
:017264002207
:108724007B017D03E4FF128C900D7F10128C9090DE
:1087340004CBE0FD7C007F01128375900537E0FDDA
:108744007C007F061283753012157D197F0A127D15
:10875400687D177F0B127D687D0D7F0C127D68226A
:1092960030150E7D0C7FFF1292DBC215E49008AFED
:0292A600F022B4
:1090CC0090080FE0FD7FFE128DD37FFD12144E7FB2
:0E90DC00FC128DD37FFB12144E7FFA0292DB42
:1085D000E4FFFEE42F1211C71218440FBF00010E72
:1085E000E4B507EFEEB402EB90053812113C121619
:1085F0006D1216C7FEED34FFFDEC34FFFC1211AB1B
:1086000012129A121851126DDC7F007EEC128A98B9
:0586100074EC1217FFDD
:018615002242
:0626570090054F12351E34
:10265D00E4900553F0A3F0A3F0A3F012114F9005F1
:10266D004F1211B790056012351E12153F791212D7
:10267D00116090054F1216077009121681900560B2
:10268D0012351EE490055FF012156D1213C712116D
:10269D003CD31234A9500302279690055712113CD2
:1026AD001211AC1212911272FB90092BE0B4FF13B0
:1026BD00900557E07002A3E0700990055F7402F079
:1026CD00022796E4F52D12165C12189F2430F58220
:1026DD0074093EF583E0FFE48F31F530F52FF52ECB
:1026ED00AE30AD2FAC2E1214C112189F2431F582CD
:1026FD0074091214391214C112189F2432F5827400
:10270D000912143978081234E31214451212587054
:10271D000990055F7403F002278290054F1234F67D
:10272D0012125F400E1216CF1211DD12155DFFEE63
:10273D001218D79005601234F612125F402F121640
:10274D00CF1211DD12155DFF900553EEF0A3EFF0E2
:10275D0090055712113C1211AC90055912113412FB
:10276D00336412144590055F7401F080081219232B
:10277D0060030226D390055FE0FF6401600BEF64F8
:10278D0003600612114502269890055FE0700374F0
:10279D0003F090055FE0FF64026005EF640370775E
:1027AD00E4F52DE52D75F020A4FFAEF0EE121665C3
:1027BD002405FFEE34EC8F82F58312350212144599
:1027CD00E52E7531008E308D2FF52E121258604783
:1027DD0090054F1234F612125F400E1217DA1219CD
:1027ED002AFF740193CF1218D79005601234F61298
:1027FD00125F401E1217DAFE12192AFD7401939012
:10280D000553CDF0A3EDF0E48F318E30F52FF52E7D
:10281D008005121923708C900553E07002A3E060BF
:10282D00030228E0900555E07002A3E07026121512
:10283D006D121119D31234BF401790055712113C68
:10284D001214DB90054F1211B7128B6812114580CF
:10285D00E0022C58900556E02401FF900555E03418
:10286D0000FE900553F0A3EFF0D3900539E09F9053
:10287D000538E09E405D900553E0FEA3E0FF128D0C
:10288D001F90055FEFF064017049900553E0FEA3C2
:10289D00E0FF1216C7FEE434FFFDE434FFFCE41242
:1028AD00166D1211ABC004C005C006C007900554CB
:1028BD00E024FFFF900553121632C333CE33CED82A
:1028CD00F9FFE4FCFDD003D002D001D00012336437
:1028DD00121445C3900554E09402900553E0940002
:1028ED00502612156C121119D31234BF40179005D2
:1028FD005712113C1214DB90054F1211B7128B6851
:10290D0012114580E0022C589005381213FB9005EA
:10291D0054E09F900553E09E4005E4FF025CC3E444
:10292D0090055EF0A3E064016003022B4B90092734
:10293D001234F612894712156C1213C712113CD3BB
:10294D001234A95003022A4990055712113C121452
:10295D00FDEF2531FFEE3530FEED352FFDEC352E3B
:10296D00FC1212911272FBE4F52D12165C1216CFA9
:10297D001211DD12155DAC06F47002ECF4703A9094
:10298D0004EEE02400FF9004EDE03414FEEF780532
:10299D00CEC313CE13D8F990055BF0252DFFE4338C
:1029AD00FED3EF9410EE6480948090055E40057424
:1029BD0001F080307402F0802B9005531213FBED63
:1029CD009FFFEC9ECF2401FDE43FFC9005591216AC
:1029DD0099AF05742C2BF58274093AF583EFF0123B
:1029ED001923708690055EE06401702490055CF0FB
:1029FD0012193190055CE0FDC39F5014AF2D128468
:102A0D00FA121499C333CE33CED8F9122CA180E02B
:102A1D0090055EE06402601890055712113C121487
:102A2D00FD9009271211B712129A121851126DDC6E
:102A3D0090055EE0700612114502294690055EE094
:102A4D0064016003022AE090055CF01219319005D3
:102A5D005BE0C39FFFA3E0C39F5035E4A3F0900557
:102A6D005DE0FDC39420502290055CE0FCC3952DE4
:102A7D00FFE49400FEEF7805C333CE33CED8F924AE
:102A8D0000FFEE34EE12132680D4122C5F022A586A
:032A9D0012156CA3
:062AA0001211BD122CBC56
:102AA6001211451218A740F2122C83121931E49420
:102AB60000FE90055BE0C39FFFE49EFEEF7805C332
:102AC60033CE33CED8F91213B9500C1211D3FD12EE
:102AD600903112114580D4022B3E90055EE06402CF
:102AE600705D90055CF090055BE0FFA3E0FDC39F81
:102AF6005014AF2D1284FA121499C333CE33CED8A4
:092B0600F9122CA180E0122C92BE
:062B0F001211BD122CBCE6
:102B15001211451218A740F2122C8390055B12146E
:102B25009CC333CE33CED8F91213B9500C1211D33E
:102B3500FD12903112114580E27F007EE6128A98DF
:102B4500121205022C0390055FE0FF64026008EF96
:102B550064036003022C09E490055CF090055312B0
:102B650013FB121675FE90055CE0C39FE49E503979
:102B7500E4A3F090055DE0FDC39420502690055434
:102B8500E024FFFFEF540FFF90055CE0FC2F1214CB
:102B95009FC333CE33CED8F92400FFEE34EC1213A5
:0C2BA5002680D0122C5F022B61122C92B3
:102BB1001211BD900564F0E42FFFEE34E6FE129091
:012BC10031E2
:102BC2001211451218A740E77F007EEC128A981274
:102BD200156C9005531213FB121675FEEF7805C3A0
:102BE20033CE33CED8F91213B9500C1211D3FD12D1
:102BF200903112114580DB7F007EE6128A989008A0
:102C0200021234F61289479005531213FB121675FD
:102C1200CF2401CF3400F0A3EFF024FF121631C30A
:102C220033CE33CED8F92400FFEE34EC9004EDF02D
:102C3200A3EFF012156C121119D31234BF40179082
:102C4200055712113C1214DB90054F1211B7128B6B
:0C2C52006812114580E0900560121551D9
:102C5E002290055CE075F020A4242BF9740935F060
:102C6E00FA7B01900553E0FCA3E0FD1280BE9005B7
:102C7E005CE004F0227F007EEC128A98E490055707
:102C8E00F0A3F0227F007EE6128A98E4900557F0BA
:102C9E00A3F022242BF974093EFA7B01900553E030
:102CAE00FCA3E0FD1280BE90055CE004F0229005CE
:0D2CBE0064F0E42FFFEE34E6FE12903122A8
:0784FA00900565EFF0A905F4
:10850100E4F532E975F020A42400FFE5F034ECFE37
:108511007C00EF2532FFEC3E12192AFDE9FF9005A0
:1085210065E02F12149FC333CE33CED8F9FFE53265
:108531007A002FFFEA3EFE1218440532E532B420DC
:01854100C277
:018542002216
:0680BE009005651235700B
:1080C4007534007535007536321217E912326D12A7
:1080D40019381232B31217E99000011232861219BC
:1080E400381217BCAF05C3E5339DCFE5329CCF24CE
:1080F40001F533E43FF53212326D1217E8EF123214
:10810400B31219389000011232861217E890000158
:04811400EF0232C57F
:1087A40090056F740AF07B017A057965900577E48A
:1087B400F0A3740AF01272FBE4FF74652FF582E4EF
:1087C4003405F583E0F4600F90056FE004F0E0D326
:0E87D400940D40037F01220FEFB40ADE7F00F8
:0187E2002274
:0F92FA007E007F0A7DFF7B017A08791402359F81
:0E930900EFC4540F75F00AA4FEEF540F2EFFB0
:019317002233
:108CF00012153FE4FCFD79121214DD1214CF40046A
:108D000012154E2212114FE51C2FFFE51B3EFEE50A
:0F8D10001A3DFDE5193C8F1C8E1B8D1AF519229B
:108D1F00AD07AC06900538E0FAA3E0FBD39411EA57
:108D2F00940050037F0222EB24FEFFEA1214B212CA
:0F8D3F0017EFD3ED9FEC9E50037F01227F02229E
:1088D30090081212193F1232B390081112193F3344
:1088E300333354F8FD90081012193F1313543F4DBE
:1088F3001217BCEFC4333354C0FD90080FE0FF12CE
:0A8903009309ED4F9000020232C507
:1091240020250DE49004CEF0A3F09004EBF0D225BA
:0C913400C22FC21CE4900925F0A3F02219
:108B9B0030252E1215749004CEEEF0A3EFF07B204F
:108BAB007ABF7902780012157A9004EBEFF0121568
:108BBB0074E47A0E12166EAF039004CEEAF0A3EFB4
:028BCB00F02296
:0F93180012145F1212FF9005861217C2026D2BFE
:102CCB00900538E0FEA3E0FFD39401EE940050038F
:102CDB000230FDC3E5539401E552940050030230DA
:102CEB00FDD3EF9553EE955250030230FDE4900562
:102CFB0043F0A3F0A3F01215D79008B012351EE5E0
:102D0B00536401455270089008B01234F68010E5F8
:102D1B005324FFFFE55234FFFE126F3B1215D79081
:102D2B0008E512351EAF53AE52128D1FEF640260D1
:102D3B0003022F05900538E0FEA3E0FF540F640259
:102D4B006003022DF61216C7FED3EF9410EE94001B
:102D5B005003022DF112313F1214A71216C8121490
:102D6B00119E502D12113C1211AC1212911272FBCA
:102D7B0090054112113C1214FD9009271211B790C6
:102D8B00056C121294126DDC900541121148022D44
:102D9B006390054112113C1211AC1212911272FB8D
:0A2DAB00900B0DE054DFF01230FE33
:062DB5009005411211C05F
:102DBB0012312D12114812173940EF12310D9005B7
:102DCB0041E0FCA3E0FD24001211D512316F12116A
:102DDB004812173940E8121205123161124B1412C6
:102DEB0016DA1217FD22E4FF025CC31218AFE5538B
:102DFB0024FFFFEF540FFF1214129400502BE4909A
:102E0B000546F012180750191211FBC333CE33CEFF
:102E1B00D8F91211E6C333CE33CED8F91212BD80D6
:102E2B00E290054112114880C51215C9FEEFB5534A
:102E3B0032EEB5522EE55324FE121631C333CE3388
:102E4B00CED8F9FF242DF58274093EF583E054DFCB
:102E5B00FD742D2FF58274093EF583EDF0124B14A2
:102E6B00022EBBE4900541F0E553540FA3F012146E
:102E7B00029E503CE4900546F0121807501C1211AC
:102E8B00FBC333CE33CED8F91211E6C333CE33CED8
:102E9B00D8F912185B1212C980DF1211FBC333CEA3
:102EAB0033CED8F9123150900541121148022E79C8
:092EBB001216DA1217861230FE1D
:062EC4009005411211C04F
:102ECA0012312D12114812173940EF12310D9005A7
:102EDA0039E024FE12194612149FC333CE33CED8DA
:102EEA00F99005411213BC500B1211D312316F1213
:102EFA00114880DA7F007EE6028A9812313F121466
:102F0A00A71217EF9005411213BD4003022FC6ED19
:102F1A002401FFE43CFEEFB5530DEEB552099005CE
:102F2A00457401F0022FBD900545E0FD900541E092
:102F3A00F8A3E0F5828883C39D121631C333CE33DA
:102F4A00CED8F9121950C003C002C001AF82AE83B5
:102F5A00E4FCFD7B20FA1211AF900577E4F0A3742C
:102F6A0020F0D001D002D0031272FB900545E0FF99
:102F7A00B40117C3900542E09FFF90054112163233
:102F8A00C333CE33CED8F912311C900543121148FF
:102F9A00900544E0540F701B1216E41216C8FEE4A2
:102FAA00FC1214FC9009271211B790056C121294A6
:102FBA00126DDC900541121148022F08900539E084
:102FCA00540F64027030900546F0900546E0FFC346
:102FDA009420500F12141DC333CE33CED8F91212D7
:102FEA00BD80E712142EC333CE33CED8F912311C6A
:102FFA001217FD023096E4900546F0900546E0FF70
:10300A00C39420500F12141DC333CE33CED8F912F5
:10301A0012BD80E712142EC333CE33CED8F912195B
:10302A00507D027C001280BE1216E4FFE41214FCEA
:10303A009009271211B790056C121294126DDC9048
:10304A000541E4F0A304F01214029E503CE49005FA
:10305A0046F0121807501C1211FBC333CE33CED8D8
:10306A00F91211E6C333CE33CED8F912185B121215
:10307A00C980DF1211FBC333CE33CED8F9123150D7
:10308A009005411211480230511217861212051288
:05309A0031611218AFC6
:10309F009005411211C0900547F0E42FFFEE34E682
:0430AF00FE1290314C
:1030B30090054112114812173940E17F007EEC124E
:1030C3008A981218AF900539E024FD12194612149C
:1030D3009FC333CE33CED8F9FF9005411213BD50B1
:1030E3000F1211D3FD12903190054112114880D572
:0A30F3007F007EE6128A981216DABA
:1030FD00227F007EE6128A98E4900541F0A3F0222B
:10310D007F007EEC128A98E4900541F0A3F0222412
:10311D002BF974093EFA7B017D027C001280BE22E0
:10312D00900547F0E42FFFEE34E6FE129031900546
:10313D0041229009271234F6128947E4900541F097
:10314D00A3F022240BF974093EFA7B017D027C0069
:10315D001280BE221234F61289477F007EE6128A53
:0A316D009822FD12903190054122D6
:104B14009008E51234F69008B01216074064121299
:104B24002D60069005481211481213B29008B01275
:104B3400139B1218109008B0121247600690054A91
:104B44001211481217411213F29DEE9C500B1211D0
:104B54005E124CEC12114880EDE4FFFEFD1212A12E
:104B6400700E90054812113C1214DB1215978C1527
:104B740090054812113C1214DBD31212A3407502A3
:104B84004BEA1213B29008B012139B12181090083B
:104B9400B0121247600690054A121148E490054C81
:104BA400F0A3F01213F29DEE9C500B12115E124C06
:104BB400EC12114880ED12122D6006900548121176
:104BC400481213B290091512139B121810121741B0
:104BD4001213F29DEE9C500E12115E128B6890051A
:104BE4004C12114880EA90054812113C1214DB1251
:104BF40015978C15E490054EF090054CF0A304F045
:104C04001216811212A24014E41215F8F51CF51BB9
:104C1400F51AF51990054E04F0024C8412114F1246
:104C240014C690054C12113C12337F121554900592
:104C34004CE07004A3E0640A700312154EE51C24D2
:104C4400A0FFE51B3415FEE51A34FFFDE51934FF1A
:104C54001212A1402B1217A4AB18AA17A916A81553
:104C6400D31234BF500890054E7401F080129005A1
:104C74004C12114890054CE07004A3E0640B708062
:104C840090054EE06401702C1216811214CF40037B
:104C94001215EF1217A4753F0112798E1211921298
:104CA40016F61287A490054EEFF07005128CF08072
:104CB400031292B9C3E51C9518FFE51B9517FEE591
:104CC4001A9516FDE51995158F2C8E2B8D2AF5292D
:104CD400E47F607EEAFDFCAB2CAA2BA92AA829D389
:074CE4001234BF4002C2318F
:084CEB0022128B6890054C2297
:108BCD001213B212340AE4FD90090EE0FCEDC39CC1
:108BDD00501C121505B50707EAB506037F012212D1
:108BED001505D39FEA9E40037F00220D80DA7F009A
:018BFD002255
:08798E008F3E8E3D8D3C8C3BC9
:107996008F448E438D428C4175400190090EE0FF65
:1079A600E540D39F5052AF44AE43AD42AC41128B3B
:1079B600CDEF7005E54014FF22E53FB4010B121828
:1079C600DF3402FDE43541801EE4FFFE7D02FCABA0
:1079D6003EAA3DA93CA83BC31234BF40141218DF8F
:1079E60034FEFDE54134FF8F448E438D42F54180E0
:0A79F600037FFF22054080A37F00FD
:017A00002263
:108417008F5C8E5B8D5A8C59E55C2560FFE55B357B
:108427005FFEE55A355EFDE559355D1213A112343D
:108437000AC004C005C006C0071213B2AF5CAE5B2A
:10844700AD5AAC5912340A1214C6D007D006D0055B
:0E845700D004C31234BF70037F01227F0022C5
:087F4C008F368E358D348C3325
:107F5400E4F53DFBFA7902F812340A8E3B8F3CE5D6
:107F640036253AFFE5353539FEE5343538FDE53358
:107F740035371213A112340AE4FD90090EE0FCED2A
:107F8400C39C501F121505FBD39FEA9E5015C3EBEB
:107F9400953CEA953B4009D3EB9FEA9E5002053D90
:057FA4000D80D7AF3D88
:017FA90022B5
:0C93440013292B2A212322191B1A1112B5
:103D580078107C057D017B017A0479D47E007F147C
:103D68001232479004CAE0F54F7B017A057910E4D6
:103D7800F538AD4F22E0FEA3E0FF7C037DE8123268
:103D8800F97F647E00CFCDCFCECCCE1232F9AD070D
:103D98002235F0FA7B0178417C057D017E007F0D9C
:103DA8000232477C277D10E0FEA3E0FF0232F9FDD6
:103DB8007C00129330E54E75F00A8422E55175F0C7
:103DC8000A84229004CE7D3CE0FEA3E0FF7C000242
:103DD80032F9E55875F00DA422E4751401F513F5D0
:103DE80012F51122900537F0900539E024FFF553BC
:103DF800900538E034FFF55222E5532401FFE435FD
:103E080052FE900538E0227D00900541E075F00DE6
:103E1800A4227410254FF582E43405F5832290031B
:103E28000FE075F00A8422900542E0254FFFE43345
:103E3800FE227B32FAF9F8AF14AE13AD12AC1102C0
:103E4800340AAE52AF537C277D100232F9D2389033
:103E5800089E74FFF022AFF09004C375F00AA42FF7
:103E6800F022900524E0FEA3E0FF7C00227F207B67
:103E7800017A0479A302359FD3E5539401E552945E
:103E880000221234F6900802123512C30234BF9091
:103E980004EAE0FF9004ECE0FD2213135401F54A14
:103EA8007D01FF22054FE54EFD7C007F0A2275F05B
:103EB8000AA4FF900541E02F22E014FF900541E09D
:103EC800FEC39F22752D00752E00752F4B227F078C
:103ED800FD7C00029330E53575F00A84ADF022C30D
:103EE800900539E094E1900538E0942E22D39005AE
:103EF80039E09401900538E0940022854B4AE54A60
:103F0800FD7C0022AF1CAE1BAD1AAC1922E4FB7D70
:103F1800047F1022F0E0900906F07F0822744525FE
:103F28004FF8A64B229552FE900537E0C39FE49EBA
:103F3800229FEE6480F8748098222550F55054F042
:103F4800131313541F22900524E0FCA3E0FD22E57F
:103F58005814900541F022E4900B3FF0900923F0AB
:103F6800A322C313F5827583000232869004EAEF18
:103F7800F09004ECEDF0229004D27401F022900944
:103F880001E0547FF07F0322E0FEA3E0FFD322F597
:103F98004E054FFD7C007F0A22054FE54F2408FFA0
:103FA8007D1522E54F2409FF7D1D7C00227B017DC4
:103FB800037F12228F56E5566401227D641232F97E
:103FC8007E007F0A22E5536401455222E4F545F557
:103FD80046F547F54822AF038F37E537C3940F22DC
:103FE800900530E4F0A3745AF0223EA801FC7D014C
:0F3FF80022900541E004F022900541741DF02253
:10195A0053D9BF75891174FF900923F0A3F0F54993
:10196A00E49004E9F090081EF0C21AC20FC233C212
:10197A0037128A62D2A975FEFFC21FE4900536F0BB
:10198A0030A00E128FAA75E24075E301127E8E8096
:10199A001D53D9BF12936775FD0343D94012917441
:1019AA0075E24075E301758E42C2181290AEE4F5F5
:1019BA00C875912843E680D2AFD2A8C212754CFFEF
:1019CA0075FEFF30A00520180280FE20A005301801
:1019DA000280FE900915123E8A600D90091D123E82
:1019EA008A600530180280FE30183D900498E0B4F1
:1019FA000117E55764176011E4FF128F3DE4900464
:101A0A0098F0755717D220801F900498E0B40213FB
:101A1A00E557B4170E203B0B7D077FFF1292DBD2EE
:101A2A003B8000E4900498F0900801E0FFD3940012
:101A3A005008900921E094004036301833EFB40181
:101A4A00141235CB900B42E0602614F0E07021901E
:101A5A000801F0801B900921E0FFB40204E4F08041
:101A6A000FEFB403028004EFB40405E4900921F0F7
:101A7A00201803021B63E51DD39401400E2012199E
:101A8A00D212E5577013129384800E30120BC212D1
:101A9A00E55770057F01128F3D1246FE90053CEF17
:101AAA00F064016008E064026003021B3FC23AE48A
:101ABA00FF7E02FDFC900919123E90401B90091905
:101ACA001234F6E42FFFEE34FEFEED34FFFDEC3463
:101ADA00FFFC90091912351E12680A90053CE0B401
:101AEA0002031292B9E557B418077F0112885B8086
:101AFA005AE5576414701A303102801B123EE740CF
:101B0A0002801412428B900925E4F0A37496F080A7
:101B1A003AE557640160077F01128F3D802DC22A82
:101B2A00123D717F011271CEE55030E20312428BF1
:101B3A00129124801690053CE0B4030F303A0CC28F
:101B4A003A7F01128F3DD228123F7F12400790053B
:101B5A003CEFF0BF010312625620A251200F4ED271
:101B6A0086301A34E557640A701E30111B128C60D5
:101B7A00123E55755701C210C211127BBAE5503098
:101B8A00E20312428B129124E557B41806755701E5
:101B9A00127BBA12806280132018051272658003C4
:101BAA00127DC7128062755701C210D20F30A2107F
:101BBA00300F0D201A08301805E4FF12885BC20F97
:101BCA00201803300F4D12598E8F49E54964017070
:101BDA004230A03F301A0F20A2051280628034E4FE
:101BEA00FF12885B802D303418E4FF128F3D123FBC
:101BFA00861292EB755701C234123D587F01127159
:101C0A00CE30A20AD284D293127DC7755701C21070
:101C1A00127B4FE549F4600312008E7549FF2018C4
:101C2A0003021FA9900923E07004A3E06446701C14
:101C3A00E557B4170F1277AD7F01128F3DC23BC231
:101C4A0039123F7F123F5F7447F0C286900923E042
:101C5A007004A3E064C870123010077F01128F3D30
:101C6A00C210123F5F74C9F0C28630391F90080E45
:101C7A00E0B40B18128F177B017A087914127917BE
:101C8A00123D717F011271CEC239D209E555540F46
:101C9A00FF900B3FE0FE6F702DEE602A12931874CE
:101CAA00FFFFFEFDFCAB10AA0FA90EA80DC312344C
:101CBA00BF6013E4FFFEFDFCA80DC31234BF60062B
:101CCA00203103128F879008AFE060031291E4E598
:101CDA0057700D30350A1290CC75E702C235D21B07
:101CEA00900925E07004A3E06496700D900925F030
:101CFA00A37497F0302502D22F303214E4FF128FEA
:101D0A003D127B4F7F707E17128DDA125FA1C232AD
:101D1A0030123030182D300A057F0A125DBBC20A14
:101D2A002020033009057F0B125DBBC220C2093097
:101D3A0014057F0C125DBBC2143028057F0D125D9D
:101D4A00BBC228900807123F90941AEE940F5003D2
:101D5A00021E1BEF94BEEE940F4003021E1B202AA4
:101D6A000C300B09E4FB7D027F1F128C90302D0F83
:101D7A00300B0C9004EAE0FF7D0F127D688025305D
:101D8A000D22300B1F123E97E4FB128C909004EA4E
:101D9A00E0B41B109004ECE0B40209E4FB7D037F7D
:101DAA0010128C90302665300B6290049AE0FEA3E4
:101DBA00E0FF7C277D10202E1C1232F9AD077F151B
:101DCA00127D687D1C7F16127D687D1C7F17127D2F
:101DDA00687D0F80301232F97E037FE8123D8D7FD5
:101DEA0015121FD3123D7D7F16121FD37C007D640E
:101DFA00123DAF7F0A123D8B7F17127D6890049ABD
:101E0A007D0A123DD07F18127D68C21EC20B021EC7
:101E1A00E0D3900808E094E2900807E0941D50038C
:101E2A00021EE0200B097B017D027F1F128C90208D
:101E3A001E07200B04B22ED21E302D0B200B0812C7
:101E4A003E97127D688025300D22200B1F123E9787
:101E5A007B01128C909004EAE0B41B109004ECE031
:101E6A00B402097B017D037F10128C90200B67302E
:101E7A0025629004CCE0FF64016004EFB4032A7B7E
:101E8A00207ABF79027800123E3F9004EBEFF0E42B
:101E9A00123E3AE47B107A0EF9F812340AAF039034
:101EAA0004CEEAF0A3EFF0802B9004CEE475F001A3
:101EBA0012334EC39004CFE094109004CEE0940EF7
:101ECA004012E4F0A3F09004EBE004F0E075F06453
:101EDA0084E5F0F0D20B302F47201C13E4FB7D037E
:101EEA00FF128C90123F15128C901291B9D21C904D
:101EFA0004EBE0FD7C007F04128DFD7D1C7F061241
:101F0A007D68123DCB7C007D3C1232F97F07128D31
:101F1A00FD7D1C7F09127D68123DCB7F0A128DFD63
:101F2A00301B077F021274A3C21B302B0312608D71
:101F3A0030220512608DC22230270C7F011274A351
:101F4A007F011274A3C227900923E07004A3E064FE
:101F5A00C6700A900923F0A374C7F0C219303E0A6A
:101F6A00303D031255DFC23DC23E301F329004D3CA
:101F7A00E0FF7011D39008A8E094709008A7E0944D
:101F8A0002401C80167E007C037D0D1232E7D3903E
:101F9A0008A8E09F9008A7E09E4004C21FC2A120A3
:101FAA0037030219CA9008A7123F909471EE94035E
:101FBA005011EF941EEE940050030219CA30180310
:091FCA000219CA127C900219CA26
:071FD300127D6890049A22C0
:10008E00201808AF49129223027CF99004CCE0B4F8
:10009E000110E549B41D0B7B01E41210FA7403F054
:1000AE00801A9004CCE0B40313E549641D6005E5A5
:1000BE0049B42D08E4FB1210FA7401F0E55712351D
:1000CE00790115000300010812020870030D9A044D
:1000DE000EB40505E40605E4070463080585090C5E
:1000EE005F0A0D0D0C0D4D0D07140E07610F08E282
:1000FE001008E21108E21208E2130B8F140BA4157C
:10010E000B601600000FB8E549B405243031030228
:10011E000FB8123EE74003020FB8C210E4FF12748C
:10012E00A31290AE9004D27402F0755714020CBB59
:10013E00E549642D701F123EF55003020FB8C21729
:10014E00C2101210B9700B123DEC7F011264101226
:10015E00773302033EE549B41716C21075570AC22B
:10016E000EC223C21D1210966003020FB8020C8B32
:10017E00E549B4200E121096700312923775570C83
:10018E00D21022E549B4180E1210A670031292A8CE
:10019E0075570DD21022E549B41E0E1210A670032B
:1001AE00128CC0755708D21022E549B41F101210D8
:1001BE00C070057F011275B3755709D21022E5493B
:1001CE00B4260E7557061210B97003128FCCD210CA
:1001DE0022E549B4280E7557071210C07003128F0E
:1001EE00CCD21022E549B416131211047008E55052
:1001FE00123EA212817275570ED21022E54964107A
:10020E00703775570FF54FC208D224C216C229FE99
:10021E00FD123E757F041210D97F081210D97D177A
:10022E007F06127D687D1B7F07127D687D177F0814
:10023E00127D68128465D21022E549B42F12121075
:10024E009D7007FF1275B3754D01C22475570222BA
:10025E00E549B4301112109D70061291F9754D01D9
:10026E00C22475570322E549B42713C21712110B86
:10027E007006120046754D01C22475570522E549D8
:10028E0064086012E5496403600CE5496402600687
:10029E00E549640D703FD210E549B4080575571055
:1002AE00801EE549B403057557118014E549B40263
:1002BE0005755712800AE549B40D05755713C2101E
:1002CE00E557B4130B12110B6003020FB802092E7F
:1002DE00C20C02092EE549642E6003020FB81211FA
:1002EE00047009E55013123EA2127636755704D2E9
:1002FE001022E549642D703C201A39123EF5500348
:10030E00020FB8C217D23478D47C047D017B017AF7
:10031E000579107E007F141232479004CAE54FF023
:10032E0012680AC22F7F01127AE3EF700312007671
:10033E0075571522E549642C600CE549B4050F90FC
:10034E0004A1E0B40208E55020E20302680AE54980
:10035E00640A7040303312900900E04409F0301AFC
:10036E0018900903749DF08010900900E054F6F087
:10037E00301A06900903749CF07F021292EB7F05EF
:10038E001292EBB233A233E433FB7D017F1A128C4F
:10039E009002045EE549B40E14301F0302045ED2CF
:1003AE001FD2A1E49008A7F0A3F002045EE549B4C1
:1003BE0015269004D0E0FF700302045E241D75F034
:1003CE001E84E5F075F00DA42404F9740035F0FADE
:1003DE007B01128B0102045E1210566062303403F0
:1003EE00020FB8AF4B127CF99004D2E07003020FEB
:1003FE00B8E55030E20312428B129124E54FB4144B
:10040E0022E4FF74112FF582E43405F583E0FE74C7
:10041E00102F123E1EEEF00FBF13E8900523E54B92
:10042E00F08008123E1AE54BF0054F123D71FF1297
:10043E0071CEE54FC394025003020FB8D20A22E5E3
:10044E0049B4050512428B8007E549B41002D2214A
:10045E007F01020B5DE549641E7003020EBFE54984
:10046E00B42C03020EBF300C0B120FCD6003020F23
:10047E00B8028CC0120FB97003020560E54F7030E0
:10048E00E54BC3940050030205E1E54BD3940240C3
:10049E00030205E1123DC4E54B123E5EF551054FD8
:1004AE001210E1123DC4E5F0FD7C007F0802052923
:1004BE00E54F6401702E123DC475F00AA4254BFF62
:1004CE009004C3F07418D39F5003020FB89004C366
:1004DE00E0F551054FE5511210E1123DBDFD7C00D6
:1004EE007F0A8037E54F64027037E54BC3940050A6
:1004FE00030205E1E54BD3940540030205E1123DED
:10050E00BDAFF0E54B9004A0123E63123F97128DE3
:10051E00FD123DBDE5F0FD7C007F0B129330020510
:10052E00E1E54F640360030205E1123DBD75F00A7B
:10053E00A4254BFF9004A0F0743CD39F5003020FF0
:10054E00B89004A0E0F54E123EAC128DFDC22D0205
:10055E0005E1E549B4251ED235E4F5E7AF4E12921A
:10056E005F90080FEFF0AF5112925F900810EFF00E
:10057E007F01128F3D805CE549641F6005E549B43B
:10058E002C03020EBF300C0D120FCD6003020FB8FC
:10059E007F010275B3120FB96009E4FDAF4B12541F
:1005AE00928030E5496425702AD235F5E7AF4E12B8
:1005BE00925F900811EFF0AF5112925F900812EF18
:1005CE00F090030FE0FF12925F900813EFF07F019F
:1005DE00128F3D028B35E549B42606E55764066059
:1005EE001BE549B42806E55764076010E549642CFD
:1005FE00600AE549B42508E554B40103020EBF3084
:10060E000C1FE557B406047F0180027F0212585E6C
:10061E008F56E55664016003020FB81210D0028F98
:10062E00CC120FD97003020FB8E554D394014003D6
:10063E00020FB8E5547003123F25E554B4010E7451
:10064E00C6254FF582E43404F583E54BF0123FA145
:10065E00127D68E54FC39404500302070E128F17E4
:10066E00E55470237554019004C6F0A3F0A3F0A3D3
:10067E00F07D167F05127D687D027F06127D681261
:10068E00001E7F010274A39004C6E0FF65457058FA
:10069E00A3E0FE65467051A3E0FD6547704AA3E0F6
:1006AE00FC65487043E557B40610900532EFF0A391
:1006BE00EEF0A3EDF0A3ECF08025E557B407209003
:1006CE0004C6E090052CF09004C7E090052DF09044
:1006DE0004C8E090052EF09004C9E090052FF012AA
